{
  "_format": "hh-sol-artifact-1",
  "contractName": "BadgeV2",
  "sourceName": "contracts/NFT/BadgeV2.sol",
  "abi": [
    {
      "inputs": [],
      "stateMutability": "nonpayable",
      "type": "constructor"
    },
    {
      "inputs": [
        {
          "internalType": "address",
          "name": "recipient",
          "type": "address"
        },
        {
          "internalType": "uint256",
          "name": "costs",
          "type": "uint256"
        },
        {
          "internalType": "uint256",
          "name": "value",
          "type": "uint256"
        }
      ],
      "name": "BadgeV1InsufficientFundsForMint",
      "type": "error"
    },
    {
      "inputs": [],
      "name": "BadgeV1InvalidBurnRegistry",
      "type": "error"
    },
    {
      "inputs": [],
      "name": "BadgeV1InvalidMintSignature",
      "type": "error"
    },
    {
      "inputs": [
        {
          "internalType": "int256",
          "name": "price",
          "type": "int256"
        }
      ],
      "name": "BadgeV1NegativeCosts",
      "type": "error"
    },
    {
      "inputs": [
        {
          "internalType": "address",
          "name": "recipient",
          "type": "address"
        },
        {
          "internalType": "uint256",
          "name": "totalSupply",
          "type": "uint256"
        },
        {
          "internalType": "uint256",
          "name": "maxTotalSupply",
          "type": "uint256"
        }
      ],
      "name": "BadgeV1NoTokenAvailable",
      "type": "error"
    },
    {
      "inputs": [
        {
          "internalType": "address",
          "name": "recipient",
          "type": "address"
        }
      ],
      "name": "BadgeV1TokenAlreadyMinted",
      "type": "error"
    },
    {
      "inputs": [
        {
          "internalType": "address",
          "name": "recipient",
          "type": "address"
        },
        {
          "internalType": "uint256",
          "name": "value",
          "type": "uint256"
        }
      ],
      "name": "BadgeV1TransferFailed",
      "type": "error"
    },
    {
      "inputs": [],
      "name": "BadgeV1TransferForbidden",
      "type": "error"
    },
    {
      "inputs": [],
      "name": "ECDSAInvalidSignature",
      "type": "error"
    },
    {
      "inputs": [
        {
          "internalType": "uint256",
          "name": "length",
          "type": "uint256"
        }
      ],
      "name": "ECDSAInvalidSignatureLength",
      "type": "error"
    },
    {
      "inputs": [
        {
          "internalType": "bytes32",
          "name": "s",
          "type": "bytes32"
        }
      ],
      "name": "ECDSAInvalidSignatureS",
      "type": "error"
    },
    {
      "inputs": [
        {
          "internalType": "address",
          "name": "sender",
          "type": "address"
        },
        {
          "internalType": "uint256",
          "name": "tokenId",
          "type": "uint256"
        },
        {
          "internalType": "address",
          "name": "owner",
          "type": "address"
        }
      ],
      "name": "ERC721IncorrectOwner",
      "type": "error"
    },
    {
      "inputs": [
        {
          "internalType": "address",
          "name": "operator",
          "type": "address"
        },
        {
          "internalType": "uint256",
          "name": "tokenId",
          "type": "uint256"
        }
      ],
      "name": "ERC721InsufficientApproval",
      "type": "error"
    },
    {
      "inputs": [
        {
          "internalType": "address",
          "name": "approver",
          "type": "address"
        }
      ],
      "name": "ERC721InvalidApprover",
      "type": "error"
    },
    {
      "inputs": [
        {
          "internalType": "address",
          "name": "operator",
          "type": "address"
        }
      ],
      "name": "ERC721InvalidOperator",
      "type": "error"
    },
    {
      "inputs": [
        {
          "internalType": "address",
          "name": "owner",
          "type": "address"
        }
      ],
      "name": "ERC721InvalidOwner",
      "type": "error"
    },
    {
      "inputs": [
        {
          "internalType": "address",
          "name": "receiver",
          "type": "address"
        }
      ],
      "name": "ERC721InvalidReceiver",
      "type": "error"
    },
    {
      "inputs": [
        {
          "internalType": "address",
          "name": "sender",
          "type": "address"
        }
      ],
      "name": "ERC721InvalidSender",
      "type": "error"
    },
    {
      "inputs": [
        {
          "internalType": "uint256",
          "name": "tokenId",
          "type": "uint256"
        }
      ],
      "name": "ERC721NonexistentToken",
      "type": "error"
    },
    {
      "inputs": [],
      "name": "InvalidInitialization",
      "type": "error"
    },
    {
      "inputs": [],
      "name": "NotInitializing",
      "type": "error"
    },
    {
      "inputs": [
        {
          "internalType": "address",
          "name": "owner",
          "type": "address"
        }
      ],
      "name": "OwnableInvalidOwner",
      "type": "error"
    },
    {
      "inputs": [
        {
          "internalType": "address",
          "name": "account",
          "type": "address"
        }
      ],
      "name": "OwnableUnauthorizedAccount",
      "type": "error"
    },
    {
      "inputs": [],
      "name": "ReentrancyGuardReentrantCall",
      "type": "error"
    },
    {
      "anonymous": false,
      "inputs": [
        {
          "indexed": true,
          "internalType": "address",
          "name": "owner",
          "type": "address"
        },
        {
          "indexed": true,
          "internalType": "address",
          "name": "approved",
          "type": "address"
        },
        {
          "indexed": true,
          "internalType": "uint256",
          "name": "tokenId",
          "type": "uint256"
        }
      ],
      "name": "Approval",
      "type": "event"
    },
    {
      "anonymous": false,
      "inputs": [
        {
          "indexed": true,
          "internalType": "address",
          "name": "owner",
          "type": "address"
        },
        {
          "indexed": true,
          "internalType": "address",
          "name": "operator",
          "type": "address"
        },
        {
          "indexed": false,
          "internalType": "bool",
          "name": "approved",
          "type": "bool"
        }
      ],
      "name": "ApprovalForAll",
      "type": "event"
    },
    {
      "anonymous": false,
      "inputs": [],
      "name": "BurnRegistryChanged",
      "type": "event"
    },
    {
      "anonymous": false,
      "inputs": [
        {
          "indexed": false,
          "internalType": "uint256",
          "name": "oldCosts",
          "type": "uint256"
        },
        {
          "indexed": false,
          "internalType": "uint256",
          "name": "newCosts",
          "type": "uint256"
        }
      ],
      "name": "CostsChanged",
      "type": "event"
    },
    {
      "anonymous": false,
      "inputs": [
        {
          "indexed": false,
          "internalType": "uint64",
          "name": "version",
          "type": "uint64"
        }
      ],
      "name": "Initialized",
      "type": "event"
    },
    {
      "anonymous": false,
      "inputs": [
        {
          "indexed": true,
          "internalType": "address",
          "name": "recipient",
          "type": "address"
        },
        {
          "indexed": false,
          "internalType": "uint256",
          "name": "tokenId",
          "type": "uint256"
        },
        {
          "indexed": false,
          "internalType": "uint256",
          "name": "costs",
          "type": "uint256"
        },
        {
          "indexed": false,
          "internalType": "string",
          "name": "referral",
          "type": "string"
        }
      ],
      "name": "Minted",
      "type": "event"
    },
    {
      "anonymous": false,
      "inputs": [
        {
          "indexed": true,
          "internalType": "address",
          "name": "previousOwner",
          "type": "address"
        },
        {
          "indexed": true,
          "internalType": "address",
          "name": "newOwner",
          "type": "address"
        }
      ],
      "name": "OwnershipTransferred",
      "type": "event"
    },
    {
      "anonymous": false,
      "inputs": [
        {
          "indexed": true,
          "internalType": "address",
          "name": "from",
          "type": "address"
        },
        {
          "indexed": true,
          "internalType": "address",
          "name": "to",
          "type": "address"
        },
        {
          "indexed": true,
          "internalType": "uint256",
          "name": "tokenId",
          "type": "uint256"
        }
      ],
      "name": "Transfer",
      "type": "event"
    },
    {
      "inputs": [
        {
          "internalType": "address",
          "name": "to",
          "type": "address"
        },
        {
          "internalType": "uint256",
          "name": "tokenId",
          "type": "uint256"
        }
      ],
      "name": "approve",
      "outputs": [],
      "stateMutability": "nonpayable",
      "type": "function"
    },
    {
      "inputs": [
        {
          "internalType": "address",
          "name": "owner",
          "type": "address"
        }
      ],
      "name": "balanceOf",
      "outputs": [
        {
          "internalType": "uint256",
          "name": "",
          "type": "uint256"
        }
      ],
      "stateMutability": "view",
      "type": "function"
    },
    {
      "inputs": [
        {
          "internalType": "uint256",
          "name": "tokenId",
          "type": "uint256"
        }
      ],
      "name": "burn",
      "outputs": [],
      "stateMutability": "nonpayable",
      "type": "function"
    },
    {
      "inputs": [],
      "name": "burnRegistry",
      "outputs": [
        {
          "internalType": "address",
          "name": "",
          "type": "address"
        }
      ],
      "stateMutability": "view",
      "type": "function"
    },
    {
      "inputs": [
        {
          "internalType": "address payable",
          "name": "__burnRegistry",
          "type": "address"
        }
      ],
      "name": "changeBurnRegistry",
      "outputs": [],
      "stateMutability": "nonpayable",
      "type": "function"
    },
    {
      "inputs": [
        {
          "internalType": "uint256",
          "name": "newCostsUSD",
          "type": "uint256"
        }
      ],
      "name": "changeCosts",
      "outputs": [],
      "stateMutability": "nonpayable",
      "type": "function"
    },
    {
      "inputs": [
        {
          "internalType": "uint256",
          "name": "totalSupply",
          "type": "uint256"
        }
      ],
      "name": "changeTotalSupply",
      "outputs": [],
      "stateMutability": "nonpayable",
      "type": "function"
    },
    {
      "inputs": [],
      "name": "costsETH",
      "outputs": [
        {
          "internalType": "uint256",
          "name": "",
          "type": "uint256"
        }
      ],
      "stateMutability": "view",
      "type": "function"
    },
    {
      "inputs": [],
      "name": "costsUSD",
      "outputs": [
        {
          "internalType": "uint256",
          "name": "",
          "type": "uint256"
        }
      ],
      "stateMutability": "view",
      "type": "function"
    },
    {
      "inputs": [
        {
          "internalType": "uint256",
          "name": "tokenId",
          "type": "uint256"
        }
      ],
      "name": "getApproved",
      "outputs": [
        {
          "internalType": "address",
          "name": "",
          "type": "address"
        }
      ],
      "stateMutability": "view",
      "type": "function"
    },
    {
      "inputs": [],
      "name": "id",
      "outputs": [
        {
          "internalType": "bytes32",
          "name": "",
          "type": "bytes32"
        }
      ],
      "stateMutability": "view",
      "type": "function"
    },
    {
      "inputs": [
        {
          "internalType": "bytes32",
          "name": "__id",
          "type": "bytes32"
        },
        {
          "internalType": "uint256",
          "name": "__maxTotalSupply",
          "type": "uint256"
        },
        {
          "internalType": "string",
          "name": "name",
          "type": "string"
        },
        {
          "internalType": "string",
          "name": "symbol",
          "type": "string"
        },
        {
          "internalType": "string",
          "name": "uri",
          "type": "string"
        },
        {
          "internalType": "uint256",
          "name": "__costsUSD",
          "type": "uint256"
        },
        {
          "internalType": "address",
          "name": "__signer",
          "type": "address"
        },
        {
          "internalType": "address",
          "name": "__priceFeed",
          "type": "address"
        },
        {
          "internalType": "address",
          "name": "__vault",
          "type": "address"
        },
        {
          "internalType": "address payable",
          "name": "__burnRegistry",
          "type": "address"
        }
      ],
      "name": "initialize",
      "outputs": [],
      "stateMutability": "nonpayable",
      "type": "function"
    },
    {
      "inputs": [
        {
          "internalType": "address",
          "name": "owner",
          "type": "address"
        },
        {
          "internalType": "address",
          "name": "operator",
          "type": "address"
        }
      ],
      "name": "isApprovedForAll",
      "outputs": [
        {
          "internalType": "bool",
          "name": "",
          "type": "bool"
        }
      ],
      "stateMutability": "view",
      "type": "function"
    },
    {
      "inputs": [],
      "name": "maxTotalSupply",
      "outputs": [
        {
          "internalType": "uint256",
          "name": "",
          "type": "uint256"
        }
      ],
      "stateMutability": "view",
      "type": "function"
    },
    {
      "inputs": [
        {
          "components": [
            {
              "internalType": "bytes32",
              "name": "id",
              "type": "bytes32"
            },
            {
              "internalType": "address",
              "name": "recipient",
              "type": "address"
            },
            {
              "internalType": "string",
              "name": "referral",
              "type": "string"
            },
            {
              "internalType": "bytes",
              "name": "signature",
              "type": "bytes"
            }
          ],
          "internalType": "struct BadgeV1.MintPayload",
          "name": "payload",
          "type": "tuple"
        }
      ],
      "name": "mint",
      "outputs": [],
      "stateMutability": "payable",
      "type": "function"
    },
    {
      "inputs": [
        {
          "components": [
            {
              "internalType": "bytes32",
              "name": "id",
              "type": "bytes32"
            },
            {
              "internalType": "address",
              "name": "recipient",
              "type": "address"
            },
            {
              "internalType": "uint256",
              "name": "tokenId",
              "type": "uint256"
            },
            {
              "internalType": "uint256",
              "name": "costs",
              "type": "uint256"
            },
            {
              "internalType": "string",
              "name": "referral",
              "type": "string"
            },
            {
              "internalType": "bytes",
              "name": "signature",
              "type": "bytes"
            }
          ],
          "internalType": "struct BadgeV1.MintForPayload[]",
          "name": "payloads",
          "type": "tuple[]"
        }
      ],
      "name": "mintForBulk",
      "outputs": [],
      "stateMutability": "nonpayable",
      "type": "function"
    },
    {
      "inputs": [],
      "name": "name",
      "outputs": [
        {
          "internalType": "string",
          "name": "",
          "type": "string"
        }
      ],
      "stateMutability": "view",
      "type": "function"
    },
    {
      "inputs": [],
      "name": "owner",
      "outputs": [
        {
          "internalType": "address",
          "name": "",
          "type": "address"
        }
      ],
      "stateMutability": "view",
      "type": "function"
    },
    {
      "inputs": [
        {
          "internalType": "uint256",
          "name": "tokenId",
          "type": "uint256"
        }
      ],
      "name": "ownerOf",
      "outputs": [
        {
          "internalType": "address",
          "name": "",
          "type": "address"
        }
      ],
      "stateMutability": "view",
      "type": "function"
    },
    {
      "inputs": [],
      "name": "priceFeed",
      "outputs": [
        {
          "internalType": "address",
          "name": "",
          "type": "address"
        }
      ],
      "stateMutability": "view",
      "type": "function"
    },
    {
      "inputs": [],
      "name": "renounceOwnership",
      "outputs": [],
      "stateMutability": "nonpayable",
      "type": "function"
    },
    {
      "inputs": [
        {
          "internalType": "address",
          "name": "from",
          "type": "address"
        },
        {
          "internalType": "address",
          "name": "to",
          "type": "address"
        },
        {
          "internalType": "uint256",
          "name": "tokenId",
          "type": "uint256"
        }
      ],
      "name": "safeTransferFrom",
      "outputs": [],
      "stateMutability": "nonpayable",
      "type": "function"
    },
    {
      "inputs": [
        {
          "internalType": "address",
          "name": "from",
          "type": "address"
        },
        {
          "internalType": "address",
          "name": "to",
          "type": "address"
        },
        {
          "internalType": "uint256",
          "name": "tokenId",
          "type": "uint256"
        },
        {
          "internalType": "bytes",
          "name": "data",
          "type": "bytes"
        }
      ],
      "name": "safeTransferFrom",
      "outputs": [],
      "stateMutability": "nonpayable",
      "type": "function"
    },
    {
      "inputs": [
        {
          "internalType": "address",
          "name": "operator",
          "type": "address"
        },
        {
          "internalType": "bool",
          "name": "approved",
          "type": "bool"
        }
      ],
      "name": "setApprovalForAll",
      "outputs": [],
      "stateMutability": "nonpayable",
      "type": "function"
    },
    {
      "inputs": [],
      "name": "signer",
      "outputs": [
        {
          "internalType": "address",
          "name": "",
          "type": "address"
        }
      ],
      "stateMutability": "view",
      "type": "function"
    },
    {
      "inputs": [
        {
          "internalType": "bytes4",
          "name": "interfaceId",
          "type": "bytes4"
        }
      ],
      "name": "supportsInterface",
      "outputs": [
        {
          "internalType": "bool",
          "name": "",
          "type": "bool"
        }
      ],
      "stateMutability": "view",
      "type": "function"
    },
    {
      "inputs": [],
      "name": "symbol",
      "outputs": [
        {
          "internalType": "string",
          "name": "",
          "type": "string"
        }
      ],
      "stateMutability": "view",
      "type": "function"
    },
    {
      "inputs": [
        {
          "internalType": "uint256",
          "name": "tokenId",
          "type": "uint256"
        }
      ],
      "name": "tokenURI",
      "outputs": [
        {
          "internalType": "string",
          "name": "",
          "type": "string"
        }
      ],
      "stateMutability": "view",
      "type": "function"
    },
    {
      "inputs": [],
      "name": "totalSupply",
      "outputs": [
        {
          "internalType": "uint256",
          "name": "",
          "type": "uint256"
        }
      ],
      "stateMutability": "view",
      "type": "function"
    },
    {
      "inputs": [
        {
          "internalType": "address",
          "name": "",
          "type": "address"
        },
        {
          "internalType": "address",
          "name": "",
          "type": "address"
        },
        {
          "internalType": "uint256",
          "name": "",
          "type": "uint256"
        }
      ],
      "name": "transferFrom",
      "outputs": [],
      "stateMutability": "nonpayable",
      "type": "function"
    },
    {
      "inputs": [
        {
          "internalType": "address",
          "name": "newOwner",
          "type": "address"
        }
      ],
      "name": "transferOwnership",
      "outputs": [],
      "stateMutability": "nonpayable",
      "type": "function"
    },
    {
      "inputs": [],
      "name": "vault",
      "outputs": [
        {
          "internalType": "address",
          "name": "",
          "type": "address"
        }
      ],
      "stateMutability": "view",
      "type": "function"
    }
  ],
  "bytecode": "0x60806040523480156200001157600080fd5b506200001c6200002c565b620000266200002c565b620000e0565b7ff0c57e16840df040f15088dc2f81fe391c3923bec73e23a9662efc9c229c6a00805468010000000000000000900460ff16156200007d5760405163f92ee8a960e01b815260040160405180910390fd5b80546001600160401b0390811614620000dd5780546001600160401b0319166001600160401b0390811782556040519081527fc7f505b2f371ae2175ee4913f4499e1f2633a7b5936321eed1cdaeb6115181d29060200160405180910390a15b50565b6129f480620000f06000396000f3fe6080604052600436106101e35760003560e01c80637c421a7911610102578063b88d4fde11610095578063e985e9c511610064578063e985e9c51461056b578063f2fde38b1461058b578063f800f228146105ab578063fbfa77cf146105c057600080fd5b8063b88d4fde146104eb578063bec6e63d1461050b578063c87b56dd1461052b578063cf59aa6c1461054b57600080fd5b80639a12cb1e116100d15780639a12cb1e14610478578063a22cb46514610498578063ae0b662c146104b8578063af640d0f146104d657600080fd5b80637c421a79146103f357806387ca93ce146104135780638da5cb5b1461042657806395d89b411461046357600080fd5b806342842e0e1161017a5780636574ef86116101495780636574ef861461038b57806370a08231146103a0578063715018a6146103c0578063741bef1a146103d557600080fd5b806342842e0e1461030b57806342966c681461032b57806352e973261461034b5780636352211e1461036b57600080fd5b806318160ddd116101b657806318160ddd14610299578063238ac933146102b857806323b872dd146102d65780632ab4d052146102f657600080fd5b806301ffc9a7146101e857806306fdde031461021d578063081812fc1461023f578063095ea7b314610277575b600080fd5b3480156101f457600080fd5b50610208610203366004611ea8565b6105de565b60405190151581526020015b60405180910390f35b34801561022957600080fd5b50610232610630565b6040516102149190611f15565b34801561024b57600080fd5b5061025f61025a366004611f28565b6106d4565b6040516001600160a01b039091168152602001610214565b34801561028357600080fd5b50610297610292366004611f66565b6106e9565b005b3480156102a557600080fd5b506002545b604051908152602001610214565b3480156102c457600080fd5b506005546001600160a01b031661025f565b3480156102e257600080fd5b506102976102f1366004611f92565b6106f8565b34801561030257600080fd5b506003546102aa565b34801561031757600080fd5b50610297610326366004611f92565b610711565b34801561033757600080fd5b50610297610346366004611f28565b610731565b34801561035757600080fd5b50610297610366366004611f28565b61081e565b34801561037757600080fd5b5061025f610386366004611f28565b61082b565b34801561039757600080fd5b506102aa610836565b3480156103ac57600080fd5b506102aa6103bb366004611fd3565b610973565b3480156103cc57600080fd5b506102976109cf565b3480156103e157600080fd5b506006546001600160a01b031661025f565b3480156103ff57600080fd5b5061029761040e3660046120f3565b6109e3565b6102976104213660046121dd565b610b74565b34801561043257600080fd5b507f9016d09d72d40fdae2fd8ceac6b6234c7706214fd39c1cd1e609a0528c199300546001600160a01b031661025f565b34801561046f57600080fd5b50610232610ed2565b34801561048457600080fd5b50610297610493366004611f28565b610f11565b3480156104a457600080fd5b506102976104b336600461228b565b610f5e565b3480156104c457600080fd5b506008546001600160a01b031661025f565b3480156104e257600080fd5b506000546102aa565b3480156104f757600080fd5b506102976105063660046122c9565b610f69565b34801561051757600080fd5b50610297610526366004612335565b610f86565b34801561053757600080fd5b50610232610546366004611f28565b611134565b34801561055757600080fd5b50610297610566366004611fd3565b61119c565b34801561057757600080fd5b50610208610586366004612485565b6111eb565b34801561059757600080fd5b506102976105a6366004611fd3565b611238565b3480156105b757600080fd5b506004546102aa565b3480156105cc57600080fd5b506007546001600160a01b031661025f565b60006001600160e01b031982166380ac58cd60e01b148061060f57506001600160e01b03198216635b5e139f60e01b145b8061062a57506301ffc9a760e01b6001600160e01b03198316145b92915050565b60008051602061297f8339815191528054606091908190610650906124b3565b80601f016020809104026020016040519081016040528092919081815260200182805461067c906124b3565b80156106c95780601f1061069e576101008083540402835291602001916106c9565b820191906000526020600020905b8154815290600101906020018083116106ac57829003601f168201915b505050505091505090565b60006106df82611273565b5061062a826112ab565b6106f48282336112e5565b5050565b6040516303e8bf2760e21b815260040160405180910390fd5b61072c83838360405180602001604052806000815250610f69565b505050565b6107396112f2565b6008546001600160a01b03166107625760405163035a342360e31b815260040160405180910390fd5b338061076d8361082b565b6001600160a01b031614610794576040516303e8bf2760e21b815260040160405180910390fd5b61079d8261132a565b600854604051632770a7eb60e21b81526001600160a01b0383811660048301526024820185905290911690639dc29fac90604401600060405180830381600087803b1580156107eb57600080fd5b505af11580156107ff573d6000803e3d6000fd5b505050505061081b600160008051602061299f83398151915255565b50565b610826611379565b600255565b600061062a82611273565b600080600660009054906101000a90046001600160a01b03166001600160a01b031663feaf968c6040518163ffffffff1660e01b815260040160a060405180830381865afa15801561088c573d6000803e3d6000fd5b505050506040513d601f19601f820116820180604052508101906108b09190612507565b505050915050600081136108de576040516249320b60e51b8152600481018290526024015b60405180910390fd5b6006546040805163313ce56760e01b8152905183926001600160a01b03169163313ce5679160048083019260209291908290030181865afa158015610927573d6000803e3d6000fd5b505050506040513d601f19601f8201168201806040525081019061094b9190612557565b61095690600a612674565b6004546109639190612683565b61096d919061269a565b91505090565b600060008051602061297f8339815191526001600160a01b0383166109ae576040516322718ad960e21b8152600060048201526024016108d5565b6001600160a01b039092166000908152600390920160205250604090205490565b6109d7611379565b6109e160006113d4565b565b7ff0c57e16840df040f15088dc2f81fe391c3923bec73e23a9662efc9c229c6a008054600160401b810460ff16159067ffffffffffffffff16600081158015610a295750825b905060008267ffffffffffffffff166001148015610a465750303b155b905081158015610a54575080155b15610a725760405163f92ee8a960e01b815260040160405180910390fd5b845467ffffffffffffffff191660011785558315610a9c57845460ff60401b1916600160401b1785555b610aa68d8d611445565b610aaf33611457565b610ab7611468565b60008f905560038e90556001610acd8c8261270a565b5060048a9055600580546001600160a01b03808c166001600160a01b031992831617909255600680548b8416908316179055600780548a841690831617905560088054928916929091169190911790558315610b6357845460ff60401b19168555604051600181527fc7f505b2f371ae2175ee4913f4499e1f2633a7b5936321eed1cdaeb6115181d29060200160405180910390a15b505050505050505050505050505050565b610b7c6112f2565b6000816000015182602001518360400151604051602001610b9f939291906127ca565b604051602081830303815290604052805190602001209050600054826000015114610bdd57604051636b4d22d160e01b815260040160405180910390fd5b60055460608301517f19457468657265756d205369676e6564204d6573736167653a0a3332000000006000908152601c849052603c90206001600160a01b0390921691610c2c91905b90611478565b6001600160a01b031614610c5357604051636b4d22d160e01b815260040160405180910390fd5b602082015160035415801590610c6d575060035460025410155b15610ca95760025460035460405163c40ebc5760e01b81526001600160a01b0384166004820152602481019290925260448201526064016108d5565b6000610cb482610973565b1115610cde5760405163125fb62b60e11b81526001600160a01b03821660048201526024016108d5565b6000610ce8610836565b905080341015610d23576040516366b4250560e01b81526001600160a01b0383166004820152602481018290523460448201526064016108d5565b6007546040516000916001600160a01b03169083908381818185875af1925050503d8060008114610d70576040519150601f19603f3d011682016040523d82523d6000602084013e610d75565b606091505b5050905080610dad576007546040516307d8c52160e01b81526001600160a01b039091166004820152602481018390526044016108d5565b81341115610e4c576000610dc18334612809565b90506000846001600160a01b03168260405160006040518083038185875af1925050503d8060008114610e10576040519150601f19603f3d011682016040523d82523d6000602084013e610e15565b606091505b5050905080610e49576040516307d8c52160e01b81526001600160a01b0386166004820152602481018390526044016108d5565b50505b6002805460009182610e5d8361281c565b919050559050610e6d84826114a2565b836001600160a01b03167ff2cb5e52049d127ad1c335f1cc25f2fdbc911bec1beb2611f4c1e8b1c274d4b482858960400151604051610eae93929190612835565b60405180910390a2505050505061081b600160008051602061299f83398151915255565b7f80bb2b638cc20bc4d0a60d66940f3ab4a00c1d7b313497ca82fb0b4ab0079301805460609160008051602061297f83398151915291610650906124b3565b610f19611379565b600480549082905560408051828152602081018490527f2679f06bd6ac5b0498704c9232cd7f20206df1261540db52c85327dc0cf6d333910160405180910390a15050565b6106f43383836114bc565b610f748484846106f8565b610f808484848461156d565b50505050565b60005b81518160ff1610156106f4576000828260ff1681518110610fac57610fac61285d565b60200260200101519050600081600001518260200151836040015184606001518560800151604051602001610fe5959493929190612873565b60405160208183030381529060405280519060200120905060005482600001511461102357604051636b4d22d160e01b815260040160405180910390fd5b60055460a08301517f19457468657265756d205369676e6564204d6573736167653a0a3332000000006000908152601c849052603c90206001600160a01b03909216916110709190610c26565b6001600160a01b03161461109757604051636b4d22d160e01b815260040160405180910390fd5b6110a9826020015183604001516114a2565b8160400151600254106110be576002546110c4565b81604001515b60028190555081602001516001600160a01b03167ff2cb5e52049d127ad1c335f1cc25f2fdbc911bec1beb2611f4c1e8b1c274d4b483604001518460600151856080015160405161111793929190612835565b60405180910390a25050808061112c906128c0565b915050610f89565b606061113f82611273565b50600061114a611696565b9050600081511161116a5760405180602001604052806000815250611195565b8061117484611728565b6040516020016111859291906128df565b6040516020818303038152906040525b9392505050565b6111a4611379565b600880546001600160a01b0319166001600160a01b0383161790556040517fb3f10144b03fe28f0861c425a4ea038671a29ded574f7eece0676b14d04e20b090600090a150565b6001600160a01b0391821660009081527f80bb2b638cc20bc4d0a60d66940f3ab4a00c1d7b313497ca82fb0b4ab00793056020908152604080832093909416825291909152205460ff1690565b611240611379565b6001600160a01b03811661126a57604051631e4fbdf760e01b8152600060048201526024016108d5565b61081b816113d4565b60008061127f836117bb565b90506001600160a01b03811661062a57604051637e27328960e01b8152600481018490526024016108d5565b60009081527f80bb2b638cc20bc4d0a60d66940f3ab4a00c1d7b313497ca82fb0b4ab007930460205260409020546001600160a01b031690565b61072c83838360016117f5565b60008051602061299f83398151915280546001190161132457604051633ee5aeb560e01b815260040160405180910390fd5b60029055565b6000611339600083600061190b565b90506001600160a01b0381166106f457604051637e27328960e01b8152600481018390526024016108d5565b600160008051602061299f83398151915255565b336113ab7f9016d09d72d40fdae2fd8ceac6b6234c7706214fd39c1cd1e609a0528c199300546001600160a01b031690565b6001600160a01b0316146109e15760405163118cdaa760e01b81523360048201526024016108d5565b7f9016d09d72d40fdae2fd8ceac6b6234c7706214fd39c1cd1e609a0528c19930080546001600160a01b031981166001600160a01b03848116918217845560405192169182907f8be0079c531659141344cd1fd0a4f28419497f9722a3daafe3b4186f6b6457e090600090a3505050565b61144d611a15565b6106f48282611a5e565b61145f611a15565b61081b81611a8f565b611470611a15565b6109e1611a97565b6000806000806114888686611a9f565b9250925092506114988282611aec565b5090949350505050565b6106f4828260405180602001604052806000815250611ba5565b60008051602061297f8339815191526001600160a01b0383166114fd57604051630b61174360e31b81526001600160a01b03841660048201526024016108d5565b6001600160a01b038481166000818152600584016020908152604080832094881680845294825291829020805460ff191687151590811790915591519182527f17307eab39ab6107e8899845ad3d59bd9653f200f220920489ca2b5937696c31910160405180910390a350505050565b6001600160a01b0383163b15610f8057604051630a85bd0160e11b81526001600160a01b0384169063150b7a02906115af90339088908790879060040161290e565b6020604051808303816000875af19250505080156115ea575060408051601f3d908101601f191682019092526115e79181019061294b565b60015b611653573d808015611618576040519150601f19603f3d011682016040523d82523d6000602084013e61161d565b606091505b50805160000361164b57604051633250574960e11b81526001600160a01b03851660048201526024016108d5565b805181602001fd5b6001600160e01b03198116630a85bd0160e11b1461168f57604051633250574960e11b81526001600160a01b03851660048201526024016108d5565b5050505050565b6060600180546116a5906124b3565b80601f01602080910402602001604051908101604052809291908181526020018280546116d1906124b3565b801561171e5780601f106116f35761010080835404028352916020019161171e565b820191906000526020600020905b81548152906001019060200180831161170157829003601f168201915b5050505050905090565b6060600061173583611bbc565b600101905060008167ffffffffffffffff81111561175557611755611ff0565b6040519080825280601f01601f19166020018201604052801561177f576020820181803683370190505b5090508181016020015b600019016f181899199a1a9b1b9c1cb0b131b232b360811b600a86061a8153600a850494508461178957509392505050565b60009081527f80bb2b638cc20bc4d0a60d66940f3ab4a00c1d7b313497ca82fb0b4ab007930260205260409020546001600160a01b031690565b60008051602061297f833981519152818061181857506001600160a01b03831615155b156118da57600061182885611273565b90506001600160a01b038416158015906118545750836001600160a01b0316816001600160a01b031614155b8015611867575061186581856111eb565b155b156118905760405163a9fbf51f60e01b81526001600160a01b03851660048201526024016108d5565b82156118d85784866001600160a01b0316826001600160a01b03167f8c5be1e5ebec7d5bd14f71427d1e84f3dd0314c0f7b2291e5b200ac8c7c3b92560405160405180910390a45b505b600093845260040160205250506040902080546001600160a01b0319166001600160a01b0392909216919091179055565b600060008051602061297f83398151915281611926856117bb565b90506001600160a01b0384161561194257611942818587611c94565b6001600160a01b038116156119825761195f6000866000806117f5565b6001600160a01b0381166000908152600383016020526040902080546000190190555b6001600160a01b038616156119b3576001600160a01b03861660009081526003830160205260409020805460010190555b600085815260028301602052604080822080546001600160a01b0319166001600160a01b038a811691821790925591518893918516917fddf252ad1be2c89b69c2b068fc378daa952ba7f163c4a11628f55a4df523b3ef91a495945050505050565b7ff0c57e16840df040f15088dc2f81fe391c3923bec73e23a9662efc9c229c6a0054600160401b900460ff166109e157604051631afcd79f60e31b815260040160405180910390fd5b611a66611a15565b60008051602061297f83398151915280611a80848261270a565b5060018101610f80838261270a565b611240611a15565b611365611a15565b60008060008351604103611ad95760208401516040850151606086015160001a611acb88828585611cf8565b955095509550505050611ae5565b50508151600091506002905b9250925092565b6000826003811115611b0057611b00612968565b03611b09575050565b6001826003811115611b1d57611b1d612968565b03611b3b5760405163f645eedf60e01b815260040160405180910390fd5b6002826003811115611b4f57611b4f612968565b03611b705760405163fce698f760e01b8152600481018290526024016108d5565b6003826003811115611b8457611b84612968565b036106f4576040516335e2f38360e21b8152600481018290526024016108d5565b611baf8383611dc7565b61072c600084848461156d565b60008072184f03e93ff9f4daa797ed6e38ed64bf6a1f0160401b8310611bfb5772184f03e93ff9f4daa797ed6e38ed64bf6a1f0160401b830492506040015b6d04ee2d6d415b85acef81000000008310611c27576d04ee2d6d415b85acef8100000000830492506020015b662386f26fc100008310611c4557662386f26fc10000830492506010015b6305f5e1008310611c5d576305f5e100830492506008015b6127108310611c7157612710830492506004015b60648310611c83576064830492506002015b600a831061062a5760010192915050565b611c9f838383611e2c565b61072c576001600160a01b038316611ccd57604051637e27328960e01b8152600481018290526024016108d5565b60405163177e802f60e01b81526001600160a01b0383166004820152602481018290526044016108d5565b600080807f7fffffffffffffffffffffffffffffff5d576e7357a4501ddfe92f46681b20a0841115611d335750600091506003905082611dbd565b604080516000808252602082018084528a905260ff891692820192909252606081018790526080810186905260019060a0016020604051602081039080840390855afa158015611d87573d6000803e3d6000fd5b5050604051601f1901519150506001600160a01b038116611db357506000925060019150829050611dbd565b9250600091508190505b9450945094915050565b6001600160a01b038216611df157604051633250574960e11b8152600060048201526024016108d5565b6000611dff8383600061190b565b90506001600160a01b0381161561072c576040516339e3563760e11b8152600060048201526024016108d5565b60006001600160a01b03831615801590611e8a5750826001600160a01b0316846001600160a01b03161480611e665750611e6684846111eb565b80611e8a5750826001600160a01b0316611e7f836112ab565b6001600160a01b0316145b949350505050565b6001600160e01b03198116811461081b57600080fd5b600060208284031215611eba57600080fd5b813561119581611e92565b60005b83811015611ee0578181015183820152602001611ec8565b50506000910152565b60008151808452611f01816020860160208601611ec5565b601f01601f19169290920160200192915050565b6020815260006111956020830184611ee9565b600060208284031215611f3a57600080fd5b5035919050565b6001600160a01b038116811461081b57600080fd5b8035611f6181611f41565b919050565b60008060408385031215611f7957600080fd5b8235611f8481611f41565b946020939093013593505050565b600080600060608486031215611fa757600080fd5b8335611fb281611f41565b92506020840135611fc281611f41565b929592945050506040919091013590565b600060208284031215611fe557600080fd5b813561119581611f41565b634e487b7160e01b600052604160045260246000fd5b6040516080810167ffffffffffffffff8111828210171561202957612029611ff0565b60405290565b60405160c0810167ffffffffffffffff8111828210171561202957612029611ff0565b604051601f8201601f1916810167ffffffffffffffff8111828210171561207b5761207b611ff0565b604052919050565b600082601f83011261209457600080fd5b813567ffffffffffffffff8111156120ae576120ae611ff0565b6120c1601f8201601f1916602001612052565b8181528460208386010111156120d657600080fd5b816020850160208301376000918101602001919091529392505050565b6000806000806000806000806000806101408b8d03121561211357600080fd5b8a35995060208b0135985060408b013567ffffffffffffffff8082111561213957600080fd5b6121458e838f01612083565b995060608d013591508082111561215b57600080fd5b6121678e838f01612083565b985060808d013591508082111561217d57600080fd5b5061218a8d828e01612083565b96505060a08b013594506121a060c08c01611f56565b93506121ae60e08c01611f56565b92506121bd6101008c01611f56565b91506121cc6101208c01611f56565b90509295989b9194979a5092959850565b6000602082840312156121ef57600080fd5b813567ffffffffffffffff8082111561220757600080fd5b908301906080828603121561221b57600080fd5b612223612006565b82358152602083013561223581611f41565b602082015260408301358281111561224c57600080fd5b61225887828601612083565b60408301525060608301358281111561227057600080fd5b61227c87828601612083565b60608301525095945050505050565b6000806040838503121561229e57600080fd5b82356122a981611f41565b9150602083013580151581146122be57600080fd5b809150509250929050565b600080600080608085870312156122df57600080fd5b84356122ea81611f41565b935060208501356122fa81611f41565b925060408501359150606085013567ffffffffffffffff81111561231d57600080fd5b61232987828801612083565b91505092959194509250565b6000602080838503121561234857600080fd5b823567ffffffffffffffff8082111561236057600080fd5b818501915085601f83011261237457600080fd5b81358181111561238657612386611ff0565b8060051b612395858201612052565b91825283810185019185810190898411156123af57600080fd5b86860192505b83831015612478578235858111156123cc57600080fd5b860160c0818c03601f190112156123e35760008081fd5b6123eb61202f565b88820135815260406123fe818401611f56565b8a830152606080840135828401526080915081840135818401525060a0808401358981111561242d5760008081fd5b61243b8f8d83880101612083565b838501525060c08401359150888211156124555760008081fd5b6124638e8c84870101612083565b908301525083525091860191908601906123b5565b9998505050505050505050565b6000806040838503121561249857600080fd5b82356124a381611f41565b915060208301356122be81611f41565b600181811c908216806124c757607f821691505b6020821081036124e757634e487b7160e01b600052602260045260246000fd5b50919050565b805169ffffffffffffffffffff81168114611f6157600080fd5b600080600080600060a0868803121561251f57600080fd5b612528866124ed565b945060208601519350604086015192506060860151915061254b608087016124ed565b90509295509295909350565b60006020828403121561256957600080fd5b815160ff8116811461119557600080fd5b634e487b7160e01b600052601160045260246000fd5b600181815b808511156125cb5781600019048211156125b1576125b161257a565b808516156125be57918102915b93841c9390800290612595565b509250929050565b6000826125e25750600161062a565b816125ef5750600061062a565b8160018114612605576002811461260f5761262b565b600191505061062a565b60ff8411156126205761262061257a565b50506001821b61062a565b5060208310610133831016604e8410600b841016171561264e575081810a61062a565b6126588383612590565b806000190482111561266c5761266c61257a565b029392505050565b600061119560ff8416836125d3565b808202811582820484141761062a5761062a61257a565b6000826126b757634e487b7160e01b600052601260045260246000fd5b500490565b601f82111561072c57600081815260208120601f850160051c810160208610156126e35750805b601f850160051c820191505b81811015612702578281556001016126ef565b505050505050565b815167ffffffffffffffff81111561272457612724611ff0565b6127388161273284546124b3565b846126bc565b602080601f83116001811461276d57600084156127555750858301515b600019600386901b1c1916600185901b178555612702565b600085815260208120601f198616915b8281101561279c5788860151825594840194600190910190840161277d565b50858210156127ba5787850151600019600388901b60f8161c191681555b5050505050600190811b01905550565b8381526bffffffffffffffffffffffff198360601b166020820152600082516127fa816034850160208701611ec5565b91909101603401949350505050565b8181038181111561062a5761062a61257a565b60006001820161282e5761282e61257a565b5060010190565b8381528260208201526060604082015260006128546060830184611ee9565b95945050505050565b634e487b7160e01b600052603260045260246000fd5b8581526bffffffffffffffffffffffff198560601b166020820152836034820152826054820152600082516128af816074850160208701611ec5565b919091016074019695505050505050565b600060ff821660ff81036128d6576128d661257a565b60010192915050565b600083516128f1818460208801611ec5565b835190830190612905818360208801611ec5565b01949350505050565b6001600160a01b038581168252841660208201526040810183905260806060820181905260009061294190830184611ee9565b9695505050505050565b60006020828403121561295d57600080fd5b815161119581611e92565b634e487b7160e01b600052602160045260246000fdfe80bb2b638cc20bc4d0a60d66940f3ab4a00c1d7b313497ca82fb0b4ab00793009b779b17422d0df92223018b32b4d1fa46e071723d6817e2486d003becc55f00a264697066735822122017a27138d640546e73d5d72b91ced4d62348bd42aeaed05ec9665d361b56086e64736f6c63430008140033",
  "linkReferences": {},
  "deployedLinkReferences": {}
}