{
  "_format": "hh-sol-artifact-1",
  "contractName": "VaultV2",
  "sourceName": "contracts/vault/VaultV2.sol",
  "abi": [
    {
      "inputs": [],
      "stateMutability": "nonpayable",
      "type": "constructor"
    },
    {
      "inputs": [
        {
          "internalType": "address",
          "name": "target",
          "type": "address"
        }
      ],
      "name": "AddressEmptyCode",
      "type": "error"
    },
    {
      "inputs": [
        {
          "internalType": "address",
          "name": "account",
          "type": "address"
        }
      ],
      "name": "AddressInsufficientBalance",
      "type": "error"
    },
    {
      "inputs": [],
      "name": "EnforcedPause",
      "type": "error"
    },
    {
      "inputs": [],
      "name": "ExpectedPause",
      "type": "error"
    },
    {
      "inputs": [],
      "name": "FailedInnerCall",
      "type": "error"
    },
    {
      "inputs": [],
      "name": "Forbidden",
      "type": "error"
    },
    {
      "inputs": [],
      "name": "InvalidInitialization",
      "type": "error"
    },
    {
      "inputs": [],
      "name": "NotInitializing",
      "type": "error"
    },
    {
      "inputs": [
        {
          "internalType": "address",
          "name": "owner",
          "type": "address"
        }
      ],
      "name": "OwnableInvalidOwner",
      "type": "error"
    },
    {
      "inputs": [
        {
          "internalType": "address",
          "name": "account",
          "type": "address"
        }
      ],
      "name": "OwnableUnauthorizedAccount",
      "type": "error"
    },
    {
      "inputs": [
        {
          "internalType": "address",
          "name": "token",
          "type": "address"
        }
      ],
      "name": "SafeERC20FailedOperation",
      "type": "error"
    },
    {
      "inputs": [
        {
          "internalType": "address",
          "name": "token",
          "type": "address"
        },
        {
          "internalType": "uint256",
          "name": "balance",
          "type": "uint256"
        },
        {
          "internalType": "uint256",
          "name": "totalDistributed",
          "type": "uint256"
        },
        {
          "internalType": "uint256",
          "name": "amount",
          "type": "uint256"
        }
      ],
      "name": "VaultDistributeOverflow",
      "type": "error"
    },
    {
      "inputs": [
        {
          "internalType": "address",
          "name": "recipient",
          "type": "address"
        },
        {
          "internalType": "address",
          "name": "token",
          "type": "address"
        },
        {
          "internalType": "uint256",
          "name": "amount",
          "type": "uint256"
        }
      ],
      "name": "VaultWithdrawFailed",
      "type": "error"
    },
    {
      "anonymous": false,
      "inputs": [
        {
          "indexed": true,
          "internalType": "address",
          "name": "account",
          "type": "address"
        },
        {
          "indexed": true,
          "internalType": "address",
          "name": "token",
          "type": "address"
        },
        {
          "indexed": false,
          "internalType": "uint256",
          "name": "amount",
          "type": "uint256"
        }
      ],
      "name": "Distribute",
      "type": "event"
    },
    {
      "anonymous": false,
      "inputs": [
        {
          "indexed": false,
          "internalType": "uint64",
          "name": "version",
          "type": "uint64"
        }
      ],
      "name": "Initialized",
      "type": "event"
    },
    {
      "anonymous": false,
      "inputs": [
        {
          "indexed": true,
          "internalType": "address",
          "name": "previousOwner",
          "type": "address"
        },
        {
          "indexed": true,
          "internalType": "address",
          "name": "newOwner",
          "type": "address"
        }
      ],
      "name": "OwnershipTransferred",
      "type": "event"
    },
    {
      "anonymous": false,
      "inputs": [
        {
          "indexed": false,
          "internalType": "address",
          "name": "account",
          "type": "address"
        }
      ],
      "name": "Paused",
      "type": "event"
    },
    {
      "anonymous": false,
      "inputs": [
        {
          "indexed": true,
          "internalType": "address",
          "name": "account",
          "type": "address"
        },
        {
          "indexed": true,
          "internalType": "address",
          "name": "token",
          "type": "address"
        }
      ],
      "name": "Reset",
      "type": "event"
    },
    {
      "anonymous": false,
      "inputs": [
        {
          "indexed": false,
          "internalType": "address",
          "name": "account",
          "type": "address"
        }
      ],
      "name": "Unpaused",
      "type": "event"
    },
    {
      "anonymous": false,
      "inputs": [
        {
          "indexed": true,
          "internalType": "address",
          "name": "from",
          "type": "address"
        },
        {
          "indexed": true,
          "internalType": "address",
          "name": "recipient",
          "type": "address"
        },
        {
          "indexed": true,
          "internalType": "address",
          "name": "token",
          "type": "address"
        },
        {
          "indexed": false,
          "internalType": "uint256",
          "name": "amount",
          "type": "uint256"
        }
      ],
      "name": "Withdrawal",
      "type": "event"
    },
    {
      "stateMutability": "payable",
      "type": "fallback"
    },
    {
      "inputs": [
        {
          "internalType": "address",
          "name": "token",
          "type": "address"
        },
        {
          "internalType": "address",
          "name": "account",
          "type": "address"
        }
      ],
      "name": "balanceOf",
      "outputs": [
        {
          "internalType": "uint256",
          "name": "",
          "type": "uint256"
        }
      ],
      "stateMutability": "view",
      "type": "function"
    },
    {
      "inputs": [
        {
          "internalType": "address",
          "name": "token",
          "type": "address"
        },
        {
          "internalType": "address",
          "name": "account",
          "type": "address"
        },
        {
          "internalType": "uint256",
          "name": "amount",
          "type": "uint256"
        }
      ],
      "name": "distribute",
      "outputs": [],
      "stateMutability": "payable",
      "type": "function"
    },
    {
      "inputs": [],
      "name": "info",
      "outputs": [
        {
          "internalType": "address",
          "name": "",
          "type": "address"
        }
      ],
      "stateMutability": "view",
      "type": "function"
    },
    {
      "inputs": [
        {
          "internalType": "address",
          "name": "_info",
          "type": "address"
        }
      ],
      "name": "initialize",
      "outputs": [],
      "stateMutability": "nonpayable",
      "type": "function"
    },
    {
      "inputs": [],
      "name": "owner",
      "outputs": [
        {
          "internalType": "address",
          "name": "",
          "type": "address"
        }
      ],
      "stateMutability": "view",
      "type": "function"
    },
    {
      "inputs": [],
      "name": "pause",
      "outputs": [],
      "stateMutability": "nonpayable",
      "type": "function"
    },
    {
      "inputs": [],
      "name": "paused",
      "outputs": [
        {
          "internalType": "bool",
          "name": "",
          "type": "bool"
        }
      ],
      "stateMutability": "view",
      "type": "function"
    },
    {
      "inputs": [],
      "name": "renounceOwnership",
      "outputs": [],
      "stateMutability": "nonpayable",
      "type": "function"
    },
    {
      "inputs": [
        {
          "internalType": "address",
          "name": "token",
          "type": "address"
        },
        {
          "internalType": "address",
          "name": "account",
          "type": "address"
        }
      ],
      "name": "reset",
      "outputs": [],
      "stateMutability": "nonpayable",
      "type": "function"
    },
    {
      "inputs": [
        {
          "internalType": "address",
          "name": "token",
          "type": "address"
        }
      ],
      "name": "totalDistributed",
      "outputs": [
        {
          "internalType": "uint256",
          "name": "",
          "type": "uint256"
        }
      ],
      "stateMutability": "view",
      "type": "function"
    },
    {
      "inputs": [
        {
          "internalType": "address",
          "name": "newOwner",
          "type": "address"
        }
      ],
      "name": "transferOwnership",
      "outputs": [],
      "stateMutability": "nonpayable",
      "type": "function"
    },
    {
      "inputs": [],
      "name": "unpause",
      "outputs": [],
      "stateMutability": "nonpayable",
      "type": "function"
    },
    {
      "inputs": [
        {
          "internalType": "address",
          "name": "token",
          "type": "address"
        }
      ],
      "name": "withdraw",
      "outputs": [],
      "stateMutability": "nonpayable",
      "type": "function"
    },
    {
      "inputs": [
        {
          "internalType": "address",
          "name": "token",
          "type": "address"
        },
        {
          "internalType": "address",
          "name": "recipient",
          "type": "address"
        }
      ],
      "name": "withdrawCrumbs",
      "outputs": [],
      "stateMutability": "nonpayable",
      "type": "function"
    },
    {
      "inputs": [
        {
          "internalType": "address",
          "name": "token",
          "type": "address"
        },
        {
          "internalType": "address",
          "name": "from",
          "type": "address"
        },
        {
          "internalType": "address",
          "name": "recipient",
          "type": "address"
        }
      ],
      "name": "withdrawFrom",
      "outputs": [],
      "stateMutability": "nonpayable",
      "type": "function"
    },
    {
      "stateMutability": "payable",
      "type": "receive"
    }
  ],
  "bytecode": "0x608060405234801561001057600080fd5b5061001961001e565b6100d0565b7ff0c57e16840df040f15088dc2f81fe391c3923bec73e23a9662efc9c229c6a00805468010000000000000000900460ff161561006e5760405163f92ee8a960e01b815260040160405180910390fd5b80546001600160401b03908116146100cd5780546001600160401b0319166001600160401b0390811782556040519081527fc7f505b2f371ae2175ee4913f4499e1f2633a7b5936321eed1cdaeb6115181d29060200160405180910390a15b50565b6111c1806100df6000396000f3fe6080604052600436106100e05760003560e01c80638456cb5911610084578063a16a918311610056578063a16a918314610296578063c4d66de8146102a9578063f2fde38b146102c9578063f7888aec146102e957005b80638456cb59146101e05780638b8dfa39146101f55780638da5cb5b1461023957806391e2809e1461027657005b80633f4ba83a116100bd5780633f4ba83a1461016657806351cff8d91461017b5780635c975abb1461019b578063715018a6146101cb57005b8063056d380c146100e95780633412370014610109578063370158ea1461012957005b366100e757005b005b3480156100f557600080fd5b506100e7610104366004610ff8565b610309565b34801561011557600080fd5b506100e7610124366004610ff8565b6103b3565b34801561013557600080fd5b50600054610149906001600160a01b031681565b6040516001600160a01b0390911681526020015b60405180910390f35b34801561017257600080fd5b506100e761057f565b34801561018757600080fd5b506100e761019636600461102b565b610591565b3480156101a757600080fd5b5060008051602061116c8339815191525460ff16604051901515815260200161015d565b3480156101d757600080fd5b506100e76105a9565b3480156101ec57600080fd5b506100e76105bb565b34801561020157600080fd5b5061022b61021036600461102b565b6001600160a01b031660009081526002602052604090205490565b60405190815260200161015d565b34801561024557600080fd5b507f9016d09d72d40fdae2fd8ceac6b6234c7706214fd39c1cd1e609a0528c199300546001600160a01b0316610149565b34801561028257600080fd5b506100e7610291366004611046565b6105cb565b6100e76102a4366004611089565b6105eb565b3480156102b557600080fd5b506100e76102c436600461102b565b61087f565b3480156102d557600080fd5b506100e76102e436600461102b565b6109b2565b3480156102f557600080fd5b5061022b610304366004610ff8565b6109f0565b610311610a1d565b610319610a4d565b6001600160a01b038082166000908152600160209081526040808320938616835292815282822054600290915291812080549091906103599084906110db565b90915550506001600160a01b03808216600081815260016020908152604080832094871680845294909152808220829055517fa5df7b378f5dbf7c276ac35d5314c533b2fa1d772a893f471c41481862ec93db9190a35050565b6103bb610a4d565b60006001600160a01b038316610489576001600160a01b0383166000908152600260205260409020546103ee90476110db565b90506000826001600160a01b03168260405160006040518083038185875af1925050503d806000811461043d576040519150601f19603f3d011682016040523d82523d6000602084013e610442565b606091505b505090508061048357604051633b87822f60e21b81526001600160a01b03808516600483015285166024820152604481018390526064015b60405180910390fd5b50610523565b6001600160a01b038316600081815260026020526040908190205490516370a0823160e01b81523060048201529091906370a0823190602401602060405180830381865afa1580156104df573d6000803e3d6000fd5b505050506040513d601f19601f8201168201806040525081019061050391906110ee565b61050d91906110db565b90506105236001600160a01b0384168383610aa8565b826001600160a01b0316826001600160a01b0316306001600160a01b03167f342e7ff505a8a0364cd0dc2ff195c315e43bce86b204846ecd36913e117b109e8460405161057291815260200190565b60405180910390a4505050565b610587610a4d565b61058f610afa565b565b610599610b5a565b336105a5828280610b8b565b5050565b6105b1610a4d565b61058f6000610cf5565b6105c3610a4d565b61058f610d66565b6105d3610a1d565b6105db610a4d565b6105e6838383610b8b565b505050565b600080546040517f45483a506172746e65725661756c743a4469737472696275746f723a0000000060208201526bffffffffffffffffffffffff193360601b16603c8201526001600160a01b0390911690637ae1cfca90605001604051602081830303815290604052805190602001206040518263ffffffff1660e01b815260040161067991815260200190565b602060405180830381865afa158015610696573d6000803e3d6000fd5b505050506040513d601f19601f820116820180604052508101906106ba9190611107565b9050806106da57604051631dd2188d60e31b815260040160405180910390fd5b60006001600160a01b0385166106f157504761075c565b6040516370a0823160e01b81523060048201526001600160a01b038616906370a0823190602401602060405180830381865afa158015610735573d6000803e3d6000fd5b505050506040513d601f19601f8201168201806040525081019061075991906110ee565b90505b6001600160a01b03851660009081526002602052604090205461077f8482611129565b8210156107bf57604051632568da7560e11b81526001600160a01b038716600482015260248101839052604481018290526064810185905260840161047a565b6001600160a01b038086166000908152600160209081526040808320938a16835292905290812080548692906107f6908490611129565b90915550506001600160a01b03861660009081526002602052604081208054869290610823908490611129565b92505081905550856001600160a01b0316856001600160a01b03167fafdc1eb311d58306e249917b5ca0044a827a66f0ec535c334d63372c4055d3648660405161086f91815260200190565b60405180910390a3505050505050565b7ff0c57e16840df040f15088dc2f81fe391c3923bec73e23a9662efc9c229c6a008054600160401b810460ff16159067ffffffffffffffff166000811580156108c55750825b905060008267ffffffffffffffff1660011480156108e25750303b155b9050811580156108f0575080155b1561090e5760405163f92ee8a960e01b815260040160405180910390fd5b845467ffffffffffffffff19166001178555831561093857845460ff60401b1916600160401b1785555b61094133610daf565b610949610dc0565b600080546001600160a01b0319166001600160a01b03881617905583156109aa57845460ff60401b19168555604051600181527fc7f505b2f371ae2175ee4913f4499e1f2633a7b5936321eed1cdaeb6115181d29060200160405180910390a15b505050505050565b6109ba610a4d565b6001600160a01b0381166109e457604051631e4fbdf760e01b81526000600482015260240161047a565b6109ed81610cf5565b50565b6001600160a01b038082166000908152600160209081526040808320938616835292905220545b92915050565b60008051602061116c8339815191525460ff1661058f57604051638dfc202b60e01b815260040160405180910390fd5b33610a7f7f9016d09d72d40fdae2fd8ceac6b6234c7706214fd39c1cd1e609a0528c199300546001600160a01b031690565b6001600160a01b03161461058f5760405163118cdaa760e01b815233600482015260240161047a565b604080516001600160a01b038416602482015260448082018490528251808303909101815260649091019091526020810180516001600160e01b031663a9059cbb60e01b1790526105e6908490610dd0565b610b02610a1d565b60008051602061116c833981519152805460ff191681557f5db9ee0a495bf2e6ff9c91a7834c1ba4fdd244a5e8aa4e537bd38aeae4b073aa335b6040516001600160a01b03909116815260200160405180910390a150565b60008051602061116c8339815191525460ff161561058f5760405163d93c066560e01b815260040160405180910390fd5b6000610b9784846109f0565b6001600160a01b03808516600090815260016020908152604080832093891683529281528282208290556002905290812080549293508392909190610bdd9084906110db565b90915550506001600160a01b038416610c84576000826001600160a01b03168260405160006040518083038185875af1925050503d8060008114610c3d576040519150601f19603f3d011682016040523d82523d6000602084013e610c42565b606091505b5050905080610c7e57604051633b87822f60e21b81526001600160a01b038085166004830152861660248201526044810183905260640161047a565b50610c98565b610c986001600160a01b0385168383610aa8565b836001600160a01b0316826001600160a01b0316846001600160a01b03167f342e7ff505a8a0364cd0dc2ff195c315e43bce86b204846ecd36913e117b109e84604051610ce791815260200190565b60405180910390a450505050565b7f9016d09d72d40fdae2fd8ceac6b6234c7706214fd39c1cd1e609a0528c19930080546001600160a01b031981166001600160a01b03848116918217845560405192169182907f8be0079c531659141344cd1fd0a4f28419497f9722a3daafe3b4186f6b6457e090600090a3505050565b610d6e610b5a565b60008051602061116c833981519152805460ff191660011781557f62e78cea01bee320cd4e420270b5ea74000d11b0c9f74754ebdbfc544b05a25833610b3c565b610db7610e33565b6109ed81610e7c565b610dc8610e33565b61058f610e84565b6000610de56001600160a01b03841683610ea5565b90508051600014158015610e0a575080806020019051810190610e089190611107565b155b156105e657604051635274afe760e01b81526001600160a01b038416600482015260240161047a565b7ff0c57e16840df040f15088dc2f81fe391c3923bec73e23a9662efc9c229c6a0054600160401b900460ff1661058f57604051631afcd79f60e31b815260040160405180910390fd5b6109ba610e33565b610e8c610e33565b60008051602061116c833981519152805460ff19169055565b6060610eb383836000610eba565b9392505050565b606081471015610edf5760405163cd78605960e01b815230600482015260240161047a565b600080856001600160a01b03168486604051610efb919061113c565b60006040518083038185875af1925050503d8060008114610f38576040519150601f19603f3d011682016040523d82523d6000602084013e610f3d565b606091505b5091509150610f4d868383610f57565b9695505050505050565b606082610f6c57610f6782610fb3565b610eb3565b8151158015610f8357506001600160a01b0384163b155b15610fac57604051639996b31560e01b81526001600160a01b038516600482015260240161047a565b5080610eb3565b805115610fc35780518082602001fd5b604051630a12f52160e11b815260040160405180910390fd5b80356001600160a01b0381168114610ff357600080fd5b919050565b6000806040838503121561100b57600080fd5b61101483610fdc565b915061102260208401610fdc565b90509250929050565b60006020828403121561103d57600080fd5b610eb382610fdc565b60008060006060848603121561105b57600080fd5b61106484610fdc565b925061107260208501610fdc565b915061108060408501610fdc565b90509250925092565b60008060006060848603121561109e57600080fd5b6110a784610fdc565b92506110b560208501610fdc565b9150604084013590509250925092565b634e487b7160e01b600052601160045260246000fd5b81810381811115610a1757610a176110c5565b60006020828403121561110057600080fd5b5051919050565b60006020828403121561111957600080fd5b81518015158114610eb357600080fd5b80820180821115610a1757610a176110c5565b6000825160005b8181101561115d5760208186018101518583015201611143565b50600092019182525091905056fecd5ed15c6e187e77e9aee88184c21f4f2182ab5827cb3b7e07fbedcd63f03300a2646970667358221220186422938bf7e5ca7bda01378c62b3595dd7c6053a19c2bd5e1d53b3da0d0fbc64736f6c63430008140033",
  "linkReferences": {},
  "deployedLinkReferences": {}
}