{
  "_format": "hh-sol-artifact-1",
  "contractName": "TestNFT",
  "sourceName": "contracts/NFT/ERC721TEST.sol",
  "abi": [
    {
      "inputs": [],
      "stateMutability": "nonpayable",
      "type": "constructor"
    },
    {
      "inputs": [
        {
          "internalType": "address",
          "name": "sender",
          "type": "address"
        },
        {
          "internalType": "uint256",
          "name": "tokenId",
          "type": "uint256"
        },
        {
          "internalType": "address",
          "name": "owner",
          "type": "address"
        }
      ],
      "name": "ERC721IncorrectOwner",
      "type": "error"
    },
    {
      "inputs": [
        {
          "internalType": "address",
          "name": "operator",
          "type": "address"
        },
        {
          "internalType": "uint256",
          "name": "tokenId",
          "type": "uint256"
        }
      ],
      "name": "ERC721InsufficientApproval",
      "type": "error"
    },
    {
      "inputs": [
        {
          "internalType": "address",
          "name": "approver",
          "type": "address"
        }
      ],
      "name": "ERC721InvalidApprover",
      "type": "error"
    },
    {
      "inputs": [
        {
          "internalType": "address",
          "name": "operator",
          "type": "address"
        }
      ],
      "name": "ERC721InvalidOperator",
      "type": "error"
    },
    {
      "inputs": [
        {
          "internalType": "address",
          "name": "owner",
          "type": "address"
        }
      ],
      "name": "ERC721InvalidOwner",
      "type": "error"
    },
    {
      "inputs": [
        {
          "internalType": "address",
          "name": "receiver",
          "type": "address"
        }
      ],
      "name": "ERC721InvalidReceiver",
      "type": "error"
    },
    {
      "inputs": [
        {
          "internalType": "address",
          "name": "sender",
          "type": "address"
        }
      ],
      "name": "ERC721InvalidSender",
      "type": "error"
    },
    {
      "inputs": [
        {
          "internalType": "uint256",
          "name": "tokenId",
          "type": "uint256"
        }
      ],
      "name": "ERC721NonexistentToken",
      "type": "error"
    },
    {
      "inputs": [],
      "name": "InvalidInitialization",
      "type": "error"
    },
    {
      "inputs": [],
      "name": "NotInitializing",
      "type": "error"
    },
    {
      "inputs": [
        {
          "internalType": "address",
          "name": "owner",
          "type": "address"
        }
      ],
      "name": "OwnableInvalidOwner",
      "type": "error"
    },
    {
      "inputs": [
        {
          "internalType": "address",
          "name": "account",
          "type": "address"
        }
      ],
      "name": "OwnableUnauthorizedAccount",
      "type": "error"
    },
    {
      "anonymous": false,
      "inputs": [
        {
          "indexed": true,
          "internalType": "address",
          "name": "owner",
          "type": "address"
        },
        {
          "indexed": true,
          "internalType": "address",
          "name": "approved",
          "type": "address"
        },
        {
          "indexed": true,
          "internalType": "uint256",
          "name": "tokenId",
          "type": "uint256"
        }
      ],
      "name": "Approval",
      "type": "event"
    },
    {
      "anonymous": false,
      "inputs": [
        {
          "indexed": true,
          "internalType": "address",
          "name": "owner",
          "type": "address"
        },
        {
          "indexed": true,
          "internalType": "address",
          "name": "operator",
          "type": "address"
        },
        {
          "indexed": false,
          "internalType": "bool",
          "name": "approved",
          "type": "bool"
        }
      ],
      "name": "ApprovalForAll",
      "type": "event"
    },
    {
      "anonymous": false,
      "inputs": [
        {
          "indexed": false,
          "internalType": "uint64",
          "name": "version",
          "type": "uint64"
        }
      ],
      "name": "Initialized",
      "type": "event"
    },
    {
      "anonymous": false,
      "inputs": [
        {
          "indexed": true,
          "internalType": "address",
          "name": "previousOwner",
          "type": "address"
        },
        {
          "indexed": true,
          "internalType": "address",
          "name": "newOwner",
          "type": "address"
        }
      ],
      "name": "OwnershipTransferred",
      "type": "event"
    },
    {
      "anonymous": false,
      "inputs": [
        {
          "indexed": true,
          "internalType": "address",
          "name": "from",
          "type": "address"
        },
        {
          "indexed": true,
          "internalType": "address",
          "name": "to",
          "type": "address"
        },
        {
          "indexed": true,
          "internalType": "uint256",
          "name": "tokenId",
          "type": "uint256"
        }
      ],
      "name": "Transfer",
      "type": "event"
    },
    {
      "inputs": [
        {
          "internalType": "address",
          "name": "to",
          "type": "address"
        },
        {
          "internalType": "uint256",
          "name": "tokenId",
          "type": "uint256"
        }
      ],
      "name": "approve",
      "outputs": [],
      "stateMutability": "nonpayable",
      "type": "function"
    },
    {
      "inputs": [
        {
          "internalType": "address",
          "name": "owner",
          "type": "address"
        }
      ],
      "name": "balanceOf",
      "outputs": [
        {
          "internalType": "uint256",
          "name": "",
          "type": "uint256"
        }
      ],
      "stateMutability": "view",
      "type": "function"
    },
    {
      "inputs": [
        {
          "internalType": "uint256",
          "name": "tokenId",
          "type": "uint256"
        }
      ],
      "name": "getApproved",
      "outputs": [
        {
          "internalType": "address",
          "name": "",
          "type": "address"
        }
      ],
      "stateMutability": "view",
      "type": "function"
    },
    {
      "inputs": [
        {
          "internalType": "address",
          "name": "initialOwner",
          "type": "address"
        },
        {
          "internalType": "string",
          "name": "uri",
          "type": "string"
        }
      ],
      "name": "initialize",
      "outputs": [],
      "stateMutability": "nonpayable",
      "type": "function"
    },
    {
      "inputs": [
        {
          "internalType": "address",
          "name": "owner",
          "type": "address"
        },
        {
          "internalType": "address",
          "name": "operator",
          "type": "address"
        }
      ],
      "name": "isApprovedForAll",
      "outputs": [
        {
          "internalType": "bool",
          "name": "",
          "type": "bool"
        }
      ],
      "stateMutability": "view",
      "type": "function"
    },
    {
      "inputs": [],
      "name": "name",
      "outputs": [
        {
          "internalType": "string",
          "name": "",
          "type": "string"
        }
      ],
      "stateMutability": "view",
      "type": "function"
    },
    {
      "inputs": [],
      "name": "owner",
      "outputs": [
        {
          "internalType": "address",
          "name": "",
          "type": "address"
        }
      ],
      "stateMutability": "view",
      "type": "function"
    },
    {
      "inputs": [
        {
          "internalType": "uint256",
          "name": "tokenId",
          "type": "uint256"
        }
      ],
      "name": "ownerOf",
      "outputs": [
        {
          "internalType": "address",
          "name": "",
          "type": "address"
        }
      ],
      "stateMutability": "view",
      "type": "function"
    },
    {
      "inputs": [],
      "name": "renounceOwnership",
      "outputs": [],
      "stateMutability": "nonpayable",
      "type": "function"
    },
    {
      "inputs": [
        {
          "internalType": "address",
          "name": "to",
          "type": "address"
        }
      ],
      "name": "safeMint",
      "outputs": [],
      "stateMutability": "nonpayable",
      "type": "function"
    },
    {
      "inputs": [
        {
          "internalType": "address",
          "name": "from",
          "type": "address"
        },
        {
          "internalType": "address",
          "name": "to",
          "type": "address"
        },
        {
          "internalType": "uint256",
          "name": "tokenId",
          "type": "uint256"
        }
      ],
      "name": "safeTransferFrom",
      "outputs": [],
      "stateMutability": "nonpayable",
      "type": "function"
    },
    {
      "inputs": [
        {
          "internalType": "address",
          "name": "from",
          "type": "address"
        },
        {
          "internalType": "address",
          "name": "to",
          "type": "address"
        },
        {
          "internalType": "uint256",
          "name": "tokenId",
          "type": "uint256"
        },
        {
          "internalType": "bytes",
          "name": "data",
          "type": "bytes"
        }
      ],
      "name": "safeTransferFrom",
      "outputs": [],
      "stateMutability": "nonpayable",
      "type": "function"
    },
    {
      "inputs": [
        {
          "internalType": "address",
          "name": "operator",
          "type": "address"
        },
        {
          "internalType": "bool",
          "name": "approved",
          "type": "bool"
        }
      ],
      "name": "setApprovalForAll",
      "outputs": [],
      "stateMutability": "nonpayable",
      "type": "function"
    },
    {
      "inputs": [
        {
          "internalType": "bytes4",
          "name": "interfaceId",
          "type": "bytes4"
        }
      ],
      "name": "supportsInterface",
      "outputs": [
        {
          "internalType": "bool",
          "name": "",
          "type": "bool"
        }
      ],
      "stateMutability": "view",
      "type": "function"
    },
    {
      "inputs": [],
      "name": "symbol",
      "outputs": [
        {
          "internalType": "string",
          "name": "",
          "type": "string"
        }
      ],
      "stateMutability": "view",
      "type": "function"
    },
    {
      "inputs": [
        {
          "internalType": "uint256",
          "name": "tokenId",
          "type": "uint256"
        }
      ],
      "name": "tokenURI",
      "outputs": [
        {
          "internalType": "string",
          "name": "",
          "type": "string"
        }
      ],
      "stateMutability": "view",
      "type": "function"
    },
    {
      "inputs": [
        {
          "internalType": "address",
          "name": "from",
          "type": "address"
        },
        {
          "internalType": "address",
          "name": "to",
          "type": "address"
        },
        {
          "internalType": "uint256",
          "name": "tokenId",
          "type": "uint256"
        }
      ],
      "name": "transferFrom",
      "outputs": [],
      "stateMutability": "nonpayable",
      "type": "function"
    },
    {
      "inputs": [
        {
          "internalType": "address",
          "name": "newOwner",
          "type": "address"
        }
      ],
      "name": "transferOwnership",
      "outputs": [],
      "stateMutability": "nonpayable",
      "type": "function"
    }
  ],
  "bytecode": "0x608060405234801561001057600080fd5b5061001961001e565b6100d0565b7ff0c57e16840df040f15088dc2f81fe391c3923bec73e23a9662efc9c229c6a00805468010000000000000000900460ff161561006e5760405163f92ee8a960e01b815260040160405180910390fd5b80546001600160401b03908116146100cd5780546001600160401b0319166001600160401b0390811782556040519081527fc7f505b2f371ae2175ee4913f4499e1f2633a7b5936321eed1cdaeb6115181d29060200160405180910390a15b50565b6116d1806100df6000396000f3fe608060405234801561001057600080fd5b50600436106101165760003560e01c8063715018a6116100a2578063b88d4fde11610071578063b88d4fde14610258578063c87b56dd1461026b578063e985e9c51461027e578063f2fde38b14610291578063f399e22e146102a457600080fd5b8063715018a6146102055780638da5cb5b1461020d57806395d89b411461023d578063a22cb4651461024557600080fd5b806323b872dd116100e957806323b872dd1461019857806340d097c3146101ab57806342842e0e146101be5780636352211e146101d157806370a08231146101e457600080fd5b806301ffc9a71461011b57806306fdde0314610143578063081812fc14610158578063095ea7b314610183575b600080fd5b61012e610129366004611174565b6102b7565b60405190151581526020015b60405180910390f35b61014b610309565b60405161013a91906111e1565b61016b6101663660046111f4565b6103ad565b6040516001600160a01b03909116815260200161013a565b610196610191366004611229565b6103c2565b005b6101966101a6366004611253565b6103d1565b6101966101b936600461128f565b610461565b6101966101cc366004611253565b610488565b61016b6101df3660046111f4565b6104a8565b6101f76101f236600461128f565b6104b3565b60405190815260200161013a565b61019661050f565b7f9016d09d72d40fdae2fd8ceac6b6234c7706214fd39c1cd1e609a0528c199300546001600160a01b031661016b565b61014b610523565b6101966102533660046112aa565b610562565b610196610266366004611372565b61056d565b61014b6102793660046111f4565b610584565b61012e61028c3660046113ee565b6105ec565b61019661029f36600461128f565b610639565b6101966102b2366004611421565b610677565b60006001600160e01b031982166380ac58cd60e01b14806102e857506001600160e01b03198216635b5e139f60e01b145b8061030357506301ffc9a760e01b6001600160e01b03198316145b92915050565b60008051602061167c833981519152805460609190819061032990611483565b80601f016020809104026020016040519081016040528092919081815260200182805461035590611483565b80156103a25780601f10610377576101008083540402835291602001916103a2565b820191906000526020600020905b81548152906001019060200180831161038557829003601f168201915b505050505091505090565b60006103b8826107dd565b5061030382610815565b6103cd82823361084f565b5050565b6001600160a01b03821661040057604051633250574960e11b8152600060048201526024015b60405180910390fd5b600061040d83833361085c565b9050836001600160a01b0316816001600160a01b03161461045b576040516364283d7b60e01b81526001600160a01b03808616600483015260248201849052821660448201526064016103f7565b50505050565b610469610966565b600080548180610478836114bd565b9190505590506103cd82826109c1565b6104a38383836040518060200160405280600081525061056d565b505050565b6000610303826107dd565b600060008051602061167c8339815191526001600160a01b0383166104ee576040516322718ad960e21b8152600060048201526024016103f7565b6001600160a01b039092166000908152600390920160205250604090205490565b610517610966565b61052160006109db565b565b7f80bb2b638cc20bc4d0a60d66940f3ab4a00c1d7b313497ca82fb0b4ab0079301805460609160008051602061167c8339815191529161032990611483565b6103cd338383610a4c565b6105788484846103d1565b61045b84848484610afd565b606061058f826107dd565b50600061059a610c26565b905060008151116105ba57604051806020016040528060008152506105e5565b806105c484610cb8565b6040516020016105d59291906114e4565b6040516020818303038152906040525b9392505050565b6001600160a01b0391821660009081527f80bb2b638cc20bc4d0a60d66940f3ab4a00c1d7b313497ca82fb0b4ab00793056020908152604080832093909416825291909152205460ff1690565b610641610966565b6001600160a01b03811661066b57604051631e4fbdf760e01b8152600060048201526024016103f7565b610674816109db565b50565b7ff0c57e16840df040f15088dc2f81fe391c3923bec73e23a9662efc9c229c6a008054600160401b810460ff16159067ffffffffffffffff166000811580156106bd5750825b905060008267ffffffffffffffff1660011480156106da5750303b155b9050811580156106e8575080155b156107065760405163f92ee8a960e01b815260040160405180910390fd5b845467ffffffffffffffff19166001178555831561073057845460ff60401b1916600160401b1785555b610778604051806040016040528060078152602001661d195cdd13919560ca1b815250604051806040016040528060078152602001661d195cdd13919560ca1b815250610d4b565b61078187610d5d565b600161078d8782611561565b5083156107d457845460ff60401b19168555604051600181527fc7f505b2f371ae2175ee4913f4499e1f2633a7b5936321eed1cdaeb6115181d29060200160405180910390a15b50505050505050565b6000806107e983610d6e565b90506001600160a01b03811661030357604051637e27328960e01b8152600481018490526024016103f7565b60009081527f80bb2b638cc20bc4d0a60d66940f3ab4a00c1d7b313497ca82fb0b4ab007930460205260409020546001600160a01b031690565b6104a38383836001610da8565b600060008051602061167c8339815191528161087785610d6e565b90506001600160a01b0384161561089357610893818587610ebe565b6001600160a01b038116156108d3576108b0600086600080610da8565b6001600160a01b0381166000908152600383016020526040902080546000190190555b6001600160a01b03861615610904576001600160a01b03861660009081526003830160205260409020805460010190555b600085815260028301602052604080822080546001600160a01b0319166001600160a01b038a811691821790925591518893918516917fddf252ad1be2c89b69c2b068fc378daa952ba7f163c4a11628f55a4df523b3ef91a495945050505050565b336109987f9016d09d72d40fdae2fd8ceac6b6234c7706214fd39c1cd1e609a0528c199300546001600160a01b031690565b6001600160a01b0316146105215760405163118cdaa760e01b81523360048201526024016103f7565b6103cd828260405180602001604052806000815250610f22565b7f9016d09d72d40fdae2fd8ceac6b6234c7706214fd39c1cd1e609a0528c19930080546001600160a01b031981166001600160a01b03848116918217845560405192169182907f8be0079c531659141344cd1fd0a4f28419497f9722a3daafe3b4186f6b6457e090600090a3505050565b60008051602061167c8339815191526001600160a01b038316610a8d57604051630b61174360e31b81526001600160a01b03841660048201526024016103f7565b6001600160a01b038481166000818152600584016020908152604080832094881680845294825291829020805460ff191687151590811790915591519182527f17307eab39ab6107e8899845ad3d59bd9653f200f220920489ca2b5937696c31910160405180910390a350505050565b6001600160a01b0383163b1561045b57604051630a85bd0160e11b81526001600160a01b0384169063150b7a0290610b3f903390889087908790600401611621565b6020604051808303816000875af1925050508015610b7a575060408051601f3d908101601f19168201909252610b779181019061165e565b60015b610be3573d808015610ba8576040519150601f19603f3d011682016040523d82523d6000602084013e610bad565b606091505b508051600003610bdb57604051633250574960e11b81526001600160a01b03851660048201526024016103f7565b805181602001fd5b6001600160e01b03198116630a85bd0160e11b14610c1f57604051633250574960e11b81526001600160a01b03851660048201526024016103f7565b5050505050565b606060018054610c3590611483565b80601f0160208091040260200160405190810160405280929190818152602001828054610c6190611483565b8015610cae5780601f10610c8357610100808354040283529160200191610cae565b820191906000526020600020905b815481529060010190602001808311610c9157829003601f168201915b5050505050905090565b60606000610cc583610f39565b600101905060008167ffffffffffffffff811115610ce557610ce56112e6565b6040519080825280601f01601f191660200182016040528015610d0f576020820181803683370190505b5090508181016020015b600019016f181899199a1a9b1b9c1cb0b131b232b360811b600a86061a8153600a8504945084610d1957509392505050565b610d53611011565b6103cd828261105a565b610d65611011565b6106748161108b565b60009081527f80bb2b638cc20bc4d0a60d66940f3ab4a00c1d7b313497ca82fb0b4ab007930260205260409020546001600160a01b031690565b60008051602061167c8339815191528180610dcb57506001600160a01b03831615155b15610e8d576000610ddb856107dd565b90506001600160a01b03841615801590610e075750836001600160a01b0316816001600160a01b031614155b8015610e1a5750610e1881856105ec565b155b15610e435760405163a9fbf51f60e01b81526001600160a01b03851660048201526024016103f7565b8215610e8b5784866001600160a01b0316826001600160a01b03167f8c5be1e5ebec7d5bd14f71427d1e84f3dd0314c0f7b2291e5b200ac8c7c3b92560405160405180910390a45b505b600093845260040160205250506040902080546001600160a01b0319166001600160a01b0392909216919091179055565b610ec9838383611093565b6104a3576001600160a01b038316610ef757604051637e27328960e01b8152600481018290526024016103f7565b60405163177e802f60e01b81526001600160a01b0383166004820152602481018290526044016103f7565b610f2c83836110f9565b6104a36000848484610afd565b60008072184f03e93ff9f4daa797ed6e38ed64bf6a1f0160401b8310610f785772184f03e93ff9f4daa797ed6e38ed64bf6a1f0160401b830492506040015b6d04ee2d6d415b85acef81000000008310610fa4576d04ee2d6d415b85acef8100000000830492506020015b662386f26fc100008310610fc257662386f26fc10000830492506010015b6305f5e1008310610fda576305f5e100830492506008015b6127108310610fee57612710830492506004015b60648310611000576064830492506002015b600a83106103035760010192915050565b7ff0c57e16840df040f15088dc2f81fe391c3923bec73e23a9662efc9c229c6a0054600160401b900460ff1661052157604051631afcd79f60e31b815260040160405180910390fd5b611062611011565b60008051602061167c8339815191528061107c8482611561565b506001810161045b8382611561565b610641611011565b60006001600160a01b038316158015906110f15750826001600160a01b0316846001600160a01b031614806110cd57506110cd84846105ec565b806110f15750826001600160a01b03166110e683610815565b6001600160a01b0316145b949350505050565b6001600160a01b03821661112357604051633250574960e11b8152600060048201526024016103f7565b60006111318383600061085c565b90506001600160a01b038116156104a3576040516339e3563760e11b8152600060048201526024016103f7565b6001600160e01b03198116811461067457600080fd5b60006020828403121561118657600080fd5b81356105e58161115e565b60005b838110156111ac578181015183820152602001611194565b50506000910152565b600081518084526111cd816020860160208601611191565b601f01601f19169290920160200192915050565b6020815260006105e560208301846111b5565b60006020828403121561120657600080fd5b5035919050565b80356001600160a01b038116811461122457600080fd5b919050565b6000806040838503121561123c57600080fd5b6112458361120d565b946020939093013593505050565b60008060006060848603121561126857600080fd5b6112718461120d565b925061127f6020850161120d565b9150604084013590509250925092565b6000602082840312156112a157600080fd5b6105e58261120d565b600080604083850312156112bd57600080fd5b6112c68361120d565b9150602083013580151581146112db57600080fd5b809150509250929050565b634e487b7160e01b600052604160045260246000fd5b600067ffffffffffffffff80841115611317576113176112e6565b604051601f8501601f19908116603f0116810190828211818310171561133f5761133f6112e6565b8160405280935085815286868601111561135857600080fd5b858560208301376000602087830101525050509392505050565b6000806000806080858703121561138857600080fd5b6113918561120d565b935061139f6020860161120d565b925060408501359150606085013567ffffffffffffffff8111156113c257600080fd5b8501601f810187136113d357600080fd5b6113e2878235602084016112fc565b91505092959194509250565b6000806040838503121561140157600080fd5b61140a8361120d565b91506114186020840161120d565b90509250929050565b6000806040838503121561143457600080fd5b61143d8361120d565b9150602083013567ffffffffffffffff81111561145957600080fd5b8301601f8101851361146a57600080fd5b611479858235602084016112fc565b9150509250929050565b600181811c9082168061149757607f821691505b6020821081036114b757634e487b7160e01b600052602260045260246000fd5b50919050565b6000600182016114dd57634e487b7160e01b600052601160045260246000fd5b5060010190565b600083516114f6818460208801611191565b83519083019061150a818360208801611191565b01949350505050565b601f8211156104a357600081815260208120601f850160051c8101602086101561153a5750805b601f850160051c820191505b8181101561155957828155600101611546565b505050505050565b815167ffffffffffffffff81111561157b5761157b6112e6565b61158f816115898454611483565b84611513565b602080601f8311600181146115c457600084156115ac5750858301515b600019600386901b1c1916600185901b178555611559565b600085815260208120601f198616915b828110156115f3578886015182559484019460019091019084016115d4565b50858210156116115787850151600019600388901b60f8161c191681555b5050505050600190811b01905550565b6001600160a01b0385811682528416602082015260408101839052608060608201819052600090611654908301846111b5565b9695505050505050565b60006020828403121561167057600080fd5b81516105e58161115e56fe80bb2b638cc20bc4d0a60d66940f3ab4a00c1d7b313497ca82fb0b4ab0079300a26469706673582212209f7922d873074a813b654f2e0a42dccad961049100ef1afc550383f32462ce6564736f6c63430008140033",
  "linkReferences": {},
  "deployedLinkReferences": {}
}