{"contracts/governance/GovernorMultisig.sol":{"GovernorMultisig":{"abi":[{"anonymous":false,"inputs":[{"indexed":false,"internalType":"bytes32","name":"operation","type":"bytes32"},{"indexed":false,"internalType":"address","name":"lastCanceller","type":"address"}],"name":"OperationCancelled","type":"event"},{"anonymous":false,"inputs":[{"indexed":false,"internalType":"bytes32","name":"operation","type":"bytes32"},{"indexed":false,"internalType":"uint256","name":"howMany","type":"uint256"},{"indexed":false,"internalType":"uint256","name":"ownersCount","type":"uint256"},{"indexed":false,"internalType":"address","name":"proposer","type":"address"}],"name":"OperationCreated","type":"event"},{"anonymous":false,"inputs":[{"indexed":false,"internalType":"bytes32","name":"operation","type":"bytes32"},{"indexed":false,"internalType":"uint256","name":"votes","type":"uint256"},{"indexed":false,"internalType":"uint256","name":"ownersCount","type":"uint256"},{"indexed":false,"internalType":"address","name":"downvoter","type":"address"}],"name":"OperationDownvoted","type":"event"},{"anonymous":false,"inputs":[{"indexed":false,"internalType":"bytes32","name":"operation","type":"bytes32"},{"indexed":false,"internalType":"uint256","name":"howMany","type":"uint256"},{"indexed":false,"internalType":"uint256","name":"ownersCount","type":"uint256"},{"indexed":false,"internalType":"address","name":"performer","type":"address"}],"name":"OperationPerformed","type":"event"},{"anonymous":false,"inputs":[{"indexed":false,"internalType":"bytes32","name":"operation","type":"bytes32"},{"indexed":false,"internalType":"uint256","name":"votes","type":"uint256"},{"indexed":false,"internalType":"uint256","name":"howMany","type":"uint256"},{"indexed":false,"internalType":"uint256","name":"ownersCount","type":"uint256"},{"indexed":false,"internalType":"address","name":"upvoter","type":"address"}],"name":"OperationUpvoted","type":"event"},{"anonymous":false,"inputs":[{"indexed":false,"internalType":"address[]","name":"previousOwners","type":"address[]"},{"indexed":false,"internalType":"uint256","name":"howManyOwnersDecide","type":"uint256"},{"indexed":false,"internalType":"address[]","name":"newOwners","type":"address[]"},{"indexed":false,"internalType":"uint256","name":"newHowManyOwnersDecide","type":"uint256"}],"name":"OwnershipTransferred","type":"event"},{"inputs":[],"name":"MAX_OPERATIONS","outputs":[{"internalType":"uint256","name":"","type":"uint256"}],"stateMutability":"view","type":"function"},{"inputs":[{"internalType":"uint256","name":"","type":"uint256"}],"name":"allOperations","outputs":[{"internalType":"bytes32","name":"","type":"bytes32"}],"stateMutability":"view","type":"function"},{"inputs":[],"name":"allOperationsCount","outputs":[{"internalType":"uint256","name":"","type":"uint256"}],"stateMutability":"view","type":"function"},{"inputs":[{"internalType":"bytes32","name":"","type":"bytes32"}],"name":"allOperationsIndicies","outputs":[{"internalType":"uint256","name":"","type":"uint256"}],"stateMutability":"view","type":"function"},{"inputs":[{"internalType":"bytes32","name":"operation","type":"bytes32"}],"name":"cancelPending","outputs":[],"stateMutability":"nonpayable","type":"function"},{"inputs":[{"internalType":"address[]","name":"targets","type":"address[]"},{"internalType":"uint256[]","name":"values","type":"uint256[]"},{"internalType":"string[]","name":"signatures","type":"string[]"},{"internalType":"bytes[]","name":"calldatas","type":"bytes[]"}],"name":"executeTransaction","outputs":[],"stateMutability":"nonpayable","type":"function"},{"inputs":[],"name":"howManyOwnersDecide","outputs":[{"internalType":"uint256","name":"","type":"uint256"}],"stateMutability":"view","type":"function"},{"inputs":[{"internalType":"address","name":"wallet","type":"address"}],"name":"isOwner","outputs":[{"internalType":"bool","name":"","type":"bool"}],"stateMutability":"view","type":"function"},{"inputs":[{"internalType":"uint256","name":"","type":"uint256"}],"name":"owners","outputs":[{"internalType":"address","name":"","type":"address"}],"stateMutability":"view","type":"function"},{"inputs":[],"name":"ownersCount","outputs":[{"internalType":"uint256","name":"","type":"uint256"}],"stateMutability":"view","type":"function"},{"inputs":[],"name":"ownersGeneration","outputs":[{"internalType":"uint256","name":"","type":"uint256"}],"stateMutability":"view","type":"function"},{"inputs":[{"internalType":"address","name":"","type":"address"}],"name":"ownersIndices","outputs":[{"internalType":"uint256","name":"","type":"uint256"}],"stateMutability":"view","type":"function"},{"inputs":[{"internalType":"address[]","name":"newOwners","type":"address[]"}],"name":"transferOwnership","outputs":[],"stateMutability":"nonpayable","type":"function"},{"inputs":[{"internalType":"address[]","name":"newOwners","type":"address[]"},{"internalType":"uint256","name":"newHowManyOwnersDecide","type":"uint256"}],"name":"transferOwnershipWithHowMany","outputs":[],"stateMutability":"nonpayable","type":"function"},{"inputs":[{"internalType":"bytes32","name":"","type":"bytes32"}],"name":"votesCountByOperation","outputs":[{"internalType":"uint256","name":"","type":"uint256"}],"stateMutability":"view","type":"function"},{"inputs":[{"internalType":"bytes32","name":"","type":"bytes32"}],"name":"votesMaskByOperation","outputs":[{"internalType":"uint256","name":"","type":"uint256"}],"stateMutability":"view","type":"function"}],"evm":{"bytecode":{"linkReferences":{},"object":"608060405234801561001057600080fd5b506002805460018181019092557f405787fa12a823e0f2b7631cc41b3ba8828b3321ca811111fa75cd3aa3bb5ace0180546001600160a01b03191633908117909155600090815260066020526040902081905580556119d7806100746000396000f3fe608060405234801561001057600080fd5b50600436106101005760003560e01c80638680ce4b11610097578063b948854611610066578063b94885461461022a578063cc047a0414610232578063e851834114610252578063ea1a26441461026557600080fd5b80638680ce4b146101db578063893372ca146101ee57806390a5308514610201578063b25bb3a71461022157600080fd5b80632f54bf6e116100d35780632f54bf6e14610165578063431ab233146101a0578063568b5915146101b35780635dc2803a146101d357600080fd5b8063025e7c271461010557806318bcd3d01461013557806322f2f89a1461014a5780632f4a81df1461015c575b600080fd5b61011861011336600461121f565b610285565b6040516001600160a01b0390911681526020015b60405180910390f35b610148610143366004611284565b6102af565b005b6003545b60405190815260200161012c565b61014e60015481565b6101906101733660046112e2565b6001600160a01b0316600090815260066020526040902054151590565b604051901515815260200161012c565b61014e6101ae36600461121f565b6102be565b61014e6101c136600461121f565b60086020526000908152604090205481565b61014e600a81565b6101486101e936600461155c565b6102df565b6101486101fc36600461121f565b610673565b61014e61020f36600461121f565b60096020526000908152604090205481565b61014e60005481565b60025461014e565b61014e6102403660046112e2565b60066020526000908152604090205481565b610148610260366004611665565b610853565b61014e61027336600461121f565b60076020526000908152604090205481565b6002818154811061029557600080fd5b6000918252602090912001546001600160a01b0316905081565b6102ba828280610853565b5050565b600381815481106102ce57600080fd5b600091825260209091200154905081565b6102ea600154610ceb565b1561066d576004546001600160a01b031615801561031b57600480546001600160a01b031916331790556001546005555b8351855114801561032d575082518551145b801561033a575081518551145b6103b15760405162461bcd60e51b8152602060048201526049602482015260008051602061196283398151915260448201527f74696f6e3a2066756e6374696f6e20696e666f726d6174696f6e206172697479606482015268040dad2e6dac2e8c6d60bb1b608482015260a4015b60405180910390fd5b84516000036104165760405162461bcd60e51b815260206004820152603a602482015260008051602061196283398151915260448201527f74696f6e3a206d7573742070726f7669646520616374696f6e7300000000000060648201526084016103a8565b600a855111156104755760405162461bcd60e51b8152602060048201526036602482015260008051602061196283398151915260448201527574696f6e3a20746f6f206d616e7920616374696f6e7360501b60648201526084016103a8565b60005b85518160ff16101561064e576000848260ff168151811061049b5761049b6116b1565b60200260200101515160001461051157848260ff16815181106104c0576104c06116b1565b602002602001015180519060200120848360ff16815181106104e4576104e46116b1565b60200260200101516040516020016104fd9291906116f7565b60405160208183030381529060405261052f565b838260ff1681518110610526576105266116b1565b60200260200101515b90506000878360ff1681518110610548576105486116b1565b60200260200101516001600160a01b0316878460ff168151811061056e5761056e6116b1565b602002602001015183604051610584919061171b565b60006040518083038185875af1925050503d80600081146105c1576040519150601f19603f3d011682016040523d82523d6000602084013e6105c6565b606091505b50509050806106395760405162461bcd60e51b815260206004820152604460248201819052600080516020611962833981519152908201527f74696f6e3a207472616e73616374696f6e20657865637574696f6e20726576656064820152631c9d195960e21b608482015260a4016103a8565b505080806106469061173d565b915050610478565b50801561066b57600480546001600160a01b031916905560006005555b505b50505050565b61067d6001610ceb565b15610850576004546001600160a01b03161580156106ad57600480546001600160a01b0319163317905560016005555b336000908152600660205260408120546106c99060019061175c565b90506106d6816002611859565b6000848152600860205260408120549190911690036107505760405162461bcd60e51b815260206004820152603060248201527f63616e63656c50656e64696e673a206f7065726174696f6e206e6f7420666f7560448201526f3732103337b9103a3434b9903ab9b2b960811b60648201526084016103a8565b61075b816002611859565b600084815260086020908152604080832080549419909416909355600990529081205461078a9060019061175c565b60008581526009602090815260409182902083905560025482518881529182018490528183015233606082015290519192507f3e0a7036018b5a2a3c5d0afa14e51998ef3cf98c38e4289a8897222b3acf75a7919081900360800190a180600003610831576107f884611092565b604080518581523360208201527f55e0dd61c29aac6fc36807628300ad3e3ec68655ae76ae4002f7fb101496fa9f910160405180910390a15b505080156102ba57600480546001600160a01b03191690556000600555505b50565b61085e600154610ceb565b15610ce6576004546001600160a01b031615801561088f57600480546001600160a01b031916331790556001546005555b826108e65760405162461bcd60e51b815260206004820152603360248201526000805160206119828339815191526044820152726e65727320617272617920697320656d70747960681b60648201526084016103a8565b61010083111561094c5760405162461bcd60e51b815260206004820152603e602482015260008051602061198283398151915260448201527f6e65727320636f756e742069732067726561746572207468656e20323536000060648201526084016103a8565b600082116109c25760405162461bcd60e51b815260206004820152603f60248201527f7472616e736665724f776e65727368697057697468486f774d616e793a206e6560448201527f77486f774d616e794f776e65727344656369646520657175616c20746f20300060648201526084016103a8565b82821115610a525760405162461bcd60e51b815260206004820152605160248201527f7472616e736665724f776e65727368697057697468486f774d616e793a206e6560448201527f77486f774d616e794f776e657273446563696465206578636565647320746865606482015270206e756d626572206f66206f776e65727360781b608482015260a4016103a8565b60005b600254811015610aad576006600060028381548110610a7657610a766116b1565b60009182526020808320909101546001600160a01b0316835282019290925260400181205580610aa581611865565b915050610a55565b5060005b83811015610c54576000858583818110610acd57610acd6116b1565b9050602002016020810190610ae291906112e2565b6001600160a01b031603610b4c5760405162461bcd60e51b8152602060048201526038602482015260008051602061198283398151915260448201527f6e65727320617272617920636f6e7461696e73207a65726f000000000000000060648201526084016103a8565b60066000868684818110610b6257610b626116b1565b9050602002016020810190610b7791906112e2565b6001600160a01b0316815260208101919091526040016000205415610bf25760405162461bcd60e51b815260206004820152603e602482015260008051602061198283398151915260448201527f6e65727320617272617920636f6e7461696e73206475706c696361746573000060648201526084016103a8565b610bfd81600161187e565b60066000878785818110610c1357610c136116b1565b9050602002016020810190610c2891906112e2565b6001600160a01b0316815260208101919091526040016000205580610c4c81611865565b915050610ab1565b507fd167b96814cd24898418cc293e8d47d54afe6dcf0631283f0830e1eae621f6bd6002600154868686604051610c8f959493929190611891565b60405180910390a1610ca36002858561118d565b506001829055610cb5600360006111f0565b600080549080610cc483611865565b9190505550801561066d57600480546001600160a01b03191690556000600555505b505050565b600454600090336001600160a01b0390911603610d9057600554821115610d885760405162461bcd60e51b815260206004820152604560248201527f5f636865636b486f774d616e794f776e6572733a206e6573746564206f776e6560448201527f7273206d6f64696669657220636865636b2072657175697265206d6f7265206f606482015264776e65727360d81b608482015260a4016103a8565b506001919050565b33600090815260066020526040902054610e045760405162461bcd60e51b815260206004820152602f60248201527f5f636865636b486f774d616e794f776e6572733a206d73672e73656e6465722060448201526e34b9903737ba1030b71037bbb732b960891b60648201526084016103a8565b33600090815260066020526040812054610e209060019061175c565b905060008036600054604051602001610e3b93929190611939565b604051602081830303815290604052805190602001209050816002610e609190611859565b6000828152600860205260409020541615610ee35760405162461bcd60e51b815260206004820152603a60248201527f5f636865636b486f774d616e794f776e6572733a206f776e657220616c72656160448201527f647920766f74656420666f7220746865206f7065726174696f6e00000000000060648201526084016103a8565b610eee826002611859565b600082815260086020908152604080832080549094179093556009905290812054610f1a90600161187e565b600083815260096020526040902081905590506001819003610fc457600380546000848152600760209081526040808320849055600184018555939091527fc2575a0e9e593c00f959f8c92f12db2869c3395a3b0502d05e2516446f71f85b90910184905560025482518581529182018890528183015233606082015290517f6bab0114f9524353d2d33e64edd3ebbd16e21edd57de2226ba76c310a7ce22659181900360800190a15b60025460408051848152602081018490528082018890526060810192909252336080830152517f8dd9582c6577aea81973b5adeb6c135f6e18565d99578b7ba0c9377437ec02219181900360a00190a16000828152600960205260409020548590036110875761103382611092565b600254604080518481526020810188905280820192909252336060830152517f8a11c8ca99994c292318ce367f65bf6ff61d390bc814b3588496f6fbcc32807a9181900360800190a1506001949350505050565b506000949350505050565b6000818152600760205260409020546003546110b09060019061175c565b81101561113957600380546110c79060019061175c565b815481106110d7576110d76116b1565b9060005260206000200154600382815481106110f5576110f56116b1565b906000526020600020018190555080600760006003848154811061111b5761111b6116b1565b90600052602060002001548152602001908152602001600020819055505b600380548061114a5761114a61194b565b6000828152602080822083016000199081018390559092019092559281526008835260408082208290556009845280822082905560079093529182209190915550565b8280548282559060005260206000209081019282156111e0579160200282015b828111156111e05781546001600160a01b0319166001600160a01b038435161782556020909201916001909101906111ad565b506111ec92915061120a565b5090565b508054600082559060005260206000209081019061085091905b5b808211156111ec576000815560010161120b565b60006020828403121561123157600080fd5b5035919050565b60008083601f84011261124a57600080fd5b50813567ffffffffffffffff81111561126257600080fd5b6020830191508360208260051b850101111561127d57600080fd5b9250929050565b6000806020838503121561129757600080fd5b823567ffffffffffffffff8111156112ae57600080fd5b6112ba85828601611238565b90969095509350505050565b80356001600160a01b03811681146112dd57600080fd5b919050565b6000602082840312156112f457600080fd5b6112fd826112c6565b9392505050565b634e487b7160e01b600052604160045260246000fd5b604051601f8201601f1916810167ffffffffffffffff8111828210171561134357611343611304565b604052919050565b600067ffffffffffffffff82111561136557611365611304565b5060051b60200190565b600082601f83011261138057600080fd5b813560206113956113908361134b565b61131a565b82815260059290921b840181019181810190868411156113b457600080fd5b8286015b848110156113cf57803583529183019183016113b8565b509695505050505050565b600067ffffffffffffffff8311156113f4576113f4611304565b611407601f8401601f191660200161131a565b905082815283838301111561141b57600080fd5b828260208301376000602084830101529392505050565b600082601f83011261144357600080fd5b813560206114536113908361134b565b82815260059290921b8401810191818101908684111561147257600080fd5b8286015b848110156113cf57803567ffffffffffffffff8111156114965760008081fd5b8701603f810189136114a85760008081fd5b6114b98986830135604084016113da565b845250918301918301611476565b600082601f8301126114d857600080fd5b813560206114e86113908361134b565b82815260059290921b8401810191818101908684111561150757600080fd5b8286015b848110156113cf57803567ffffffffffffffff81111561152b5760008081fd5b8701603f8101891361153d5760008081fd5b61154e8986830135604084016113da565b84525091830191830161150b565b6000806000806080858703121561157257600080fd5b843567ffffffffffffffff8082111561158a57600080fd5b818701915087601f83011261159e57600080fd5b813560206115ae6113908361134b565b82815260059290921b8401810191818101908b8411156115cd57600080fd5b948201945b838610156115f2576115e3866112c6565b825294820194908201906115d2565b9850508801359250508082111561160857600080fd5b6116148883890161136f565b9450604087013591508082111561162a57600080fd5b61163688838901611432565b9350606087013591508082111561164c57600080fd5b50611659878288016114c7565b91505092959194509250565b60008060006040848603121561167a57600080fd5b833567ffffffffffffffff81111561169157600080fd5b61169d86828701611238565b909790965060209590950135949350505050565b634e487b7160e01b600052603260045260246000fd5b6000815160005b818110156116e857602081850181015186830152016116ce565b50600093019283525090919050565b6001600160e01b031983168152600061171360048301846116c7565b949350505050565b60006112fd82846116c7565b634e487b7160e01b600052601160045260246000fd5b600060ff821660ff810361175357611753611727565b60010192915050565b8181038181111561176f5761176f611727565b92915050565b600181815b808511156117b057816000190482111561179657611796611727565b808516156117a357918102915b93841c939080029061177a565b509250929050565b6000826117c75750600161176f565b816117d45750600061176f565b81600181146117ea57600281146117f457611810565b600191505061176f565b60ff84111561180557611805611727565b50506001821b61176f565b5060208310610133831016604e8410600b8410161715611833575081810a61176f565b61183d8383611775565b806000190482111561185157611851611727565b029392505050565b60006112fd83836117b8565b60006001820161187757611877611727565b5060010190565b8082018082111561176f5761176f611727565b6000608082016080835280885480835260a08501915089600052602092508260002060005b828110156118db5781546001600160a01b0316845292840192600191820191016118b6565b50505083820188905283810360408501528581528690820160005b87811015611922576001600160a01b0361190f846112c6565b16825291830191908301906001016118f6565b508093505050508260608301529695505050505050565b82848237909101908152602001919050565b634e487b7160e01b600052603160045260246000fdfe476f7665726e6f724d756c74697369673a3a657865637574655472616e7361637472616e736665724f776e65727368697057697468486f774d616e793a206f77a2646970667358221220e210f62581a70b0d6ae12230cc8c9e04df192d2715adb9f57dd05b9fcd060b8b64736f6c63430008140033","opcodes":"PUSH1 0x80 PUSH1 0x40 MSTORE CALLVALUE DUP1 ISZERO PUSH2 0x10 JUMPI PUSH1 0x0 DUP1 REVERT JUMPDEST POP PUSH1 0x2 DUP1 SLOAD PUSH1 0x1 DUP2 DUP2 ADD SWAP1 SWAP3 SSTORE PUSH32 0x405787FA12A823E0F2B7631CC41B3BA8828B3321CA811111FA75CD3AA3BB5ACE ADD DUP1 SLOAD PUSH1 0x1 PUSH1 0x1 PUSH1 0xA0 SHL SUB NOT AND CALLER SWAP1 DUP2 OR SWAP1 SWAP2 SSTORE PUSH1 0x0 SWAP1 DUP2 MSTORE PUSH1 0x6 PUSH1 0x20 MSTORE PUSH1 0x40 SWAP1 KECCAK256 DUP2 SWAP1 SSTORE DUP1 SSTORE PUSH2 0x19D7 DUP1 PUSH2 0x74 PUSH1 0x0 CODECOPY PUSH1 0x0 RETURN INVALID PUSH1 0x80 PUSH1 0x40 MSTORE CALLVALUE DUP1 ISZERO PUSH2 0x10 JUMPI PUSH1 0x0 DUP1 REVERT JUMPDEST POP PUSH1 0x4 CALLDATASIZE LT PUSH2 0x100 JUMPI PUSH1 0x0 CALLDATALOAD PUSH1 0xE0 SHR DUP1 PUSH4 0x8680CE4B GT PUSH2 0x97 JUMPI DUP1 PUSH4 0xB9488546 GT PUSH2 0x66 JUMPI DUP1 PUSH4 0xB9488546 EQ PUSH2 0x22A JUMPI DUP1 PUSH4 0xCC047A04 EQ PUSH2 0x232 JUMPI DUP1 PUSH4 0xE8518341 EQ PUSH2 0x252 JUMPI DUP1 PUSH4 0xEA1A2644 EQ PUSH2 0x265 JUMPI PUSH1 0x0 DUP1 REVERT JUMPDEST DUP1 PUSH4 0x8680CE4B EQ PUSH2 0x1DB JUMPI DUP1 PUSH4 0x893372CA EQ PUSH2 0x1EE JUMPI DUP1 PUSH4 0x90A53085 EQ PUSH2 0x201 JUMPI DUP1 PUSH4 0xB25BB3A7 EQ PUSH2 0x221 JUMPI PUSH1 0x0 DUP1 REVERT JUMPDEST DUP1 PUSH4 0x2F54BF6E GT PUSH2 0xD3 JUMPI DUP1 PUSH4 0x2F54BF6E EQ PUSH2 0x165 JUMPI DUP1 PUSH4 0x431AB233 EQ PUSH2 0x1A0 JUMPI DUP1 PUSH4 0x568B5915 EQ PUSH2 0x1B3 JUMPI DUP1 PUSH4 0x5DC2803A EQ PUSH2 0x1D3 JUMPI PUSH1 0x0 DUP1 REVERT JUMPDEST DUP1 PUSH4 0x25E7C27 EQ PUSH2 0x105 JUMPI DUP1 PUSH4 0x18BCD3D0 EQ PUSH2 0x135 JUMPI DUP1 PUSH4 0x22F2F89A EQ PUSH2 0x14A JUMPI DUP1 PUSH4 0x2F4A81DF EQ PUSH2 0x15C JUMPI JUMPDEST PUSH1 0x0 DUP1 REVERT JUMPDEST PUSH2 0x118 PUSH2 0x113 CALLDATASIZE PUSH1 0x4 PUSH2 0x121F JUMP JUMPDEST PUSH2 0x285 JUMP JUMPDEST PUSH1 0x40 MLOAD PUSH1 0x1 PUSH1 0x1 PUSH1 0xA0 SHL SUB SWAP1 SWAP2 AND DUP2 MSTORE PUSH1 0x20 ADD JUMPDEST PUSH1 0x40 MLOAD DUP1 SWAP2 SUB SWAP1 RETURN JUMPDEST PUSH2 0x148 PUSH2 0x143 CALLDATASIZE PUSH1 0x4 PUSH2 0x1284 JUMP JUMPDEST PUSH2 0x2AF JUMP JUMPDEST STOP JUMPDEST PUSH1 0x3 SLOAD JUMPDEST PUSH1 0x40 MLOAD SWAP1 DUP2 MSTORE PUSH1 0x20 ADD PUSH2 0x12C JUMP JUMPDEST PUSH2 0x14E PUSH1 0x1 SLOAD DUP2 JUMP JUMPDEST PUSH2 0x190 PUSH2 0x173 CALLDATASIZE PUSH1 0x4 PUSH2 0x12E2 JUMP JUMPDEST PUSH1 0x1 PUSH1 0x1 PUSH1 0xA0 SHL SUB AND PUSH1 0x0 SWAP1 DUP2 MSTORE PUSH1 0x6 PUSH1 0x20 MSTORE PUSH1 0x40 SWAP1 KECCAK256 SLOAD ISZERO ISZERO SWAP1 JUMP JUMPDEST PUSH1 0x40 MLOAD SWAP1 ISZERO ISZERO DUP2 MSTORE PUSH1 0x20 ADD PUSH2 0x12C JUMP JUMPDEST PUSH2 0x14E PUSH2 0x1AE CALLDATASIZE PUSH1 0x4 PUSH2 0x121F JUMP JUMPDEST PUSH2 0x2BE JUMP JUMPDEST PUSH2 0x14E PUSH2 0x1C1 CALLDATASIZE PUSH1 0x4 PUSH2 0x121F JUMP JUMPDEST PUSH1 0x8 PUSH1 0x20 MSTORE PUSH1 0x0 SWAP1 DUP2 MSTORE PUSH1 0x40 SWAP1 KECCAK256 SLOAD DUP2 JUMP JUMPDEST PUSH2 0x14E PUSH1 0xA DUP2 JUMP JUMPDEST PUSH2 0x148 PUSH2 0x1E9 CALLDATASIZE PUSH1 0x4 PUSH2 0x155C JUMP JUMPDEST PUSH2 0x2DF JUMP JUMPDEST PUSH2 0x148 PUSH2 0x1FC CALLDATASIZE PUSH1 0x4 PUSH2 0x121F JUMP JUMPDEST PUSH2 0x673 JUMP JUMPDEST PUSH2 0x14E PUSH2 0x20F CALLDATASIZE PUSH1 0x4 PUSH2 0x121F JUMP JUMPDEST PUSH1 0x9 PUSH1 0x20 MSTORE PUSH1 0x0 SWAP1 DUP2 MSTORE PUSH1 0x40 SWAP1 KECCAK256 SLOAD DUP2 JUMP JUMPDEST PUSH2 0x14E PUSH1 0x0 SLOAD DUP2 JUMP JUMPDEST PUSH1 0x2 SLOAD PUSH2 0x14E JUMP JUMPDEST PUSH2 0x14E PUSH2 0x240 CALLDATASIZE PUSH1 0x4 PUSH2 0x12E2 JUMP JUMPDEST PUSH1 0x6 PUSH1 0x20 MSTORE PUSH1 0x0 SWAP1 DUP2 MSTORE PUSH1 0x40 SWAP1 KECCAK256 SLOAD DUP2 JUMP JUMPDEST PUSH2 0x148 PUSH2 0x260 CALLDATASIZE PUSH1 0x4 PUSH2 0x1665 JUMP JUMPDEST PUSH2 0x853 JUMP JUMPDEST PUSH2 0x14E PUSH2 0x273 CALLDATASIZE PUSH1 0x4 PUSH2 0x121F JUMP JUMPDEST PUSH1 0x7 PUSH1 0x20 MSTORE PUSH1 0x0 SWAP1 DUP2 MSTORE PUSH1 0x40 SWAP1 KECCAK256 SLOAD DUP2 JUMP JUMPDEST PUSH1 0x2 DUP2 DUP2 SLOAD DUP2 LT PUSH2 0x295 JUMPI PUSH1 0x0 DUP1 REVERT JUMPDEST PUSH1 0x0 SWAP2 DUP3 MSTORE PUSH1 0x20 SWAP1 SWAP2 KECCAK256 ADD SLOAD PUSH1 0x1 PUSH1 0x1 PUSH1 0xA0 SHL SUB AND SWAP1 POP DUP2 JUMP JUMPDEST PUSH2 0x2BA DUP3 DUP3 DUP1 PUSH2 0x853 JUMP JUMPDEST POP POP JUMP JUMPDEST PUSH1 0x3 DUP2 DUP2 SLOAD DUP2 LT PUSH2 0x2CE JUMPI PUSH1 0x0 DUP1 REVERT JUMPDEST PUSH1 0x0 SWAP2 DUP3 MSTORE PUSH1 0x20 SWAP1 SWAP2 KECCAK256 ADD SLOAD SWAP1 POP DUP2 JUMP JUMPDEST PUSH2 0x2EA PUSH1 0x1 SLOAD PUSH2 0xCEB JUMP JUMPDEST ISZERO PUSH2 0x66D JUMPI PUSH1 0x4 SLOAD PUSH1 0x1 PUSH1 0x1 PUSH1 0xA0 SHL SUB AND ISZERO DUP1 ISZERO PUSH2 0x31B JUMPI PUSH1 0x4 DUP1 SLOAD PUSH1 0x1 PUSH1 0x1 PUSH1 0xA0 SHL SUB NOT AND CALLER OR SWAP1 SSTORE PUSH1 0x1 SLOAD PUSH1 0x5 SSTORE JUMPDEST DUP4 MLOAD DUP6 MLOAD EQ DUP1 ISZERO PUSH2 0x32D JUMPI POP DUP3 MLOAD DUP6 MLOAD EQ JUMPDEST DUP1 ISZERO PUSH2 0x33A JUMPI POP DUP2 MLOAD DUP6 MLOAD EQ JUMPDEST PUSH2 0x3B1 JUMPI PUSH1 0x40 MLOAD PUSH3 0x461BCD PUSH1 0xE5 SHL DUP2 MSTORE PUSH1 0x20 PUSH1 0x4 DUP3 ADD MSTORE PUSH1 0x49 PUSH1 0x24 DUP3 ADD MSTORE PUSH1 0x0 DUP1 MLOAD PUSH1 0x20 PUSH2 0x1962 DUP4 CODECOPY DUP2 MLOAD SWAP2 MSTORE PUSH1 0x44 DUP3 ADD MSTORE PUSH32 0x74696F6E3A2066756E6374696F6E20696E666F726D6174696F6E206172697479 PUSH1 0x64 DUP3 ADD MSTORE PUSH9 0x40DAD2E6DAC2E8C6D PUSH1 0xBB SHL PUSH1 0x84 DUP3 ADD MSTORE PUSH1 0xA4 ADD JUMPDEST PUSH1 0x40 MLOAD DUP1 SWAP2 SUB SWAP1 REVERT JUMPDEST DUP5 MLOAD PUSH1 0x0 SUB PUSH2 0x416 JUMPI PUSH1 0x40 MLOAD PUSH3 0x461BCD PUSH1 0xE5 SHL DUP2 MSTORE PUSH1 0x20 PUSH1 0x4 DUP3 ADD MSTORE PUSH1 0x3A PUSH1 0x24 DUP3 ADD MSTORE PUSH1 0x0 DUP1 MLOAD PUSH1 0x20 PUSH2 0x1962 DUP4 CODECOPY DUP2 MLOAD SWAP2 MSTORE PUSH1 0x44 DUP3 ADD MSTORE PUSH32 0x74696F6E3A206D7573742070726F7669646520616374696F6E73000000000000 PUSH1 0x64 DUP3 ADD MSTORE PUSH1 0x84 ADD PUSH2 0x3A8 JUMP JUMPDEST PUSH1 0xA DUP6 MLOAD GT ISZERO PUSH2 0x475 JUMPI PUSH1 0x40 MLOAD PUSH3 0x461BCD PUSH1 0xE5 SHL DUP2 MSTORE PUSH1 0x20 PUSH1 0x4 DUP3 ADD MSTORE PUSH1 0x36 PUSH1 0x24 DUP3 ADD MSTORE PUSH1 0x0 DUP1 MLOAD PUSH1 0x20 PUSH2 0x1962 DUP4 CODECOPY DUP2 MLOAD SWAP2 MSTORE PUSH1 0x44 DUP3 ADD MSTORE PUSH22 0x74696F6E3A20746F6F206D616E7920616374696F6E73 PUSH1 0x50 SHL PUSH1 0x64 DUP3 ADD MSTORE PUSH1 0x84 ADD PUSH2 0x3A8 JUMP JUMPDEST PUSH1 0x0 JUMPDEST DUP6 MLOAD DUP2 PUSH1 0xFF AND LT ISZERO PUSH2 0x64E JUMPI PUSH1 0x0 DUP5 DUP3 PUSH1 0xFF AND DUP2 MLOAD DUP2 LT PUSH2 0x49B JUMPI PUSH2 0x49B PUSH2 0x16B1 JUMP JUMPDEST PUSH1 0x20 MUL PUSH1 0x20 ADD ADD MLOAD MLOAD PUSH1 0x0 EQ PUSH2 0x511 JUMPI DUP5 DUP3 PUSH1 0xFF AND DUP2 MLOAD DUP2 LT PUSH2 0x4C0 JUMPI PUSH2 0x4C0 PUSH2 0x16B1 JUMP JUMPDEST PUSH1 0x20 MUL PUSH1 0x20 ADD ADD MLOAD DUP1 MLOAD SWAP1 PUSH1 0x20 ADD KECCAK256 DUP5 DUP4 PUSH1 0xFF AND DUP2 MLOAD DUP2 LT PUSH2 0x4E4 JUMPI PUSH2 0x4E4 PUSH2 0x16B1 JUMP JUMPDEST PUSH1 0x20 MUL PUSH1 0x20 ADD ADD MLOAD PUSH1 0x40 MLOAD PUSH1 0x20 ADD PUSH2 0x4FD SWAP3 SWAP2 SWAP1 PUSH2 0x16F7 JUMP JUMPDEST PUSH1 0x40 MLOAD PUSH1 0x20 DUP2 DUP4 SUB SUB DUP2 MSTORE SWAP1 PUSH1 0x40 MSTORE PUSH2 0x52F JUMP JUMPDEST DUP4 DUP3 PUSH1 0xFF AND DUP2 MLOAD DUP2 LT PUSH2 0x526 JUMPI PUSH2 0x526 PUSH2 0x16B1 JUMP JUMPDEST PUSH1 0x20 MUL PUSH1 0x20 ADD ADD MLOAD JUMPDEST SWAP1 POP PUSH1 0x0 DUP8 DUP4 PUSH1 0xFF AND DUP2 MLOAD DUP2 LT PUSH2 0x548 JUMPI PUSH2 0x548 PUSH2 0x16B1 JUMP JUMPDEST PUSH1 0x20 MUL PUSH1 0x20 ADD ADD MLOAD PUSH1 0x1 PUSH1 0x1 PUSH1 0xA0 SHL SUB AND DUP8 DUP5 PUSH1 0xFF AND DUP2 MLOAD DUP2 LT PUSH2 0x56E JUMPI PUSH2 0x56E PUSH2 0x16B1 JUMP JUMPDEST PUSH1 0x20 MUL PUSH1 0x20 ADD ADD MLOAD DUP4 PUSH1 0x40 MLOAD PUSH2 0x584 SWAP2 SWAP1 PUSH2 0x171B JUMP JUMPDEST PUSH1 0x0 PUSH1 0x40 MLOAD DUP1 DUP4 SUB DUP2 DUP6 DUP8 GAS CALL SWAP3 POP POP POP RETURNDATASIZE DUP1 PUSH1 0x0 DUP2 EQ PUSH2 0x5C1 JUMPI PUSH1 0x40 MLOAD SWAP2 POP PUSH1 0x1F NOT PUSH1 0x3F RETURNDATASIZE ADD AND DUP3 ADD PUSH1 0x40 MSTORE RETURNDATASIZE DUP3 MSTORE RETURNDATASIZE PUSH1 0x0 PUSH1 0x20 DUP5 ADD RETURNDATACOPY PUSH2 0x5C6 JUMP JUMPDEST PUSH1 0x60 SWAP2 POP JUMPDEST POP POP SWAP1 POP DUP1 PUSH2 0x639 JUMPI PUSH1 0x40 MLOAD PUSH3 0x461BCD PUSH1 0xE5 SHL DUP2 MSTORE PUSH1 0x20 PUSH1 0x4 DUP3 ADD MSTORE PUSH1 0x44 PUSH1 0x24 DUP3 ADD DUP2 SWAP1 MSTORE PUSH1 0x0 DUP1 MLOAD PUSH1 0x20 PUSH2 0x1962 DUP4 CODECOPY DUP2 MLOAD SWAP2 MSTORE SWAP1 DUP3 ADD MSTORE PUSH32 0x74696F6E3A207472616E73616374696F6E20657865637574696F6E2072657665 PUSH1 0x64 DUP3 ADD MSTORE PUSH4 0x1C9D1959 PUSH1 0xE2 SHL PUSH1 0x84 DUP3 ADD MSTORE PUSH1 0xA4 ADD PUSH2 0x3A8 JUMP JUMPDEST POP POP DUP1 DUP1 PUSH2 0x646 SWAP1 PUSH2 0x173D JUMP JUMPDEST SWAP2 POP POP PUSH2 0x478 JUMP JUMPDEST POP DUP1 ISZERO PUSH2 0x66B JUMPI PUSH1 0x4 DUP1 SLOAD PUSH1 0x1 PUSH1 0x1 PUSH1 0xA0 SHL SUB NOT AND SWAP1 SSTORE PUSH1 0x0 PUSH1 0x5 SSTORE JUMPDEST POP JUMPDEST POP POP POP POP JUMP JUMPDEST PUSH2 0x67D PUSH1 0x1 PUSH2 0xCEB JUMP JUMPDEST ISZERO PUSH2 0x850 JUMPI PUSH1 0x4 SLOAD PUSH1 0x1 PUSH1 0x1 PUSH1 0xA0 SHL SUB AND ISZERO DUP1 ISZERO PUSH2 0x6AD JUMPI PUSH1 0x4 DUP1 SLOAD PUSH1 0x1 PUSH1 0x1 PUSH1 0xA0 SHL SUB NOT AND CALLER OR SWAP1 SSTORE PUSH1 0x1 PUSH1 0x5 SSTORE JUMPDEST CALLER PUSH1 0x0 SWAP1 DUP2 MSTORE PUSH1 0x6 PUSH1 0x20 MSTORE PUSH1 0x40 DUP2 KECCAK256 SLOAD PUSH2 0x6C9 SWAP1 PUSH1 0x1 SWAP1 PUSH2 0x175C JUMP JUMPDEST SWAP1 POP PUSH2 0x6D6 DUP2 PUSH1 0x2 PUSH2 0x1859 JUMP JUMPDEST PUSH1 0x0 DUP5 DUP2 MSTORE PUSH1 0x8 PUSH1 0x20 MSTORE PUSH1 0x40 DUP2 KECCAK256 SLOAD SWAP2 SWAP1 SWAP2 AND SWAP1 SUB PUSH2 0x750 JUMPI PUSH1 0x40 MLOAD PUSH3 0x461BCD PUSH1 0xE5 SHL DUP2 MSTORE PUSH1 0x20 PUSH1 0x4 DUP3 ADD MSTORE PUSH1 0x30 PUSH1 0x24 DUP3 ADD MSTORE PUSH32 0x63616E63656C50656E64696E673A206F7065726174696F6E206E6F7420666F75 PUSH1 0x44 DUP3 ADD MSTORE PUSH16 0x3732103337B9103A3434B9903AB9B2B9 PUSH1 0x81 SHL PUSH1 0x64 DUP3 ADD MSTORE PUSH1 0x84 ADD PUSH2 0x3A8 JUMP JUMPDEST PUSH2 0x75B DUP2 PUSH1 0x2 PUSH2 0x1859 JUMP JUMPDEST PUSH1 0x0 DUP5 DUP2 MSTORE PUSH1 0x8 PUSH1 0x20 SWAP1 DUP2 MSTORE PUSH1 0x40 DUP1 DUP4 KECCAK256 DUP1 SLOAD SWAP5 NOT SWAP1 SWAP5 AND SWAP1 SWAP4 SSTORE PUSH1 0x9 SWAP1 MSTORE SWAP1 DUP2 KECCAK256 SLOAD PUSH2 0x78A SWAP1 PUSH1 0x1 SWAP1 PUSH2 0x175C JUMP JUMPDEST PUSH1 0x0 DUP6 DUP2 MSTORE PUSH1 0x9 PUSH1 0x20 SWAP1 DUP2 MSTORE PUSH1 0x40 SWAP2 DUP3 SWAP1 KECCAK256 DUP4 SWAP1 SSTORE PUSH1 0x2 SLOAD DUP3 MLOAD DUP9 DUP2 MSTORE SWAP2 DUP3 ADD DUP5 SWAP1 MSTORE DUP2 DUP4 ADD MSTORE CALLER PUSH1 0x60 DUP3 ADD MSTORE SWAP1 MLOAD SWAP2 SWAP3 POP PUSH32 0x3E0A7036018B5A2A3C5D0AFA14E51998EF3CF98C38E4289A8897222B3ACF75A7 SWAP2 SWAP1 DUP2 SWAP1 SUB PUSH1 0x80 ADD SWAP1 LOG1 DUP1 PUSH1 0x0 SUB PUSH2 0x831 JUMPI PUSH2 0x7F8 DUP5 PUSH2 0x1092 JUMP JUMPDEST PUSH1 0x40 DUP1 MLOAD DUP6 DUP2 MSTORE CALLER PUSH1 0x20 DUP3 ADD MSTORE PUSH32 0x55E0DD61C29AAC6FC36807628300AD3E3EC68655AE76AE4002F7FB101496FA9F SWAP2 ADD PUSH1 0x40 MLOAD DUP1 SWAP2 SUB SWAP1 LOG1 JUMPDEST POP POP DUP1 ISZERO PUSH2 0x2BA JUMPI PUSH1 0x4 DUP1 SLOAD PUSH1 0x1 PUSH1 0x1 PUSH1 0xA0 SHL SUB NOT AND SWAP1 SSTORE PUSH1 0x0 PUSH1 0x5 SSTORE POP JUMPDEST POP JUMP JUMPDEST PUSH2 0x85E PUSH1 0x1 SLOAD PUSH2 0xCEB JUMP JUMPDEST ISZERO PUSH2 0xCE6 JUMPI PUSH1 0x4 SLOAD PUSH1 0x1 PUSH1 0x1 PUSH1 0xA0 SHL SUB AND ISZERO DUP1 ISZERO PUSH2 0x88F JUMPI PUSH1 0x4 DUP1 SLOAD PUSH1 0x1 PUSH1 0x1 PUSH1 0xA0 SHL SUB NOT AND CALLER OR SWAP1 SSTORE PUSH1 0x1 SLOAD PUSH1 0x5 SSTORE JUMPDEST DUP3 PUSH2 0x8E6 JUMPI PUSH1 0x40 MLOAD PUSH3 0x461BCD PUSH1 0xE5 SHL DUP2 MSTORE PUSH1 0x20 PUSH1 0x4 DUP3 ADD MSTORE PUSH1 0x33 PUSH1 0x24 DUP3 ADD MSTORE PUSH1 0x0 DUP1 MLOAD PUSH1 0x20 PUSH2 0x1982 DUP4 CODECOPY DUP2 MLOAD SWAP2 MSTORE PUSH1 0x44 DUP3 ADD MSTORE PUSH19 0x6E65727320617272617920697320656D707479 PUSH1 0x68 SHL PUSH1 0x64 DUP3 ADD MSTORE PUSH1 0x84 ADD PUSH2 0x3A8 JUMP JUMPDEST PUSH2 0x100 DUP4 GT ISZERO PUSH2 0x94C JUMPI PUSH1 0x40 MLOAD PUSH3 0x461BCD PUSH1 0xE5 SHL DUP2 MSTORE PUSH1 0x20 PUSH1 0x4 DUP3 ADD MSTORE PUSH1 0x3E PUSH1 0x24 DUP3 ADD MSTORE PUSH1 0x0 DUP1 MLOAD PUSH1 0x20 PUSH2 0x1982 DUP4 CODECOPY DUP2 MLOAD SWAP2 MSTORE PUSH1 0x44 DUP3 ADD MSTORE PUSH32 0x6E65727320636F756E742069732067726561746572207468656E203235360000 PUSH1 0x64 DUP3 ADD MSTORE PUSH1 0x84 ADD PUSH2 0x3A8 JUMP JUMPDEST PUSH1 0x0 DUP3 GT PUSH2 0x9C2 JUMPI PUSH1 0x40 MLOAD PUSH3 0x461BCD PUSH1 0xE5 SHL DUP2 MSTORE PUSH1 0x20 PUSH1 0x4 DUP3 ADD MSTORE PUSH1 0x3F PUSH1 0x24 DUP3 ADD MSTORE PUSH32 0x7472616E736665724F776E65727368697057697468486F774D616E793A206E65 PUSH1 0x44 DUP3 ADD MSTORE PUSH32 0x77486F774D616E794F776E65727344656369646520657175616C20746F203000 PUSH1 0x64 DUP3 ADD MSTORE PUSH1 0x84 ADD PUSH2 0x3A8 JUMP JUMPDEST DUP3 DUP3 GT ISZERO PUSH2 0xA52 JUMPI PUSH1 0x40 MLOAD PUSH3 0x461BCD PUSH1 0xE5 SHL DUP2 MSTORE PUSH1 0x20 PUSH1 0x4 DUP3 ADD MSTORE PUSH1 0x51 PUSH1 0x24 DUP3 ADD MSTORE PUSH32 0x7472616E736665724F776E65727368697057697468486F774D616E793A206E65 PUSH1 0x44 DUP3 ADD MSTORE PUSH32 0x77486F774D616E794F776E657273446563696465206578636565647320746865 PUSH1 0x64 DUP3 ADD MSTORE PUSH17 0x206E756D626572206F66206F776E657273 PUSH1 0x78 SHL PUSH1 0x84 DUP3 ADD MSTORE PUSH1 0xA4 ADD PUSH2 0x3A8 JUMP JUMPDEST PUSH1 0x0 JUMPDEST PUSH1 0x2 SLOAD DUP2 LT ISZERO PUSH2 0xAAD JUMPI PUSH1 0x6 PUSH1 0x0 PUSH1 0x2 DUP4 DUP2 SLOAD DUP2 LT PUSH2 0xA76 JUMPI PUSH2 0xA76 PUSH2 0x16B1 JUMP JUMPDEST PUSH1 0x0 SWAP2 DUP3 MSTORE PUSH1 0x20 DUP1 DUP4 KECCAK256 SWAP1 SWAP2 ADD SLOAD PUSH1 0x1 PUSH1 0x1 PUSH1 0xA0 SHL SUB AND DUP4 MSTORE DUP3 ADD SWAP3 SWAP1 SWAP3 MSTORE PUSH1 0x40 ADD DUP2 KECCAK256 SSTORE DUP1 PUSH2 0xAA5 DUP2 PUSH2 0x1865 JUMP JUMPDEST SWAP2 POP POP PUSH2 0xA55 JUMP JUMPDEST POP PUSH1 0x0 JUMPDEST DUP4 DUP2 LT ISZERO PUSH2 0xC54 JUMPI PUSH1 0x0 DUP6 DUP6 DUP4 DUP2 DUP2 LT PUSH2 0xACD JUMPI PUSH2 0xACD PUSH2 0x16B1 JUMP JUMPDEST SWAP1 POP PUSH1 0x20 MUL ADD PUSH1 0x20 DUP2 ADD SWAP1 PUSH2 0xAE2 SWAP2 SWAP1 PUSH2 0x12E2 JUMP JUMPDEST PUSH1 0x1 PUSH1 0x1 PUSH1 0xA0 SHL SUB AND SUB PUSH2 0xB4C JUMPI PUSH1 0x40 MLOAD PUSH3 0x461BCD PUSH1 0xE5 SHL DUP2 MSTORE PUSH1 0x20 PUSH1 0x4 DUP3 ADD MSTORE PUSH1 0x38 PUSH1 0x24 DUP3 ADD MSTORE PUSH1 0x0 DUP1 MLOAD PUSH1 0x20 PUSH2 0x1982 DUP4 CODECOPY DUP2 MLOAD SWAP2 MSTORE PUSH1 0x44 DUP3 ADD MSTORE PUSH32 0x6E65727320617272617920636F6E7461696E73207A65726F0000000000000000 PUSH1 0x64 DUP3 ADD MSTORE PUSH1 0x84 ADD PUSH2 0x3A8 JUMP JUMPDEST PUSH1 0x6 PUSH1 0x0 DUP7 DUP7 DUP5 DUP2 DUP2 LT PUSH2 0xB62 JUMPI PUSH2 0xB62 PUSH2 0x16B1 JUMP JUMPDEST SWAP1 POP PUSH1 0x20 MUL ADD PUSH1 0x20 DUP2 ADD SWAP1 PUSH2 0xB77 SWAP2 SWAP1 PUSH2 0x12E2 JUMP JUMPDEST PUSH1 0x1 PUSH1 0x1 PUSH1 0xA0 SHL SUB AND DUP2 MSTORE PUSH1 0x20 DUP2 ADD SWAP2 SWAP1 SWAP2 MSTORE PUSH1 0x40 ADD PUSH1 0x0 KECCAK256 SLOAD ISZERO PUSH2 0xBF2 JUMPI PUSH1 0x40 MLOAD PUSH3 0x461BCD PUSH1 0xE5 SHL DUP2 MSTORE PUSH1 0x20 PUSH1 0x4 DUP3 ADD MSTORE PUSH1 0x3E PUSH1 0x24 DUP3 ADD MSTORE PUSH1 0x0 DUP1 MLOAD PUSH1 0x20 PUSH2 0x1982 DUP4 CODECOPY DUP2 MLOAD SWAP2 MSTORE PUSH1 0x44 DUP3 ADD MSTORE PUSH32 0x6E65727320617272617920636F6E7461696E73206475706C6963617465730000 PUSH1 0x64 DUP3 ADD MSTORE PUSH1 0x84 ADD PUSH2 0x3A8 JUMP JUMPDEST PUSH2 0xBFD DUP2 PUSH1 0x1 PUSH2 0x187E JUMP JUMPDEST PUSH1 0x6 PUSH1 0x0 DUP8 DUP8 DUP6 DUP2 DUP2 LT PUSH2 0xC13 JUMPI PUSH2 0xC13 PUSH2 0x16B1 JUMP JUMPDEST SWAP1 POP PUSH1 0x20 MUL ADD PUSH1 0x20 DUP2 ADD SWAP1 PUSH2 0xC28 SWAP2 SWAP1 PUSH2 0x12E2 JUMP JUMPDEST PUSH1 0x1 PUSH1 0x1 PUSH1 0xA0 SHL SUB AND DUP2 MSTORE PUSH1 0x20 DUP2 ADD SWAP2 SWAP1 SWAP2 MSTORE PUSH1 0x40 ADD PUSH1 0x0 KECCAK256 SSTORE DUP1 PUSH2 0xC4C DUP2 PUSH2 0x1865 JUMP JUMPDEST SWAP2 POP POP PUSH2 0xAB1 JUMP JUMPDEST POP PUSH32 0xD167B96814CD24898418CC293E8D47D54AFE6DCF0631283F0830E1EAE621F6BD PUSH1 0x2 PUSH1 0x1 SLOAD DUP7 DUP7 DUP7 PUSH1 0x40 MLOAD PUSH2 0xC8F SWAP6 SWAP5 SWAP4 SWAP3 SWAP2 SWAP1 PUSH2 0x1891 JUMP JUMPDEST PUSH1 0x40 MLOAD DUP1 SWAP2 SUB SWAP1 LOG1 PUSH2 0xCA3 PUSH1 0x2 DUP6 DUP6 PUSH2 0x118D JUMP JUMPDEST POP PUSH1 0x1 DUP3 SWAP1 SSTORE PUSH2 0xCB5 PUSH1 0x3 PUSH1 0x0 PUSH2 0x11F0 JUMP JUMPDEST PUSH1 0x0 DUP1 SLOAD SWAP1 DUP1 PUSH2 0xCC4 DUP4 PUSH2 0x1865 JUMP JUMPDEST SWAP2 SWAP1 POP SSTORE POP DUP1 ISZERO PUSH2 0x66D JUMPI PUSH1 0x4 DUP1 SLOAD PUSH1 0x1 PUSH1 0x1 PUSH1 0xA0 SHL SUB NOT AND SWAP1 SSTORE PUSH1 0x0 PUSH1 0x5 SSTORE POP JUMPDEST POP POP POP JUMP JUMPDEST PUSH1 0x4 SLOAD PUSH1 0x0 SWAP1 CALLER PUSH1 0x1 PUSH1 0x1 PUSH1 0xA0 SHL SUB SWAP1 SWAP2 AND SUB PUSH2 0xD90 JUMPI PUSH1 0x5 SLOAD DUP3 GT ISZERO PUSH2 0xD88 JUMPI PUSH1 0x40 MLOAD PUSH3 0x461BCD PUSH1 0xE5 SHL DUP2 MSTORE PUSH1 0x20 PUSH1 0x4 DUP3 ADD MSTORE PUSH1 0x45 PUSH1 0x24 DUP3 ADD MSTORE PUSH32 0x5F636865636B486F774D616E794F776E6572733A206E6573746564206F776E65 PUSH1 0x44 DUP3 ADD MSTORE PUSH32 0x7273206D6F64696669657220636865636B2072657175697265206D6F7265206F PUSH1 0x64 DUP3 ADD MSTORE PUSH5 0x776E657273 PUSH1 0xD8 SHL PUSH1 0x84 DUP3 ADD MSTORE PUSH1 0xA4 ADD PUSH2 0x3A8 JUMP JUMPDEST POP PUSH1 0x1 SWAP2 SWAP1 POP JUMP JUMPDEST CALLER PUSH1 0x0 SWAP1 DUP2 MSTORE PUSH1 0x6 PUSH1 0x20 MSTORE PUSH1 0x40 SWAP1 KECCAK256 SLOAD PUSH2 0xE04 JUMPI PUSH1 0x40 MLOAD PUSH3 0x461BCD PUSH1 0xE5 SHL DUP2 MSTORE PUSH1 0x20 PUSH1 0x4 DUP3 ADD MSTORE PUSH1 0x2F PUSH1 0x24 DUP3 ADD MSTORE PUSH32 0x5F636865636B486F774D616E794F776E6572733A206D73672E73656E64657220 PUSH1 0x44 DUP3 ADD MSTORE PUSH15 0x34B9903737BA1030B71037BBB732B9 PUSH1 0x89 SHL PUSH1 0x64 DUP3 ADD MSTORE PUSH1 0x84 ADD PUSH2 0x3A8 JUMP JUMPDEST CALLER PUSH1 0x0 SWAP1 DUP2 MSTORE PUSH1 0x6 PUSH1 0x20 MSTORE PUSH1 0x40 DUP2 KECCAK256 SLOAD PUSH2 0xE20 SWAP1 PUSH1 0x1 SWAP1 PUSH2 0x175C JUMP JUMPDEST SWAP1 POP PUSH1 0x0 DUP1 CALLDATASIZE PUSH1 0x0 SLOAD PUSH1 0x40 MLOAD PUSH1 0x20 ADD PUSH2 0xE3B SWAP4 SWAP3 SWAP2 SWAP1 PUSH2 0x1939 JUMP JUMPDEST PUSH1 0x40 MLOAD PUSH1 0x20 DUP2 DUP4 SUB SUB DUP2 MSTORE SWAP1 PUSH1 0x40 MSTORE DUP1 MLOAD SWAP1 PUSH1 0x20 ADD KECCAK256 SWAP1 POP DUP2 PUSH1 0x2 PUSH2 0xE60 SWAP2 SWAP1 PUSH2 0x1859 JUMP JUMPDEST PUSH1 0x0 DUP3 DUP2 MSTORE PUSH1 0x8 PUSH1 0x20 MSTORE PUSH1 0x40 SWAP1 KECCAK256 SLOAD AND ISZERO PUSH2 0xEE3 JUMPI PUSH1 0x40 MLOAD PUSH3 0x461BCD PUSH1 0xE5 SHL DUP2 MSTORE PUSH1 0x20 PUSH1 0x4 DUP3 ADD MSTORE PUSH1 0x3A PUSH1 0x24 DUP3 ADD MSTORE PUSH32 0x5F636865636B486F774D616E794F776E6572733A206F776E657220616C726561 PUSH1 0x44 DUP3 ADD MSTORE PUSH32 0x647920766F74656420666F7220746865206F7065726174696F6E000000000000 PUSH1 0x64 DUP3 ADD MSTORE PUSH1 0x84 ADD PUSH2 0x3A8 JUMP JUMPDEST PUSH2 0xEEE DUP3 PUSH1 0x2 PUSH2 0x1859 JUMP JUMPDEST PUSH1 0x0 DUP3 DUP2 MSTORE PUSH1 0x8 PUSH1 0x20 SWAP1 DUP2 MSTORE PUSH1 0x40 DUP1 DUP4 KECCAK256 DUP1 SLOAD SWAP1 SWAP5 OR SWAP1 SWAP4 SSTORE PUSH1 0x9 SWAP1 MSTORE SWAP1 DUP2 KECCAK256 SLOAD PUSH2 0xF1A SWAP1 PUSH1 0x1 PUSH2 0x187E JUMP JUMPDEST PUSH1 0x0 DUP4 DUP2 MSTORE PUSH1 0x9 PUSH1 0x20 MSTORE PUSH1 0x40 SWAP1 KECCAK256 DUP2 SWAP1 SSTORE SWAP1 POP PUSH1 0x1 DUP2 SWAP1 SUB PUSH2 0xFC4 JUMPI PUSH1 0x3 DUP1 SLOAD PUSH1 0x0 DUP5 DUP2 MSTORE PUSH1 0x7 PUSH1 0x20 SWAP1 DUP2 MSTORE PUSH1 0x40 DUP1 DUP4 KECCAK256 DUP5 SWAP1 SSTORE PUSH1 0x1 DUP5 ADD DUP6 SSTORE SWAP4 SWAP1 SWAP2 MSTORE PUSH32 0xC2575A0E9E593C00F959F8C92F12DB2869C3395A3B0502D05E2516446F71F85B SWAP1 SWAP2 ADD DUP5 SWAP1 SSTORE PUSH1 0x2 SLOAD DUP3 MLOAD DUP6 DUP2 MSTORE SWAP2 DUP3 ADD DUP9 SWAP1 MSTORE DUP2 DUP4 ADD MSTORE CALLER PUSH1 0x60 DUP3 ADD MSTORE SWAP1 MLOAD PUSH32 0x6BAB0114F9524353D2D33E64EDD3EBBD16E21EDD57DE2226BA76C310A7CE2265 SWAP2 DUP2 SWAP1 SUB PUSH1 0x80 ADD SWAP1 LOG1 JUMPDEST PUSH1 0x2 SLOAD PUSH1 0x40 DUP1 MLOAD DUP5 DUP2 MSTORE PUSH1 0x20 DUP2 ADD DUP5 SWAP1 MSTORE DUP1 DUP3 ADD DUP9 SWAP1 MSTORE PUSH1 0x60 DUP2 ADD SWAP3 SWAP1 SWAP3 MSTORE CALLER PUSH1 0x80 DUP4 ADD MSTORE MLOAD PUSH32 0x8DD9582C6577AEA81973B5ADEB6C135F6E18565D99578B7BA0C9377437EC0221 SWAP2 DUP2 SWAP1 SUB PUSH1 0xA0 ADD SWAP1 LOG1 PUSH1 0x0 DUP3 DUP2 MSTORE PUSH1 0x9 PUSH1 0x20 MSTORE PUSH1 0x40 SWAP1 KECCAK256 SLOAD DUP6 SWAP1 SUB PUSH2 0x1087 JUMPI PUSH2 0x1033 DUP3 PUSH2 0x1092 JUMP JUMPDEST PUSH1 0x2 SLOAD PUSH1 0x40 DUP1 MLOAD DUP5 DUP2 MSTORE PUSH1 0x20 DUP2 ADD DUP9 SWAP1 MSTORE DUP1 DUP3 ADD SWAP3 SWAP1 SWAP3 MSTORE CALLER PUSH1 0x60 DUP4 ADD MSTORE MLOAD PUSH32 0x8A11C8CA99994C292318CE367F65BF6FF61D390BC814B3588496F6FBCC32807A SWAP2 DUP2 SWAP1 SUB PUSH1 0x80 ADD SWAP1 LOG1 POP PUSH1 0x1 SWAP5 SWAP4 POP POP POP POP JUMP JUMPDEST POP PUSH1 0x0 SWAP5 SWAP4 POP POP POP POP JUMP JUMPDEST PUSH1 0x0 DUP2 DUP2 MSTORE PUSH1 0x7 PUSH1 0x20 MSTORE PUSH1 0x40 SWAP1 KECCAK256 SLOAD PUSH1 0x3 SLOAD PUSH2 0x10B0 SWAP1 PUSH1 0x1 SWAP1 PUSH2 0x175C JUMP JUMPDEST DUP2 LT ISZERO PUSH2 0x1139 JUMPI PUSH1 0x3 DUP1 SLOAD PUSH2 0x10C7 SWAP1 PUSH1 0x1 SWAP1 PUSH2 0x175C JUMP JUMPDEST DUP2 SLOAD DUP2 LT PUSH2 0x10D7 JUMPI PUSH2 0x10D7 PUSH2 0x16B1 JUMP JUMPDEST SWAP1 PUSH1 0x0 MSTORE PUSH1 0x20 PUSH1 0x0 KECCAK256 ADD SLOAD PUSH1 0x3 DUP3 DUP2 SLOAD DUP2 LT PUSH2 0x10F5 JUMPI PUSH2 0x10F5 PUSH2 0x16B1 JUMP JUMPDEST SWAP1 PUSH1 0x0 MSTORE PUSH1 0x20 PUSH1 0x0 KECCAK256 ADD DUP2 SWAP1 SSTORE POP DUP1 PUSH1 0x7 PUSH1 0x0 PUSH1 0x3 DUP5 DUP2 SLOAD DUP2 LT PUSH2 0x111B JUMPI PUSH2 0x111B PUSH2 0x16B1 JUMP JUMPDEST SWAP1 PUSH1 0x0 MSTORE PUSH1 0x20 PUSH1 0x0 KECCAK256 ADD SLOAD DUP2 MSTORE PUSH1 0x20 ADD SWAP1 DUP2 MSTORE PUSH1 0x20 ADD PUSH1 0x0 KECCAK256 DUP2 SWAP1 SSTORE POP JUMPDEST PUSH1 0x3 DUP1 SLOAD DUP1 PUSH2 0x114A JUMPI PUSH2 0x114A PUSH2 0x194B JUMP JUMPDEST PUSH1 0x0 DUP3 DUP2 MSTORE PUSH1 0x20 DUP1 DUP3 KECCAK256 DUP4 ADD PUSH1 0x0 NOT SWAP1 DUP2 ADD DUP4 SWAP1 SSTORE SWAP1 SWAP3 ADD SWAP1 SWAP3 SSTORE SWAP3 DUP2 MSTORE PUSH1 0x8 DUP4 MSTORE PUSH1 0x40 DUP1 DUP3 KECCAK256 DUP3 SWAP1 SSTORE PUSH1 0x9 DUP5 MSTORE DUP1 DUP3 KECCAK256 DUP3 SWAP1 SSTORE PUSH1 0x7 SWAP1 SWAP4 MSTORE SWAP2 DUP3 KECCAK256 SWAP2 SWAP1 SWAP2 SSTORE POP JUMP JUMPDEST DUP3 DUP1 SLOAD DUP3 DUP3 SSTORE SWAP1 PUSH1 0x0 MSTORE PUSH1 0x20 PUSH1 0x0 KECCAK256 SWAP1 DUP2 ADD SWAP3 DUP3 ISZERO PUSH2 0x11E0 JUMPI SWAP2 PUSH1 0x20 MUL DUP3 ADD JUMPDEST DUP3 DUP2 GT ISZERO PUSH2 0x11E0 JUMPI DUP2 SLOAD PUSH1 0x1 PUSH1 0x1 PUSH1 0xA0 SHL SUB NOT AND PUSH1 0x1 PUSH1 0x1 PUSH1 0xA0 SHL SUB DUP5 CALLDATALOAD AND OR DUP3 SSTORE PUSH1 0x20 SWAP1 SWAP3 ADD SWAP2 PUSH1 0x1 SWAP1 SWAP2 ADD SWAP1 PUSH2 0x11AD JUMP JUMPDEST POP PUSH2 0x11EC SWAP3 SWAP2 POP PUSH2 0x120A JUMP JUMPDEST POP SWAP1 JUMP JUMPDEST POP DUP1 SLOAD PUSH1 0x0 DUP3 SSTORE SWAP1 PUSH1 0x0 MSTORE PUSH1 0x20 PUSH1 0x0 KECCAK256 SWAP1 DUP2 ADD SWAP1 PUSH2 0x850 SWAP2 SWAP1 JUMPDEST JUMPDEST DUP1 DUP3 GT ISZERO PUSH2 0x11EC JUMPI PUSH1 0x0 DUP2 SSTORE PUSH1 0x1 ADD PUSH2 0x120B JUMP JUMPDEST PUSH1 0x0 PUSH1 0x20 DUP3 DUP5 SUB SLT ISZERO PUSH2 0x1231 JUMPI PUSH1 0x0 DUP1 REVERT JUMPDEST POP CALLDATALOAD SWAP2 SWAP1 POP JUMP JUMPDEST PUSH1 0x0 DUP1 DUP4 PUSH1 0x1F DUP5 ADD SLT PUSH2 0x124A JUMPI PUSH1 0x0 DUP1 REVERT JUMPDEST POP DUP2 CALLDATALOAD PUSH8 0xFFFFFFFFFFFFFFFF DUP2 GT ISZERO PUSH2 0x1262 JUMPI PUSH1 0x0 DUP1 REVERT JUMPDEST PUSH1 0x20 DUP4 ADD SWAP2 POP DUP4 PUSH1 0x20 DUP3 PUSH1 0x5 SHL DUP6 ADD ADD GT ISZERO PUSH2 0x127D JUMPI PUSH1 0x0 DUP1 REVERT JUMPDEST SWAP3 POP SWAP3 SWAP1 POP JUMP JUMPDEST PUSH1 0x0 DUP1 PUSH1 0x20 DUP4 DUP6 SUB SLT ISZERO PUSH2 0x1297 JUMPI PUSH1 0x0 DUP1 REVERT JUMPDEST DUP3 CALLDATALOAD PUSH8 0xFFFFFFFFFFFFFFFF DUP2 GT ISZERO PUSH2 0x12AE JUMPI PUSH1 0x0 DUP1 REVERT JUMPDEST PUSH2 0x12BA DUP6 DUP3 DUP7 ADD PUSH2 0x1238 JUMP JUMPDEST SWAP1 SWAP7 SWAP1 SWAP6 POP SWAP4 POP POP POP POP JUMP JUMPDEST DUP1 CALLDATALOAD PUSH1 0x1 PUSH1 0x1 PUSH1 0xA0 SHL SUB DUP2 AND DUP2 EQ PUSH2 0x12DD JUMPI PUSH1 0x0 DUP1 REVERT JUMPDEST SWAP2 SWAP1 POP JUMP JUMPDEST PUSH1 0x0 PUSH1 0x20 DUP3 DUP5 SUB SLT ISZERO PUSH2 0x12F4 JUMPI PUSH1 0x0 DUP1 REVERT JUMPDEST PUSH2 0x12FD DUP3 PUSH2 0x12C6 JUMP JUMPDEST SWAP4 SWAP3 POP POP POP JUMP JUMPDEST PUSH4 0x4E487B71 PUSH1 0xE0 SHL PUSH1 0x0 MSTORE PUSH1 0x41 PUSH1 0x4 MSTORE PUSH1 0x24 PUSH1 0x0 REVERT JUMPDEST PUSH1 0x40 MLOAD PUSH1 0x1F DUP3 ADD PUSH1 0x1F NOT AND DUP2 ADD PUSH8 0xFFFFFFFFFFFFFFFF DUP2 GT DUP3 DUP3 LT OR ISZERO PUSH2 0x1343 JUMPI PUSH2 0x1343 PUSH2 0x1304 JUMP JUMPDEST PUSH1 0x40 MSTORE SWAP2 SWAP1 POP JUMP JUMPDEST PUSH1 0x0 PUSH8 0xFFFFFFFFFFFFFFFF DUP3 GT ISZERO PUSH2 0x1365 JUMPI PUSH2 0x1365 PUSH2 0x1304 JUMP JUMPDEST POP PUSH1 0x5 SHL PUSH1 0x20 ADD SWAP1 JUMP JUMPDEST PUSH1 0x0 DUP3 PUSH1 0x1F DUP4 ADD SLT PUSH2 0x1380 JUMPI PUSH1 0x0 DUP1 REVERT JUMPDEST DUP2 CALLDATALOAD PUSH1 0x20 PUSH2 0x1395 PUSH2 0x1390 DUP4 PUSH2 0x134B JUMP JUMPDEST PUSH2 0x131A JUMP JUMPDEST DUP3 DUP2 MSTORE PUSH1 0x5 SWAP3 SWAP1 SWAP3 SHL DUP5 ADD DUP2 ADD SWAP2 DUP2 DUP2 ADD SWAP1 DUP7 DUP5 GT ISZERO PUSH2 0x13B4 JUMPI PUSH1 0x0 DUP1 REVERT JUMPDEST DUP3 DUP7 ADD JUMPDEST DUP5 DUP2 LT ISZERO PUSH2 0x13CF JUMPI DUP1 CALLDATALOAD DUP4 MSTORE SWAP2 DUP4 ADD SWAP2 DUP4 ADD PUSH2 0x13B8 JUMP JUMPDEST POP SWAP7 SWAP6 POP POP POP POP POP POP JUMP JUMPDEST PUSH1 0x0 PUSH8 0xFFFFFFFFFFFFFFFF DUP4 GT ISZERO PUSH2 0x13F4 JUMPI PUSH2 0x13F4 PUSH2 0x1304 JUMP JUMPDEST PUSH2 0x1407 PUSH1 0x1F DUP5 ADD PUSH1 0x1F NOT AND PUSH1 0x20 ADD PUSH2 0x131A JUMP JUMPDEST SWAP1 POP DUP3 DUP2 MSTORE DUP4 DUP4 DUP4 ADD GT ISZERO PUSH2 0x141B JUMPI PUSH1 0x0 DUP1 REVERT JUMPDEST DUP3 DUP3 PUSH1 0x20 DUP4 ADD CALLDATACOPY PUSH1 0x0 PUSH1 0x20 DUP5 DUP4 ADD ADD MSTORE SWAP4 SWAP3 POP POP POP JUMP JUMPDEST PUSH1 0x0 DUP3 PUSH1 0x1F DUP4 ADD SLT PUSH2 0x1443 JUMPI PUSH1 0x0 DUP1 REVERT JUMPDEST DUP2 CALLDATALOAD PUSH1 0x20 PUSH2 0x1453 PUSH2 0x1390 DUP4 PUSH2 0x134B JUMP JUMPDEST DUP3 DUP2 MSTORE PUSH1 0x5 SWAP3 SWAP1 SWAP3 SHL DUP5 ADD DUP2 ADD SWAP2 DUP2 DUP2 ADD SWAP1 DUP7 DUP5 GT ISZERO PUSH2 0x1472 JUMPI PUSH1 0x0 DUP1 REVERT JUMPDEST DUP3 DUP7 ADD JUMPDEST DUP5 DUP2 LT ISZERO PUSH2 0x13CF JUMPI DUP1 CALLDATALOAD PUSH8 0xFFFFFFFFFFFFFFFF DUP2 GT ISZERO PUSH2 0x1496 JUMPI PUSH1 0x0 DUP1 DUP2 REVERT JUMPDEST DUP8 ADD PUSH1 0x3F DUP2 ADD DUP10 SGT PUSH2 0x14A8 JUMPI PUSH1 0x0 DUP1 DUP2 REVERT JUMPDEST PUSH2 0x14B9 DUP10 DUP7 DUP4 ADD CALLDATALOAD PUSH1 0x40 DUP5 ADD PUSH2 0x13DA JUMP JUMPDEST DUP5 MSTORE POP SWAP2 DUP4 ADD SWAP2 DUP4 ADD PUSH2 0x1476 JUMP JUMPDEST PUSH1 0x0 DUP3 PUSH1 0x1F DUP4 ADD SLT PUSH2 0x14D8 JUMPI PUSH1 0x0 DUP1 REVERT JUMPDEST DUP2 CALLDATALOAD PUSH1 0x20 PUSH2 0x14E8 PUSH2 0x1390 DUP4 PUSH2 0x134B JUMP JUMPDEST DUP3 DUP2 MSTORE PUSH1 0x5 SWAP3 SWAP1 SWAP3 SHL DUP5 ADD DUP2 ADD SWAP2 DUP2 DUP2 ADD SWAP1 DUP7 DUP5 GT ISZERO PUSH2 0x1507 JUMPI PUSH1 0x0 DUP1 REVERT JUMPDEST DUP3 DUP7 ADD JUMPDEST DUP5 DUP2 LT ISZERO PUSH2 0x13CF JUMPI DUP1 CALLDATALOAD PUSH8 0xFFFFFFFFFFFFFFFF DUP2 GT ISZERO PUSH2 0x152B JUMPI PUSH1 0x0 DUP1 DUP2 REVERT JUMPDEST DUP8 ADD PUSH1 0x3F DUP2 ADD DUP10 SGT PUSH2 0x153D JUMPI PUSH1 0x0 DUP1 DUP2 REVERT JUMPDEST PUSH2 0x154E DUP10 DUP7 DUP4 ADD CALLDATALOAD PUSH1 0x40 DUP5 ADD PUSH2 0x13DA JUMP JUMPDEST DUP5 MSTORE POP SWAP2 DUP4 ADD SWAP2 DUP4 ADD PUSH2 0x150B JUMP JUMPDEST PUSH1 0x0 DUP1 PUSH1 0x0 DUP1 PUSH1 0x80 DUP6 DUP8 SUB SLT ISZERO PUSH2 0x1572 JUMPI PUSH1 0x0 DUP1 REVERT JUMPDEST DUP5 CALLDATALOAD PUSH8 0xFFFFFFFFFFFFFFFF DUP1 DUP3 GT ISZERO PUSH2 0x158A JUMPI PUSH1 0x0 DUP1 REVERT JUMPDEST DUP2 DUP8 ADD SWAP2 POP DUP8 PUSH1 0x1F DUP4 ADD SLT PUSH2 0x159E JUMPI PUSH1 0x0 DUP1 REVERT JUMPDEST DUP2 CALLDATALOAD PUSH1 0x20 PUSH2 0x15AE PUSH2 0x1390 DUP4 PUSH2 0x134B JUMP JUMPDEST DUP3 DUP2 MSTORE PUSH1 0x5 SWAP3 SWAP1 SWAP3 SHL DUP5 ADD DUP2 ADD SWAP2 DUP2 DUP2 ADD SWAP1 DUP12 DUP5 GT ISZERO PUSH2 0x15CD JUMPI PUSH1 0x0 DUP1 REVERT JUMPDEST SWAP5 DUP3 ADD SWAP5 JUMPDEST DUP4 DUP7 LT ISZERO PUSH2 0x15F2 JUMPI PUSH2 0x15E3 DUP7 PUSH2 0x12C6 JUMP JUMPDEST DUP3 MSTORE SWAP5 DUP3 ADD SWAP5 SWAP1 DUP3 ADD SWAP1 PUSH2 0x15D2 JUMP JUMPDEST SWAP9 POP POP DUP9 ADD CALLDATALOAD SWAP3 POP POP DUP1 DUP3 GT ISZERO PUSH2 0x1608 JUMPI PUSH1 0x0 DUP1 REVERT JUMPDEST PUSH2 0x1614 DUP9 DUP4 DUP10 ADD PUSH2 0x136F JUMP JUMPDEST SWAP5 POP PUSH1 0x40 DUP8 ADD CALLDATALOAD SWAP2 POP DUP1 DUP3 GT ISZERO PUSH2 0x162A JUMPI PUSH1 0x0 DUP1 REVERT JUMPDEST PUSH2 0x1636 DUP9 DUP4 DUP10 ADD PUSH2 0x1432 JUMP JUMPDEST SWAP4 POP PUSH1 0x60 DUP8 ADD CALLDATALOAD SWAP2 POP DUP1 DUP3 GT ISZERO PUSH2 0x164C JUMPI PUSH1 0x0 DUP1 REVERT JUMPDEST POP PUSH2 0x1659 DUP8 DUP3 DUP9 ADD PUSH2 0x14C7 JUMP JUMPDEST SWAP2 POP POP SWAP3 SWAP6 SWAP2 SWAP5 POP SWAP3 POP JUMP JUMPDEST PUSH1 0x0 DUP1 PUSH1 0x0 PUSH1 0x40 DUP5 DUP7 SUB SLT ISZERO PUSH2 0x167A JUMPI PUSH1 0x0 DUP1 REVERT JUMPDEST DUP4 CALLDATALOAD PUSH8 0xFFFFFFFFFFFFFFFF DUP2 GT ISZERO PUSH2 0x1691 JUMPI PUSH1 0x0 DUP1 REVERT JUMPDEST PUSH2 0x169D DUP7 DUP3 DUP8 ADD PUSH2 0x1238 JUMP JUMPDEST SWAP1 SWAP8 SWAP1 SWAP7 POP PUSH1 0x20 SWAP6 SWAP1 SWAP6 ADD CALLDATALOAD SWAP5 SWAP4 POP POP POP POP JUMP JUMPDEST PUSH4 0x4E487B71 PUSH1 0xE0 SHL PUSH1 0x0 MSTORE PUSH1 0x32 PUSH1 0x4 MSTORE PUSH1 0x24 PUSH1 0x0 REVERT JUMPDEST PUSH1 0x0 DUP2 MLOAD PUSH1 0x0 JUMPDEST DUP2 DUP2 LT ISZERO PUSH2 0x16E8 JUMPI PUSH1 0x20 DUP2 DUP6 ADD DUP2 ADD MLOAD DUP7 DUP4 ADD MSTORE ADD PUSH2 0x16CE JUMP JUMPDEST POP PUSH1 0x0 SWAP4 ADD SWAP3 DUP4 MSTORE POP SWAP1 SWAP2 SWAP1 POP JUMP JUMPDEST PUSH1 0x1 PUSH1 0x1 PUSH1 0xE0 SHL SUB NOT DUP4 AND DUP2 MSTORE PUSH1 0x0 PUSH2 0x1713 PUSH1 0x4 DUP4 ADD DUP5 PUSH2 0x16C7 JUMP JUMPDEST SWAP5 SWAP4 POP POP POP POP JUMP JUMPDEST PUSH1 0x0 PUSH2 0x12FD DUP3 DUP5 PUSH2 0x16C7 JUMP JUMPDEST PUSH4 0x4E487B71 PUSH1 0xE0 SHL PUSH1 0x0 MSTORE PUSH1 0x11 PUSH1 0x4 MSTORE PUSH1 0x24 PUSH1 0x0 REVERT JUMPDEST PUSH1 0x0 PUSH1 0xFF DUP3 AND PUSH1 0xFF DUP2 SUB PUSH2 0x1753 JUMPI PUSH2 0x1753 PUSH2 0x1727 JUMP JUMPDEST PUSH1 0x1 ADD SWAP3 SWAP2 POP POP JUMP JUMPDEST DUP2 DUP2 SUB DUP2 DUP2 GT ISZERO PUSH2 0x176F JUMPI PUSH2 0x176F PUSH2 0x1727 JUMP JUMPDEST SWAP3 SWAP2 POP POP JUMP JUMPDEST PUSH1 0x1 DUP2 DUP2 JUMPDEST DUP1 DUP6 GT ISZERO PUSH2 0x17B0 JUMPI DUP2 PUSH1 0x0 NOT DIV DUP3 GT ISZERO PUSH2 0x1796 JUMPI PUSH2 0x1796 PUSH2 0x1727 JUMP JUMPDEST DUP1 DUP6 AND ISZERO PUSH2 0x17A3 JUMPI SWAP2 DUP2 MUL SWAP2 JUMPDEST SWAP4 DUP5 SHR SWAP4 SWAP1 DUP1 MUL SWAP1 PUSH2 0x177A JUMP JUMPDEST POP SWAP3 POP SWAP3 SWAP1 POP JUMP JUMPDEST PUSH1 0x0 DUP3 PUSH2 0x17C7 JUMPI POP PUSH1 0x1 PUSH2 0x176F JUMP JUMPDEST DUP2 PUSH2 0x17D4 JUMPI POP PUSH1 0x0 PUSH2 0x176F JUMP JUMPDEST DUP2 PUSH1 0x1 DUP2 EQ PUSH2 0x17EA JUMPI PUSH1 0x2 DUP2 EQ PUSH2 0x17F4 JUMPI PUSH2 0x1810 JUMP JUMPDEST PUSH1 0x1 SWAP2 POP POP PUSH2 0x176F JUMP JUMPDEST PUSH1 0xFF DUP5 GT ISZERO PUSH2 0x1805 JUMPI PUSH2 0x1805 PUSH2 0x1727 JUMP JUMPDEST POP POP PUSH1 0x1 DUP3 SHL PUSH2 0x176F JUMP JUMPDEST POP PUSH1 0x20 DUP4 LT PUSH2 0x133 DUP4 LT AND PUSH1 0x4E DUP5 LT PUSH1 0xB DUP5 LT AND OR ISZERO PUSH2 0x1833 JUMPI POP DUP2 DUP2 EXP PUSH2 0x176F JUMP JUMPDEST PUSH2 0x183D DUP4 DUP4 PUSH2 0x1775 JUMP JUMPDEST DUP1 PUSH1 0x0 NOT DIV DUP3 GT ISZERO PUSH2 0x1851 JUMPI PUSH2 0x1851 PUSH2 0x1727 JUMP JUMPDEST MUL SWAP4 SWAP3 POP POP POP JUMP JUMPDEST PUSH1 0x0 PUSH2 0x12FD DUP4 DUP4 PUSH2 0x17B8 JUMP JUMPDEST PUSH1 0x0 PUSH1 0x1 DUP3 ADD PUSH2 0x1877 JUMPI PUSH2 0x1877 PUSH2 0x1727 JUMP JUMPDEST POP PUSH1 0x1 ADD SWAP1 JUMP JUMPDEST DUP1 DUP3 ADD DUP1 DUP3 GT ISZERO PUSH2 0x176F JUMPI PUSH2 0x176F PUSH2 0x1727 JUMP JUMPDEST PUSH1 0x0 PUSH1 0x80 DUP3 ADD PUSH1 0x80 DUP4 MSTORE DUP1 DUP9 SLOAD DUP1 DUP4 MSTORE PUSH1 0xA0 DUP6 ADD SWAP2 POP DUP10 PUSH1 0x0 MSTORE PUSH1 0x20 SWAP3 POP DUP3 PUSH1 0x0 KECCAK256 PUSH1 0x0 JUMPDEST DUP3 DUP2 LT ISZERO PUSH2 0x18DB JUMPI DUP2 SLOAD PUSH1 0x1 PUSH1 0x1 PUSH1 0xA0 SHL SUB AND DUP5 MSTORE SWAP3 DUP5 ADD SWAP3 PUSH1 0x1 SWAP2 DUP3 ADD SWAP2 ADD PUSH2 0x18B6 JUMP JUMPDEST POP POP POP DUP4 DUP3 ADD DUP9 SWAP1 MSTORE DUP4 DUP2 SUB PUSH1 0x40 DUP6 ADD MSTORE DUP6 DUP2 MSTORE DUP7 SWAP1 DUP3 ADD PUSH1 0x0 JUMPDEST DUP8 DUP2 LT ISZERO PUSH2 0x1922 JUMPI PUSH1 0x1 PUSH1 0x1 PUSH1 0xA0 SHL SUB PUSH2 0x190F DUP5 PUSH2 0x12C6 JUMP JUMPDEST AND DUP3 MSTORE SWAP2 DUP4 ADD SWAP2 SWAP1 DUP4 ADD SWAP1 PUSH1 0x1 ADD PUSH2 0x18F6 JUMP JUMPDEST POP DUP1 SWAP4 POP POP POP POP DUP3 PUSH1 0x60 DUP4 ADD MSTORE SWAP7 SWAP6 POP POP POP POP POP POP JUMP JUMPDEST DUP3 DUP5 DUP3 CALLDATACOPY SWAP1 SWAP2 ADD SWAP1 DUP2 MSTORE PUSH1 0x20 ADD SWAP2 SWAP1 POP JUMP JUMPDEST PUSH4 0x4E487B71 PUSH1 0xE0 SHL PUSH1 0x0 MSTORE PUSH1 0x31 PUSH1 0x4 MSTORE PUSH1 0x24 PUSH1 0x0 REVERT INVALID SELFBALANCE PUSH16 0x7665726E6F724D756C74697369673A3A PUSH6 0x786563757465 SLOAD PUSH19 0x616E7361637472616E736665724F776E657273 PUSH9 0x697057697468486F77 0x4D PUSH2 0x6E79 GASPRICE KECCAK256 PUSH16 0x77A2646970667358221220E210F62581 0xA7 SIGNEXTEND 0xD PUSH11 0xE12230CC8C9E04DF192D27 ISZERO 0xAD 0xB9 CREATE2 PUSH30 0xD05B9FCD060B8B64736F6C63430008140033000000000000000000000000 "},"methodIdentifiers":{"MAX_OPERATIONS()":"5dc2803a","allOperations(uint256)":"431ab233","allOperationsCount()":"22f2f89a","allOperationsIndicies(bytes32)":"ea1a2644","cancelPending(bytes32)":"893372ca","executeTransaction(address[],uint256[],string[],bytes[])":"8680ce4b","howManyOwnersDecide()":"2f4a81df","isOwner(address)":"2f54bf6e","owners(uint256)":"025e7c27","ownersCount()":"b9488546","ownersGeneration()":"b25bb3a7","ownersIndices(address)":"cc047a04","transferOwnership(address[])":"18bcd3d0","transferOwnershipWithHowMany(address[],uint256)":"e8518341","votesCountByOperation(bytes32)":"90a53085","votesMaskByOperation(bytes32)":"568b5915"}},"storageLayout":{"storage":[{"astId":6260,"contract":"contracts/governance/GovernorMultisig.sol:GovernorMultisig","label":"ownersGeneration","offset":0,"slot":"0","type":"t_uint256"},{"astId":6262,"contract":"contracts/governance/GovernorMultisig.sol:GovernorMultisig","label":"howManyOwnersDecide","offset":0,"slot":"1","type":"t_uint256"},{"astId":6265,"contract":"contracts/governance/GovernorMultisig.sol:GovernorMultisig","label":"owners","offset":0,"slot":"2","type":"t_array(t_address)dyn_storage"},{"astId":6268,"contract":"contracts/governance/GovernorMultisig.sol:GovernorMultisig","label":"allOperations","offset":0,"slot":"3","type":"t_array(t_bytes32)dyn_storage"},{"astId":6270,"contract":"contracts/governance/GovernorMultisig.sol:GovernorMultisig","label":"_insideCallSender","offset":0,"slot":"4","type":"t_address"},{"astId":6272,"contract":"contracts/governance/GovernorMultisig.sol:GovernorMultisig","label":"_insideCallCount","offset":0,"slot":"5","type":"t_uint256"},{"astId":6276,"contract":"contracts/governance/GovernorMultisig.sol:GovernorMultisig","label":"ownersIndices","offset":0,"slot":"6","type":"t_mapping(t_address,t_uint256)"},{"astId":6280,"contract":"contracts/governance/GovernorMultisig.sol:GovernorMultisig","label":"allOperationsIndicies","offset":0,"slot":"7","type":"t_mapping(t_bytes32,t_uint256)"},{"astId":6284,"contract":"contracts/governance/GovernorMultisig.sol:GovernorMultisig","label":"votesMaskByOperation","offset":0,"slot":"8","type":"t_mapping(t_bytes32,t_uint256)"},{"astId":6288,"contract":"contracts/governance/GovernorMultisig.sol:GovernorMultisig","label":"votesCountByOperation","offset":0,"slot":"9","type":"t_mapping(t_bytes32,t_uint256)"}],"types":{"t_address":{"encoding":"inplace","label":"address","numberOfBytes":"20"},"t_array(t_address)dyn_storage":{"base":"t_address","encoding":"dynamic_array","label":"address[]","numberOfBytes":"32"},"t_array(t_bytes32)dyn_storage":{"base":"t_bytes32","encoding":"dynamic_array","label":"bytes32[]","numberOfBytes":"32"},"t_bytes32":{"encoding":"inplace","label":"bytes32","numberOfBytes":"32"},"t_mapping(t_address,t_uint256)":{"encoding":"mapping","key":"t_address","label":"mapping(address => uint256)","numberOfBytes":"32","value":"t_uint256"},"t_mapping(t_bytes32,t_uint256)":{"encoding":"mapping","key":"t_bytes32","label":"mapping(bytes32 => uint256)","numberOfBytes":"32","value":"t_uint256"},"t_uint256":{"encoding":"inplace","label":"uint256","numberOfBytes":"32"}}}}}}