{"contracts/mock/PriceFeedMock.sol":{"PriceFeedMock":{"abi":[{"inputs":[{"internalType":"uint8","name":"_decimals","type":"uint8"}],"stateMutability":"nonpayable","type":"constructor"},{"inputs":[],"name":"decimals","outputs":[{"internalType":"uint8","name":"","type":"uint8"}],"stateMutability":"view","type":"function"},{"inputs":[],"name":"latestRound","outputs":[{"internalType":"uint256","name":"","type":"uint256"}],"stateMutability":"view","type":"function"},{"inputs":[],"name":"latestRoundData","outputs":[{"internalType":"uint80","name":"","type":"uint80"},{"internalType":"int256","name":"answer","type":"int256"},{"internalType":"uint256","name":"","type":"uint256"},{"internalType":"uint256","name":"","type":"uint256"},{"internalType":"uint80","name":"","type":"uint80"}],"stateMutability":"view","type":"function"},{"inputs":[{"internalType":"int256","name":"answer","type":"int256"}],"name":"setRound","outputs":[],"stateMutability":"nonpayable","type":"function"}],"evm":{"bytecode":{"linkReferences":{},"object":"608060405234801561001057600080fd5b5060405161027238038061027283398101604081905261002f91610048565b6000805460ff191660ff92909216919091179055610072565b60006020828403121561005a57600080fd5b815160ff8116811461006b57600080fd5b9392505050565b6101f1806100816000396000f3fe608060405234801561001057600080fd5b506004361061004c5760003560e01c80631452264c14610051578063313ce56714610066578063668a0f021461008a578063feaf968c146100a1575b600080fd5b61006461005f36600461017b565b6100dd565b005b6000546100739060ff1681565b60405160ff90911681526020015b60405180910390f35b61009360015481565b604051908152602001610081565b6001805460009081526002602090815260408083209093015483518381529182015291820181905260608201819052608082015260a001610081565b600180549060006100ed83610194565b90915550506040805160a081018252600080825260208083019485528284018281526060840183815260808501848152600180548652600294859052969094209451855469ffffffffffffffffffff1990811669ffffffffffffffffffff92831617875597519686019690965590519184019190915551600383015551600490910180549093169116179055565b60006020828403121561018d57600080fd5b5035919050565b6000600182016101b457634e487b7160e01b600052601160045260246000fd5b506001019056fea2646970667358221220f43b95abbc21a9bf8b7d9fe8eeba77f8244568461398a08d4b402cafe1492e4f64736f6c63430008140033","opcodes":"PUSH1 0x80 PUSH1 0x40 MSTORE CALLVALUE DUP1 ISZERO PUSH2 0x10 JUMPI PUSH1 0x0 DUP1 REVERT JUMPDEST POP PUSH1 0x40 MLOAD PUSH2 0x272 CODESIZE SUB DUP1 PUSH2 0x272 DUP4 CODECOPY DUP2 ADD PUSH1 0x40 DUP2 SWAP1 MSTORE PUSH2 0x2F SWAP2 PUSH2 0x48 JUMP JUMPDEST PUSH1 0x0 DUP1 SLOAD PUSH1 0xFF NOT AND PUSH1 0xFF SWAP3 SWAP1 SWAP3 AND SWAP2 SWAP1 SWAP2 OR SWAP1 SSTORE PUSH2 0x72 JUMP JUMPDEST PUSH1 0x0 PUSH1 0x20 DUP3 DUP5 SUB SLT ISZERO PUSH2 0x5A JUMPI PUSH1 0x0 DUP1 REVERT JUMPDEST DUP2 MLOAD PUSH1 0xFF DUP2 AND DUP2 EQ PUSH2 0x6B JUMPI PUSH1 0x0 DUP1 REVERT JUMPDEST SWAP4 SWAP3 POP POP POP JUMP JUMPDEST PUSH2 0x1F1 DUP1 PUSH2 0x81 PUSH1 0x0 CODECOPY PUSH1 0x0 RETURN INVALID PUSH1 0x80 PUSH1 0x40 MSTORE CALLVALUE DUP1 ISZERO PUSH2 0x10 JUMPI PUSH1 0x0 DUP1 REVERT JUMPDEST POP PUSH1 0x4 CALLDATASIZE LT PUSH2 0x4C JUMPI PUSH1 0x0 CALLDATALOAD PUSH1 0xE0 SHR DUP1 PUSH4 0x1452264C EQ PUSH2 0x51 JUMPI DUP1 PUSH4 0x313CE567 EQ PUSH2 0x66 JUMPI DUP1 PUSH4 0x668A0F02 EQ PUSH2 0x8A JUMPI DUP1 PUSH4 0xFEAF968C EQ PUSH2 0xA1 JUMPI JUMPDEST PUSH1 0x0 DUP1 REVERT JUMPDEST PUSH2 0x64 PUSH2 0x5F CALLDATASIZE PUSH1 0x4 PUSH2 0x17B JUMP JUMPDEST PUSH2 0xDD JUMP JUMPDEST STOP JUMPDEST PUSH1 0x0 SLOAD PUSH2 0x73 SWAP1 PUSH1 0xFF AND DUP2 JUMP JUMPDEST PUSH1 0x40 MLOAD PUSH1 0xFF SWAP1 SWAP2 AND DUP2 MSTORE PUSH1 0x20 ADD JUMPDEST PUSH1 0x40 MLOAD DUP1 SWAP2 SUB SWAP1 RETURN JUMPDEST PUSH2 0x93 PUSH1 0x1 SLOAD DUP2 JUMP JUMPDEST PUSH1 0x40 MLOAD SWAP1 DUP2 MSTORE PUSH1 0x20 ADD PUSH2 0x81 JUMP JUMPDEST PUSH1 0x1 DUP1 SLOAD PUSH1 0x0 SWAP1 DUP2 MSTORE PUSH1 0x2 PUSH1 0x20 SWAP1 DUP2 MSTORE PUSH1 0x40 DUP1 DUP4 KECCAK256 SWAP1 SWAP4 ADD SLOAD DUP4 MLOAD DUP4 DUP2 MSTORE SWAP2 DUP3 ADD MSTORE SWAP2 DUP3 ADD DUP2 SWAP1 MSTORE PUSH1 0x60 DUP3 ADD DUP2 SWAP1 MSTORE PUSH1 0x80 DUP3 ADD MSTORE PUSH1 0xA0 ADD PUSH2 0x81 JUMP JUMPDEST PUSH1 0x1 DUP1 SLOAD SWAP1 PUSH1 0x0 PUSH2 0xED DUP4 PUSH2 0x194 JUMP JUMPDEST SWAP1 SWAP2 SSTORE POP POP PUSH1 0x40 DUP1 MLOAD PUSH1 0xA0 DUP2 ADD DUP3 MSTORE PUSH1 0x0 DUP1 DUP3 MSTORE PUSH1 0x20 DUP1 DUP4 ADD SWAP5 DUP6 MSTORE DUP3 DUP5 ADD DUP3 DUP2 MSTORE PUSH1 0x60 DUP5 ADD DUP4 DUP2 MSTORE PUSH1 0x80 DUP6 ADD DUP5 DUP2 MSTORE PUSH1 0x1 DUP1 SLOAD DUP7 MSTORE PUSH1 0x2 SWAP5 DUP6 SWAP1 MSTORE SWAP7 SWAP1 SWAP5 KECCAK256 SWAP5 MLOAD DUP6 SLOAD PUSH10 0xFFFFFFFFFFFFFFFFFFFF NOT SWAP1 DUP2 AND PUSH10 0xFFFFFFFFFFFFFFFFFFFF SWAP3 DUP4 AND OR DUP8 SSTORE SWAP8 MLOAD SWAP7 DUP7 ADD SWAP7 SWAP1 SWAP7 SSTORE SWAP1 MLOAD SWAP2 DUP5 ADD SWAP2 SWAP1 SWAP2 SSTORE MLOAD PUSH1 0x3 DUP4 ADD SSTORE MLOAD PUSH1 0x4 SWAP1 SWAP2 ADD DUP1 SLOAD SWAP1 SWAP4 AND SWAP2 AND OR SWAP1 SSTORE JUMP JUMPDEST PUSH1 0x0 PUSH1 0x20 DUP3 DUP5 SUB SLT ISZERO PUSH2 0x18D JUMPI PUSH1 0x0 DUP1 REVERT JUMPDEST POP CALLDATALOAD SWAP2 SWAP1 POP JUMP JUMPDEST PUSH1 0x0 PUSH1 0x1 DUP3 ADD PUSH2 0x1B4 JUMPI PUSH4 0x4E487B71 PUSH1 0xE0 SHL PUSH1 0x0 MSTORE PUSH1 0x11 PUSH1 0x4 MSTORE PUSH1 0x24 PUSH1 0x0 REVERT JUMPDEST POP PUSH1 0x1 ADD SWAP1 JUMP INVALID LOG2 PUSH5 0x6970667358 0x22 SLT KECCAK256 DELEGATECALL EXTCODESIZE SWAP6 0xAB 0xBC 0x21 0xA9 0xBF DUP12 PUSH30 0x9FE8EEBA77F8244568461398A08D4B402CAFE1492E4F64736F6C63430008 EQ STOP CALLER "},"methodIdentifiers":{"decimals()":"313ce567","latestRound()":"668a0f02","latestRoundData()":"feaf968c","setRound(int256)":"1452264c"}},"storageLayout":{"storage":[{"astId":7126,"contract":"contracts/mock/PriceFeedMock.sol:PriceFeedMock","label":"decimals","offset":0,"slot":"0","type":"t_uint8"},{"astId":7139,"contract":"contracts/mock/PriceFeedMock.sol:PriceFeedMock","label":"latestRound","offset":0,"slot":"1","type":"t_uint256"},{"astId":7144,"contract":"contracts/mock/PriceFeedMock.sol:PriceFeedMock","label":"_rounds","offset":0,"slot":"2","type":"t_mapping(t_uint256,t_struct(RoundData)7137_storage)"}],"types":{"t_int256":{"encoding":"inplace","label":"int256","numberOfBytes":"32"},"t_mapping(t_uint256,t_struct(RoundData)7137_storage)":{"encoding":"mapping","key":"t_uint256","label":"mapping(uint256 => struct PriceFeedMock.RoundData)","numberOfBytes":"32","value":"t_struct(RoundData)7137_storage"},"t_struct(RoundData)7137_storage":{"encoding":"inplace","label":"struct PriceFeedMock.RoundData","members":[{"astId":7128,"contract":"contracts/mock/PriceFeedMock.sol:PriceFeedMock","label":"roundId","offset":0,"slot":"0","type":"t_uint80"},{"astId":7130,"contract":"contracts/mock/PriceFeedMock.sol:PriceFeedMock","label":"answer","offset":0,"slot":"1","type":"t_int256"},{"astId":7132,"contract":"contracts/mock/PriceFeedMock.sol:PriceFeedMock","label":"startedAt","offset":0,"slot":"2","type":"t_uint256"},{"astId":7134,"contract":"contracts/mock/PriceFeedMock.sol:PriceFeedMock","label":"updatedAt","offset":0,"slot":"3","type":"t_uint256"},{"astId":7136,"contract":"contracts/mock/PriceFeedMock.sol:PriceFeedMock","label":"answeredInRound","offset":0,"slot":"4","type":"t_uint80"}],"numberOfBytes":"160"},"t_uint256":{"encoding":"inplace","label":"uint256","numberOfBytes":"32"},"t_uint8":{"encoding":"inplace","label":"uint8","numberOfBytes":"1"},"t_uint80":{"encoding":"inplace","label":"uint80","numberOfBytes":"10"}}}}}}