{"contracts/storage/Storage.sol":{"Storage":{"abi":[{"inputs":[],"stateMutability":"nonpayable","type":"constructor"},{"inputs":[{"internalType":"address","name":"owner","type":"address"}],"name":"OwnableInvalidOwner","type":"error"},{"inputs":[{"internalType":"address","name":"account","type":"address"}],"name":"OwnableUnauthorizedAccount","type":"error"},{"anonymous":false,"inputs":[{"indexed":true,"internalType":"address","name":"previousOwner","type":"address"},{"indexed":true,"internalType":"address","name":"newOwner","type":"address"}],"name":"OwnershipTransferred","type":"event"},{"anonymous":false,"inputs":[{"indexed":true,"internalType":"bytes32","name":"key","type":"bytes32"}],"name":"Updated","type":"event"},{"inputs":[{"internalType":"bytes32","name":"key","type":"bytes32"}],"name":"deleteAddress","outputs":[],"stateMutability":"nonpayable","type":"function"},{"inputs":[{"internalType":"bytes32","name":"key","type":"bytes32"}],"name":"deleteBool","outputs":[],"stateMutability":"nonpayable","type":"function"},{"inputs":[{"internalType":"bytes32","name":"key","type":"bytes32"}],"name":"deleteBytes","outputs":[],"stateMutability":"nonpayable","type":"function"},{"inputs":[{"internalType":"bytes32","name":"key","type":"bytes32"}],"name":"deleteInt","outputs":[],"stateMutability":"nonpayable","type":"function"},{"inputs":[{"internalType":"bytes32","name":"key","type":"bytes32"}],"name":"deleteString","outputs":[],"stateMutability":"nonpayable","type":"function"},{"inputs":[{"internalType":"bytes32","name":"key","type":"bytes32"}],"name":"deleteUint","outputs":[],"stateMutability":"nonpayable","type":"function"},{"inputs":[{"internalType":"bytes32","name":"key","type":"bytes32"}],"name":"getAddress","outputs":[{"internalType":"address","name":"","type":"address"}],"stateMutability":"view","type":"function"},{"inputs":[{"internalType":"bytes32","name":"key","type":"bytes32"}],"name":"getBool","outputs":[{"internalType":"bool","name":"","type":"bool"}],"stateMutability":"view","type":"function"},{"inputs":[{"internalType":"bytes32","name":"key","type":"bytes32"}],"name":"getBytes","outputs":[{"internalType":"bytes","name":"","type":"bytes"}],"stateMutability":"view","type":"function"},{"inputs":[{"internalType":"bytes32","name":"key","type":"bytes32"}],"name":"getInt","outputs":[{"internalType":"int256","name":"","type":"int256"}],"stateMutability":"view","type":"function"},{"inputs":[{"internalType":"bytes32","name":"key","type":"bytes32"}],"name":"getString","outputs":[{"internalType":"string","name":"","type":"string"}],"stateMutability":"view","type":"function"},{"inputs":[{"internalType":"bytes32","name":"key","type":"bytes32"}],"name":"getUint","outputs":[{"internalType":"uint256","name":"","type":"uint256"}],"stateMutability":"view","type":"function"},{"inputs":[],"name":"owner","outputs":[{"internalType":"address","name":"","type":"address"}],"stateMutability":"view","type":"function"},{"inputs":[],"name":"renounceOwnership","outputs":[],"stateMutability":"nonpayable","type":"function"},{"inputs":[{"internalType":"bytes32","name":"key","type":"bytes32"},{"internalType":"address","name":"value","type":"address"}],"name":"setAddress","outputs":[],"stateMutability":"nonpayable","type":"function"},{"inputs":[{"internalType":"bytes32","name":"key","type":"bytes32"},{"internalType":"bool","name":"value","type":"bool"}],"name":"setBool","outputs":[],"stateMutability":"nonpayable","type":"function"},{"inputs":[{"internalType":"bytes32","name":"key","type":"bytes32"},{"internalType":"bytes","name":"value","type":"bytes"}],"name":"setBytes","outputs":[],"stateMutability":"nonpayable","type":"function"},{"inputs":[{"internalType":"bytes32","name":"key","type":"bytes32"},{"internalType":"int256","name":"value","type":"int256"}],"name":"setInt","outputs":[],"stateMutability":"nonpayable","type":"function"},{"inputs":[{"internalType":"bytes32","name":"key","type":"bytes32"},{"internalType":"string","name":"value","type":"string"}],"name":"setString","outputs":[],"stateMutability":"nonpayable","type":"function"},{"inputs":[{"internalType":"bytes32","name":"key","type":"bytes32"},{"internalType":"uint256","name":"value","type":"uint256"}],"name":"setUint","outputs":[],"stateMutability":"nonpayable","type":"function"},{"inputs":[{"internalType":"address","name":"newOwner","type":"address"}],"name":"transferOwnership","outputs":[],"stateMutability":"nonpayable","type":"function"}],"evm":{"bytecode":{"linkReferences":{},"object":"608060405234801561001057600080fd5b50338061003757604051631e4fbdf760e01b81526000600482015260240160405180910390fd5b61004081610046565b50610096565b600080546001600160a01b038381166001600160a01b0319831681178455604051919092169283917f8be0079c531659141344cd1fd0a4f28419497f9722a3daafe3b4186f6b6457e09190a35050565b610b1d806100a56000396000f3fe608060405234801561001057600080fd5b50600436106101375760003560e01c80638da5cb5b116100b8578063ca446dd91161007c578063ca446dd9146102c9578063dc97d962146102dc578063e2a4853a146102fc578063e2b202bf1461030f578063f2fde38b14610322578063f6bb3cc41461033557600080fd5b80638da5cb5b14610244578063986e791a14610255578063abfdcced14610275578063bd02d0f514610288578063c031a180146102b657600080fd5b8063616b59f6116100ff578063616b59f6146101d05780636e899550146101e3578063715018a6146101f65780637ae1cfca146101fe5780638c1600951461023157600080fd5b80630e14a3761461013c57806321f8a721146101515780632c62ff2d146101975780632e28d084146101aa5780633e49bed0146101bd575b600080fd5b61014f61014a36600461079f565b610348565b005b61017a61015f36600461079f565b6000908152600560205260409020546001600160a01b031690565b6040516001600160a01b0390911681526020015b60405180910390f35b61014f6101a536600461079f565b610384565b61014f6101b8366004610801565b6103ba565b61014f6101cb36600461084d565b6103fa565b61014f6101de36600461079f565b61042c565b61014f6101f1366004610801565b610467565b61014f610488565b61022161020c36600461079f565b60009081526002602052604090205460ff1690565b604051901515815260200161018e565b61014f61023f36600461079f565b61049c565b6000546001600160a01b031661017a565b61026861026336600461079f565b6104cd565b60405161018e91906108b5565b61014f6102833660046108cf565b61056f565b6102a861029636600461079f565b60009081526003602052604090205490565b60405190815260200161018e565b6102686102c436600461079f565b6105aa565b61014f6102d7366004610920565b6105c7565b6102a86102ea36600461079f565b60009081526004602052604090205490565b61014f61030a36600461084d565b61060f565b61014f61031d36600461079f565b610641565b61014f61033036600461094c565b610672565b61014f61034336600461079f565b6106b5565b6103506106d4565b60008181526005602052604080822080546001600160a01b0319169055518291600080516020610ac883398151915291a250565b61038c6106d4565b600081815260026020526040808220805460ff19169055518291600080516020610ac883398151915291a250565b6103c26106d4565b60008381526001602052604090206103db828483610a06565b506040518390600080516020610ac883398151915290600090a2505050565b6104026106d4565b600082815260046020526040808220839055518391600080516020610ac883398151915291a25050565b6104346106d4565b600081815260016020526040812061044b91610751565b6040518190600080516020610ac883398151915290600090a250565b61046f6106d4565b60008381526006602052604090206103db828483610a06565b6104906106d4565b61049a6000610701565b565b6104a46106d4565b600081815260046020526040808220829055518291600080516020610ac883398151915291a250565b60008181526006602052604090208054606091906104ea9061097d565b80601f01602080910402602001604051908101604052809291908181526020018280546105169061097d565b80156105635780601f1061053857610100808354040283529160200191610563565b820191906000526020600020905b81548152906001019060200180831161054657829003601f168201915b50505050509050919050565b6105776106d4565b600082815260026020526040808220805460ff1916841515179055518391600080516020610ac883398151915291a25050565b60008181526001602052604090208054606091906104ea9061097d565b6105cf6106d4565b60008281526005602052604080822080546001600160a01b0319166001600160a01b038516179055518391600080516020610ac883398151915291a25050565b6106176106d4565b600082815260036020526040808220839055518391600080516020610ac883398151915291a25050565b6106496106d4565b600081815260036020526040808220829055518291600080516020610ac883398151915291a250565b61067a6106d4565b6001600160a01b0381166106a957604051631e4fbdf760e01b8152600060048201526024015b60405180910390fd5b6106b281610701565b50565b6106bd6106d4565b600081815260066020526040812061044b91610751565b6000546001600160a01b0316331461049a5760405163118cdaa760e01b81523360048201526024016106a0565b600080546001600160a01b038381166001600160a01b0319831681178455604051919092169283917f8be0079c531659141344cd1fd0a4f28419497f9722a3daafe3b4186f6b6457e09190a35050565b50805461075d9061097d565b6000825580601f1061076d575050565b601f0160209004906000526020600020908101906106b291905b8082111561079b5760008155600101610787565b5090565b6000602082840312156107b157600080fd5b5035919050565b60008083601f8401126107ca57600080fd5b50813567ffffffffffffffff8111156107e257600080fd5b6020830191508360208285010111156107fa57600080fd5b9250929050565b60008060006040848603121561081657600080fd5b83359250602084013567ffffffffffffffff81111561083457600080fd5b610840868287016107b8565b9497909650939450505050565b6000806040838503121561086057600080fd5b50508035926020909101359150565b6000815180845260005b8181101561089557602081850181015186830182015201610879565b506000602082860101526020601f19601f83011685010191505092915050565b6020815260006108c8602083018461086f565b9392505050565b600080604083850312156108e257600080fd5b82359150602083013580151581146108f957600080fd5b809150509250929050565b80356001600160a01b038116811461091b57600080fd5b919050565b6000806040838503121561093357600080fd5b8235915061094360208401610904565b90509250929050565b60006020828403121561095e57600080fd5b6108c882610904565b634e487b7160e01b600052604160045260246000fd5b600181811c9082168061099157607f821691505b6020821081036109b157634e487b7160e01b600052602260045260246000fd5b50919050565b601f821115610a0157600081815260208120601f850160051c810160208610156109de5750805b601f850160051c820191505b818110156109fd578281556001016109ea565b5050505b505050565b67ffffffffffffffff831115610a1e57610a1e610967565b610a3283610a2c835461097d565b836109b7565b6000601f841160018114610a665760008515610a4e5750838201355b600019600387901b1c1916600186901b178355610ac0565b600083815260209020601f19861690835b82811015610a975786850135825560209485019460019092019101610a77565b5086821015610ab45760001960f88860031b161c19848701351681555b505060018560011b0183555b505050505056feae7f59c2ef152eb4d4f56fcc655f53926d60b7e58e08ec8c79387e25adbf3331a2646970667358221220b8cc2b9c4c7ce60c446b185e80a6f48302acf1230a59dd1ee3ac793ab673881f64736f6c63430008140033","opcodes":"PUSH1 0x80 PUSH1 0x40 MSTORE CALLVALUE DUP1 ISZERO PUSH2 0x10 JUMPI PUSH1 0x0 DUP1 REVERT JUMPDEST POP CALLER DUP1 PUSH2 0x37 JUMPI PUSH1 0x40 MLOAD PUSH4 0x1E4FBDF7 PUSH1 0xE0 SHL DUP2 MSTORE PUSH1 0x0 PUSH1 0x4 DUP3 ADD MSTORE PUSH1 0x24 ADD PUSH1 0x40 MLOAD DUP1 SWAP2 SUB SWAP1 REVERT JUMPDEST PUSH2 0x40 DUP2 PUSH2 0x46 JUMP JUMPDEST POP PUSH2 0x96 JUMP JUMPDEST PUSH1 0x0 DUP1 SLOAD PUSH1 0x1 PUSH1 0x1 PUSH1 0xA0 SHL SUB DUP4 DUP2 AND PUSH1 0x1 PUSH1 0x1 PUSH1 0xA0 SHL SUB NOT DUP4 AND DUP2 OR DUP5 SSTORE PUSH1 0x40 MLOAD SWAP2 SWAP1 SWAP3 AND SWAP3 DUP4 SWAP2 PUSH32 0x8BE0079C531659141344CD1FD0A4F28419497F9722A3DAAFE3B4186F6B6457E0 SWAP2 SWAP1 LOG3 POP POP JUMP JUMPDEST PUSH2 0xB1D DUP1 PUSH2 0xA5 PUSH1 0x0 CODECOPY PUSH1 0x0 RETURN INVALID PUSH1 0x80 PUSH1 0x40 MSTORE CALLVALUE DUP1 ISZERO PUSH2 0x10 JUMPI PUSH1 0x0 DUP1 REVERT JUMPDEST POP PUSH1 0x4 CALLDATASIZE LT PUSH2 0x137 JUMPI PUSH1 0x0 CALLDATALOAD PUSH1 0xE0 SHR DUP1 PUSH4 0x8DA5CB5B GT PUSH2 0xB8 JUMPI DUP1 PUSH4 0xCA446DD9 GT PUSH2 0x7C JUMPI DUP1 PUSH4 0xCA446DD9 EQ PUSH2 0x2C9 JUMPI DUP1 PUSH4 0xDC97D962 EQ PUSH2 0x2DC JUMPI DUP1 PUSH4 0xE2A4853A EQ PUSH2 0x2FC JUMPI DUP1 PUSH4 0xE2B202BF EQ PUSH2 0x30F JUMPI DUP1 PUSH4 0xF2FDE38B EQ PUSH2 0x322 JUMPI DUP1 PUSH4 0xF6BB3CC4 EQ PUSH2 0x335 JUMPI PUSH1 0x0 DUP1 REVERT JUMPDEST DUP1 PUSH4 0x8DA5CB5B EQ PUSH2 0x244 JUMPI DUP1 PUSH4 0x986E791A EQ PUSH2 0x255 JUMPI DUP1 PUSH4 0xABFDCCED EQ PUSH2 0x275 JUMPI DUP1 PUSH4 0xBD02D0F5 EQ PUSH2 0x288 JUMPI DUP1 PUSH4 0xC031A180 EQ PUSH2 0x2B6 JUMPI PUSH1 0x0 DUP1 REVERT JUMPDEST DUP1 PUSH4 0x616B59F6 GT PUSH2 0xFF JUMPI DUP1 PUSH4 0x616B59F6 EQ PUSH2 0x1D0 JUMPI DUP1 PUSH4 0x6E899550 EQ PUSH2 0x1E3 JUMPI DUP1 PUSH4 0x715018A6 EQ PUSH2 0x1F6 JUMPI DUP1 PUSH4 0x7AE1CFCA EQ PUSH2 0x1FE JUMPI DUP1 PUSH4 0x8C160095 EQ PUSH2 0x231 JUMPI PUSH1 0x0 DUP1 REVERT JUMPDEST DUP1 PUSH4 0xE14A376 EQ PUSH2 0x13C JUMPI DUP1 PUSH4 0x21F8A721 EQ PUSH2 0x151 JUMPI DUP1 PUSH4 0x2C62FF2D EQ PUSH2 0x197 JUMPI DUP1 PUSH4 0x2E28D084 EQ PUSH2 0x1AA JUMPI DUP1 PUSH4 0x3E49BED0 EQ PUSH2 0x1BD JUMPI JUMPDEST PUSH1 0x0 DUP1 REVERT JUMPDEST PUSH2 0x14F PUSH2 0x14A CALLDATASIZE PUSH1 0x4 PUSH2 0x79F JUMP JUMPDEST PUSH2 0x348 JUMP JUMPDEST STOP JUMPDEST PUSH2 0x17A PUSH2 0x15F CALLDATASIZE PUSH1 0x4 PUSH2 0x79F JUMP JUMPDEST PUSH1 0x0 SWAP1 DUP2 MSTORE PUSH1 0x5 PUSH1 0x20 MSTORE PUSH1 0x40 SWAP1 KECCAK256 SLOAD PUSH1 0x1 PUSH1 0x1 PUSH1 0xA0 SHL SUB AND SWAP1 JUMP JUMPDEST PUSH1 0x40 MLOAD PUSH1 0x1 PUSH1 0x1 PUSH1 0xA0 SHL SUB SWAP1 SWAP2 AND DUP2 MSTORE PUSH1 0x20 ADD JUMPDEST PUSH1 0x40 MLOAD DUP1 SWAP2 SUB SWAP1 RETURN JUMPDEST PUSH2 0x14F PUSH2 0x1A5 CALLDATASIZE PUSH1 0x4 PUSH2 0x79F JUMP JUMPDEST PUSH2 0x384 JUMP JUMPDEST PUSH2 0x14F PUSH2 0x1B8 CALLDATASIZE PUSH1 0x4 PUSH2 0x801 JUMP JUMPDEST PUSH2 0x3BA JUMP JUMPDEST PUSH2 0x14F PUSH2 0x1CB CALLDATASIZE PUSH1 0x4 PUSH2 0x84D JUMP JUMPDEST PUSH2 0x3FA JUMP JUMPDEST PUSH2 0x14F PUSH2 0x1DE CALLDATASIZE PUSH1 0x4 PUSH2 0x79F JUMP JUMPDEST PUSH2 0x42C JUMP JUMPDEST PUSH2 0x14F PUSH2 0x1F1 CALLDATASIZE PUSH1 0x4 PUSH2 0x801 JUMP JUMPDEST PUSH2 0x467 JUMP JUMPDEST PUSH2 0x14F PUSH2 0x488 JUMP JUMPDEST PUSH2 0x221 PUSH2 0x20C CALLDATASIZE PUSH1 0x4 PUSH2 0x79F JUMP JUMPDEST PUSH1 0x0 SWAP1 DUP2 MSTORE PUSH1 0x2 PUSH1 0x20 MSTORE PUSH1 0x40 SWAP1 KECCAK256 SLOAD PUSH1 0xFF AND SWAP1 JUMP JUMPDEST PUSH1 0x40 MLOAD SWAP1 ISZERO ISZERO DUP2 MSTORE PUSH1 0x20 ADD PUSH2 0x18E JUMP JUMPDEST PUSH2 0x14F PUSH2 0x23F CALLDATASIZE PUSH1 0x4 PUSH2 0x79F JUMP JUMPDEST PUSH2 0x49C JUMP JUMPDEST PUSH1 0x0 SLOAD PUSH1 0x1 PUSH1 0x1 PUSH1 0xA0 SHL SUB AND PUSH2 0x17A JUMP JUMPDEST PUSH2 0x268 PUSH2 0x263 CALLDATASIZE PUSH1 0x4 PUSH2 0x79F JUMP JUMPDEST PUSH2 0x4CD JUMP JUMPDEST PUSH1 0x40 MLOAD PUSH2 0x18E SWAP2 SWAP1 PUSH2 0x8B5 JUMP JUMPDEST PUSH2 0x14F PUSH2 0x283 CALLDATASIZE PUSH1 0x4 PUSH2 0x8CF JUMP JUMPDEST PUSH2 0x56F JUMP JUMPDEST PUSH2 0x2A8 PUSH2 0x296 CALLDATASIZE PUSH1 0x4 PUSH2 0x79F JUMP JUMPDEST PUSH1 0x0 SWAP1 DUP2 MSTORE PUSH1 0x3 PUSH1 0x20 MSTORE PUSH1 0x40 SWAP1 KECCAK256 SLOAD SWAP1 JUMP JUMPDEST PUSH1 0x40 MLOAD SWAP1 DUP2 MSTORE PUSH1 0x20 ADD PUSH2 0x18E JUMP JUMPDEST PUSH2 0x268 PUSH2 0x2C4 CALLDATASIZE PUSH1 0x4 PUSH2 0x79F JUMP JUMPDEST PUSH2 0x5AA JUMP JUMPDEST PUSH2 0x14F PUSH2 0x2D7 CALLDATASIZE PUSH1 0x4 PUSH2 0x920 JUMP JUMPDEST PUSH2 0x5C7 JUMP JUMPDEST PUSH2 0x2A8 PUSH2 0x2EA CALLDATASIZE PUSH1 0x4 PUSH2 0x79F JUMP JUMPDEST PUSH1 0x0 SWAP1 DUP2 MSTORE PUSH1 0x4 PUSH1 0x20 MSTORE PUSH1 0x40 SWAP1 KECCAK256 SLOAD SWAP1 JUMP JUMPDEST PUSH2 0x14F PUSH2 0x30A CALLDATASIZE PUSH1 0x4 PUSH2 0x84D JUMP JUMPDEST PUSH2 0x60F JUMP JUMPDEST PUSH2 0x14F PUSH2 0x31D CALLDATASIZE PUSH1 0x4 PUSH2 0x79F JUMP JUMPDEST PUSH2 0x641 JUMP JUMPDEST PUSH2 0x14F PUSH2 0x330 CALLDATASIZE PUSH1 0x4 PUSH2 0x94C JUMP JUMPDEST PUSH2 0x672 JUMP JUMPDEST PUSH2 0x14F PUSH2 0x343 CALLDATASIZE PUSH1 0x4 PUSH2 0x79F JUMP JUMPDEST PUSH2 0x6B5 JUMP JUMPDEST PUSH2 0x350 PUSH2 0x6D4 JUMP JUMPDEST PUSH1 0x0 DUP2 DUP2 MSTORE PUSH1 0x5 PUSH1 0x20 MSTORE PUSH1 0x40 DUP1 DUP3 KECCAK256 DUP1 SLOAD PUSH1 0x1 PUSH1 0x1 PUSH1 0xA0 SHL SUB NOT AND SWAP1 SSTORE MLOAD DUP3 SWAP2 PUSH1 0x0 DUP1 MLOAD PUSH1 0x20 PUSH2 0xAC8 DUP4 CODECOPY DUP2 MLOAD SWAP2 MSTORE SWAP2 LOG2 POP JUMP JUMPDEST PUSH2 0x38C PUSH2 0x6D4 JUMP JUMPDEST PUSH1 0x0 DUP2 DUP2 MSTORE PUSH1 0x2 PUSH1 0x20 MSTORE PUSH1 0x40 DUP1 DUP3 KECCAK256 DUP1 SLOAD PUSH1 0xFF NOT AND SWAP1 SSTORE MLOAD DUP3 SWAP2 PUSH1 0x0 DUP1 MLOAD PUSH1 0x20 PUSH2 0xAC8 DUP4 CODECOPY DUP2 MLOAD SWAP2 MSTORE SWAP2 LOG2 POP JUMP JUMPDEST PUSH2 0x3C2 PUSH2 0x6D4 JUMP JUMPDEST PUSH1 0x0 DUP4 DUP2 MSTORE PUSH1 0x1 PUSH1 0x20 MSTORE PUSH1 0x40 SWAP1 KECCAK256 PUSH2 0x3DB DUP3 DUP5 DUP4 PUSH2 0xA06 JUMP JUMPDEST POP PUSH1 0x40 MLOAD DUP4 SWAP1 PUSH1 0x0 DUP1 MLOAD PUSH1 0x20 PUSH2 0xAC8 DUP4 CODECOPY DUP2 MLOAD SWAP2 MSTORE SWAP1 PUSH1 0x0 SWAP1 LOG2 POP POP POP JUMP JUMPDEST PUSH2 0x402 PUSH2 0x6D4 JUMP JUMPDEST PUSH1 0x0 DUP3 DUP2 MSTORE PUSH1 0x4 PUSH1 0x20 MSTORE PUSH1 0x40 DUP1 DUP3 KECCAK256 DUP4 SWAP1 SSTORE MLOAD DUP4 SWAP2 PUSH1 0x0 DUP1 MLOAD PUSH1 0x20 PUSH2 0xAC8 DUP4 CODECOPY DUP2 MLOAD SWAP2 MSTORE SWAP2 LOG2 POP POP JUMP JUMPDEST PUSH2 0x434 PUSH2 0x6D4 JUMP JUMPDEST PUSH1 0x0 DUP2 DUP2 MSTORE PUSH1 0x1 PUSH1 0x20 MSTORE PUSH1 0x40 DUP2 KECCAK256 PUSH2 0x44B SWAP2 PUSH2 0x751 JUMP JUMPDEST PUSH1 0x40 MLOAD DUP2 SWAP1 PUSH1 0x0 DUP1 MLOAD PUSH1 0x20 PUSH2 0xAC8 DUP4 CODECOPY DUP2 MLOAD SWAP2 MSTORE SWAP1 PUSH1 0x0 SWAP1 LOG2 POP JUMP JUMPDEST PUSH2 0x46F PUSH2 0x6D4 JUMP JUMPDEST PUSH1 0x0 DUP4 DUP2 MSTORE PUSH1 0x6 PUSH1 0x20 MSTORE PUSH1 0x40 SWAP1 KECCAK256 PUSH2 0x3DB DUP3 DUP5 DUP4 PUSH2 0xA06 JUMP JUMPDEST PUSH2 0x490 PUSH2 0x6D4 JUMP JUMPDEST PUSH2 0x49A PUSH1 0x0 PUSH2 0x701 JUMP JUMPDEST JUMP JUMPDEST PUSH2 0x4A4 PUSH2 0x6D4 JUMP JUMPDEST PUSH1 0x0 DUP2 DUP2 MSTORE PUSH1 0x4 PUSH1 0x20 MSTORE PUSH1 0x40 DUP1 DUP3 KECCAK256 DUP3 SWAP1 SSTORE MLOAD DUP3 SWAP2 PUSH1 0x0 DUP1 MLOAD PUSH1 0x20 PUSH2 0xAC8 DUP4 CODECOPY DUP2 MLOAD SWAP2 MSTORE SWAP2 LOG2 POP JUMP JUMPDEST PUSH1 0x0 DUP2 DUP2 MSTORE PUSH1 0x6 PUSH1 0x20 MSTORE PUSH1 0x40 SWAP1 KECCAK256 DUP1 SLOAD PUSH1 0x60 SWAP2 SWAP1 PUSH2 0x4EA SWAP1 PUSH2 0x97D JUMP JUMPDEST DUP1 PUSH1 0x1F ADD PUSH1 0x20 DUP1 SWAP2 DIV MUL PUSH1 0x20 ADD PUSH1 0x40 MLOAD SWAP1 DUP2 ADD PUSH1 0x40 MSTORE DUP1 SWAP3 SWAP2 SWAP1 DUP2 DUP2 MSTORE PUSH1 0x20 ADD DUP3 DUP1 SLOAD PUSH2 0x516 SWAP1 PUSH2 0x97D JUMP JUMPDEST DUP1 ISZERO PUSH2 0x563 JUMPI DUP1 PUSH1 0x1F LT PUSH2 0x538 JUMPI PUSH2 0x100 DUP1 DUP4 SLOAD DIV MUL DUP4 MSTORE SWAP2 PUSH1 0x20 ADD SWAP2 PUSH2 0x563 JUMP JUMPDEST DUP3 ADD SWAP2 SWAP1 PUSH1 0x0 MSTORE PUSH1 0x20 PUSH1 0x0 KECCAK256 SWAP1 JUMPDEST DUP2 SLOAD DUP2 MSTORE SWAP1 PUSH1 0x1 ADD SWAP1 PUSH1 0x20 ADD DUP1 DUP4 GT PUSH2 0x546 JUMPI DUP3 SWAP1 SUB PUSH1 0x1F AND DUP3 ADD SWAP2 JUMPDEST POP POP POP POP POP SWAP1 POP SWAP2 SWAP1 POP JUMP JUMPDEST PUSH2 0x577 PUSH2 0x6D4 JUMP JUMPDEST PUSH1 0x0 DUP3 DUP2 MSTORE PUSH1 0x2 PUSH1 0x20 MSTORE PUSH1 0x40 DUP1 DUP3 KECCAK256 DUP1 SLOAD PUSH1 0xFF NOT AND DUP5 ISZERO ISZERO OR SWAP1 SSTORE MLOAD DUP4 SWAP2 PUSH1 0x0 DUP1 MLOAD PUSH1 0x20 PUSH2 0xAC8 DUP4 CODECOPY DUP2 MLOAD SWAP2 MSTORE SWAP2 LOG2 POP POP JUMP JUMPDEST PUSH1 0x0 DUP2 DUP2 MSTORE PUSH1 0x1 PUSH1 0x20 MSTORE PUSH1 0x40 SWAP1 KECCAK256 DUP1 SLOAD PUSH1 0x60 SWAP2 SWAP1 PUSH2 0x4EA SWAP1 PUSH2 0x97D JUMP JUMPDEST PUSH2 0x5CF PUSH2 0x6D4 JUMP JUMPDEST PUSH1 0x0 DUP3 DUP2 MSTORE PUSH1 0x5 PUSH1 0x20 MSTORE PUSH1 0x40 DUP1 DUP3 KECCAK256 DUP1 SLOAD PUSH1 0x1 PUSH1 0x1 PUSH1 0xA0 SHL SUB NOT AND PUSH1 0x1 PUSH1 0x1 PUSH1 0xA0 SHL SUB DUP6 AND OR SWAP1 SSTORE MLOAD DUP4 SWAP2 PUSH1 0x0 DUP1 MLOAD PUSH1 0x20 PUSH2 0xAC8 DUP4 CODECOPY DUP2 MLOAD SWAP2 MSTORE SWAP2 LOG2 POP POP JUMP JUMPDEST PUSH2 0x617 PUSH2 0x6D4 JUMP JUMPDEST PUSH1 0x0 DUP3 DUP2 MSTORE PUSH1 0x3 PUSH1 0x20 MSTORE PUSH1 0x40 DUP1 DUP3 KECCAK256 DUP4 SWAP1 SSTORE MLOAD DUP4 SWAP2 PUSH1 0x0 DUP1 MLOAD PUSH1 0x20 PUSH2 0xAC8 DUP4 CODECOPY DUP2 MLOAD SWAP2 MSTORE SWAP2 LOG2 POP POP JUMP JUMPDEST PUSH2 0x649 PUSH2 0x6D4 JUMP JUMPDEST PUSH1 0x0 DUP2 DUP2 MSTORE PUSH1 0x3 PUSH1 0x20 MSTORE PUSH1 0x40 DUP1 DUP3 KECCAK256 DUP3 SWAP1 SSTORE MLOAD DUP3 SWAP2 PUSH1 0x0 DUP1 MLOAD PUSH1 0x20 PUSH2 0xAC8 DUP4 CODECOPY DUP2 MLOAD SWAP2 MSTORE SWAP2 LOG2 POP JUMP JUMPDEST PUSH2 0x67A PUSH2 0x6D4 JUMP JUMPDEST PUSH1 0x1 PUSH1 0x1 PUSH1 0xA0 SHL SUB DUP2 AND PUSH2 0x6A9 JUMPI PUSH1 0x40 MLOAD PUSH4 0x1E4FBDF7 PUSH1 0xE0 SHL DUP2 MSTORE PUSH1 0x0 PUSH1 0x4 DUP3 ADD MSTORE PUSH1 0x24 ADD JUMPDEST PUSH1 0x40 MLOAD DUP1 SWAP2 SUB SWAP1 REVERT JUMPDEST PUSH2 0x6B2 DUP2 PUSH2 0x701 JUMP JUMPDEST POP JUMP JUMPDEST PUSH2 0x6BD PUSH2 0x6D4 JUMP JUMPDEST PUSH1 0x0 DUP2 DUP2 MSTORE PUSH1 0x6 PUSH1 0x20 MSTORE PUSH1 0x40 DUP2 KECCAK256 PUSH2 0x44B SWAP2 PUSH2 0x751 JUMP JUMPDEST PUSH1 0x0 SLOAD PUSH1 0x1 PUSH1 0x1 PUSH1 0xA0 SHL SUB AND CALLER EQ PUSH2 0x49A JUMPI PUSH1 0x40 MLOAD PUSH4 0x118CDAA7 PUSH1 0xE0 SHL DUP2 MSTORE CALLER PUSH1 0x4 DUP3 ADD MSTORE PUSH1 0x24 ADD PUSH2 0x6A0 JUMP JUMPDEST PUSH1 0x0 DUP1 SLOAD PUSH1 0x1 PUSH1 0x1 PUSH1 0xA0 SHL SUB DUP4 DUP2 AND PUSH1 0x1 PUSH1 0x1 PUSH1 0xA0 SHL SUB NOT DUP4 AND DUP2 OR DUP5 SSTORE PUSH1 0x40 MLOAD SWAP2 SWAP1 SWAP3 AND SWAP3 DUP4 SWAP2 PUSH32 0x8BE0079C531659141344CD1FD0A4F28419497F9722A3DAAFE3B4186F6B6457E0 SWAP2 SWAP1 LOG3 POP POP JUMP JUMPDEST POP DUP1 SLOAD PUSH2 0x75D SWAP1 PUSH2 0x97D JUMP JUMPDEST PUSH1 0x0 DUP3 SSTORE DUP1 PUSH1 0x1F LT PUSH2 0x76D JUMPI POP POP JUMP JUMPDEST PUSH1 0x1F ADD PUSH1 0x20 SWAP1 DIV SWAP1 PUSH1 0x0 MSTORE PUSH1 0x20 PUSH1 0x0 KECCAK256 SWAP1 DUP2 ADD SWAP1 PUSH2 0x6B2 SWAP2 SWAP1 JUMPDEST DUP1 DUP3 GT ISZERO PUSH2 0x79B JUMPI PUSH1 0x0 DUP2 SSTORE PUSH1 0x1 ADD PUSH2 0x787 JUMP JUMPDEST POP SWAP1 JUMP JUMPDEST PUSH1 0x0 PUSH1 0x20 DUP3 DUP5 SUB SLT ISZERO PUSH2 0x7B1 JUMPI PUSH1 0x0 DUP1 REVERT JUMPDEST POP CALLDATALOAD SWAP2 SWAP1 POP JUMP JUMPDEST PUSH1 0x0 DUP1 DUP4 PUSH1 0x1F DUP5 ADD SLT PUSH2 0x7CA JUMPI PUSH1 0x0 DUP1 REVERT JUMPDEST POP DUP2 CALLDATALOAD PUSH8 0xFFFFFFFFFFFFFFFF DUP2 GT ISZERO PUSH2 0x7E2 JUMPI PUSH1 0x0 DUP1 REVERT JUMPDEST PUSH1 0x20 DUP4 ADD SWAP2 POP DUP4 PUSH1 0x20 DUP3 DUP6 ADD ADD GT ISZERO PUSH2 0x7FA JUMPI PUSH1 0x0 DUP1 REVERT JUMPDEST SWAP3 POP SWAP3 SWAP1 POP JUMP JUMPDEST PUSH1 0x0 DUP1 PUSH1 0x0 PUSH1 0x40 DUP5 DUP7 SUB SLT ISZERO PUSH2 0x816 JUMPI PUSH1 0x0 DUP1 REVERT JUMPDEST DUP4 CALLDATALOAD SWAP3 POP PUSH1 0x20 DUP5 ADD CALLDATALOAD PUSH8 0xFFFFFFFFFFFFFFFF DUP2 GT ISZERO PUSH2 0x834 JUMPI PUSH1 0x0 DUP1 REVERT JUMPDEST PUSH2 0x840 DUP7 DUP3 DUP8 ADD PUSH2 0x7B8 JUMP JUMPDEST SWAP5 SWAP8 SWAP1 SWAP7 POP SWAP4 SWAP5 POP POP POP POP JUMP JUMPDEST PUSH1 0x0 DUP1 PUSH1 0x40 DUP4 DUP6 SUB SLT ISZERO PUSH2 0x860 JUMPI PUSH1 0x0 DUP1 REVERT JUMPDEST POP POP DUP1 CALLDATALOAD SWAP3 PUSH1 0x20 SWAP1 SWAP2 ADD CALLDATALOAD SWAP2 POP JUMP JUMPDEST PUSH1 0x0 DUP2 MLOAD DUP1 DUP5 MSTORE PUSH1 0x0 JUMPDEST DUP2 DUP2 LT ISZERO PUSH2 0x895 JUMPI PUSH1 0x20 DUP2 DUP6 ADD DUP2 ADD MLOAD DUP7 DUP4 ADD DUP3 ADD MSTORE ADD PUSH2 0x879 JUMP JUMPDEST POP PUSH1 0x0 PUSH1 0x20 DUP3 DUP7 ADD ADD MSTORE PUSH1 0x20 PUSH1 0x1F NOT PUSH1 0x1F DUP4 ADD AND DUP6 ADD ADD SWAP2 POP POP SWAP3 SWAP2 POP POP JUMP JUMPDEST PUSH1 0x20 DUP2 MSTORE PUSH1 0x0 PUSH2 0x8C8 PUSH1 0x20 DUP4 ADD DUP5 PUSH2 0x86F JUMP JUMPDEST SWAP4 SWAP3 POP POP POP JUMP JUMPDEST PUSH1 0x0 DUP1 PUSH1 0x40 DUP4 DUP6 SUB SLT ISZERO PUSH2 0x8E2 JUMPI PUSH1 0x0 DUP1 REVERT JUMPDEST DUP3 CALLDATALOAD SWAP2 POP PUSH1 0x20 DUP4 ADD CALLDATALOAD DUP1 ISZERO ISZERO DUP2 EQ PUSH2 0x8F9 JUMPI PUSH1 0x0 DUP1 REVERT JUMPDEST DUP1 SWAP2 POP POP SWAP3 POP SWAP3 SWAP1 POP JUMP JUMPDEST DUP1 CALLDATALOAD PUSH1 0x1 PUSH1 0x1 PUSH1 0xA0 SHL SUB DUP2 AND DUP2 EQ PUSH2 0x91B JUMPI PUSH1 0x0 DUP1 REVERT JUMPDEST SWAP2 SWAP1 POP JUMP JUMPDEST PUSH1 0x0 DUP1 PUSH1 0x40 DUP4 DUP6 SUB SLT ISZERO PUSH2 0x933 JUMPI PUSH1 0x0 DUP1 REVERT JUMPDEST DUP3 CALLDATALOAD SWAP2 POP PUSH2 0x943 PUSH1 0x20 DUP5 ADD PUSH2 0x904 JUMP JUMPDEST SWAP1 POP SWAP3 POP SWAP3 SWAP1 POP JUMP JUMPDEST PUSH1 0x0 PUSH1 0x20 DUP3 DUP5 SUB SLT ISZERO PUSH2 0x95E JUMPI PUSH1 0x0 DUP1 REVERT JUMPDEST PUSH2 0x8C8 DUP3 PUSH2 0x904 JUMP JUMPDEST PUSH4 0x4E487B71 PUSH1 0xE0 SHL PUSH1 0x0 MSTORE PUSH1 0x41 PUSH1 0x4 MSTORE PUSH1 0x24 PUSH1 0x0 REVERT JUMPDEST PUSH1 0x1 DUP2 DUP2 SHR SWAP1 DUP3 AND DUP1 PUSH2 0x991 JUMPI PUSH1 0x7F DUP3 AND SWAP2 POP JUMPDEST PUSH1 0x20 DUP3 LT DUP2 SUB PUSH2 0x9B1 JUMPI PUSH4 0x4E487B71 PUSH1 0xE0 SHL PUSH1 0x0 MSTORE PUSH1 0x22 PUSH1 0x4 MSTORE PUSH1 0x24 PUSH1 0x0 REVERT JUMPDEST POP SWAP2 SWAP1 POP JUMP JUMPDEST PUSH1 0x1F DUP3 GT ISZERO PUSH2 0xA01 JUMPI PUSH1 0x0 DUP2 DUP2 MSTORE PUSH1 0x20 DUP2 KECCAK256 PUSH1 0x1F DUP6 ADD PUSH1 0x5 SHR DUP2 ADD PUSH1 0x20 DUP7 LT ISZERO PUSH2 0x9DE JUMPI POP DUP1 JUMPDEST PUSH1 0x1F DUP6 ADD PUSH1 0x5 SHR DUP3 ADD SWAP2 POP JUMPDEST DUP2 DUP2 LT ISZERO PUSH2 0x9FD JUMPI DUP3 DUP2 SSTORE PUSH1 0x1 ADD PUSH2 0x9EA JUMP JUMPDEST POP POP POP JUMPDEST POP POP POP JUMP JUMPDEST PUSH8 0xFFFFFFFFFFFFFFFF DUP4 GT ISZERO PUSH2 0xA1E JUMPI PUSH2 0xA1E PUSH2 0x967 JUMP JUMPDEST PUSH2 0xA32 DUP4 PUSH2 0xA2C DUP4 SLOAD PUSH2 0x97D JUMP JUMPDEST DUP4 PUSH2 0x9B7 JUMP JUMPDEST PUSH1 0x0 PUSH1 0x1F DUP5 GT PUSH1 0x1 DUP2 EQ PUSH2 0xA66 JUMPI PUSH1 0x0 DUP6 ISZERO PUSH2 0xA4E JUMPI POP DUP4 DUP3 ADD CALLDATALOAD JUMPDEST PUSH1 0x0 NOT PUSH1 0x3 DUP8 SWAP1 SHL SHR NOT AND PUSH1 0x1 DUP7 SWAP1 SHL OR DUP4 SSTORE PUSH2 0xAC0 JUMP JUMPDEST PUSH1 0x0 DUP4 DUP2 MSTORE PUSH1 0x20 SWAP1 KECCAK256 PUSH1 0x1F NOT DUP7 AND SWAP1 DUP4 JUMPDEST DUP3 DUP2 LT ISZERO PUSH2 0xA97 JUMPI DUP7 DUP6 ADD CALLDATALOAD DUP3 SSTORE PUSH1 0x20 SWAP5 DUP6 ADD SWAP5 PUSH1 0x1 SWAP1 SWAP3 ADD SWAP2 ADD PUSH2 0xA77 JUMP JUMPDEST POP DUP7 DUP3 LT ISZERO PUSH2 0xAB4 JUMPI PUSH1 0x0 NOT PUSH1 0xF8 DUP9 PUSH1 0x3 SHL AND SHR NOT DUP5 DUP8 ADD CALLDATALOAD AND DUP2 SSTORE JUMPDEST POP POP PUSH1 0x1 DUP6 PUSH1 0x1 SHL ADD DUP4 SSTORE JUMPDEST POP POP POP POP POP JUMP INVALID 0xAE PUSH32 0x59C2EF152EB4D4F56FCC655F53926D60B7E58E08EC8C79387E25ADBF3331A264 PUSH10 0x70667358221220B8CC2B SWAP13 0x4C PUSH29 0xE60C446B185E80A6F48302ACF1230A59DD1EE3AC793AB673881F64736F PUSH13 0x63430008140033000000000000 "},"methodIdentifiers":{"deleteAddress(bytes32)":"0e14a376","deleteBool(bytes32)":"2c62ff2d","deleteBytes(bytes32)":"616b59f6","deleteInt(bytes32)":"8c160095","deleteString(bytes32)":"f6bb3cc4","deleteUint(bytes32)":"e2b202bf","getAddress(bytes32)":"21f8a721","getBool(bytes32)":"7ae1cfca","getBytes(bytes32)":"c031a180","getInt(bytes32)":"dc97d962","getString(bytes32)":"986e791a","getUint(bytes32)":"bd02d0f5","owner()":"8da5cb5b","renounceOwnership()":"715018a6","setAddress(bytes32,address)":"ca446dd9","setBool(bytes32,bool)":"abfdcced","setBytes(bytes32,bytes)":"2e28d084","setInt(bytes32,int256)":"3e49bed0","setString(bytes32,string)":"6e899550","setUint(bytes32,uint256)":"e2a4853a","transferOwnership(address)":"f2fde38b"}},"storageLayout":{"storage":[{"astId":8,"contract":"contracts/storage/Storage.sol:Storage","label":"_owner","offset":0,"slot":"0","type":"t_address"},{"astId":1656,"contract":"contracts/storage/Storage.sol:Storage","label":"_bytes","offset":0,"slot":"1","type":"t_mapping(t_bytes32,t_bytes_storage)"},{"astId":1661,"contract":"contracts/storage/Storage.sol:Storage","label":"_bool","offset":0,"slot":"2","type":"t_mapping(t_bytes32,t_bool)"},{"astId":1666,"contract":"contracts/storage/Storage.sol:Storage","label":"_uint","offset":0,"slot":"3","type":"t_mapping(t_bytes32,t_uint256)"},{"astId":1671,"contract":"contracts/storage/Storage.sol:Storage","label":"_int","offset":0,"slot":"4","type":"t_mapping(t_bytes32,t_int256)"},{"astId":1676,"contract":"contracts/storage/Storage.sol:Storage","label":"_address","offset":0,"slot":"5","type":"t_mapping(t_bytes32,t_address)"},{"astId":1681,"contract":"contracts/storage/Storage.sol:Storage","label":"_string","offset":0,"slot":"6","type":"t_mapping(t_bytes32,t_string_storage)"}],"types":{"t_address":{"encoding":"inplace","label":"address","numberOfBytes":"20"},"t_bool":{"encoding":"inplace","label":"bool","numberOfBytes":"1"},"t_bytes32":{"encoding":"inplace","label":"bytes32","numberOfBytes":"32"},"t_bytes_storage":{"encoding":"bytes","label":"bytes","numberOfBytes":"32"},"t_int256":{"encoding":"inplace","label":"int256","numberOfBytes":"32"},"t_mapping(t_bytes32,t_address)":{"encoding":"mapping","key":"t_bytes32","label":"mapping(bytes32 => address)","numberOfBytes":"32","value":"t_address"},"t_mapping(t_bytes32,t_bool)":{"encoding":"mapping","key":"t_bytes32","label":"mapping(bytes32 => bool)","numberOfBytes":"32","value":"t_bool"},"t_mapping(t_bytes32,t_bytes_storage)":{"encoding":"mapping","key":"t_bytes32","label":"mapping(bytes32 => bytes)","numberOfBytes":"32","value":"t_bytes_storage"},"t_mapping(t_bytes32,t_int256)":{"encoding":"mapping","key":"t_bytes32","label":"mapping(bytes32 => int256)","numberOfBytes":"32","value":"t_int256"},"t_mapping(t_bytes32,t_string_storage)":{"encoding":"mapping","key":"t_bytes32","label":"mapping(bytes32 => string)","numberOfBytes":"32","value":"t_string_storage"},"t_mapping(t_bytes32,t_uint256)":{"encoding":"mapping","key":"t_bytes32","label":"mapping(bytes32 => uint256)","numberOfBytes":"32","value":"t_uint256"},"t_string_storage":{"encoding":"bytes","label":"string","numberOfBytes":"32"},"t_uint256":{"encoding":"inplace","label":"uint256","numberOfBytes":"32"}}}}}}