{
  "_format": "hh-sol-artifact-1",
  "contractName": "BadgeV3",
  "sourceName": "contracts/NFT/BadgeV3.sol",
  "abi": [
    {
      "inputs": [],
      "stateMutability": "nonpayable",
      "type": "constructor"
    },
    {
      "inputs": [
        {
          "internalType": "address",
          "name": "recipient",
          "type": "address"
        },
        {
          "internalType": "uint256",
          "name": "costs",
          "type": "uint256"
        },
        {
          "internalType": "uint256",
          "name": "value",
          "type": "uint256"
        }
      ],
      "name": "BadgeV1InsufficientFundsForMint",
      "type": "error"
    },
    {
      "inputs": [],
      "name": "BadgeV1InvalidBurnRegistry",
      "type": "error"
    },
    {
      "inputs": [],
      "name": "BadgeV1InvalidMintSignature",
      "type": "error"
    },
    {
      "inputs": [
        {
          "internalType": "int256",
          "name": "price",
          "type": "int256"
        }
      ],
      "name": "BadgeV1NegativeCosts",
      "type": "error"
    },
    {
      "inputs": [
        {
          "internalType": "address",
          "name": "recipient",
          "type": "address"
        },
        {
          "internalType": "uint256",
          "name": "totalSupply",
          "type": "uint256"
        },
        {
          "internalType": "uint256",
          "name": "maxTotalSupply",
          "type": "uint256"
        }
      ],
      "name": "BadgeV1NoTokenAvailable",
      "type": "error"
    },
    {
      "inputs": [
        {
          "internalType": "address",
          "name": "recipient",
          "type": "address"
        }
      ],
      "name": "BadgeV1TokenAlreadyMinted",
      "type": "error"
    },
    {
      "inputs": [
        {
          "internalType": "address",
          "name": "recipient",
          "type": "address"
        },
        {
          "internalType": "uint256",
          "name": "value",
          "type": "uint256"
        }
      ],
      "name": "BadgeV1TransferFailed",
      "type": "error"
    },
    {
      "inputs": [],
      "name": "BadgeV1TransferForbidden",
      "type": "error"
    },
    {
      "inputs": [],
      "name": "BadgeV3InvalidBurnSignature",
      "type": "error"
    },
    {
      "inputs": [],
      "name": "ECDSAInvalidSignature",
      "type": "error"
    },
    {
      "inputs": [
        {
          "internalType": "uint256",
          "name": "length",
          "type": "uint256"
        }
      ],
      "name": "ECDSAInvalidSignatureLength",
      "type": "error"
    },
    {
      "inputs": [
        {
          "internalType": "bytes32",
          "name": "s",
          "type": "bytes32"
        }
      ],
      "name": "ECDSAInvalidSignatureS",
      "type": "error"
    },
    {
      "inputs": [
        {
          "internalType": "address",
          "name": "sender",
          "type": "address"
        },
        {
          "internalType": "uint256",
          "name": "tokenId",
          "type": "uint256"
        },
        {
          "internalType": "address",
          "name": "owner",
          "type": "address"
        }
      ],
      "name": "ERC721IncorrectOwner",
      "type": "error"
    },
    {
      "inputs": [
        {
          "internalType": "address",
          "name": "operator",
          "type": "address"
        },
        {
          "internalType": "uint256",
          "name": "tokenId",
          "type": "uint256"
        }
      ],
      "name": "ERC721InsufficientApproval",
      "type": "error"
    },
    {
      "inputs": [
        {
          "internalType": "address",
          "name": "approver",
          "type": "address"
        }
      ],
      "name": "ERC721InvalidApprover",
      "type": "error"
    },
    {
      "inputs": [
        {
          "internalType": "address",
          "name": "operator",
          "type": "address"
        }
      ],
      "name": "ERC721InvalidOperator",
      "type": "error"
    },
    {
      "inputs": [
        {
          "internalType": "address",
          "name": "owner",
          "type": "address"
        }
      ],
      "name": "ERC721InvalidOwner",
      "type": "error"
    },
    {
      "inputs": [
        {
          "internalType": "address",
          "name": "receiver",
          "type": "address"
        }
      ],
      "name": "ERC721InvalidReceiver",
      "type": "error"
    },
    {
      "inputs": [
        {
          "internalType": "address",
          "name": "sender",
          "type": "address"
        }
      ],
      "name": "ERC721InvalidSender",
      "type": "error"
    },
    {
      "inputs": [
        {
          "internalType": "uint256",
          "name": "tokenId",
          "type": "uint256"
        }
      ],
      "name": "ERC721NonexistentToken",
      "type": "error"
    },
    {
      "inputs": [],
      "name": "InvalidInitialization",
      "type": "error"
    },
    {
      "inputs": [],
      "name": "NotInitializing",
      "type": "error"
    },
    {
      "inputs": [
        {
          "internalType": "address",
          "name": "owner",
          "type": "address"
        }
      ],
      "name": "OwnableInvalidOwner",
      "type": "error"
    },
    {
      "inputs": [
        {
          "internalType": "address",
          "name": "account",
          "type": "address"
        }
      ],
      "name": "OwnableUnauthorizedAccount",
      "type": "error"
    },
    {
      "inputs": [],
      "name": "ReentrancyGuardReentrantCall",
      "type": "error"
    },
    {
      "anonymous": false,
      "inputs": [
        {
          "indexed": true,
          "internalType": "address",
          "name": "owner",
          "type": "address"
        },
        {
          "indexed": true,
          "internalType": "address",
          "name": "approved",
          "type": "address"
        },
        {
          "indexed": true,
          "internalType": "uint256",
          "name": "tokenId",
          "type": "uint256"
        }
      ],
      "name": "Approval",
      "type": "event"
    },
    {
      "anonymous": false,
      "inputs": [
        {
          "indexed": true,
          "internalType": "address",
          "name": "owner",
          "type": "address"
        },
        {
          "indexed": true,
          "internalType": "address",
          "name": "operator",
          "type": "address"
        },
        {
          "indexed": false,
          "internalType": "bool",
          "name": "approved",
          "type": "bool"
        }
      ],
      "name": "ApprovalForAll",
      "type": "event"
    },
    {
      "anonymous": false,
      "inputs": [],
      "name": "BurnRegistryChanged",
      "type": "event"
    },
    {
      "anonymous": false,
      "inputs": [
        {
          "indexed": false,
          "internalType": "uint256",
          "name": "oldCosts",
          "type": "uint256"
        },
        {
          "indexed": false,
          "internalType": "uint256",
          "name": "newCosts",
          "type": "uint256"
        }
      ],
      "name": "CostsChanged",
      "type": "event"
    },
    {
      "anonymous": false,
      "inputs": [
        {
          "indexed": false,
          "internalType": "uint64",
          "name": "version",
          "type": "uint64"
        }
      ],
      "name": "Initialized",
      "type": "event"
    },
    {
      "anonymous": false,
      "inputs": [
        {
          "indexed": true,
          "internalType": "address",
          "name": "recipient",
          "type": "address"
        },
        {
          "indexed": false,
          "internalType": "uint256",
          "name": "tokenId",
          "type": "uint256"
        },
        {
          "indexed": false,
          "internalType": "uint256",
          "name": "costs",
          "type": "uint256"
        },
        {
          "indexed": false,
          "internalType": "string",
          "name": "referral",
          "type": "string"
        }
      ],
      "name": "Minted",
      "type": "event"
    },
    {
      "anonymous": false,
      "inputs": [
        {
          "indexed": true,
          "internalType": "address",
          "name": "previousOwner",
          "type": "address"
        },
        {
          "indexed": true,
          "internalType": "address",
          "name": "newOwner",
          "type": "address"
        }
      ],
      "name": "OwnershipTransferred",
      "type": "event"
    },
    {
      "anonymous": false,
      "inputs": [
        {
          "indexed": true,
          "internalType": "address",
          "name": "from",
          "type": "address"
        },
        {
          "indexed": true,
          "internalType": "address",
          "name": "to",
          "type": "address"
        },
        {
          "indexed": true,
          "internalType": "uint256",
          "name": "tokenId",
          "type": "uint256"
        }
      ],
      "name": "Transfer",
      "type": "event"
    },
    {
      "inputs": [
        {
          "internalType": "address",
          "name": "to",
          "type": "address"
        },
        {
          "internalType": "uint256",
          "name": "tokenId",
          "type": "uint256"
        }
      ],
      "name": "approve",
      "outputs": [],
      "stateMutability": "nonpayable",
      "type": "function"
    },
    {
      "inputs": [
        {
          "internalType": "address",
          "name": "owner",
          "type": "address"
        }
      ],
      "name": "balanceOf",
      "outputs": [
        {
          "internalType": "uint256",
          "name": "",
          "type": "uint256"
        }
      ],
      "stateMutability": "view",
      "type": "function"
    },
    {
      "inputs": [
        {
          "internalType": "uint256",
          "name": "tokenId",
          "type": "uint256"
        }
      ],
      "name": "burn",
      "outputs": [],
      "stateMutability": "nonpayable",
      "type": "function"
    },
    {
      "inputs": [
        {
          "components": [
            {
              "internalType": "bytes32",
              "name": "id",
              "type": "bytes32"
            },
            {
              "internalType": "uint256",
              "name": "tokenId",
              "type": "uint256"
            },
            {
              "internalType": "bytes",
              "name": "signature",
              "type": "bytes"
            }
          ],
          "internalType": "struct BadgeV3.BurnForPayload[]",
          "name": "payloads",
          "type": "tuple[]"
        }
      ],
      "name": "burnForBulk",
      "outputs": [],
      "stateMutability": "nonpayable",
      "type": "function"
    },
    {
      "inputs": [],
      "name": "burnRegistry",
      "outputs": [
        {
          "internalType": "address",
          "name": "",
          "type": "address"
        }
      ],
      "stateMutability": "view",
      "type": "function"
    },
    {
      "inputs": [
        {
          "internalType": "address payable",
          "name": "__burnRegistry",
          "type": "address"
        }
      ],
      "name": "changeBurnRegistry",
      "outputs": [],
      "stateMutability": "nonpayable",
      "type": "function"
    },
    {
      "inputs": [
        {
          "internalType": "uint256",
          "name": "newCostsUSD",
          "type": "uint256"
        }
      ],
      "name": "changeCosts",
      "outputs": [],
      "stateMutability": "nonpayable",
      "type": "function"
    },
    {
      "inputs": [],
      "name": "costsETH",
      "outputs": [
        {
          "internalType": "uint256",
          "name": "",
          "type": "uint256"
        }
      ],
      "stateMutability": "view",
      "type": "function"
    },
    {
      "inputs": [],
      "name": "costsUSD",
      "outputs": [
        {
          "internalType": "uint256",
          "name": "",
          "type": "uint256"
        }
      ],
      "stateMutability": "view",
      "type": "function"
    },
    {
      "inputs": [
        {
          "internalType": "uint256",
          "name": "tokenId",
          "type": "uint256"
        }
      ],
      "name": "getApproved",
      "outputs": [
        {
          "internalType": "address",
          "name": "",
          "type": "address"
        }
      ],
      "stateMutability": "view",
      "type": "function"
    },
    {
      "inputs": [],
      "name": "id",
      "outputs": [
        {
          "internalType": "bytes32",
          "name": "",
          "type": "bytes32"
        }
      ],
      "stateMutability": "view",
      "type": "function"
    },
    {
      "inputs": [
        {
          "internalType": "bytes32",
          "name": "__id",
          "type": "bytes32"
        },
        {
          "internalType": "uint256",
          "name": "__maxTotalSupply",
          "type": "uint256"
        },
        {
          "internalType": "string",
          "name": "name",
          "type": "string"
        },
        {
          "internalType": "string",
          "name": "symbol",
          "type": "string"
        },
        {
          "internalType": "string",
          "name": "uri",
          "type": "string"
        },
        {
          "internalType": "uint256",
          "name": "__costsUSD",
          "type": "uint256"
        },
        {
          "internalType": "address",
          "name": "__signer",
          "type": "address"
        },
        {
          "internalType": "address",
          "name": "__priceFeed",
          "type": "address"
        },
        {
          "internalType": "address",
          "name": "__vault",
          "type": "address"
        },
        {
          "internalType": "address payable",
          "name": "__burnRegistry",
          "type": "address"
        }
      ],
      "name": "initialize",
      "outputs": [],
      "stateMutability": "nonpayable",
      "type": "function"
    },
    {
      "inputs": [
        {
          "internalType": "address",
          "name": "owner",
          "type": "address"
        },
        {
          "internalType": "address",
          "name": "operator",
          "type": "address"
        }
      ],
      "name": "isApprovedForAll",
      "outputs": [
        {
          "internalType": "bool",
          "name": "",
          "type": "bool"
        }
      ],
      "stateMutability": "view",
      "type": "function"
    },
    {
      "inputs": [],
      "name": "maxTotalSupply",
      "outputs": [
        {
          "internalType": "uint256",
          "name": "",
          "type": "uint256"
        }
      ],
      "stateMutability": "view",
      "type": "function"
    },
    {
      "inputs": [
        {
          "components": [
            {
              "internalType": "bytes32",
              "name": "id",
              "type": "bytes32"
            },
            {
              "internalType": "address",
              "name": "recipient",
              "type": "address"
            },
            {
              "internalType": "string",
              "name": "referral",
              "type": "string"
            },
            {
              "internalType": "bytes",
              "name": "signature",
              "type": "bytes"
            }
          ],
          "internalType": "struct BadgeV1.MintPayload",
          "name": "payload",
          "type": "tuple"
        }
      ],
      "name": "mint",
      "outputs": [],
      "stateMutability": "payable",
      "type": "function"
    },
    {
      "inputs": [
        {
          "components": [
            {
              "internalType": "bytes32",
              "name": "id",
              "type": "bytes32"
            },
            {
              "internalType": "address",
              "name": "recipient",
              "type": "address"
            },
            {
              "internalType": "uint256",
              "name": "tokenId",
              "type": "uint256"
            },
            {
              "internalType": "uint256",
              "name": "costs",
              "type": "uint256"
            },
            {
              "internalType": "string",
              "name": "referral",
              "type": "string"
            },
            {
              "internalType": "bytes",
              "name": "signature",
              "type": "bytes"
            }
          ],
          "internalType": "struct BadgeV1.MintForPayload[]",
          "name": "payloads",
          "type": "tuple[]"
        }
      ],
      "name": "mintForBulk",
      "outputs": [],
      "stateMutability": "nonpayable",
      "type": "function"
    },
    {
      "inputs": [],
      "name": "name",
      "outputs": [
        {
          "internalType": "string",
          "name": "",
          "type": "string"
        }
      ],
      "stateMutability": "view",
      "type": "function"
    },
    {
      "inputs": [],
      "name": "owner",
      "outputs": [
        {
          "internalType": "address",
          "name": "",
          "type": "address"
        }
      ],
      "stateMutability": "view",
      "type": "function"
    },
    {
      "inputs": [
        {
          "internalType": "uint256",
          "name": "tokenId",
          "type": "uint256"
        }
      ],
      "name": "ownerOf",
      "outputs": [
        {
          "internalType": "address",
          "name": "",
          "type": "address"
        }
      ],
      "stateMutability": "view",
      "type": "function"
    },
    {
      "inputs": [],
      "name": "priceFeed",
      "outputs": [
        {
          "internalType": "address",
          "name": "",
          "type": "address"
        }
      ],
      "stateMutability": "view",
      "type": "function"
    },
    {
      "inputs": [],
      "name": "renounceOwnership",
      "outputs": [],
      "stateMutability": "nonpayable",
      "type": "function"
    },
    {
      "inputs": [
        {
          "internalType": "address",
          "name": "from",
          "type": "address"
        },
        {
          "internalType": "address",
          "name": "to",
          "type": "address"
        },
        {
          "internalType": "uint256",
          "name": "tokenId",
          "type": "uint256"
        }
      ],
      "name": "safeTransferFrom",
      "outputs": [],
      "stateMutability": "nonpayable",
      "type": "function"
    },
    {
      "inputs": [
        {
          "internalType": "address",
          "name": "from",
          "type": "address"
        },
        {
          "internalType": "address",
          "name": "to",
          "type": "address"
        },
        {
          "internalType": "uint256",
          "name": "tokenId",
          "type": "uint256"
        },
        {
          "internalType": "bytes",
          "name": "data",
          "type": "bytes"
        }
      ],
      "name": "safeTransferFrom",
      "outputs": [],
      "stateMutability": "nonpayable",
      "type": "function"
    },
    {
      "inputs": [
        {
          "internalType": "address",
          "name": "operator",
          "type": "address"
        },
        {
          "internalType": "bool",
          "name": "approved",
          "type": "bool"
        }
      ],
      "name": "setApprovalForAll",
      "outputs": [],
      "stateMutability": "nonpayable",
      "type": "function"
    },
    {
      "inputs": [],
      "name": "signer",
      "outputs": [
        {
          "internalType": "address",
          "name": "",
          "type": "address"
        }
      ],
      "stateMutability": "view",
      "type": "function"
    },
    {
      "inputs": [
        {
          "internalType": "bytes4",
          "name": "interfaceId",
          "type": "bytes4"
        }
      ],
      "name": "supportsInterface",
      "outputs": [
        {
          "internalType": "bool",
          "name": "",
          "type": "bool"
        }
      ],
      "stateMutability": "view",
      "type": "function"
    },
    {
      "inputs": [],
      "name": "symbol",
      "outputs": [
        {
          "internalType": "string",
          "name": "",
          "type": "string"
        }
      ],
      "stateMutability": "view",
      "type": "function"
    },
    {
      "inputs": [
        {
          "internalType": "uint256",
          "name": "tokenId",
          "type": "uint256"
        }
      ],
      "name": "tokenURI",
      "outputs": [
        {
          "internalType": "string",
          "name": "",
          "type": "string"
        }
      ],
      "stateMutability": "view",
      "type": "function"
    },
    {
      "inputs": [],
      "name": "totalSupply",
      "outputs": [
        {
          "internalType": "uint256",
          "name": "",
          "type": "uint256"
        }
      ],
      "stateMutability": "view",
      "type": "function"
    },
    {
      "inputs": [
        {
          "internalType": "address",
          "name": "",
          "type": "address"
        },
        {
          "internalType": "address",
          "name": "",
          "type": "address"
        },
        {
          "internalType": "uint256",
          "name": "",
          "type": "uint256"
        }
      ],
      "name": "transferFrom",
      "outputs": [],
      "stateMutability": "nonpayable",
      "type": "function"
    },
    {
      "inputs": [
        {
          "internalType": "address",
          "name": "newOwner",
          "type": "address"
        }
      ],
      "name": "transferOwnership",
      "outputs": [],
      "stateMutability": "nonpayable",
      "type": "function"
    },
    {
      "inputs": [],
      "name": "vault",
      "outputs": [
        {
          "internalType": "address",
          "name": "",
          "type": "address"
        }
      ],
      "stateMutability": "view",
      "type": "function"
    }
  ],
  "bytecode": "0x60806040523480156200001157600080fd5b506200001c6200002c565b620000266200002c565b620000e0565b7ff0c57e16840df040f15088dc2f81fe391c3923bec73e23a9662efc9c229c6a00805468010000000000000000900460ff16156200007d5760405163f92ee8a960e01b815260040160405180910390fd5b80546001600160401b0390811614620000dd5780546001600160401b0319166001600160401b0390811782556040519081527fc7f505b2f371ae2175ee4913f4499e1f2633a7b5936321eed1cdaeb6115181d29060200160405180910390a15b50565b612c6180620000f06000396000f3fe6080604052600436106101e35760003560e01c806387ca93ce11610102578063bec6e63d11610095578063e985e9c511610064578063e985e9c51461056b578063f2fde38b1461058b578063f800f228146105ab578063fbfa77cf146105c057600080fd5b8063bec6e63d146104eb578063c87b56dd1461050b578063cf59aa6c1461052b578063dbc469c71461054b57600080fd5b8063a22cb465116100d1578063a22cb46514610478578063ae0b662c14610498578063af640d0f146104b6578063b88d4fde146104cb57600080fd5b806387ca93ce146103f35780638da5cb5b1461040657806395d89b41146104435780639a12cb1e1461045857600080fd5b806342842e0e1161017a57806370a082311161014957806370a0823114610380578063715018a6146103a0578063741bef1a146103b55780637c421a79146103d357600080fd5b806342842e0e1461030b57806342966c681461032b5780636352211e1461034b5780636574ef861461036b57600080fd5b806318160ddd116101b657806318160ddd14610299578063238ac933146102b857806323b872dd146102d65780632ab4d052146102f657600080fd5b806301ffc9a7146101e857806306fdde031461021d578063081812fc1461023f578063095ea7b314610277575b600080fd5b3480156101f457600080fd5b50610208610203366004611ffb565b6105de565b60405190151581526020015b60405180910390f35b34801561022957600080fd5b50610232610630565b6040516102149190612068565b34801561024b57600080fd5b5061025f61025a36600461207b565b6106d4565b6040516001600160a01b039091168152602001610214565b34801561028357600080fd5b506102976102923660046120b9565b6106e9565b005b3480156102a557600080fd5b506002545b604051908152602001610214565b3480156102c457600080fd5b506005546001600160a01b031661025f565b3480156102e257600080fd5b506102976102f13660046120e5565b6106f8565b34801561030257600080fd5b506003546102aa565b34801561031757600080fd5b506102976103263660046120e5565b610711565b34801561033757600080fd5b5061029761034636600461207b565b610731565b34801561035757600080fd5b5061025f61036636600461207b565b61081e565b34801561037757600080fd5b506102aa610829565b34801561038c57600080fd5b506102aa61039b366004612126565b610966565b3480156103ac57600080fd5b506102976109c2565b3480156103c157600080fd5b506006546001600160a01b031661025f565b3480156103df57600080fd5b506102976103ee366004612264565b6109d6565b61029761040136600461234d565b610b65565b34801561041257600080fd5b507f9016d09d72d40fdae2fd8ceac6b6234c7706214fd39c1cd1e609a0528c199300546001600160a01b031661025f565b34801561044f57600080fd5b50610232610e9b565b34801561046457600080fd5b5061029761047336600461207b565b610eda565b34801561048457600080fd5b506102976104933660046123fa565b610f27565b3480156104a457600080fd5b506008546001600160a01b031661025f565b3480156104c257600080fd5b506000546102aa565b3480156104d757600080fd5b506102976104e6366004612438565b610f32565b3480156104f757600080fd5b506102976105063660046124c6565b610f4f565b34801561051757600080fd5b5061023261052636600461207b565b6110d1565b34801561053757600080fd5b50610297610546366004612126565b611139565b34801561055757600080fd5b50610297610566366004612608565b611188565b34801561057757600080fd5b506102086105863660046126f3565b61130c565b34801561059757600080fd5b506102976105a6366004612126565b611359565b3480156105b757600080fd5b506004546102aa565b3480156105cc57600080fd5b506007546001600160a01b031661025f565b60006001600160e01b031982166380ac58cd60e01b148061060f57506001600160e01b03198216635b5e139f60e01b145b8061062a57506301ffc9a760e01b6001600160e01b03198316145b92915050565b600080516020612bec833981519152805460609190819061065090612721565b80601f016020809104026020016040519081016040528092919081815260200182805461067c90612721565b80156106c95780601f1061069e576101008083540402835291602001916106c9565b820191906000526020600020905b8154815290600101906020018083116106ac57829003601f168201915b505050505091505090565b60006106df82611394565b5061062a826113cc565b6106f4828233611406565b5050565b6040516303e8bf2760e21b815260040160405180910390fd5b61072c83838360405180602001604052806000815250610f32565b505050565b610739611413565b6008546001600160a01b03166107625760405163035a342360e31b815260040160405180910390fd5b338061076d8361081e565b6001600160a01b031614610794576040516303e8bf2760e21b815260040160405180910390fd5b61079d8261144b565b600854604051632770a7eb60e21b81526001600160a01b0383811660048301526024820185905290911690639dc29fac90604401600060405180830381600087803b1580156107eb57600080fd5b505af11580156107ff573d6000803e3d6000fd5b505050505061081b6001600080516020612c0c83398151915255565b50565b600061062a82611394565b600080600660009054906101000a90046001600160a01b03166001600160a01b031663feaf968c6040518163ffffffff1660e01b815260040160a060405180830381865afa15801561087f573d6000803e3d6000fd5b505050506040513d601f19601f820116820180604052508101906108a39190612775565b505050915050600081136108d1576040516249320b60e51b8152600481018290526024015b60405180910390fd5b6006546040805163313ce56760e01b8152905183926001600160a01b03169163313ce5679160048083019260209291908290030181865afa15801561091a573d6000803e3d6000fd5b505050506040513d601f19601f8201168201806040525081019061093e91906127c5565b61094990600a6128e2565b60045461095691906128f1565b6109609190612908565b91505090565b6000600080516020612bec8339815191526001600160a01b0383166109a1576040516322718ad960e21b8152600060048201526024016108c8565b6001600160a01b039092166000908152600390920160205250604090205490565b6109ca61149a565b6109d460006114f5565b565b7ff0c57e16840df040f15088dc2f81fe391c3923bec73e23a9662efc9c229c6a008054600160401b810460ff1615906001600160401b0316600081158015610a1b5750825b90506000826001600160401b03166001148015610a375750303b155b905081158015610a45575080155b15610a635760405163f92ee8a960e01b815260040160405180910390fd5b845467ffffffffffffffff191660011785558315610a8d57845460ff60401b1916600160401b1785555b610a978d8d611566565b610aa033611578565b610aa8611589565b60008f905560038e90556001610abe8c82612978565b5060048a9055600580546001600160a01b03808c166001600160a01b031992831617909255600680548b8416908316179055600780548a841690831617905560088054928916929091169190911790558315610b5457845460ff60401b19168555604051600181527fc7f505b2f371ae2175ee4913f4499e1f2633a7b5936321eed1cdaeb6115181d29060200160405180910390a15b505050505050505050505050505050565b610b6d611413565b6000816000015182602001518360400151604051602001610b9093929190612a37565b604051602081830303815290604052805190602001209050600054826000015114610bce57604051636b4d22d160e01b815260040160405180910390fd5b60055460608301516001600160a01b0390911690610bf590610bef84611599565b906115cc565b6001600160a01b031614610c1c57604051636b4d22d160e01b815260040160405180910390fd5b602082015160035415801590610c36575060035460025410155b15610c725760025460035460405163c40ebc5760e01b81526001600160a01b0384166004820152602481019290925260448201526064016108c8565b6000610c7d82610966565b1115610ca75760405163125fb62b60e11b81526001600160a01b03821660048201526024016108c8565b6000610cb1610829565b905080341015610cec576040516366b4250560e01b81526001600160a01b0383166004820152602481018290523460448201526064016108c8565b6007546040516000916001600160a01b03169083908381818185875af1925050503d8060008114610d39576040519150601f19603f3d011682016040523d82523d6000602084013e610d3e565b606091505b5050905080610d76576007546040516307d8c52160e01b81526001600160a01b039091166004820152602481018390526044016108c8565b81341115610e15576000610d8a8334612a76565b90506000846001600160a01b03168260405160006040518083038185875af1925050503d8060008114610dd9576040519150601f19603f3d011682016040523d82523d6000602084013e610dde565b606091505b5050905080610e12576040516307d8c52160e01b81526001600160a01b0386166004820152602481018390526044016108c8565b50505b6002805460009182610e2683612a89565b919050559050610e3684826115f6565b836001600160a01b03167ff2cb5e52049d127ad1c335f1cc25f2fdbc911bec1beb2611f4c1e8b1c274d4b482858960400151604051610e7793929190612aa2565b60405180910390a2505050505061081b6001600080516020612c0c83398151915255565b7f80bb2b638cc20bc4d0a60d66940f3ab4a00c1d7b313497ca82fb0b4ab00793018054606091600080516020612bec8339815191529161065090612721565b610ee261149a565b600480549082905560408051828152602081018490527f2679f06bd6ac5b0498704c9232cd7f20206df1261540db52c85327dc0cf6d333910160405180910390a15050565b6106f4338383611610565b610f3d8484846106f8565b610f49848484846116c1565b50505050565b60005b81518160ff1610156106f4576000828260ff1681518110610f7557610f75612aca565b60200260200101519050600081600001518260200151836040015184606001518560800151604051602001610fae959493929190612ae0565b604051602081830303815290604052805190602001209050600054826000015114610fec57604051636b4d22d160e01b815260040160405180910390fd5b60055460a08301516001600160a01b039091169061100d90610bef84611599565b6001600160a01b03161461103457604051636b4d22d160e01b815260040160405180910390fd5b611046826020015183604001516115f6565b81604001516002541061105b57600254611061565b81604001515b60028190555081602001516001600160a01b03167ff2cb5e52049d127ad1c335f1cc25f2fdbc911bec1beb2611f4c1e8b1c274d4b48360400151846060015185608001516040516110b493929190612aa2565b60405180910390a2505080806110c990612b2d565b915050610f52565b60606110dc82611394565b5060006110e76117ea565b905060008151116111075760405180602001604052806000815250611132565b806111118461187c565b604051602001611122929190612b4c565b6040516020818303038152906040525b9392505050565b61114161149a565b600880546001600160a01b0319166001600160a01b0383161790556040517fb3f10144b03fe28f0861c425a4ea038671a29ded574f7eece0676b14d04e20b090600090a150565b60005b81518160ff1610156106f4576000828260ff16815181106111ae576111ae612aca565b602002602001015190506000816000015182602001516040516020016111de929190918252602082015260400190565b60405160208183030381529060405280519060200120905060005482600001511461121c576040516364e17e4360e11b815260040160405180910390fd5b60055460408301516001600160a01b039091169061123d90610bef84611599565b6001600160a01b031614611264576040516364e17e4360e11b815260040160405180910390fd5b60085460208301516001600160a01b039091169063dcb677b0906112879061081e565b60208501516040516001600160e01b031960e085901b1681526001600160a01b0390921660048301526024820152604401600060405180830381600087803b1580156112d257600080fd5b505af11580156112e6573d6000803e3d6000fd5b505050506112f7826020015161144b565b5050808061130490612b2d565b91505061118b565b6001600160a01b0391821660009081527f80bb2b638cc20bc4d0a60d66940f3ab4a00c1d7b313497ca82fb0b4ab00793056020908152604080832093909416825291909152205460ff1690565b61136161149a565b6001600160a01b03811661138b57604051631e4fbdf760e01b8152600060048201526024016108c8565b61081b816114f5565b6000806113a08361190e565b90506001600160a01b03811661062a57604051637e27328960e01b8152600481018490526024016108c8565b60009081527f80bb2b638cc20bc4d0a60d66940f3ab4a00c1d7b313497ca82fb0b4ab007930460205260409020546001600160a01b031690565b61072c8383836001611948565b600080516020612c0c83398151915280546001190161144557604051633ee5aeb560e01b815260040160405180910390fd5b60029055565b600061145a6000836000611a5e565b90506001600160a01b0381166106f457604051637e27328960e01b8152600481018390526024016108c8565b6001600080516020612c0c83398151915255565b336114cc7f9016d09d72d40fdae2fd8ceac6b6234c7706214fd39c1cd1e609a0528c199300546001600160a01b031690565b6001600160a01b0316146109d45760405163118cdaa760e01b81523360048201526024016108c8565b7f9016d09d72d40fdae2fd8ceac6b6234c7706214fd39c1cd1e609a0528c19930080546001600160a01b031981166001600160a01b03848116918217845560405192169182907f8be0079c531659141344cd1fd0a4f28419497f9722a3daafe3b4186f6b6457e090600090a3505050565b61156e611b68565b6106f48282611bb1565b611580611b68565b61081b81611be2565b611591611b68565b6109d4611bea565b7f19457468657265756d205369676e6564204d6573736167653a0a3332000000006000908152601c91909152603c902090565b6000806000806115dc8686611bf2565b9250925092506115ec8282611c3f565b5090949350505050565b6106f4828260405180602001604052806000815250611cf8565b600080516020612bec8339815191526001600160a01b03831661165157604051630b61174360e31b81526001600160a01b03841660048201526024016108c8565b6001600160a01b038481166000818152600584016020908152604080832094881680845294825291829020805460ff191687151590811790915591519182527f17307eab39ab6107e8899845ad3d59bd9653f200f220920489ca2b5937696c31910160405180910390a350505050565b6001600160a01b0383163b15610f4957604051630a85bd0160e11b81526001600160a01b0384169063150b7a0290611703903390889087908790600401612b7b565b6020604051808303816000875af192505050801561173e575060408051601f3d908101601f1916820190925261173b91810190612bb8565b60015b6117a7573d80801561176c576040519150601f19603f3d011682016040523d82523d6000602084013e611771565b606091505b50805160000361179f57604051633250574960e11b81526001600160a01b03851660048201526024016108c8565b805181602001fd5b6001600160e01b03198116630a85bd0160e11b146117e357604051633250574960e11b81526001600160a01b03851660048201526024016108c8565b5050505050565b6060600180546117f990612721565b80601f016020809104026020016040519081016040528092919081815260200182805461182590612721565b80156118725780601f1061184757610100808354040283529160200191611872565b820191906000526020600020905b81548152906001019060200180831161185557829003601f168201915b5050505050905090565b6060600061188983611d0f565b60010190506000816001600160401b038111156118a8576118a8612143565b6040519080825280601f01601f1916602001820160405280156118d2576020820181803683370190505b5090508181016020015b600019016f181899199a1a9b1b9c1cb0b131b232b360811b600a86061a8153600a85049450846118dc57509392505050565b60009081527f80bb2b638cc20bc4d0a60d66940f3ab4a00c1d7b313497ca82fb0b4ab007930260205260409020546001600160a01b031690565b600080516020612bec833981519152818061196b57506001600160a01b03831615155b15611a2d57600061197b85611394565b90506001600160a01b038416158015906119a75750836001600160a01b0316816001600160a01b031614155b80156119ba57506119b8818561130c565b155b156119e35760405163a9fbf51f60e01b81526001600160a01b03851660048201526024016108c8565b8215611a2b5784866001600160a01b0316826001600160a01b03167f8c5be1e5ebec7d5bd14f71427d1e84f3dd0314c0f7b2291e5b200ac8c7c3b92560405160405180910390a45b505b600093845260040160205250506040902080546001600160a01b0319166001600160a01b0392909216919091179055565b6000600080516020612bec83398151915281611a798561190e565b90506001600160a01b03841615611a9557611a95818587611de7565b6001600160a01b03811615611ad557611ab2600086600080611948565b6001600160a01b0381166000908152600383016020526040902080546000190190555b6001600160a01b03861615611b06576001600160a01b03861660009081526003830160205260409020805460010190555b600085815260028301602052604080822080546001600160a01b0319166001600160a01b038a811691821790925591518893918516917fddf252ad1be2c89b69c2b068fc378daa952ba7f163c4a11628f55a4df523b3ef91a495945050505050565b7ff0c57e16840df040f15088dc2f81fe391c3923bec73e23a9662efc9c229c6a0054600160401b900460ff166109d457604051631afcd79f60e31b815260040160405180910390fd5b611bb9611b68565b600080516020612bec83398151915280611bd38482612978565b5060018101610f498382612978565b611361611b68565b611486611b68565b60008060008351604103611c2c5760208401516040850151606086015160001a611c1e88828585611e4b565b955095509550505050611c38565b50508151600091506002905b9250925092565b6000826003811115611c5357611c53612bd5565b03611c5c575050565b6001826003811115611c7057611c70612bd5565b03611c8e5760405163f645eedf60e01b815260040160405180910390fd5b6002826003811115611ca257611ca2612bd5565b03611cc35760405163fce698f760e01b8152600481018290526024016108c8565b6003826003811115611cd757611cd7612bd5565b036106f4576040516335e2f38360e21b8152600481018290526024016108c8565b611d028383611f1a565b61072c60008484846116c1565b60008072184f03e93ff9f4daa797ed6e38ed64bf6a1f0160401b8310611d4e5772184f03e93ff9f4daa797ed6e38ed64bf6a1f0160401b830492506040015b6d04ee2d6d415b85acef81000000008310611d7a576d04ee2d6d415b85acef8100000000830492506020015b662386f26fc100008310611d9857662386f26fc10000830492506010015b6305f5e1008310611db0576305f5e100830492506008015b6127108310611dc457612710830492506004015b60648310611dd6576064830492506002015b600a831061062a5760010192915050565b611df2838383611f7f565b61072c576001600160a01b038316611e2057604051637e27328960e01b8152600481018290526024016108c8565b60405163177e802f60e01b81526001600160a01b0383166004820152602481018290526044016108c8565b600080807f7fffffffffffffffffffffffffffffff5d576e7357a4501ddfe92f46681b20a0841115611e865750600091506003905082611f10565b604080516000808252602082018084528a905260ff891692820192909252606081018790526080810186905260019060a0016020604051602081039080840390855afa158015611eda573d6000803e3d6000fd5b5050604051601f1901519150506001600160a01b038116611f0657506000925060019150829050611f10565b9250600091508190505b9450945094915050565b6001600160a01b038216611f4457604051633250574960e11b8152600060048201526024016108c8565b6000611f5283836000611a5e565b90506001600160a01b0381161561072c576040516339e3563760e11b8152600060048201526024016108c8565b60006001600160a01b03831615801590611fdd5750826001600160a01b0316846001600160a01b03161480611fb95750611fb9848461130c565b80611fdd5750826001600160a01b0316611fd2836113cc565b6001600160a01b0316145b949350505050565b6001600160e01b03198116811461081b57600080fd5b60006020828403121561200d57600080fd5b813561113281611fe5565b60005b8381101561203357818101518382015260200161201b565b50506000910152565b60008151808452612054816020860160208601612018565b601f01601f19169290920160200192915050565b602081526000611132602083018461203c565b60006020828403121561208d57600080fd5b5035919050565b6001600160a01b038116811461081b57600080fd5b80356120b481612094565b919050565b600080604083850312156120cc57600080fd5b82356120d781612094565b946020939093013593505050565b6000806000606084860312156120fa57600080fd5b833561210581612094565b9250602084013561211581612094565b929592945050506040919091013590565b60006020828403121561213857600080fd5b813561113281612094565b634e487b7160e01b600052604160045260246000fd5b604051608081016001600160401b038111828210171561217b5761217b612143565b60405290565b60405160c081016001600160401b038111828210171561217b5761217b612143565b604051606081016001600160401b038111828210171561217b5761217b612143565b604051601f8201601f191681016001600160401b03811182821017156121ed576121ed612143565b604052919050565b600082601f83011261220657600080fd5b81356001600160401b0381111561221f5761221f612143565b612232601f8201601f19166020016121c5565b81815284602083860101111561224757600080fd5b816020850160208301376000918101602001919091529392505050565b6000806000806000806000806000806101408b8d03121561228457600080fd5b8a35995060208b0135985060408b01356001600160401b03808211156122a957600080fd5b6122b58e838f016121f5565b995060608d01359150808211156122cb57600080fd5b6122d78e838f016121f5565b985060808d01359150808211156122ed57600080fd5b506122fa8d828e016121f5565b96505060a08b0135945061231060c08c016120a9565b935061231e60e08c016120a9565b925061232d6101008c016120a9565b915061233c6101208c016120a9565b90509295989b9194979a5092959850565b60006020828403121561235f57600080fd5b81356001600160401b038082111561237657600080fd5b908301906080828603121561238a57600080fd5b612392612159565b8235815260208301356123a481612094565b60208201526040830135828111156123bb57600080fd5b6123c7878286016121f5565b6040830152506060830135828111156123df57600080fd5b6123eb878286016121f5565b60608301525095945050505050565b6000806040838503121561240d57600080fd5b823561241881612094565b91506020830135801515811461242d57600080fd5b809150509250929050565b6000806000806080858703121561244e57600080fd5b843561245981612094565b9350602085013561246981612094565b92506040850135915060608501356001600160401b0381111561248b57600080fd5b612497878288016121f5565b91505092959194509250565b60006001600160401b038211156124bc576124bc612143565b5060051b60200190565b600060208083850312156124d957600080fd5b82356001600160401b03808211156124f057600080fd5b818501915085601f83011261250457600080fd5b8135612517612512826124a3565b6121c5565b81815260059190911b8301840190848101908883111561253657600080fd5b8585015b838110156125fb5780358581111561255157600080fd5b860160c0818c03601f190112156125685760008081fd5b612570612181565b88820135815260406125838184016120a9565b8a830152606080840135828401526080915081840135818401525060a080840135898111156125b25760008081fd5b6125c08f8d838801016121f5565b838501525060c08401359150888211156125da5760008081fd5b6125e88e8c848701016121f5565b908301525084525091860191860161253a565b5098975050505050505050565b6000602080838503121561261b57600080fd5b82356001600160401b038082111561263257600080fd5b818501915085601f83011261264657600080fd5b8135612654612512826124a3565b81815260059190911b8301840190848101908883111561267357600080fd5b8585015b838110156125fb5780358581111561268f5760008081fd5b86016060818c03601f19018113156126a75760008081fd5b6126af6121a3565b828a01358152604080840135828c01529183013591888311156126d25760008081fd5b6126e08e8c858701016121f5565b9082015285525050918601918601612677565b6000806040838503121561270657600080fd5b823561271181612094565b9150602083013561242d81612094565b600181811c9082168061273557607f821691505b60208210810361275557634e487b7160e01b600052602260045260246000fd5b50919050565b805169ffffffffffffffffffff811681146120b457600080fd5b600080600080600060a0868803121561278d57600080fd5b6127968661275b565b94506020860151935060408601519250606086015191506127b96080870161275b565b90509295509295909350565b6000602082840312156127d757600080fd5b815160ff8116811461113257600080fd5b634e487b7160e01b600052601160045260246000fd5b600181815b8085111561283957816000190482111561281f5761281f6127e8565b8085161561282c57918102915b93841c9390800290612803565b509250929050565b6000826128505750600161062a565b8161285d5750600061062a565b8160018114612873576002811461287d57612899565b600191505061062a565b60ff84111561288e5761288e6127e8565b50506001821b61062a565b5060208310610133831016604e8410600b84101617156128bc575081810a61062a565b6128c683836127fe565b80600019048211156128da576128da6127e8565b029392505050565b600061113260ff841683612841565b808202811582820484141761062a5761062a6127e8565b60008261292557634e487b7160e01b600052601260045260246000fd5b500490565b601f82111561072c57600081815260208120601f850160051c810160208610156129515750805b601f850160051c820191505b818110156129705782815560010161295d565b505050505050565b81516001600160401b0381111561299157612991612143565b6129a58161299f8454612721565b8461292a565b602080601f8311600181146129da57600084156129c25750858301515b600019600386901b1c1916600185901b178555612970565b600085815260208120601f198616915b82811015612a09578886015182559484019460019091019084016129ea565b5085821015612a275787850151600019600388901b60f8161c191681555b5050505050600190811b01905550565b8381526bffffffffffffffffffffffff198360601b16602082015260008251612a67816034850160208701612018565b91909101603401949350505050565b8181038181111561062a5761062a6127e8565b600060018201612a9b57612a9b6127e8565b5060010190565b838152826020820152606060408201526000612ac1606083018461203c565b95945050505050565b634e487b7160e01b600052603260045260246000fd5b8581526bffffffffffffffffffffffff198560601b16602082015283603482015282605482015260008251612b1c816074850160208701612018565b919091016074019695505050505050565b600060ff821660ff8103612b4357612b436127e8565b60010192915050565b60008351612b5e818460208801612018565b835190830190612b72818360208801612018565b01949350505050565b6001600160a01b0385811682528416602082015260408101839052608060608201819052600090612bae9083018461203c565b9695505050505050565b600060208284031215612bca57600080fd5b815161113281611fe5565b634e487b7160e01b600052602160045260246000fdfe80bb2b638cc20bc4d0a60d66940f3ab4a00c1d7b313497ca82fb0b4ab00793009b779b17422d0df92223018b32b4d1fa46e071723d6817e2486d003becc55f00a2646970667358221220f1f1d83bf493aa4fb6eddd1c4091a1d0d652b2473b552c4758f80c4b4138645164736f6c63430008140033",
  "linkReferences": {},
  "deployedLinkReferences": {}
}