{
  "_format": "hh-sol-artifact-1",
  "contractName": "Multiownable",
  "sourceName": "contracts/governance/Multiownable.sol",
  "abi": [
    {
      "inputs": [],
      "stateMutability": "nonpayable",
      "type": "constructor"
    },
    {
      "anonymous": false,
      "inputs": [
        {
          "indexed": false,
          "internalType": "bytes32",
          "name": "operation",
          "type": "bytes32"
        },
        {
          "indexed": false,
          "internalType": "address",
          "name": "lastCanceller",
          "type": "address"
        }
      ],
      "name": "OperationCancelled",
      "type": "event"
    },
    {
      "anonymous": false,
      "inputs": [
        {
          "indexed": false,
          "internalType": "bytes32",
          "name": "operation",
          "type": "bytes32"
        },
        {
          "indexed": false,
          "internalType": "uint256",
          "name": "howMany",
          "type": "uint256"
        },
        {
          "indexed": false,
          "internalType": "uint256",
          "name": "ownersCount",
          "type": "uint256"
        },
        {
          "indexed": false,
          "internalType": "address",
          "name": "proposer",
          "type": "address"
        }
      ],
      "name": "OperationCreated",
      "type": "event"
    },
    {
      "anonymous": false,
      "inputs": [
        {
          "indexed": false,
          "internalType": "bytes32",
          "name": "operation",
          "type": "bytes32"
        },
        {
          "indexed": false,
          "internalType": "uint256",
          "name": "votes",
          "type": "uint256"
        },
        {
          "indexed": false,
          "internalType": "uint256",
          "name": "ownersCount",
          "type": "uint256"
        },
        {
          "indexed": false,
          "internalType": "address",
          "name": "downvoter",
          "type": "address"
        }
      ],
      "name": "OperationDownvoted",
      "type": "event"
    },
    {
      "anonymous": false,
      "inputs": [
        {
          "indexed": false,
          "internalType": "bytes32",
          "name": "operation",
          "type": "bytes32"
        },
        {
          "indexed": false,
          "internalType": "uint256",
          "name": "howMany",
          "type": "uint256"
        },
        {
          "indexed": false,
          "internalType": "uint256",
          "name": "ownersCount",
          "type": "uint256"
        },
        {
          "indexed": false,
          "internalType": "address",
          "name": "performer",
          "type": "address"
        }
      ],
      "name": "OperationPerformed",
      "type": "event"
    },
    {
      "anonymous": false,
      "inputs": [
        {
          "indexed": false,
          "internalType": "bytes32",
          "name": "operation",
          "type": "bytes32"
        },
        {
          "indexed": false,
          "internalType": "uint256",
          "name": "votes",
          "type": "uint256"
        },
        {
          "indexed": false,
          "internalType": "uint256",
          "name": "howMany",
          "type": "uint256"
        },
        {
          "indexed": false,
          "internalType": "uint256",
          "name": "ownersCount",
          "type": "uint256"
        },
        {
          "indexed": false,
          "internalType": "address",
          "name": "upvoter",
          "type": "address"
        }
      ],
      "name": "OperationUpvoted",
      "type": "event"
    },
    {
      "anonymous": false,
      "inputs": [
        {
          "indexed": false,
          "internalType": "address[]",
          "name": "previousOwners",
          "type": "address[]"
        },
        {
          "indexed": false,
          "internalType": "uint256",
          "name": "howManyOwnersDecide",
          "type": "uint256"
        },
        {
          "indexed": false,
          "internalType": "address[]",
          "name": "newOwners",
          "type": "address[]"
        },
        {
          "indexed": false,
          "internalType": "uint256",
          "name": "newHowManyOwnersDecide",
          "type": "uint256"
        }
      ],
      "name": "OwnershipTransferred",
      "type": "event"
    },
    {
      "inputs": [
        {
          "internalType": "uint256",
          "name": "",
          "type": "uint256"
        }
      ],
      "name": "allOperations",
      "outputs": [
        {
          "internalType": "bytes32",
          "name": "",
          "type": "bytes32"
        }
      ],
      "stateMutability": "view",
      "type": "function"
    },
    {
      "inputs": [],
      "name": "allOperationsCount",
      "outputs": [
        {
          "internalType": "uint256",
          "name": "",
          "type": "uint256"
        }
      ],
      "stateMutability": "view",
      "type": "function"
    },
    {
      "inputs": [
        {
          "internalType": "bytes32",
          "name": "",
          "type": "bytes32"
        }
      ],
      "name": "allOperationsIndicies",
      "outputs": [
        {
          "internalType": "uint256",
          "name": "",
          "type": "uint256"
        }
      ],
      "stateMutability": "view",
      "type": "function"
    },
    {
      "inputs": [
        {
          "internalType": "bytes32",
          "name": "operation",
          "type": "bytes32"
        }
      ],
      "name": "cancelPending",
      "outputs": [],
      "stateMutability": "nonpayable",
      "type": "function"
    },
    {
      "inputs": [],
      "name": "howManyOwnersDecide",
      "outputs": [
        {
          "internalType": "uint256",
          "name": "",
          "type": "uint256"
        }
      ],
      "stateMutability": "view",
      "type": "function"
    },
    {
      "inputs": [
        {
          "internalType": "address",
          "name": "wallet",
          "type": "address"
        }
      ],
      "name": "isOwner",
      "outputs": [
        {
          "internalType": "bool",
          "name": "",
          "type": "bool"
        }
      ],
      "stateMutability": "view",
      "type": "function"
    },
    {
      "inputs": [
        {
          "internalType": "uint256",
          "name": "",
          "type": "uint256"
        }
      ],
      "name": "owners",
      "outputs": [
        {
          "internalType": "address",
          "name": "",
          "type": "address"
        }
      ],
      "stateMutability": "view",
      "type": "function"
    },
    {
      "inputs": [],
      "name": "ownersCount",
      "outputs": [
        {
          "internalType": "uint256",
          "name": "",
          "type": "uint256"
        }
      ],
      "stateMutability": "view",
      "type": "function"
    },
    {
      "inputs": [],
      "name": "ownersGeneration",
      "outputs": [
        {
          "internalType": "uint256",
          "name": "",
          "type": "uint256"
        }
      ],
      "stateMutability": "view",
      "type": "function"
    },
    {
      "inputs": [
        {
          "internalType": "address",
          "name": "",
          "type": "address"
        }
      ],
      "name": "ownersIndices",
      "outputs": [
        {
          "internalType": "uint256",
          "name": "",
          "type": "uint256"
        }
      ],
      "stateMutability": "view",
      "type": "function"
    },
    {
      "inputs": [
        {
          "internalType": "address[]",
          "name": "newOwners",
          "type": "address[]"
        }
      ],
      "name": "transferOwnership",
      "outputs": [],
      "stateMutability": "nonpayable",
      "type": "function"
    },
    {
      "inputs": [
        {
          "internalType": "address[]",
          "name": "newOwners",
          "type": "address[]"
        },
        {
          "internalType": "uint256",
          "name": "newHowManyOwnersDecide",
          "type": "uint256"
        }
      ],
      "name": "transferOwnershipWithHowMany",
      "outputs": [],
      "stateMutability": "nonpayable",
      "type": "function"
    },
    {
      "inputs": [
        {
          "internalType": "bytes32",
          "name": "",
          "type": "bytes32"
        }
      ],
      "name": "votesCountByOperation",
      "outputs": [
        {
          "internalType": "uint256",
          "name": "",
          "type": "uint256"
        }
      ],
      "stateMutability": "view",
      "type": "function"
    },
    {
      "inputs": [
        {
          "internalType": "bytes32",
          "name": "",
          "type": "bytes32"
        }
      ],
      "name": "votesMaskByOperation",
      "outputs": [
        {
          "internalType": "uint256",
          "name": "",
          "type": "uint256"
        }
      ],
      "stateMutability": "view",
      "type": "function"
    }
  ],
  "bytecode": "0x608060405234801561001057600080fd5b506002805460018181019092557f405787fa12a823e0f2b7631cc41b3ba8828b3321ca811111fa75cd3aa3bb5ace0180546001600160a01b0319163390811790915560009081526006602052604090208190558055611218806100746000396000f3fe608060405234801561001057600080fd5b50600436106100ea5760003560e01c8063893372ca1161008c578063b948854611610066578063b9488546146101f9578063cc047a0414610201578063e851834114610221578063ea1a26441461023457600080fd5b8063893372ca146101bd57806390a53085146101d0578063b25bb3a7146101f057600080fd5b80632f4a81df116100c85780632f4a81df146101465780632f54bf6e1461014f578063431ab2331461018a578063568b59151461019d57600080fd5b8063025e7c27146100ef57806318bcd3d01461011f57806322f2f89a14610134575b600080fd5b6101026100fd366004610e60565b610254565b6040516001600160a01b0390911681526020015b60405180910390f35b61013261012d366004610ec5565b61027e565b005b6003545b604051908152602001610116565b61013860015481565b61017a61015d366004610f23565b6001600160a01b0316600090815260066020526040902054151590565b6040519015158152602001610116565b610138610198366004610e60565b61028d565b6101386101ab366004610e60565b60086020526000908152604090205481565b6101326101cb366004610e60565b6102ae565b6101386101de366004610e60565b60096020526000908152604090205481565b61013860005481565b600254610138565b61013861020f366004610f23565b60066020526000908152604090205481565b61013261022f366004610f45565b610493565b610138610242366004610e60565b60076020526000908152604090205481565b6002818154811061026457600080fd5b6000918252602090912001546001600160a01b0316905081565b610289828280610493565b5050565b6003818154811061029d57600080fd5b600091825260209091200154905081565b6102b8600161092c565b15610490576004546001600160a01b03161580156102e857600480546001600160a01b0319163317905560016005555b3360009081526006602052604081205461030490600190610fa7565b90506103118160026110a4565b6000848152600860205260408120549190911690036103905760405162461bcd60e51b815260206004820152603060248201527f63616e63656c50656e64696e673a206f7065726174696f6e206e6f7420666f7560448201526f3732103337b9103a3434b9903ab9b2b960811b60648201526084015b60405180910390fd5b61039b8160026110a4565b60008481526008602090815260408083208054941990941690935560099052908120546103ca90600190610fa7565b60008581526009602090815260409182902083905560025482518881529182018490528183015233606082015290519192507f3e0a7036018b5a2a3c5d0afa14e51998ef3cf98c38e4289a8897222b3acf75a7919081900360800190a1806000036104715761043884610cd3565b604080518581523360208201527f55e0dd61c29aac6fc36807628300ad3e3ec68655ae76ae4002f7fb101496fa9f910160405180910390a15b5050801561028957600480546001600160a01b03191690556000600555505b50565b61049e60015461092c565b15610927576004546001600160a01b03161580156104cf57600480546001600160a01b031916331790556001546005555b826105265760405162461bcd60e51b815260206004820152603360248201526000805160206111c38339815191526044820152726e65727320617272617920697320656d70747960681b6064820152608401610387565b61010083111561058c5760405162461bcd60e51b815260206004820152603e60248201526000805160206111c383398151915260448201527f6e65727320636f756e742069732067726561746572207468656e2032353600006064820152608401610387565b600082116106025760405162461bcd60e51b815260206004820152603f60248201527f7472616e736665724f776e65727368697057697468486f774d616e793a206e6560448201527f77486f774d616e794f776e65727344656369646520657175616c20746f2030006064820152608401610387565b828211156106925760405162461bcd60e51b815260206004820152605160248201527f7472616e736665724f776e65727368697057697468486f774d616e793a206e6560448201527f77486f774d616e794f776e657273446563696465206578636565647320746865606482015270206e756d626572206f66206f776e65727360781b608482015260a401610387565b60005b6002548110156106ed5760066000600283815481106106b6576106b66110b0565b60009182526020808320909101546001600160a01b03168352820192909252604001812055806106e5816110c6565b915050610695565b5060005b8381101561089457600085858381811061070d5761070d6110b0565b90506020020160208101906107229190610f23565b6001600160a01b03160361078c5760405162461bcd60e51b815260206004820152603860248201526000805160206111c383398151915260448201527f6e65727320617272617920636f6e7461696e73207a65726f00000000000000006064820152608401610387565b600660008686848181106107a2576107a26110b0565b90506020020160208101906107b79190610f23565b6001600160a01b03168152602081019190915260400160002054156108325760405162461bcd60e51b815260206004820152603e60248201526000805160206111c383398151915260448201527f6e65727320617272617920636f6e7461696e73206475706c69636174657300006064820152608401610387565b61083d8160016110df565b60066000878785818110610853576108536110b0565b90506020020160208101906108689190610f23565b6001600160a01b031681526020810191909152604001600020558061088c816110c6565b9150506106f1565b507fd167b96814cd24898418cc293e8d47d54afe6dcf0631283f0830e1eae621f6bd60026001548686866040516108cf9594939291906110f2565b60405180910390a16108e360028585610dce565b5060018290556108f560036000610e31565b600080549080610904836110c6565b9190505550801561092557600480546001600160a01b031916905560006005555b505b505050565b600454600090336001600160a01b03909116036109d1576005548211156109c95760405162461bcd60e51b815260206004820152604560248201527f5f636865636b486f774d616e794f776e6572733a206e6573746564206f776e6560448201527f7273206d6f64696669657220636865636b2072657175697265206d6f7265206f606482015264776e65727360d81b608482015260a401610387565b506001919050565b33600090815260066020526040902054610a455760405162461bcd60e51b815260206004820152602f60248201527f5f636865636b486f774d616e794f776e6572733a206d73672e73656e6465722060448201526e34b9903737ba1030b71037bbb732b960891b6064820152608401610387565b33600090815260066020526040812054610a6190600190610fa7565b905060008036600054604051602001610a7c9392919061119a565b604051602081830303815290604052805190602001209050816002610aa191906110a4565b6000828152600860205260409020541615610b245760405162461bcd60e51b815260206004820152603a60248201527f5f636865636b486f774d616e794f776e6572733a206f776e657220616c72656160448201527f647920766f74656420666f7220746865206f7065726174696f6e0000000000006064820152608401610387565b610b2f8260026110a4565b600082815260086020908152604080832080549094179093556009905290812054610b5b9060016110df565b600083815260096020526040902081905590506001819003610c0557600380546000848152600760209081526040808320849055600184018555939091527fc2575a0e9e593c00f959f8c92f12db2869c3395a3b0502d05e2516446f71f85b90910184905560025482518581529182018890528183015233606082015290517f6bab0114f9524353d2d33e64edd3ebbd16e21edd57de2226ba76c310a7ce22659181900360800190a15b60025460408051848152602081018490528082018890526060810192909252336080830152517f8dd9582c6577aea81973b5adeb6c135f6e18565d99578b7ba0c9377437ec02219181900360a00190a1600082815260096020526040902054859003610cc857610c7482610cd3565b600254604080518481526020810188905280820192909252336060830152517f8a11c8ca99994c292318ce367f65bf6ff61d390bc814b3588496f6fbcc32807a9181900360800190a1506001949350505050565b506000949350505050565b600081815260076020526040902054600354610cf190600190610fa7565b811015610d7a5760038054610d0890600190610fa7565b81548110610d1857610d186110b0565b906000526020600020015460038281548110610d3657610d366110b0565b9060005260206000200181905550806007600060038481548110610d5c57610d5c6110b0565b90600052602060002001548152602001908152602001600020819055505b6003805480610d8b57610d8b6111ac565b6000828152602080822083016000199081018390559092019092559281526008835260408082208290556009845280822082905560079093529182209190915550565b828054828255906000526020600020908101928215610e21579160200282015b82811115610e215781546001600160a01b0319166001600160a01b03843516178255602090920191600190910190610dee565b50610e2d929150610e4b565b5090565b508054600082559060005260206000209081019061049091905b5b80821115610e2d5760008155600101610e4c565b600060208284031215610e7257600080fd5b5035919050565b60008083601f840112610e8b57600080fd5b50813567ffffffffffffffff811115610ea357600080fd5b6020830191508360208260051b8501011115610ebe57600080fd5b9250929050565b60008060208385031215610ed857600080fd5b823567ffffffffffffffff811115610eef57600080fd5b610efb85828601610e79565b90969095509350505050565b80356001600160a01b0381168114610f1e57600080fd5b919050565b600060208284031215610f3557600080fd5b610f3e82610f07565b9392505050565b600080600060408486031215610f5a57600080fd5b833567ffffffffffffffff811115610f7157600080fd5b610f7d86828701610e79565b909790965060209590950135949350505050565b634e487b7160e01b600052601160045260246000fd5b81810381811115610fba57610fba610f91565b92915050565b600181815b80851115610ffb578160001904821115610fe157610fe1610f91565b80851615610fee57918102915b93841c9390800290610fc5565b509250929050565b60008261101257506001610fba565b8161101f57506000610fba565b8160018114611035576002811461103f5761105b565b6001915050610fba565b60ff84111561105057611050610f91565b50506001821b610fba565b5060208310610133831016604e8410600b841016171561107e575081810a610fba565b6110888383610fc0565b806000190482111561109c5761109c610f91565b029392505050565b6000610f3e8383611003565b634e487b7160e01b600052603260045260246000fd5b6000600182016110d8576110d8610f91565b5060010190565b80820180821115610fba57610fba610f91565b6000608082016080835280885480835260a08501915089600052602092508260002060005b8281101561113c5781546001600160a01b031684529284019260019182019101611117565b50505083820188905283810360408501528581528690820160005b87811015611183576001600160a01b0361117084610f07565b1682529183019190830190600101611157565b508093505050508260608301529695505050505050565b82848237909101908152602001919050565b634e487b7160e01b600052603160045260246000fdfe7472616e736665724f776e65727368697057697468486f774d616e793a206f77a2646970667358221220654bbf6ac40e82f1ef47a78455aad837897ccce653523b2bd0aa6628e0b65b2064736f6c63430008140033",
  "linkReferences": {},
  "deployedLinkReferences": {}
}