{
  "_format": "hh-sol-artifact-1",
  "contractName": "BurnRegistryV2",
  "sourceName": "contracts/NFT/burnRegistry/BurnRegistryV2.sol",
  "abi": [
    {
      "inputs": [],
      "stateMutability": "nonpayable",
      "type": "constructor"
    },
    {
      "inputs": [
        {
          "internalType": "address",
          "name": "distributor",
          "type": "address"
        }
      ],
      "name": "BurnRegistryInvalidDistributor",
      "type": "error"
    },
    {
      "inputs": [
        {
          "internalType": "address",
          "name": "sender",
          "type": "address"
        }
      ],
      "name": "BurnRegistryInvalidSender",
      "type": "error"
    },
    {
      "inputs": [
        {
          "internalType": "int256",
          "name": "price",
          "type": "int256"
        }
      ],
      "name": "BurnRegistryNegativePrice",
      "type": "error"
    },
    {
      "inputs": [
        {
          "internalType": "address",
          "name": "wallet",
          "type": "address"
        },
        {
          "internalType": "uint256",
          "name": "amount",
          "type": "uint256"
        }
      ],
      "name": "BurnRegistryTransferFailed",
      "type": "error"
    },
    {
      "inputs": [],
      "name": "EnforcedPause",
      "type": "error"
    },
    {
      "inputs": [],
      "name": "ExpectedPause",
      "type": "error"
    },
    {
      "inputs": [],
      "name": "InvalidInitialization",
      "type": "error"
    },
    {
      "inputs": [],
      "name": "NotInitializing",
      "type": "error"
    },
    {
      "inputs": [
        {
          "internalType": "address",
          "name": "owner",
          "type": "address"
        }
      ],
      "name": "OwnableInvalidOwner",
      "type": "error"
    },
    {
      "inputs": [
        {
          "internalType": "address",
          "name": "account",
          "type": "address"
        }
      ],
      "name": "OwnableUnauthorizedAccount",
      "type": "error"
    },
    {
      "anonymous": false,
      "inputs": [
        {
          "indexed": true,
          "internalType": "address",
          "name": "wallet",
          "type": "address"
        },
        {
          "indexed": false,
          "internalType": "uint256",
          "name": "tokenId",
          "type": "uint256"
        },
        {
          "indexed": false,
          "internalType": "uint256",
          "name": "index",
          "type": "uint256"
        }
      ],
      "name": "Burned",
      "type": "event"
    },
    {
      "anonymous": false,
      "inputs": [
        {
          "indexed": true,
          "internalType": "address",
          "name": "distributor",
          "type": "address"
        },
        {
          "indexed": false,
          "internalType": "bool",
          "name": "isAdded",
          "type": "bool"
        }
      ],
      "name": "ChangeDistributor",
      "type": "event"
    },
    {
      "anonymous": false,
      "inputs": [
        {
          "indexed": false,
          "internalType": "uint64",
          "name": "version",
          "type": "uint64"
        }
      ],
      "name": "Initialized",
      "type": "event"
    },
    {
      "anonymous": false,
      "inputs": [
        {
          "indexed": true,
          "internalType": "address",
          "name": "previousOwner",
          "type": "address"
        },
        {
          "indexed": true,
          "internalType": "address",
          "name": "newOwner",
          "type": "address"
        }
      ],
      "name": "OwnershipTransferred",
      "type": "event"
    },
    {
      "anonymous": false,
      "inputs": [
        {
          "indexed": false,
          "internalType": "address",
          "name": "account",
          "type": "address"
        }
      ],
      "name": "Paused",
      "type": "event"
    },
    {
      "anonymous": false,
      "inputs": [
        {
          "indexed": false,
          "internalType": "uint256",
          "name": "oldRecoverUSD",
          "type": "uint256"
        },
        {
          "indexed": false,
          "internalType": "uint256",
          "name": "newRecoverUSD",
          "type": "uint256"
        }
      ],
      "name": "RecoverChanged",
      "type": "event"
    },
    {
      "anonymous": false,
      "inputs": [
        {
          "indexed": false,
          "internalType": "address",
          "name": "account",
          "type": "address"
        }
      ],
      "name": "Unpaused",
      "type": "event"
    },
    {
      "anonymous": false,
      "inputs": [
        {
          "indexed": true,
          "internalType": "address",
          "name": "wallet",
          "type": "address"
        }
      ],
      "name": "Winner",
      "type": "event"
    },
    {
      "anonymous": false,
      "inputs": [
        {
          "indexed": true,
          "internalType": "address",
          "name": "recipient",
          "type": "address"
        },
        {
          "indexed": false,
          "internalType": "uint256",
          "name": "amount",
          "type": "uint256"
        }
      ],
      "name": "Withdrawal",
      "type": "event"
    },
    {
      "stateMutability": "payable",
      "type": "fallback"
    },
    {
      "inputs": [
        {
          "internalType": "address",
          "name": "distributor",
          "type": "address"
        }
      ],
      "name": "addDistributor",
      "outputs": [],
      "stateMutability": "nonpayable",
      "type": "function"
    },
    {
      "inputs": [
        {
          "internalType": "address",
          "name": "wallet",
          "type": "address"
        },
        {
          "internalType": "uint256",
          "name": "tokenId",
          "type": "uint256"
        }
      ],
      "name": "burn",
      "outputs": [],
      "stateMutability": "nonpayable",
      "type": "function"
    },
    {
      "inputs": [
        {
          "internalType": "address",
          "name": "wallet",
          "type": "address"
        },
        {
          "internalType": "uint256",
          "name": "tokenId",
          "type": "uint256"
        }
      ],
      "name": "burnWithoutCosts",
      "outputs": [],
      "stateMutability": "nonpayable",
      "type": "function"
    },
    {
      "inputs": [
        {
          "internalType": "uint256",
          "name": "index",
          "type": "uint256"
        }
      ],
      "name": "burnedBy",
      "outputs": [
        {
          "internalType": "address",
          "name": "",
          "type": "address"
        }
      ],
      "stateMutability": "view",
      "type": "function"
    },
    {
      "inputs": [
        {
          "internalType": "address",
          "name": "wallet",
          "type": "address"
        }
      ],
      "name": "burnedCount",
      "outputs": [
        {
          "internalType": "uint16",
          "name": "",
          "type": "uint16"
        }
      ],
      "stateMutability": "view",
      "type": "function"
    },
    {
      "inputs": [
        {
          "internalType": "uint256",
          "name": "newRecoverUSD",
          "type": "uint256"
        }
      ],
      "name": "changeRecover",
      "outputs": [],
      "stateMutability": "nonpayable",
      "type": "function"
    },
    {
      "inputs": [
        {
          "internalType": "address",
          "name": "__token",
          "type": "address"
        },
        {
          "internalType": "address",
          "name": "__priceFeed",
          "type": "address"
        },
        {
          "internalType": "uint256",
          "name": "__recoverUSD",
          "type": "uint256"
        }
      ],
      "name": "initialize",
      "outputs": [],
      "stateMutability": "nonpayable",
      "type": "function"
    },
    {
      "inputs": [
        {
          "internalType": "address",
          "name": "wallet",
          "type": "address"
        }
      ],
      "name": "isWinner",
      "outputs": [
        {
          "internalType": "bool",
          "name": "",
          "type": "bool"
        }
      ],
      "stateMutability": "view",
      "type": "function"
    },
    {
      "inputs": [],
      "name": "owner",
      "outputs": [
        {
          "internalType": "address",
          "name": "",
          "type": "address"
        }
      ],
      "stateMutability": "view",
      "type": "function"
    },
    {
      "inputs": [],
      "name": "pause",
      "outputs": [],
      "stateMutability": "nonpayable",
      "type": "function"
    },
    {
      "inputs": [],
      "name": "paused",
      "outputs": [
        {
          "internalType": "bool",
          "name": "",
          "type": "bool"
        }
      ],
      "stateMutability": "view",
      "type": "function"
    },
    {
      "inputs": [],
      "name": "recoverETH",
      "outputs": [
        {
          "internalType": "uint256",
          "name": "",
          "type": "uint256"
        }
      ],
      "stateMutability": "view",
      "type": "function"
    },
    {
      "inputs": [],
      "name": "recoverUSD",
      "outputs": [
        {
          "internalType": "uint256",
          "name": "",
          "type": "uint256"
        }
      ],
      "stateMutability": "view",
      "type": "function"
    },
    {
      "inputs": [
        {
          "internalType": "address",
          "name": "distributor",
          "type": "address"
        }
      ],
      "name": "removeDistributor",
      "outputs": [],
      "stateMutability": "nonpayable",
      "type": "function"
    },
    {
      "inputs": [],
      "name": "renounceOwnership",
      "outputs": [],
      "stateMutability": "nonpayable",
      "type": "function"
    },
    {
      "inputs": [],
      "name": "token",
      "outputs": [
        {
          "internalType": "address",
          "name": "",
          "type": "address"
        }
      ],
      "stateMutability": "view",
      "type": "function"
    },
    {
      "inputs": [],
      "name": "totalSupply",
      "outputs": [
        {
          "internalType": "uint256",
          "name": "",
          "type": "uint256"
        }
      ],
      "stateMutability": "view",
      "type": "function"
    },
    {
      "inputs": [
        {
          "internalType": "address",
          "name": "newOwner",
          "type": "address"
        }
      ],
      "name": "transferOwnership",
      "outputs": [],
      "stateMutability": "nonpayable",
      "type": "function"
    },
    {
      "inputs": [],
      "name": "unpause",
      "outputs": [],
      "stateMutability": "nonpayable",
      "type": "function"
    },
    {
      "inputs": [
        {
          "internalType": "address",
          "name": "wallet",
          "type": "address"
        }
      ],
      "name": "winner",
      "outputs": [],
      "stateMutability": "nonpayable",
      "type": "function"
    },
    {
      "inputs": [
        {
          "internalType": "address payable",
          "name": "recipient",
          "type": "address"
        },
        {
          "internalType": "uint256",
          "name": "amount",
          "type": "uint256"
        }
      ],
      "name": "withdrawCrumbs",
      "outputs": [],
      "stateMutability": "nonpayable",
      "type": "function"
    },
    {
      "stateMutability": "payable",
      "type": "receive"
    }
  ],
  "bytecode": "0x608060405234801561001057600080fd5b50610019610026565b610021610026565b6100d8565b7ff0c57e16840df040f15088dc2f81fe391c3923bec73e23a9662efc9c229c6a00805468010000000000000000900460ff16156100765760405163f92ee8a960e01b815260040160405180910390fd5b80546001600160401b03908116146100d55780546001600160401b0319166001600160401b0390811782556040519081527fc7f505b2f371ae2175ee4913f4499e1f2633a7b5936321eed1cdaeb6115181d29060200160405180910390a15b50565b6111e6806100e76000396000f3fe6080604052600436106101225760003560e01c80635c975abb116100a55780639d9ca28d1161006c5780639d9ca28d146103655780639dc29fac1461039e578063dcb677b0146103be578063ef22475d146103de578063f2fde38b146103fe578063fc0c546a1461041e57005b80635c975abb146102ad578063715018a6146102de5780637250e224146102f35780638456cb59146103135780638da5cb5b1461032857005b80632c63c3fe116100e95780632c63c3fe146101bd5780633f4ba83a1461020a57806342b3b5391461021f57806343470a891461023f57806357c1f9e21461028d57005b80630614117a1461012b57806311960d5a146101535780631794bb3c1461016857806318160ddd146101885780632ad957861461019d57005b3661012957005b005b34801561013757600080fd5b5061014061043c565b6040519081526020015b60405180910390f35b34801561015f57600080fd5b50600654610140565b34801561017457600080fd5b50610129610183366004610ed5565b61057a565b34801561019457600080fd5b50600554610140565b3480156101a957600080fd5b506101296101b8366004610f16565b6106c9565b3480156101c957600080fd5b506101f76101d8366004610f16565b6001600160a01b031660009081526002602052604090205461ffff1690565b60405161ffff909116815260200161014a565b34801561021657600080fd5b50610129610751565b34801561022b57600080fd5b5061012961023a366004610f3a565b610763565b34801561024b57600080fd5b5061027561025a366004610f66565b6000908152600160205260409020546001600160a01b031690565b6040516001600160a01b03909116815260200161014a565b34801561029957600080fd5b506101296102a8366004610f16565b610841565b3480156102b957600080fd5b506000805160206111918339815191525460ff165b604051901515815260200161014a565b3480156102ea57600080fd5b5061012961089f565b3480156102ff57600080fd5b5061012961030e366004610f16565b6108b1565b34801561031f57600080fd5b50610129610910565b34801561033457600080fd5b507f9016d09d72d40fdae2fd8ceac6b6234c7706214fd39c1cd1e609a0528c199300546001600160a01b0316610275565b34801561037157600080fd5b506102ce610380366004610f16565b6001600160a01b031660009081526003602052604090205460ff1690565b3480156103aa57600080fd5b506101296103b9366004610f3a565b610920565b3480156103ca57600080fd5b506101296103d9366004610f3a565b610abc565b3480156103ea57600080fd5b506101296103f9366004610f66565b610bcc565b34801561040a57600080fd5b50610129610419366004610f16565b610c19565b34801561042a57600080fd5b506000546001600160a01b0316610275565b600080600760009054906101000a90046001600160a01b03166001600160a01b031663feaf968c6040518163ffffffff1660e01b815260040160a060405180830381865afa158015610492573d6000803e3d6000fd5b505050506040513d601f19601f820116820180604052508101906104b69190610f9e565b505050915050600081136104e55760405163075f2beb60e01b8152600481018290526024015b60405180910390fd5b6007546040805163313ce56760e01b8152905183926001600160a01b03169163313ce5679160048083019260209291908290030181865afa15801561052e573d6000803e3d6000fd5b505050506040513d601f19601f820116820180604052508101906105529190610fee565b61055d90600a61110d565b60065461056a919061111c565b6105749190611133565b91505090565b7ff0c57e16840df040f15088dc2f81fe391c3923bec73e23a9662efc9c229c6a008054600160401b810460ff16159067ffffffffffffffff166000811580156105c05750825b905060008267ffffffffffffffff1660011480156105dd5750303b155b9050811580156105eb575080155b156106095760405163f92ee8a960e01b815260040160405180910390fd5b845467ffffffffffffffff19166001178555831561063357845460ff60401b1916600160401b1785555b61063c33610c57565b610644610c68565b600080546001600160a01b03808b166001600160a01b03199283161790925560078054928a1692909116919091179055600686905583156106bf57845460ff60401b19168555604051600181527fc7f505b2f371ae2175ee4913f4499e1f2633a7b5936321eed1cdaeb6115181d29060200160405180910390a15b5050505050505050565b3360008181526004602052604090205460ff1661070457604051632ec43bdb60e11b81526001600160a01b03821660048201526024016104dc565b6001600160a01b038216600081815260036020526040808220805460ff19166001179055517f745c90b656b4aafe296c8ca35aeacfe56cb96c90e1d320e5da643fff1051b6c09190a25050565b610759610c78565b610761610cd3565b565b61076b610c78565b610773610d33565b6000826001600160a01b03168260405160006040518083038185875af1925050503d80600081146107c0576040519150601f19603f3d011682016040523d82523d6000602084013e6107c5565b606091505b50509050806107f957604051636d1d7d4560e01b81526001600160a01b0384166004820152602481018390526044016104dc565b826001600160a01b03167f7fcf532c15f0a6db0bd6d0e038bea71d30d808c7d98cb3bf7268a95bf5081b658360405161083491815260200190565b60405180910390a2505050565b610849610c78565b6001600160a01b0381166000818152600460209081526040808320805460ff19169055519182527f23ed95901120b95e671ca412943b6ad1ccb6158feefab1dd978f1aa89f3006f891015b60405180910390a250565b6108a7610c78565b6107616000610d63565b6108b9610c78565b6001600160a01b038116600081815260046020908152604091829020805460ff1916600190811790915591519182527f23ed95901120b95e671ca412943b6ad1ccb6158feefab1dd978f1aa89f3006f89101610894565b610918610c78565b610761610dd4565b610928610e1d565b60005433906001600160a01b03168114610960576040516302f23f5b60e41b81526001600160a01b03821660048201526024016104dc565b600580546000918261097183611155565b90915550600081815260016020818152604080842080546001600160a01b0319166001600160a01b038b16908117909155845260029091528220805493945090929091906109c490849061ffff1661116e565b92506101000a81548161ffff021916908361ffff16021790555060006109e861043c565b90506000856001600160a01b03168260405160006040518083038185875af1925050503d8060008114610a37576040519150601f19603f3d011682016040523d82523d6000602084013e610a3c565b606091505b5050905080610a7057604051636d1d7d4560e01b81526001600160a01b0387166004820152602481018390526044016104dc565b60408051868152602081018590526001600160a01b038816917f23ff0e75edf108e3d0392d92e13e8c8a868ef19001bd49f9e94876dc46dff87f910160405180910390a2505050505050565b610ac4610e1d565b60005433906001600160a01b03168114610afc576040516302f23f5b60e41b81526001600160a01b03821660048201526024016104dc565b6005805460009182610b0d83611155565b90915550600081815260016020818152604080842080546001600160a01b0319166001600160a01b038b1690811790915584526002909152822080549394509092909190610b6090849061ffff1661116e565b92506101000a81548161ffff021916908361ffff160217905550836001600160a01b03167f23ff0e75edf108e3d0392d92e13e8c8a868ef19001bd49f9e94876dc46dff87f8483604051610bbe929190918252602082015260400190565b60405180910390a250505050565b610bd4610c78565b600680549082905560408051828152602081018490527f19183a01e1c630d639c815b8b64f65201e80337e01514b81fb1419ece11067fc910160405180910390a15050565b610c21610c78565b6001600160a01b038116610c4b57604051631e4fbdf760e01b8152600060048201526024016104dc565b610c5481610d63565b50565b610c5f610e4e565b610c5481610e97565b610c70610e4e565b610761610e9f565b33610caa7f9016d09d72d40fdae2fd8ceac6b6234c7706214fd39c1cd1e609a0528c199300546001600160a01b031690565b6001600160a01b0316146107615760405163118cdaa760e01b81523360048201526024016104dc565b610cdb610d33565b600080516020611191833981519152805460ff191681557f5db9ee0a495bf2e6ff9c91a7834c1ba4fdd244a5e8aa4e537bd38aeae4b073aa335b6040516001600160a01b03909116815260200160405180910390a150565b6000805160206111918339815191525460ff1661076157604051638dfc202b60e01b815260040160405180910390fd5b7f9016d09d72d40fdae2fd8ceac6b6234c7706214fd39c1cd1e609a0528c19930080546001600160a01b031981166001600160a01b03848116918217845560405192169182907f8be0079c531659141344cd1fd0a4f28419497f9722a3daafe3b4186f6b6457e090600090a3505050565b610ddc610e1d565b600080516020611191833981519152805460ff191660011781557f62e78cea01bee320cd4e420270b5ea74000d11b0c9f74754ebdbfc544b05a25833610d15565b6000805160206111918339815191525460ff16156107615760405163d93c066560e01b815260040160405180910390fd5b7ff0c57e16840df040f15088dc2f81fe391c3923bec73e23a9662efc9c229c6a0054600160401b900460ff1661076157604051631afcd79f60e31b815260040160405180910390fd5b610c21610e4e565b610ea7610e4e565b600080516020611191833981519152805460ff19169055565b6001600160a01b0381168114610c5457600080fd5b600080600060608486031215610eea57600080fd5b8335610ef581610ec0565b92506020840135610f0581610ec0565b929592945050506040919091013590565b600060208284031215610f2857600080fd5b8135610f3381610ec0565b9392505050565b60008060408385031215610f4d57600080fd5b8235610f5881610ec0565b946020939093013593505050565b600060208284031215610f7857600080fd5b5035919050565b805169ffffffffffffffffffff81168114610f9957600080fd5b919050565b600080600080600060a08688031215610fb657600080fd5b610fbf86610f7f565b9450602086015193506040860151925060608601519150610fe260808701610f7f565b90509295509295909350565b60006020828403121561100057600080fd5b815160ff81168114610f3357600080fd5b634e487b7160e01b600052601160045260246000fd5b600181815b8085111561106257816000190482111561104857611048611011565b8085161561105557918102915b93841c939080029061102c565b509250929050565b60008261107957506001611107565b8161108657506000611107565b816001811461109c57600281146110a6576110c2565b6001915050611107565b60ff8411156110b7576110b7611011565b50506001821b611107565b5060208310610133831016604e8410600b84101617156110e5575081810a611107565b6110ef8383611027565b806000190482111561110357611103611011565b0290505b92915050565b6000610f3360ff84168361106a565b808202811582820484141761110757611107611011565b60008261115057634e487b7160e01b600052601260045260246000fd5b500490565b60006001820161116757611167611011565b5060010190565b61ffff81811683821601908082111561118957611189611011565b509291505056fecd5ed15c6e187e77e9aee88184c21f4f2182ab5827cb3b7e07fbedcd63f03300a2646970667358221220f0de3d2b1ac7329fdb3446f72f2ec23b3b1ab1582b06ab5579c43f79e144d9a364736f6c63430008140033",
  "linkReferences": {},
  "deployedLinkReferences": {}
}