{
  "_format": "hh-sol-artifact-1",
  "contractName": "VaultV1",
  "sourceName": "contracts/vault/VaultV1.sol",
  "abi": [
    {
      "inputs": [],
      "stateMutability": "nonpayable",
      "type": "constructor"
    },
    {
      "inputs": [],
      "name": "EnforcedPause",
      "type": "error"
    },
    {
      "inputs": [],
      "name": "ExpectedPause",
      "type": "error"
    },
    {
      "inputs": [],
      "name": "InvalidInitialization",
      "type": "error"
    },
    {
      "inputs": [],
      "name": "NotInitializing",
      "type": "error"
    },
    {
      "inputs": [
        {
          "internalType": "address",
          "name": "owner",
          "type": "address"
        }
      ],
      "name": "OwnableInvalidOwner",
      "type": "error"
    },
    {
      "inputs": [
        {
          "internalType": "address",
          "name": "account",
          "type": "address"
        }
      ],
      "name": "OwnableUnauthorizedAccount",
      "type": "error"
    },
    {
      "inputs": [
        {
          "internalType": "uint256",
          "name": "balance",
          "type": "uint256"
        },
        {
          "internalType": "uint256",
          "name": "totalDistributed",
          "type": "uint256"
        },
        {
          "internalType": "uint256",
          "name": "amount",
          "type": "uint256"
        }
      ],
      "name": "VaultDistributeOverflow",
      "type": "error"
    },
    {
      "inputs": [
        {
          "internalType": "address",
          "name": "distributor",
          "type": "address"
        }
      ],
      "name": "VaultInvalidDistributor",
      "type": "error"
    },
    {
      "inputs": [
        {
          "internalType": "address",
          "name": "recipient",
          "type": "address"
        },
        {
          "internalType": "uint256",
          "name": "amount",
          "type": "uint256"
        }
      ],
      "name": "VaultWithdrawFailed",
      "type": "error"
    },
    {
      "anonymous": false,
      "inputs": [
        {
          "indexed": true,
          "internalType": "address",
          "name": "distributor",
          "type": "address"
        },
        {
          "indexed": false,
          "internalType": "bool",
          "name": "isAdded",
          "type": "bool"
        }
      ],
      "name": "ChangeDistributor",
      "type": "event"
    },
    {
      "anonymous": false,
      "inputs": [
        {
          "indexed": true,
          "internalType": "address",
          "name": "account",
          "type": "address"
        },
        {
          "indexed": false,
          "internalType": "uint256",
          "name": "amount",
          "type": "uint256"
        }
      ],
      "name": "Distribute",
      "type": "event"
    },
    {
      "anonymous": false,
      "inputs": [
        {
          "indexed": false,
          "internalType": "uint64",
          "name": "version",
          "type": "uint64"
        }
      ],
      "name": "Initialized",
      "type": "event"
    },
    {
      "anonymous": false,
      "inputs": [
        {
          "indexed": true,
          "internalType": "address",
          "name": "previousOwner",
          "type": "address"
        },
        {
          "indexed": true,
          "internalType": "address",
          "name": "newOwner",
          "type": "address"
        }
      ],
      "name": "OwnershipTransferred",
      "type": "event"
    },
    {
      "anonymous": false,
      "inputs": [
        {
          "indexed": false,
          "internalType": "address",
          "name": "account",
          "type": "address"
        }
      ],
      "name": "Paused",
      "type": "event"
    },
    {
      "anonymous": false,
      "inputs": [
        {
          "indexed": true,
          "internalType": "address",
          "name": "account",
          "type": "address"
        }
      ],
      "name": "Reset",
      "type": "event"
    },
    {
      "anonymous": false,
      "inputs": [
        {
          "indexed": false,
          "internalType": "address",
          "name": "account",
          "type": "address"
        }
      ],
      "name": "Unpaused",
      "type": "event"
    },
    {
      "anonymous": false,
      "inputs": [
        {
          "indexed": true,
          "internalType": "address",
          "name": "from",
          "type": "address"
        },
        {
          "indexed": true,
          "internalType": "address",
          "name": "recipient",
          "type": "address"
        },
        {
          "indexed": false,
          "internalType": "uint256",
          "name": "amount",
          "type": "uint256"
        }
      ],
      "name": "Withdrawal",
      "type": "event"
    },
    {
      "stateMutability": "payable",
      "type": "fallback"
    },
    {
      "inputs": [
        {
          "internalType": "address",
          "name": "distributor",
          "type": "address"
        }
      ],
      "name": "addDistributor",
      "outputs": [],
      "stateMutability": "nonpayable",
      "type": "function"
    },
    {
      "inputs": [
        {
          "internalType": "address",
          "name": "account",
          "type": "address"
        }
      ],
      "name": "balanceOf",
      "outputs": [
        {
          "internalType": "uint256",
          "name": "",
          "type": "uint256"
        }
      ],
      "stateMutability": "view",
      "type": "function"
    },
    {
      "inputs": [
        {
          "internalType": "address",
          "name": "account",
          "type": "address"
        },
        {
          "internalType": "uint256",
          "name": "amount",
          "type": "uint256"
        }
      ],
      "name": "distribute",
      "outputs": [],
      "stateMutability": "payable",
      "type": "function"
    },
    {
      "inputs": [],
      "name": "initialize",
      "outputs": [],
      "stateMutability": "nonpayable",
      "type": "function"
    },
    {
      "inputs": [],
      "name": "owner",
      "outputs": [
        {
          "internalType": "address",
          "name": "",
          "type": "address"
        }
      ],
      "stateMutability": "view",
      "type": "function"
    },
    {
      "inputs": [],
      "name": "pause",
      "outputs": [],
      "stateMutability": "nonpayable",
      "type": "function"
    },
    {
      "inputs": [],
      "name": "paused",
      "outputs": [
        {
          "internalType": "bool",
          "name": "",
          "type": "bool"
        }
      ],
      "stateMutability": "view",
      "type": "function"
    },
    {
      "inputs": [
        {
          "internalType": "address",
          "name": "distributor",
          "type": "address"
        }
      ],
      "name": "removeDistributor",
      "outputs": [],
      "stateMutability": "nonpayable",
      "type": "function"
    },
    {
      "inputs": [],
      "name": "renounceOwnership",
      "outputs": [],
      "stateMutability": "nonpayable",
      "type": "function"
    },
    {
      "inputs": [
        {
          "internalType": "address",
          "name": "account",
          "type": "address"
        }
      ],
      "name": "reset",
      "outputs": [],
      "stateMutability": "nonpayable",
      "type": "function"
    },
    {
      "inputs": [],
      "name": "totalDistributed",
      "outputs": [
        {
          "internalType": "uint256",
          "name": "",
          "type": "uint256"
        }
      ],
      "stateMutability": "view",
      "type": "function"
    },
    {
      "inputs": [
        {
          "internalType": "address",
          "name": "newOwner",
          "type": "address"
        }
      ],
      "name": "transferOwnership",
      "outputs": [],
      "stateMutability": "nonpayable",
      "type": "function"
    },
    {
      "inputs": [],
      "name": "unpause",
      "outputs": [],
      "stateMutability": "nonpayable",
      "type": "function"
    },
    {
      "inputs": [],
      "name": "withdraw",
      "outputs": [],
      "stateMutability": "nonpayable",
      "type": "function"
    },
    {
      "inputs": [
        {
          "internalType": "address",
          "name": "recipient",
          "type": "address"
        }
      ],
      "name": "withdrawCrumbs",
      "outputs": [],
      "stateMutability": "nonpayable",
      "type": "function"
    },
    {
      "inputs": [
        {
          "internalType": "address",
          "name": "from",
          "type": "address"
        },
        {
          "internalType": "address",
          "name": "recipient",
          "type": "address"
        }
      ],
      "name": "withdrawFrom",
      "outputs": [],
      "stateMutability": "nonpayable",
      "type": "function"
    },
    {
      "stateMutability": "payable",
      "type": "receive"
    }
  ],
  "bytecode": "0x608060405234801561001057600080fd5b5061001961001e565b6100d0565b7ff0c57e16840df040f15088dc2f81fe391c3923bec73e23a9662efc9c229c6a00805468010000000000000000900460ff161561006e5760405163f92ee8a960e01b815260040160405180910390fd5b80546001600160401b03908116146100cd5780546001600160401b0319166001600160401b0390811782556040519081527fc7f505b2f371ae2175ee4913f4499e1f2633a7b5936321eed1cdaeb6115181d29060200160405180910390a15b50565b610c93806100df6000396000f3fe6080604052600436106100eb5760003560e01c80638129fc1c11610084578063efca2eed11610056578063efca2eed1461029d578063f2fde38b146102b2578063f6f86599146102d2578063fb932108146102f257005b80638129fc1c1461020c5780638456cb59146102215780638da5cb5b14610236578063e81f02b61461027d57005b80636b8ab97d116100bd5780636b8ab97d1461017357806370a0823114610193578063715018a6146101d75780637250e224146101ec57005b80633ccfd60b146100f45780633f4ba83a1461010957806357c1f9e21461011e5780635c975abb1461013e57005b366100f257005b005b34801561010057600080fd5b506100f2610305565b34801561011557600080fd5b506100f261031b565b34801561012a57600080fd5b506100f2610139366004610b7c565b61032d565b34801561014a57600080fd5b50600080516020610c3e8339815191525460ff1660405190151581526020015b60405180910390f35b34801561017f57600080fd5b506100f261018e366004610b7c565b61038b565b34801561019f57600080fd5b506101c96101ae366004610b7c565b6001600160a01b031660009081526020819052604090205490565b60405190815260200161016a565b3480156101e357600080fd5b506100f2610409565b3480156101f857600080fd5b506100f2610207366004610b7c565b61041b565b34801561021857600080fd5b506100f2610476565b34801561022d57600080fd5b506100f261058d565b34801561024257600080fd5b507f9016d09d72d40fdae2fd8ceac6b6234c7706214fd39c1cd1e609a0528c199300546040516001600160a01b03909116815260200161016a565b34801561028957600080fd5b506100f2610298366004610b9e565b61059d565b3480156102a957600080fd5b506002546101c9565b3480156102be57600080fd5b506100f26102cd366004610b7c565b6105bb565b3480156102de57600080fd5b506100f26102ed366004610b7c565b6105fb565b6100f2610300366004610bd1565b6106e0565b61030d6107ea565b33610318818061081b565b50565b610323610928565b61032b610983565b565b610335610928565b6001600160a01b0381166000818152600160209081526040808320805460ff19169055519182527f23ed95901120b95e671ca412943b6ad1ccb6158feefab1dd978f1aa89f3006f891015b60405180910390a250565b6103936109e3565b61039b610928565b6001600160a01b038116600090815260208190526040812080549082905560028054919283926103cc908490610c11565b90915550506040516001600160a01b038316907f162f46783fcc741c289a7af5bd16474ace09d7e8a9d5fe1ac0d37b12afc0ccac90600090a25050565b610411610928565b61032b6000610a13565b610423610928565b6001600160a01b038116600081815260016020818152604092839020805460ff19168317905591519081527f23ed95901120b95e671ca412943b6ad1ccb6158feefab1dd978f1aa89f3006f89101610380565b7ff0c57e16840df040f15088dc2f81fe391c3923bec73e23a9662efc9c229c6a008054600160401b810460ff16159067ffffffffffffffff166000811580156104bc5750825b905060008267ffffffffffffffff1660011480156104d95750303b155b9050811580156104e7575080155b156105055760405163f92ee8a960e01b815260040160405180910390fd5b845467ffffffffffffffff19166001178555831561052f57845460ff60401b1916600160401b1785555b61053833610a84565b610540610a95565b831561058657845460ff60401b19168555604051600181527fc7f505b2f371ae2175ee4913f4499e1f2633a7b5936321eed1cdaeb6115181d29060200160405180910390a15b5050505050565b610595610928565b61032b610aa5565b6105a56109e3565b6105ad610928565b6105b7828261081b565b5050565b6105c3610928565b6001600160a01b0381166105f257604051631e4fbdf760e01b8152600060048201526024015b60405180910390fd5b61031881610a13565b610603610928565b6000600254476106139190610c11565b90506000826001600160a01b03168260405160006040518083038185875af1925050503d8060008114610662576040519150601f19603f3d011682016040523d82523d6000602084013e610667565b606091505b505090508061069b5760405163f1800cc960e01b81526001600160a01b0384166004820152602481018390526044016105e9565b6040518281526001600160a01b0384169030907f2717ead6b9200dd235aad468c9809ea400fe33ac69b5bfaa6d3e90fc922b63989060200160405180910390a3505050565b3360008181526001602052604090205460ff1661071b57604051630173cdcb60e41b81526001600160a01b03821660048201526024016105e9565b600254479061072b908490610c2a565b8110156107605760025460405163229b92cb60e21b8152600481018390526024810191909152604481018490526064016105e9565b6001600160a01b03841660009081526020819052604081208054859290610788908490610c2a565b9250508190555082600260008282546107a19190610c2a565b90915550506040518381526001600160a01b038516907fc1d32ad5cca423e7dda2123dbf8c482f8e77d00b631c06e903a47f2cec1334df9060200160405180910390a250505050565b600080516020610c3e8339815191525460ff161561032b5760405163d93c066560e01b815260040160405180910390fd5b6001600160a01b0382166000908152602081905260408120805490829055600280549192839261084c908490610c11565b90915550506040516000906001600160a01b0384169083908381818185875af1925050503d806000811461089c576040519150601f19603f3d011682016040523d82523d6000602084013e6108a1565b606091505b50509050806108d55760405163f1800cc960e01b81526001600160a01b0384166004820152602481018390526044016105e9565b826001600160a01b0316846001600160a01b03167f2717ead6b9200dd235aad468c9809ea400fe33ac69b5bfaa6d3e90fc922b63988460405161091a91815260200190565b60405180910390a350505050565b3361095a7f9016d09d72d40fdae2fd8ceac6b6234c7706214fd39c1cd1e609a0528c199300546001600160a01b031690565b6001600160a01b03161461032b5760405163118cdaa760e01b81523360048201526024016105e9565b61098b6109e3565b600080516020610c3e833981519152805460ff191681557f5db9ee0a495bf2e6ff9c91a7834c1ba4fdd244a5e8aa4e537bd38aeae4b073aa335b6040516001600160a01b03909116815260200160405180910390a150565b600080516020610c3e8339815191525460ff1661032b57604051638dfc202b60e01b815260040160405180910390fd5b7f9016d09d72d40fdae2fd8ceac6b6234c7706214fd39c1cd1e609a0528c19930080546001600160a01b031981166001600160a01b03848116918217845560405192169182907f8be0079c531659141344cd1fd0a4f28419497f9722a3daafe3b4186f6b6457e090600090a3505050565b610a8c610aee565b61031881610b37565b610a9d610aee565b61032b610b3f565b610aad6107ea565b600080516020610c3e833981519152805460ff191660011781557f62e78cea01bee320cd4e420270b5ea74000d11b0c9f74754ebdbfc544b05a258336109c5565b7ff0c57e16840df040f15088dc2f81fe391c3923bec73e23a9662efc9c229c6a0054600160401b900460ff1661032b57604051631afcd79f60e31b815260040160405180910390fd5b6105c3610aee565b610b47610aee565b600080516020610c3e833981519152805460ff19169055565b80356001600160a01b0381168114610b7757600080fd5b919050565b600060208284031215610b8e57600080fd5b610b9782610b60565b9392505050565b60008060408385031215610bb157600080fd5b610bba83610b60565b9150610bc860208401610b60565b90509250929050565b60008060408385031215610be457600080fd5b610bed83610b60565b946020939093013593505050565b634e487b7160e01b600052601160045260246000fd5b81810381811115610c2457610c24610bfb565b92915050565b80820180821115610c2457610c24610bfb56fecd5ed15c6e187e77e9aee88184c21f4f2182ab5827cb3b7e07fbedcd63f03300a26469706673582212206c0653ccdb2076649fab73b8eaab7d73e362e4f39e55ad13e08ccd2366e62c6364736f6c63430008140033",
  "linkReferences": {},
  "deployedLinkReferences": {}
}