{
  "_format": "hh-sol-artifact-1",
  "contractName": "VaultV1",
  "sourceName": "contracts/vault/VaultV1.sol",
  "abi": [
    {
      "inputs": [],
      "stateMutability": "nonpayable",
      "type": "constructor"
    },
    {
      "inputs": [],
      "name": "EnforcedPause",
      "type": "error"
    },
    {
      "inputs": [],
      "name": "ExpectedPause",
      "type": "error"
    },
    {
      "inputs": [],
      "name": "InvalidInitialization",
      "type": "error"
    },
    {
      "inputs": [],
      "name": "NotInitializing",
      "type": "error"
    },
    {
      "inputs": [
        {
          "internalType": "address",
          "name": "owner",
          "type": "address"
        }
      ],
      "name": "OwnableInvalidOwner",
      "type": "error"
    },
    {
      "inputs": [
        {
          "internalType": "address",
          "name": "account",
          "type": "address"
        }
      ],
      "name": "OwnableUnauthorizedAccount",
      "type": "error"
    },
    {
      "inputs": [
        {
          "internalType": "uint256",
          "name": "balance",
          "type": "uint256"
        },
        {
          "internalType": "uint256",
          "name": "totalDistributed",
          "type": "uint256"
        },
        {
          "internalType": "uint256",
          "name": "amount",
          "type": "uint256"
        }
      ],
      "name": "VaultDistributeOverflow",
      "type": "error"
    },
    {
      "inputs": [
        {
          "internalType": "address",
          "name": "distributor",
          "type": "address"
        }
      ],
      "name": "VaultInvalidDistributor",
      "type": "error"
    },
    {
      "inputs": [
        {
          "internalType": "address",
          "name": "recipient",
          "type": "address"
        },
        {
          "internalType": "uint256",
          "name": "amount",
          "type": "uint256"
        }
      ],
      "name": "VaultWithdrawFailed",
      "type": "error"
    },
    {
      "anonymous": false,
      "inputs": [
        {
          "indexed": true,
          "internalType": "address",
          "name": "account",
          "type": "address"
        },
        {
          "indexed": false,
          "internalType": "uint256",
          "name": "amount",
          "type": "uint256"
        }
      ],
      "name": "Distribute",
      "type": "event"
    },
    {
      "anonymous": false,
      "inputs": [
        {
          "indexed": false,
          "internalType": "uint64",
          "name": "version",
          "type": "uint64"
        }
      ],
      "name": "Initialized",
      "type": "event"
    },
    {
      "anonymous": false,
      "inputs": [
        {
          "indexed": true,
          "internalType": "address",
          "name": "previousOwner",
          "type": "address"
        },
        {
          "indexed": true,
          "internalType": "address",
          "name": "newOwner",
          "type": "address"
        }
      ],
      "name": "OwnershipTransferred",
      "type": "event"
    },
    {
      "anonymous": false,
      "inputs": [
        {
          "indexed": false,
          "internalType": "address",
          "name": "account",
          "type": "address"
        }
      ],
      "name": "Paused",
      "type": "event"
    },
    {
      "anonymous": false,
      "inputs": [
        {
          "indexed": true,
          "internalType": "address",
          "name": "account",
          "type": "address"
        }
      ],
      "name": "Reset",
      "type": "event"
    },
    {
      "anonymous": false,
      "inputs": [
        {
          "indexed": false,
          "internalType": "address",
          "name": "account",
          "type": "address"
        }
      ],
      "name": "Unpaused",
      "type": "event"
    },
    {
      "anonymous": false,
      "inputs": [
        {
          "indexed": true,
          "internalType": "address",
          "name": "from",
          "type": "address"
        },
        {
          "indexed": true,
          "internalType": "address",
          "name": "recipient",
          "type": "address"
        },
        {
          "indexed": false,
          "internalType": "uint256",
          "name": "amount",
          "type": "uint256"
        }
      ],
      "name": "Withdrawal",
      "type": "event"
    },
    {
      "stateMutability": "payable",
      "type": "fallback"
    },
    {
      "inputs": [
        {
          "internalType": "address",
          "name": "distributor",
          "type": "address"
        }
      ],
      "name": "addDistributor",
      "outputs": [],
      "stateMutability": "nonpayable",
      "type": "function"
    },
    {
      "inputs": [
        {
          "internalType": "address",
          "name": "account",
          "type": "address"
        }
      ],
      "name": "balanceOf",
      "outputs": [
        {
          "internalType": "uint256",
          "name": "",
          "type": "uint256"
        }
      ],
      "stateMutability": "view",
      "type": "function"
    },
    {
      "inputs": [
        {
          "internalType": "address",
          "name": "account",
          "type": "address"
        },
        {
          "internalType": "uint256",
          "name": "amount",
          "type": "uint256"
        }
      ],
      "name": "distribute",
      "outputs": [],
      "stateMutability": "payable",
      "type": "function"
    },
    {
      "inputs": [],
      "name": "initialize",
      "outputs": [],
      "stateMutability": "nonpayable",
      "type": "function"
    },
    {
      "inputs": [],
      "name": "owner",
      "outputs": [
        {
          "internalType": "address",
          "name": "",
          "type": "address"
        }
      ],
      "stateMutability": "view",
      "type": "function"
    },
    {
      "inputs": [],
      "name": "pause",
      "outputs": [],
      "stateMutability": "nonpayable",
      "type": "function"
    },
    {
      "inputs": [],
      "name": "paused",
      "outputs": [
        {
          "internalType": "bool",
          "name": "",
          "type": "bool"
        }
      ],
      "stateMutability": "view",
      "type": "function"
    },
    {
      "inputs": [
        {
          "internalType": "address",
          "name": "distributor",
          "type": "address"
        }
      ],
      "name": "removeDistributor",
      "outputs": [],
      "stateMutability": "nonpayable",
      "type": "function"
    },
    {
      "inputs": [],
      "name": "renounceOwnership",
      "outputs": [],
      "stateMutability": "nonpayable",
      "type": "function"
    },
    {
      "inputs": [
        {
          "internalType": "address",
          "name": "account",
          "type": "address"
        }
      ],
      "name": "reset",
      "outputs": [],
      "stateMutability": "nonpayable",
      "type": "function"
    },
    {
      "inputs": [],
      "name": "totalDistributed",
      "outputs": [
        {
          "internalType": "uint256",
          "name": "",
          "type": "uint256"
        }
      ],
      "stateMutability": "view",
      "type": "function"
    },
    {
      "inputs": [
        {
          "internalType": "address",
          "name": "newOwner",
          "type": "address"
        }
      ],
      "name": "transferOwnership",
      "outputs": [],
      "stateMutability": "nonpayable",
      "type": "function"
    },
    {
      "inputs": [],
      "name": "unpause",
      "outputs": [],
      "stateMutability": "nonpayable",
      "type": "function"
    },
    {
      "inputs": [],
      "name": "withdraw",
      "outputs": [],
      "stateMutability": "nonpayable",
      "type": "function"
    },
    {
      "inputs": [
        {
          "internalType": "address",
          "name": "recipient",
          "type": "address"
        }
      ],
      "name": "withdrawCrumbs",
      "outputs": [],
      "stateMutability": "nonpayable",
      "type": "function"
    },
    {
      "inputs": [
        {
          "internalType": "address",
          "name": "from",
          "type": "address"
        },
        {
          "internalType": "address",
          "name": "recipient",
          "type": "address"
        }
      ],
      "name": "withdrawFrom",
      "outputs": [],
      "stateMutability": "nonpayable",
      "type": "function"
    },
    {
      "stateMutability": "payable",
      "type": "receive"
    }
  ],
  "bytecode": "0x608060405234801561001057600080fd5b5061001961001e565b6100d0565b7ff0c57e16840df040f15088dc2f81fe391c3923bec73e23a9662efc9c229c6a00805468010000000000000000900460ff161561006e5760405163f92ee8a960e01b815260040160405180910390fd5b80546001600160401b03908116146100cd5780546001600160401b0319166001600160401b0390811782556040519081527fc7f505b2f371ae2175ee4913f4499e1f2633a7b5936321eed1cdaeb6115181d29060200160405180910390a15b50565b610bf9806100df6000396000f3fe6080604052600436106100eb5760003560e01c80638129fc1c11610084578063efca2eed11610056578063efca2eed1461029d578063f2fde38b146102b2578063f6f86599146102d2578063fb932108146102f257005b80638129fc1c1461020c5780638456cb59146102215780638da5cb5b14610236578063e81f02b61461027d57005b80636b8ab97d116100bd5780636b8ab97d1461017357806370a0823114610193578063715018a6146101d75780637250e224146101ec57005b80633ccfd60b146100f45780633f4ba83a1461010957806357c1f9e21461011e5780635c975abb1461013e57005b366100f257005b005b34801561010057600080fd5b506100f2610305565b34801561011557600080fd5b506100f261031b565b34801561012a57600080fd5b506100f2610139366004610ae2565b61032d565b34801561014a57600080fd5b50600080516020610ba48339815191525460ff1660405190151581526020015b60405180910390f35b34801561017f57600080fd5b506100f261018e366004610ae2565b610356565b34801561019f57600080fd5b506101c96101ae366004610ae2565b6001600160a01b031660009081526020819052604090205490565b60405190815260200161016a565b3480156101e357600080fd5b506100f26103d4565b3480156101f857600080fd5b506100f2610207366004610ae2565b6103e6565b34801561021857600080fd5b506100f2610415565b34801561022d57600080fd5b506100f2610524565b34801561024257600080fd5b507f9016d09d72d40fdae2fd8ceac6b6234c7706214fd39c1cd1e609a0528c199300546040516001600160a01b03909116815260200161016a565b34801561028957600080fd5b506100f2610298366004610b04565b610534565b3480156102a957600080fd5b506002546101c9565b3480156102be57600080fd5b506100f26102cd366004610ae2565b610552565b3480156102de57600080fd5b506100f26102ed366004610ae2565b610592565b6100f2610300366004610b37565b610677565b61030d610781565b3361031881806107b2565b50565b6103236108bf565b61032b61091a565b565b6103356108bf565b6001600160a01b03166000908152600160205260409020805460ff19169055565b61035e61097a565b6103666108bf565b6001600160a01b03811660009081526020819052604081208054908290556002805491928392610397908490610b77565b90915550506040516001600160a01b038316907f162f46783fcc741c289a7af5bd16474ace09d7e8a9d5fe1ac0d37b12afc0ccac90600090a25050565b6103dc6108bf565b61032b60006109aa565b6103ee6108bf565b6001600160a01b03166000908152600160208190526040909120805460ff19169091179055565b7ff0c57e16840df040f15088dc2f81fe391c3923bec73e23a9662efc9c229c6a008054600160401b810460ff16159067ffffffffffffffff1660008115801561045b5750825b905060008267ffffffffffffffff1660011480156104785750303b155b905081158015610486575080155b156104a45760405163f92ee8a960e01b815260040160405180910390fd5b845467ffffffffffffffff1916600117855583156104ce57845460ff60401b1916600160401b1785555b6104d733610a1b565b831561051d57845460ff60401b19168555604051600181527fc7f505b2f371ae2175ee4913f4499e1f2633a7b5936321eed1cdaeb6115181d29060200160405180910390a15b5050505050565b61052c6108bf565b61032b610a2c565b61053c61097a565b6105446108bf565b61054e82826107b2565b5050565b61055a6108bf565b6001600160a01b03811661058957604051631e4fbdf760e01b8152600060048201526024015b60405180910390fd5b610318816109aa565b61059a6108bf565b6000600254476105aa9190610b77565b90506000826001600160a01b03168260405160006040518083038185875af1925050503d80600081146105f9576040519150601f19603f3d011682016040523d82523d6000602084013e6105fe565b606091505b50509050806106325760405163f1800cc960e01b81526001600160a01b038416600482015260248101839052604401610580565b6040518281526001600160a01b0384169030907f2717ead6b9200dd235aad468c9809ea400fe33ac69b5bfaa6d3e90fc922b63989060200160405180910390a3505050565b3360008181526001602052604090205460ff166106b257604051630173cdcb60e41b81526001600160a01b0382166004820152602401610580565b60025447906106c2908490610b90565b8110156106f75760025460405163229b92cb60e21b815260048101839052602481019190915260448101849052606401610580565b6001600160a01b0384166000908152602081905260408120805485929061071f908490610b90565b9250508190555082600260008282546107389190610b90565b90915550506040518381526001600160a01b038516907fc1d32ad5cca423e7dda2123dbf8c482f8e77d00b631c06e903a47f2cec1334df9060200160405180910390a250505050565b600080516020610ba48339815191525460ff161561032b5760405163d93c066560e01b815260040160405180910390fd5b6001600160a01b038216600090815260208190526040812080549082905560028054919283926107e3908490610b77565b90915550506040516000906001600160a01b0384169083908381818185875af1925050503d8060008114610833576040519150601f19603f3d011682016040523d82523d6000602084013e610838565b606091505b505090508061086c5760405163f1800cc960e01b81526001600160a01b038416600482015260248101839052604401610580565b826001600160a01b0316846001600160a01b03167f2717ead6b9200dd235aad468c9809ea400fe33ac69b5bfaa6d3e90fc922b6398846040516108b191815260200190565b60405180910390a350505050565b336108f17f9016d09d72d40fdae2fd8ceac6b6234c7706214fd39c1cd1e609a0528c199300546001600160a01b031690565b6001600160a01b03161461032b5760405163118cdaa760e01b8152336004820152602401610580565b61092261097a565b600080516020610ba4833981519152805460ff191681557f5db9ee0a495bf2e6ff9c91a7834c1ba4fdd244a5e8aa4e537bd38aeae4b073aa335b6040516001600160a01b03909116815260200160405180910390a150565b600080516020610ba48339815191525460ff1661032b57604051638dfc202b60e01b815260040160405180910390fd5b7f9016d09d72d40fdae2fd8ceac6b6234c7706214fd39c1cd1e609a0528c19930080546001600160a01b031981166001600160a01b03848116918217845560405192169182907f8be0079c531659141344cd1fd0a4f28419497f9722a3daafe3b4186f6b6457e090600090a3505050565b610a23610a75565b61031881610abe565b610a34610781565b600080516020610ba4833981519152805460ff191660011781557f62e78cea01bee320cd4e420270b5ea74000d11b0c9f74754ebdbfc544b05a2583361095c565b7ff0c57e16840df040f15088dc2f81fe391c3923bec73e23a9662efc9c229c6a0054600160401b900460ff1661032b57604051631afcd79f60e31b815260040160405180910390fd5b61055a610a75565b80356001600160a01b0381168114610add57600080fd5b919050565b600060208284031215610af457600080fd5b610afd82610ac6565b9392505050565b60008060408385031215610b1757600080fd5b610b2083610ac6565b9150610b2e60208401610ac6565b90509250929050565b60008060408385031215610b4a57600080fd5b610b5383610ac6565b946020939093013593505050565b634e487b7160e01b600052601160045260246000fd5b81810381811115610b8a57610b8a610b61565b92915050565b80820180821115610b8a57610b8a610b6156fecd5ed15c6e187e77e9aee88184c21f4f2182ab5827cb3b7e07fbedcd63f03300a2646970667358221220c94e332ac4e421f8bc0c8b32c1271ced0412d61863e883e93722c3c5fc1435fd64736f6c63430008140033",
  "linkReferences": {},
  "deployedLinkReferences": {}
}