{
  "_format": "hh-sol-artifact-1",
  "contractName": "AcrossSpokePoolMock",
  "sourceName": "contracts/mock/AcrossSpokePoolMock.sol",
  "abi": [
    {
      "inputs": [],
      "stateMutability": "nonpayable",
      "type": "constructor"
    },
    {
      "inputs": [
        {
          "internalType": "address",
          "name": "target",
          "type": "address"
        }
      ],
      "name": "AddressEmptyCode",
      "type": "error"
    },
    {
      "inputs": [
        {
          "internalType": "address",
          "name": "account",
          "type": "address"
        }
      ],
      "name": "AddressInsufficientBalance",
      "type": "error"
    },
    {
      "inputs": [],
      "name": "DepositFailed",
      "type": "error"
    },
    {
      "inputs": [],
      "name": "FailedInnerCall",
      "type": "error"
    },
    {
      "inputs": [
        {
          "internalType": "address",
          "name": "owner",
          "type": "address"
        }
      ],
      "name": "OwnableInvalidOwner",
      "type": "error"
    },
    {
      "inputs": [
        {
          "internalType": "address",
          "name": "account",
          "type": "address"
        }
      ],
      "name": "OwnableUnauthorizedAccount",
      "type": "error"
    },
    {
      "inputs": [
        {
          "internalType": "address",
          "name": "token",
          "type": "address"
        }
      ],
      "name": "SafeERC20FailedOperation",
      "type": "error"
    },
    {
      "anonymous": false,
      "inputs": [
        {
          "indexed": true,
          "internalType": "address",
          "name": "previousOwner",
          "type": "address"
        },
        {
          "indexed": true,
          "internalType": "address",
          "name": "newOwner",
          "type": "address"
        }
      ],
      "name": "OwnershipTransferred",
      "type": "event"
    },
    {
      "inputs": [],
      "name": "depositQuoteTimeBuffer",
      "outputs": [
        {
          "internalType": "uint32",
          "name": "",
          "type": "uint32"
        }
      ],
      "stateMutability": "view",
      "type": "function"
    },
    {
      "inputs": [
        {
          "internalType": "address",
          "name": "",
          "type": "address"
        },
        {
          "internalType": "address",
          "name": "recipient",
          "type": "address"
        },
        {
          "internalType": "address",
          "name": "inputToken",
          "type": "address"
        },
        {
          "internalType": "address",
          "name": "",
          "type": "address"
        },
        {
          "internalType": "uint256",
          "name": "inputAmount",
          "type": "uint256"
        },
        {
          "internalType": "uint256",
          "name": "",
          "type": "uint256"
        },
        {
          "internalType": "uint256",
          "name": "",
          "type": "uint256"
        },
        {
          "internalType": "address",
          "name": "",
          "type": "address"
        },
        {
          "internalType": "uint32",
          "name": "",
          "type": "uint32"
        },
        {
          "internalType": "uint32",
          "name": "",
          "type": "uint32"
        },
        {
          "internalType": "uint32",
          "name": "",
          "type": "uint32"
        },
        {
          "internalType": "bytes",
          "name": "",
          "type": "bytes"
        }
      ],
      "name": "depositV3",
      "outputs": [],
      "stateMutability": "payable",
      "type": "function"
    },
    {
      "inputs": [],
      "name": "fillDeadlineBuffer",
      "outputs": [
        {
          "internalType": "uint32",
          "name": "",
          "type": "uint32"
        }
      ],
      "stateMutability": "view",
      "type": "function"
    },
    {
      "inputs": [],
      "name": "getCurrentTime",
      "outputs": [
        {
          "internalType": "uint256",
          "name": "",
          "type": "uint256"
        }
      ],
      "stateMutability": "view",
      "type": "function"
    },
    {
      "inputs": [],
      "name": "owner",
      "outputs": [
        {
          "internalType": "address",
          "name": "",
          "type": "address"
        }
      ],
      "stateMutability": "view",
      "type": "function"
    },
    {
      "inputs": [],
      "name": "renounceOwnership",
      "outputs": [],
      "stateMutability": "nonpayable",
      "type": "function"
    },
    {
      "inputs": [
        {
          "internalType": "address",
          "name": "newOwner",
          "type": "address"
        }
      ],
      "name": "transferOwnership",
      "outputs": [],
      "stateMutability": "nonpayable",
      "type": "function"
    }
  ],
  "bytecode": "0x608060405234801561001057600080fd5b50338061003757604051631e4fbdf760e01b81526000600482015260240160405180910390fd5b61004081610046565b50610096565b600080546001600160a01b038381166001600160a01b0319831681178455604051919092169283917f8be0079c531659141344cd1fd0a4f28419497f9722a3daafe3b4186f6b6457e09190a35050565b610764806100a56000396000f3fe6080604052600436106100705760003560e01c8063715018a61161004e578063715018a6146100d05780637b939232146100e75780638da5cb5b146100fa578063f2fde38b1461012257600080fd5b8063079bd2c71461007557806329cb924d146100a057806357f6dcb8146100bb575b600080fd5b34801561008157600080fd5b506154605b60405163ffffffff90911681526020015b60405180910390f35b3480156100ac57600080fd5b50604051428152602001610097565b3480156100c757600080fd5b50610e10610086565b3480156100dc57600080fd5b506100e5610142565b005b6100e56100f53660046105dd565b610156565b34801561010657600080fd5b506000546040516001600160a01b039091168152602001610097565b34801561012e57600080fd5b506100e561013d3660046106c2565b61020d565b61014a610250565b610154600061027d565b565b34156101d65760008b6001600160a01b03168960405160006040518083038185875af1925050503d80600081146101a9576040519150601f19603f3d011682016040523d82523d6000602084013e6101ae565b606091505b50509050806101d0576040516379cacff160e01b815260040160405180910390fd5b506101ff565b6101eb6001600160a01b038b1633308b6102cd565b6101ff6001600160a01b038b168c8a61033a565b505050505050505050505050565b610215610250565b6001600160a01b03811661024457604051631e4fbdf760e01b8152600060048201526024015b60405180910390fd5b61024d8161027d565b50565b6000546001600160a01b031633146101545760405163118cdaa760e01b815233600482015260240161023b565b600080546001600160a01b038381166001600160a01b0319831681178455604051919092169283917f8be0079c531659141344cd1fd0a4f28419497f9722a3daafe3b4186f6b6457e09190a35050565b6040516001600160a01b0384811660248301528381166044830152606482018390526103349186918216906323b872dd906084015b604051602081830303815290604052915060e01b6020820180516001600160e01b038381831617835250505050610370565b50505050565b6040516001600160a01b0383811660248301526044820183905261036b91859182169063a9059cbb90606401610302565b505050565b60006103856001600160a01b038416836103d3565b905080516000141580156103aa5750808060200190518101906103a891906106dd565b155b1561036b57604051635274afe760e01b81526001600160a01b038416600482015260240161023b565b60606103e1838360006103e8565b9392505050565b60608147101561040d5760405163cd78605960e01b815230600482015260240161023b565b600080856001600160a01b0316848660405161042991906106ff565b60006040518083038185875af1925050503d8060008114610466576040519150601f19603f3d011682016040523d82523d6000602084013e61046b565b606091505b509150915061047b868383610485565b9695505050505050565b60608261049a57610495826104e1565b6103e1565b81511580156104b157506001600160a01b0384163b155b156104da57604051639996b31560e01b81526001600160a01b038516600482015260240161023b565b50806103e1565b8051156104f15780518082602001fd5b604051630a12f52160e11b815260040160405180910390fd5b80356001600160a01b038116811461052157600080fd5b919050565b803563ffffffff8116811461052157600080fd5b634e487b7160e01b600052604160045260246000fd5b600082601f83011261056157600080fd5b813567ffffffffffffffff8082111561057c5761057c61053a565b604051601f8301601f19908116603f011681019082821181831017156105a4576105a461053a565b816040528381528660208588010111156105bd57600080fd5b836020870160208301376000602085830101528094505050505092915050565b6000806000806000806000806000806000806101808d8f03121561060057600080fd5b6106098d61050a565b9b5061061760208e0161050a565b9a5061062560408e0161050a565b995061063360608e0161050a565b985060808d0135975060a08d0135965060c08d0135955061065660e08e0161050a565b94506106656101008e01610526565b93506106746101208e01610526565b92506106836101408e01610526565b915067ffffffffffffffff6101608e0135111561069f57600080fd5b6106b08e6101608f01358f01610550565b90509295989b509295989b509295989b565b6000602082840312156106d457600080fd5b6103e18261050a565b6000602082840312156106ef57600080fd5b815180151581146103e157600080fd5b6000825160005b818110156107205760208186018101518583015201610706565b50600092019182525091905056fea264697066735822122065da3aeffc92c4afc20681b3781fea66313e9a82a30bc342808f6ed22dacb3c464736f6c63430008140033",
  "linkReferences": {},
  "deployedLinkReferences": {}
}