{
  "_format": "hh-sol-artifact-1",
  "contractName": "AcrossSpokePoolMock",
  "sourceName": "contracts/mock/AcrossSpokePoolMock.sol",
  "abi": [
    {
      "inputs": [],
      "stateMutability": "nonpayable",
      "type": "constructor"
    },
    {
      "inputs": [
        {
          "internalType": "address",
          "name": "target",
          "type": "address"
        }
      ],
      "name": "AddressEmptyCode",
      "type": "error"
    },
    {
      "inputs": [
        {
          "internalType": "address",
          "name": "account",
          "type": "address"
        }
      ],
      "name": "AddressInsufficientBalance",
      "type": "error"
    },
    {
      "inputs": [],
      "name": "DepositFailed",
      "type": "error"
    },
    {
      "inputs": [],
      "name": "FailedInnerCall",
      "type": "error"
    },
    {
      "inputs": [
        {
          "internalType": "address",
          "name": "owner",
          "type": "address"
        }
      ],
      "name": "OwnableInvalidOwner",
      "type": "error"
    },
    {
      "inputs": [
        {
          "internalType": "address",
          "name": "account",
          "type": "address"
        }
      ],
      "name": "OwnableUnauthorizedAccount",
      "type": "error"
    },
    {
      "inputs": [
        {
          "internalType": "address",
          "name": "token",
          "type": "address"
        }
      ],
      "name": "SafeERC20FailedOperation",
      "type": "error"
    },
    {
      "anonymous": false,
      "inputs": [
        {
          "indexed": true,
          "internalType": "address",
          "name": "previousOwner",
          "type": "address"
        },
        {
          "indexed": true,
          "internalType": "address",
          "name": "newOwner",
          "type": "address"
        }
      ],
      "name": "OwnershipTransferred",
      "type": "event"
    },
    {
      "inputs": [
        {
          "internalType": "address",
          "name": "",
          "type": "address"
        },
        {
          "internalType": "address",
          "name": "recipient",
          "type": "address"
        },
        {
          "internalType": "address",
          "name": "inputToken",
          "type": "address"
        },
        {
          "internalType": "address",
          "name": "",
          "type": "address"
        },
        {
          "internalType": "uint256",
          "name": "inputAmount",
          "type": "uint256"
        },
        {
          "internalType": "uint256",
          "name": "",
          "type": "uint256"
        },
        {
          "internalType": "uint256",
          "name": "",
          "type": "uint256"
        },
        {
          "internalType": "address",
          "name": "",
          "type": "address"
        },
        {
          "internalType": "uint32",
          "name": "",
          "type": "uint32"
        },
        {
          "internalType": "uint32",
          "name": "",
          "type": "uint32"
        },
        {
          "internalType": "uint32",
          "name": "",
          "type": "uint32"
        },
        {
          "internalType": "bytes",
          "name": "",
          "type": "bytes"
        }
      ],
      "name": "depositV3",
      "outputs": [],
      "stateMutability": "payable",
      "type": "function"
    },
    {
      "inputs": [],
      "name": "owner",
      "outputs": [
        {
          "internalType": "address",
          "name": "",
          "type": "address"
        }
      ],
      "stateMutability": "view",
      "type": "function"
    },
    {
      "inputs": [],
      "name": "renounceOwnership",
      "outputs": [],
      "stateMutability": "nonpayable",
      "type": "function"
    },
    {
      "inputs": [
        {
          "internalType": "address",
          "name": "newOwner",
          "type": "address"
        }
      ],
      "name": "transferOwnership",
      "outputs": [],
      "stateMutability": "nonpayable",
      "type": "function"
    }
  ],
  "bytecode": "0x608060405234801561001057600080fd5b50338061003757604051631e4fbdf760e01b81526000600482015260240160405180910390fd5b61004081610046565b50610096565b600080546001600160a01b038381166001600160a01b0319831681178455604051919092169283917f8be0079c531659141344cd1fd0a4f28419497f9722a3daafe3b4186f6b6457e09190a35050565b6106dc806100a56000396000f3fe60806040526004361061003f5760003560e01c8063715018a6146100445780637b9392321461005b5780638da5cb5b1461006e578063f2fde38b1461009a575b600080fd5b34801561005057600080fd5b506100596100ba565b005b610059610069366004610555565b6100ce565b34801561007a57600080fd5b50600054604080516001600160a01b039092168252519081900360200190f35b3480156100a657600080fd5b506100596100b536600461063a565b610185565b6100c26101c8565b6100cc60006101f5565b565b341561014e5760008b6001600160a01b03168960405160006040518083038185875af1925050503d8060008114610121576040519150601f19603f3d011682016040523d82523d6000602084013e610126565b606091505b5050905080610148576040516379cacff160e01b815260040160405180910390fd5b50610177565b6101636001600160a01b038b1633308b610245565b6101776001600160a01b038b168c8a6102b2565b505050505050505050505050565b61018d6101c8565b6001600160a01b0381166101bc57604051631e4fbdf760e01b8152600060048201526024015b60405180910390fd5b6101c5816101f5565b50565b6000546001600160a01b031633146100cc5760405163118cdaa760e01b81523360048201526024016101b3565b600080546001600160a01b038381166001600160a01b0319831681178455604051919092169283917f8be0079c531659141344cd1fd0a4f28419497f9722a3daafe3b4186f6b6457e09190a35050565b6040516001600160a01b0384811660248301528381166044830152606482018390526102ac9186918216906323b872dd906084015b604051602081830303815290604052915060e01b6020820180516001600160e01b0383818316178352505050506102e8565b50505050565b6040516001600160a01b038381166024830152604482018390526102e391859182169063a9059cbb9060640161027a565b505050565b60006102fd6001600160a01b0384168361034b565b905080516000141580156103225750808060200190518101906103209190610655565b155b156102e357604051635274afe760e01b81526001600160a01b03841660048201526024016101b3565b606061035983836000610360565b9392505050565b6060814710156103855760405163cd78605960e01b81523060048201526024016101b3565b600080856001600160a01b031684866040516103a19190610677565b60006040518083038185875af1925050503d80600081146103de576040519150601f19603f3d011682016040523d82523d6000602084013e6103e3565b606091505b50915091506103f38683836103fd565b9695505050505050565b6060826104125761040d82610459565b610359565b815115801561042957506001600160a01b0384163b155b1561045257604051639996b31560e01b81526001600160a01b03851660048201526024016101b3565b5080610359565b8051156104695780518082602001fd5b604051630a12f52160e11b815260040160405180910390fd5b80356001600160a01b038116811461049957600080fd5b919050565b803563ffffffff8116811461049957600080fd5b634e487b7160e01b600052604160045260246000fd5b600082601f8301126104d957600080fd5b813567ffffffffffffffff808211156104f4576104f46104b2565b604051601f8301601f19908116603f0116810190828211818310171561051c5761051c6104b2565b8160405283815286602085880101111561053557600080fd5b836020870160208301376000602085830101528094505050505092915050565b6000806000806000806000806000806000806101808d8f03121561057857600080fd5b6105818d610482565b9b5061058f60208e01610482565b9a5061059d60408e01610482565b99506105ab60608e01610482565b985060808d0135975060a08d0135965060c08d013595506105ce60e08e01610482565b94506105dd6101008e0161049e565b93506105ec6101208e0161049e565b92506105fb6101408e0161049e565b915067ffffffffffffffff6101608e0135111561061757600080fd5b6106288e6101608f01358f016104c8565b90509295989b509295989b509295989b565b60006020828403121561064c57600080fd5b61035982610482565b60006020828403121561066757600080fd5b8151801515811461035957600080fd5b6000825160005b81811015610698576020818601810151858301520161067e565b50600092019182525091905056fea2646970667358221220df1b0f851edadec5e1bccf6d69d9d815c0af9ebee3c6d5f3220bdc5ae3abf85864736f6c63430008140033",
  "linkReferences": {},
  "deployedLinkReferences": {}
}