{
  "_format": "hh-sol-artifact-1",
  "contractName": "MinimalProxyFactory",
  "sourceName": "contracts/bridgeMiddleware/MinimalProxyFactory.sol",
  "abi": [
    {
      "inputs": [],
      "name": "Create2EmptyBytecode",
      "type": "error"
    },
    {
      "inputs": [],
      "name": "Create2FailedDeployment",
      "type": "error"
    },
    {
      "inputs": [
        {
          "internalType": "uint256",
          "name": "balance",
          "type": "uint256"
        },
        {
          "internalType": "uint256",
          "name": "needed",
          "type": "uint256"
        }
      ],
      "name": "Create2InsufficientBalance",
      "type": "error"
    },
    {
      "inputs": [],
      "name": "ProxyInitializationFailed",
      "type": "error"
    },
    {
      "anonymous": false,
      "inputs": [
        {
          "indexed": false,
          "internalType": "address",
          "name": "minimalProxy",
          "type": "address"
        }
      ],
      "name": "MinimalProxyCreated",
      "type": "event"
    },
    {
      "inputs": [
        {
          "internalType": "bytes32",
          "name": "salt",
          "type": "bytes32"
        },
        {
          "internalType": "address",
          "name": "implementation",
          "type": "address"
        }
      ],
      "name": "computeAddress",
      "outputs": [
        {
          "internalType": "address",
          "name": "",
          "type": "address"
        }
      ],
      "stateMutability": "view",
      "type": "function"
    },
    {
      "inputs": [
        {
          "internalType": "bytes32",
          "name": "salt",
          "type": "bytes32"
        },
        {
          "internalType": "address",
          "name": "implementation",
          "type": "address"
        },
        {
          "internalType": "bytes",
          "name": "data",
          "type": "bytes"
        }
      ],
      "name": "deploy",
      "outputs": [
        {
          "internalType": "address",
          "name": "",
          "type": "address"
        }
      ],
      "stateMutability": "nonpayable",
      "type": "function"
    }
  ],
  "bytecode": "0x608060405234801561001057600080fd5b5061042c806100206000396000f3fe608060405234801561001057600080fd5b50600436106100365760003560e01c80632781212e1461003b5780632f1f618d1461006a575b600080fd5b61004e6100493660046102d0565b61007d565b6040516001600160a01b03909116815260200160405180910390f35b61004e61007836600461039b565b610164565b60008061009460008661008f87610180565b6101f0565b83519091501561011e576000816001600160a01b0316846040516100b891906103c7565b6000604051808303816000865af19150503d80600081146100f5576040519150601f19603f3d011682016040523d82523d6000602084013e6100fa565b606091505b505090508061011c5760405163f44a721360e01b815260040160405180910390fd5b505b6040516001600160a01b03821681527f16f1e151dcf4eb1663400df93379828c17dea844757ee03e3038178d0038c3a79060200160405180910390a190505b9392505050565b600061015d8361017384610180565b8051906020012030610274565b60408051693d602d80600a3d3981f360b01b602082015269363d3d373d3d3d363d7360b01b602a82015260609290921b6bffffffffffffffffffffffff191660348301526e5af43d82803e903d91602b57fd5bf360881b6048830152805160378184030181526057909201905290565b6000834710156102205760405163392efb2b60e21b81524760048201526024810185905260440160405180910390fd5b815160000361024257604051631328927760e21b815260040160405180910390fd5b8282516020840186f590506001600160a01b03811661015d57604051633a0ba96160e11b815260040160405180910390fd5b6000604051836040820152846020820152828152600b8101905060ff815360559020949350505050565b80356001600160a01b03811681146102b557600080fd5b919050565b634e487b7160e01b600052604160045260246000fd5b6000806000606084860312156102e557600080fd5b833592506102f56020850161029e565b9150604084013567ffffffffffffffff8082111561031257600080fd5b818601915086601f83011261032657600080fd5b813581811115610338576103386102ba565b604051601f8201601f19908116603f01168101908382118183101715610360576103606102ba565b8160405282815289602084870101111561037957600080fd5b8260208601602083013760006020848301015280955050505050509250925092565b600080604083850312156103ae57600080fd5b823591506103be6020840161029e565b90509250929050565b6000825160005b818110156103e857602081860181015185830152016103ce565b50600092019182525091905056fea2646970667358221220e9222dede4508a9ff109bb4c6a9750b49b7497df172745dc70e431d047626d6164736f6c63430008140033",
  "linkReferences": {},
  "deployedLinkReferences": {}
}