{
  "_format": "hh-sol-artifact-1",
  "contractName": "MinimalProxyFactory",
  "sourceName": "contracts/bridgeMiddleware/MinimalProxyFactory.sol",
  "abi": [
    {
      "inputs": [
        {
          "internalType": "address",
          "name": "_info",
          "type": "address"
        }
      ],
      "stateMutability": "nonpayable",
      "type": "constructor"
    },
    {
      "inputs": [],
      "name": "Create2EmptyBytecode",
      "type": "error"
    },
    {
      "inputs": [],
      "name": "Create2FailedDeployment",
      "type": "error"
    },
    {
      "inputs": [
        {
          "internalType": "uint256",
          "name": "balance",
          "type": "uint256"
        },
        {
          "internalType": "uint256",
          "name": "needed",
          "type": "uint256"
        }
      ],
      "name": "Create2InsufficientBalance",
      "type": "error"
    },
    {
      "inputs": [],
      "name": "Forbidden",
      "type": "error"
    },
    {
      "inputs": [],
      "name": "ProxyInitializationFailed",
      "type": "error"
    },
    {
      "anonymous": false,
      "inputs": [
        {
          "indexed": false,
          "internalType": "address",
          "name": "minimalProxy",
          "type": "address"
        }
      ],
      "name": "MinimalProxyCreated",
      "type": "event"
    },
    {
      "inputs": [
        {
          "internalType": "bytes32",
          "name": "salt",
          "type": "bytes32"
        },
        {
          "internalType": "address",
          "name": "implementation",
          "type": "address"
        }
      ],
      "name": "computeAddress",
      "outputs": [
        {
          "internalType": "address",
          "name": "",
          "type": "address"
        }
      ],
      "stateMutability": "view",
      "type": "function"
    },
    {
      "inputs": [
        {
          "internalType": "bytes32",
          "name": "salt",
          "type": "bytes32"
        },
        {
          "internalType": "address",
          "name": "implementation",
          "type": "address"
        },
        {
          "internalType": "bytes",
          "name": "data",
          "type": "bytes"
        }
      ],
      "name": "deploy",
      "outputs": [
        {
          "internalType": "address",
          "name": "",
          "type": "address"
        }
      ],
      "stateMutability": "nonpayable",
      "type": "function"
    },
    {
      "inputs": [],
      "name": "info",
      "outputs": [
        {
          "internalType": "address",
          "name": "",
          "type": "address"
        }
      ],
      "stateMutability": "view",
      "type": "function"
    }
  ],
  "bytecode": "0x608060405234801561001057600080fd5b506040516105f73803806105f783398101604081905261002f91610054565b600080546001600160a01b0319166001600160a01b0392909216919091179055610084565b60006020828403121561006657600080fd5b81516001600160a01b038116811461007d57600080fd5b9392505050565b610564806100936000396000f3fe608060405234801561001057600080fd5b50600436106100415760003560e01c80632781212e146100465780632f1f618d14610075578063370158ea14610088575b600080fd5b6100596100543660046103e6565b61009b565b6040516001600160a01b03909116815260200160405180910390f35b6100596100833660046104b1565b61027a565b600054610059906001600160a01b031681565b6000805481906001600160a01b0316637ae1cfca336040516020016100fe91907f45483a4d696e696d616c50726f7879466163746f72793a4465706c6f7965723a815260609190911b6bffffffffffffffffffffffff1916602082015260340190565b604051602081830303815290604052805190602001206040518263ffffffff1660e01b815260040161013291815260200190565b602060405180830381865afa15801561014f573d6000803e3d6000fd5b505050506040513d601f19601f8201168201806040525081019061017391906104dd565b90508061019357604051631dd2188d60e31b815260040160405180910390fd5b60006101a96000876101a488610296565b610306565b845190915015610233576000816001600160a01b0316856040516101cd91906104ff565b6000604051808303816000865af19150503d806000811461020a576040519150601f19603f3d011682016040523d82523d6000602084013e61020f565b606091505b50509050806102315760405163f44a721360e01b815260040160405180910390fd5b505b6040516001600160a01b03821681527f16f1e151dcf4eb1663400df93379828c17dea844757ee03e3038178d0038c3a79060200160405180910390a19150505b9392505050565b60006102738361028984610296565b805190602001203061038a565b60408051693d602d80600a3d3981f360b01b602082015269363d3d373d3d3d363d7360b01b602a82015260609290921b6bffffffffffffffffffffffff191660348301526e5af43d82803e903d91602b57fd5bf360881b6048830152805160378184030181526057909201905290565b6000834710156103365760405163392efb2b60e21b81524760048201526024810185905260440160405180910390fd5b815160000361035857604051631328927760e21b815260040160405180910390fd5b8282516020840186f590506001600160a01b03811661027357604051633a0ba96160e11b815260040160405180910390fd5b6000604051836040820152846020820152828152600b8101905060ff815360559020949350505050565b80356001600160a01b03811681146103cb57600080fd5b919050565b634e487b7160e01b600052604160045260246000fd5b6000806000606084860312156103fb57600080fd5b8335925061040b602085016103b4565b9150604084013567ffffffffffffffff8082111561042857600080fd5b818601915086601f83011261043c57600080fd5b81358181111561044e5761044e6103d0565b604051601f8201601f19908116603f01168101908382118183101715610476576104766103d0565b8160405282815289602084870101111561048f57600080fd5b8260208601602083013760006020848301015280955050505050509250925092565b600080604083850312156104c457600080fd5b823591506104d4602084016103b4565b90509250929050565b6000602082840312156104ef57600080fd5b8151801515811461027357600080fd5b6000825160005b818110156105205760208186018101518583015201610506565b50600092019182525091905056fea2646970667358221220aa6c7a52b31e80df7537da32895de311393ed3b8df30f6ec09f1c81521198bea64736f6c63430008140033",
  "linkReferences": {},
  "deployedLinkReferences": {}
}