{
  "_format": "hh-sol-artifact-1",
  "contractName": "BurnRegistryV1",
  "sourceName": "contracts/NFT/burnRegistry/BurnRegistryV1.sol",
  "abi": [
    {
      "inputs": [],
      "stateMutability": "nonpayable",
      "type": "constructor"
    },
    {
      "inputs": [
        {
          "internalType": "address",
          "name": "distributor",
          "type": "address"
        }
      ],
      "name": "BurnRegistryInvalidDistributor",
      "type": "error"
    },
    {
      "inputs": [
        {
          "internalType": "address",
          "name": "sender",
          "type": "address"
        }
      ],
      "name": "BurnRegistryInvalidSender",
      "type": "error"
    },
    {
      "inputs": [
        {
          "internalType": "int256",
          "name": "price",
          "type": "int256"
        }
      ],
      "name": "BurnRegistryNegativePrice",
      "type": "error"
    },
    {
      "inputs": [
        {
          "internalType": "address",
          "name": "wallet",
          "type": "address"
        },
        {
          "internalType": "uint256",
          "name": "amount",
          "type": "uint256"
        }
      ],
      "name": "BurnRegistryTransferFailed",
      "type": "error"
    },
    {
      "inputs": [],
      "name": "EnforcedPause",
      "type": "error"
    },
    {
      "inputs": [],
      "name": "ExpectedPause",
      "type": "error"
    },
    {
      "inputs": [],
      "name": "InvalidInitialization",
      "type": "error"
    },
    {
      "inputs": [],
      "name": "NotInitializing",
      "type": "error"
    },
    {
      "inputs": [
        {
          "internalType": "address",
          "name": "owner",
          "type": "address"
        }
      ],
      "name": "OwnableInvalidOwner",
      "type": "error"
    },
    {
      "inputs": [
        {
          "internalType": "address",
          "name": "account",
          "type": "address"
        }
      ],
      "name": "OwnableUnauthorizedAccount",
      "type": "error"
    },
    {
      "anonymous": false,
      "inputs": [
        {
          "indexed": true,
          "internalType": "address",
          "name": "wallet",
          "type": "address"
        },
        {
          "indexed": false,
          "internalType": "uint256",
          "name": "tokenId",
          "type": "uint256"
        },
        {
          "indexed": false,
          "internalType": "uint256",
          "name": "index",
          "type": "uint256"
        }
      ],
      "name": "Burned",
      "type": "event"
    },
    {
      "anonymous": false,
      "inputs": [
        {
          "indexed": true,
          "internalType": "address",
          "name": "distributor",
          "type": "address"
        },
        {
          "indexed": false,
          "internalType": "bool",
          "name": "isAdded",
          "type": "bool"
        }
      ],
      "name": "ChangeDistributor",
      "type": "event"
    },
    {
      "anonymous": false,
      "inputs": [
        {
          "indexed": false,
          "internalType": "uint64",
          "name": "version",
          "type": "uint64"
        }
      ],
      "name": "Initialized",
      "type": "event"
    },
    {
      "anonymous": false,
      "inputs": [
        {
          "indexed": true,
          "internalType": "address",
          "name": "previousOwner",
          "type": "address"
        },
        {
          "indexed": true,
          "internalType": "address",
          "name": "newOwner",
          "type": "address"
        }
      ],
      "name": "OwnershipTransferred",
      "type": "event"
    },
    {
      "anonymous": false,
      "inputs": [
        {
          "indexed": false,
          "internalType": "address",
          "name": "account",
          "type": "address"
        }
      ],
      "name": "Paused",
      "type": "event"
    },
    {
      "anonymous": false,
      "inputs": [
        {
          "indexed": false,
          "internalType": "uint256",
          "name": "oldRecoverUSD",
          "type": "uint256"
        },
        {
          "indexed": false,
          "internalType": "uint256",
          "name": "newRecoverUSD",
          "type": "uint256"
        }
      ],
      "name": "RecoverChanged",
      "type": "event"
    },
    {
      "anonymous": false,
      "inputs": [
        {
          "indexed": false,
          "internalType": "address",
          "name": "account",
          "type": "address"
        }
      ],
      "name": "Unpaused",
      "type": "event"
    },
    {
      "anonymous": false,
      "inputs": [
        {
          "indexed": true,
          "internalType": "address",
          "name": "wallet",
          "type": "address"
        }
      ],
      "name": "Winner",
      "type": "event"
    },
    {
      "anonymous": false,
      "inputs": [
        {
          "indexed": true,
          "internalType": "address",
          "name": "recipient",
          "type": "address"
        },
        {
          "indexed": false,
          "internalType": "uint256",
          "name": "amount",
          "type": "uint256"
        }
      ],
      "name": "Withdrawal",
      "type": "event"
    },
    {
      "stateMutability": "payable",
      "type": "fallback"
    },
    {
      "inputs": [
        {
          "internalType": "address",
          "name": "distributor",
          "type": "address"
        }
      ],
      "name": "addDistributor",
      "outputs": [],
      "stateMutability": "nonpayable",
      "type": "function"
    },
    {
      "inputs": [
        {
          "internalType": "address",
          "name": "wallet",
          "type": "address"
        },
        {
          "internalType": "uint256",
          "name": "tokenId",
          "type": "uint256"
        }
      ],
      "name": "burn",
      "outputs": [],
      "stateMutability": "nonpayable",
      "type": "function"
    },
    {
      "inputs": [
        {
          "internalType": "uint256",
          "name": "index",
          "type": "uint256"
        }
      ],
      "name": "burnedBy",
      "outputs": [
        {
          "internalType": "address",
          "name": "",
          "type": "address"
        }
      ],
      "stateMutability": "view",
      "type": "function"
    },
    {
      "inputs": [
        {
          "internalType": "address",
          "name": "wallet",
          "type": "address"
        }
      ],
      "name": "burnedCount",
      "outputs": [
        {
          "internalType": "uint16",
          "name": "",
          "type": "uint16"
        }
      ],
      "stateMutability": "view",
      "type": "function"
    },
    {
      "inputs": [
        {
          "internalType": "uint256",
          "name": "newRecoverUSD",
          "type": "uint256"
        }
      ],
      "name": "changeRecover",
      "outputs": [],
      "stateMutability": "nonpayable",
      "type": "function"
    },
    {
      "inputs": [
        {
          "internalType": "address",
          "name": "__token",
          "type": "address"
        },
        {
          "internalType": "address",
          "name": "__priceFeed",
          "type": "address"
        },
        {
          "internalType": "uint256",
          "name": "__recoverUSD",
          "type": "uint256"
        }
      ],
      "name": "initialize",
      "outputs": [],
      "stateMutability": "nonpayable",
      "type": "function"
    },
    {
      "inputs": [
        {
          "internalType": "address",
          "name": "wallet",
          "type": "address"
        }
      ],
      "name": "isWinner",
      "outputs": [
        {
          "internalType": "bool",
          "name": "",
          "type": "bool"
        }
      ],
      "stateMutability": "view",
      "type": "function"
    },
    {
      "inputs": [],
      "name": "owner",
      "outputs": [
        {
          "internalType": "address",
          "name": "",
          "type": "address"
        }
      ],
      "stateMutability": "view",
      "type": "function"
    },
    {
      "inputs": [],
      "name": "pause",
      "outputs": [],
      "stateMutability": "nonpayable",
      "type": "function"
    },
    {
      "inputs": [],
      "name": "paused",
      "outputs": [
        {
          "internalType": "bool",
          "name": "",
          "type": "bool"
        }
      ],
      "stateMutability": "view",
      "type": "function"
    },
    {
      "inputs": [],
      "name": "recoverETH",
      "outputs": [
        {
          "internalType": "uint256",
          "name": "",
          "type": "uint256"
        }
      ],
      "stateMutability": "view",
      "type": "function"
    },
    {
      "inputs": [],
      "name": "recoverUSD",
      "outputs": [
        {
          "internalType": "uint256",
          "name": "",
          "type": "uint256"
        }
      ],
      "stateMutability": "view",
      "type": "function"
    },
    {
      "inputs": [
        {
          "internalType": "address",
          "name": "distributor",
          "type": "address"
        }
      ],
      "name": "removeDistributor",
      "outputs": [],
      "stateMutability": "nonpayable",
      "type": "function"
    },
    {
      "inputs": [],
      "name": "renounceOwnership",
      "outputs": [],
      "stateMutability": "nonpayable",
      "type": "function"
    },
    {
      "inputs": [],
      "name": "token",
      "outputs": [
        {
          "internalType": "address",
          "name": "",
          "type": "address"
        }
      ],
      "stateMutability": "view",
      "type": "function"
    },
    {
      "inputs": [],
      "name": "totalSupply",
      "outputs": [
        {
          "internalType": "uint256",
          "name": "",
          "type": "uint256"
        }
      ],
      "stateMutability": "view",
      "type": "function"
    },
    {
      "inputs": [
        {
          "internalType": "address",
          "name": "newOwner",
          "type": "address"
        }
      ],
      "name": "transferOwnership",
      "outputs": [],
      "stateMutability": "nonpayable",
      "type": "function"
    },
    {
      "inputs": [],
      "name": "unpause",
      "outputs": [],
      "stateMutability": "nonpayable",
      "type": "function"
    },
    {
      "inputs": [
        {
          "internalType": "address",
          "name": "wallet",
          "type": "address"
        }
      ],
      "name": "winner",
      "outputs": [],
      "stateMutability": "nonpayable",
      "type": "function"
    },
    {
      "inputs": [
        {
          "internalType": "address payable",
          "name": "recipient",
          "type": "address"
        },
        {
          "internalType": "uint256",
          "name": "amount",
          "type": "uint256"
        }
      ],
      "name": "withdrawCrumbs",
      "outputs": [],
      "stateMutability": "nonpayable",
      "type": "function"
    },
    {
      "stateMutability": "payable",
      "type": "receive"
    }
  ],
  "bytecode": "0x608060405234801561001057600080fd5b5061001961001e565b6100d0565b7ff0c57e16840df040f15088dc2f81fe391c3923bec73e23a9662efc9c229c6a00805468010000000000000000900460ff161561006e5760405163f92ee8a960e01b815260040160405180910390fd5b80546001600160401b03908116146100cd5780546001600160401b0319166001600160401b0390811782556040519081527fc7f505b2f371ae2175ee4913f4499e1f2633a7b5936321eed1cdaeb6115181d29060200160405180910390a15b50565b6110ab806100df6000396000f3fe6080604052600436106101175760003560e01c80635c975abb1161009a5780639d9ca28d116100615780639d9ca28d1461035a5780639dc29fac14610393578063ef22475d146103b3578063f2fde38b146103d3578063fc0c546a146103f357005b80635c975abb146102a2578063715018a6146102d35780637250e224146102e85780638456cb59146103085780638da5cb5b1461031d57005b80632c63c3fe116100de5780632c63c3fe146101b25780633f4ba83a146101ff57806342b3b5391461021457806343470a891461023457806357c1f9e21461028257005b80630614117a1461012057806311960d5a146101485780631794bb3c1461015d57806318160ddd1461017d5780632ad957861461019257005b3661011e57005b005b34801561012c57600080fd5b50610135610411565b6040519081526020015b60405180910390f35b34801561015457600080fd5b50600654610135565b34801561016957600080fd5b5061011e610178366004610d9a565b61054f565b34801561018957600080fd5b50600554610135565b34801561019e57600080fd5b5061011e6101ad366004610ddb565b61069e565b3480156101be57600080fd5b506101ec6101cd366004610ddb565b6001600160a01b031660009081526002602052604090205461ffff1690565b60405161ffff909116815260200161013f565b34801561020b57600080fd5b5061011e610726565b34801561022057600080fd5b5061011e61022f366004610dff565b610738565b34801561024057600080fd5b5061026a61024f366004610e2b565b6000908152600160205260409020546001600160a01b031690565b6040516001600160a01b03909116815260200161013f565b34801561028e57600080fd5b5061011e61029d366004610ddb565b610816565b3480156102ae57600080fd5b506000805160206110568339815191525460ff165b604051901515815260200161013f565b3480156102df57600080fd5b5061011e610874565b3480156102f457600080fd5b5061011e610303366004610ddb565b610886565b34801561031457600080fd5b5061011e6108e5565b34801561032957600080fd5b507f9016d09d72d40fdae2fd8ceac6b6234c7706214fd39c1cd1e609a0528c199300546001600160a01b031661026a565b34801561036657600080fd5b506102c3610375366004610ddb565b6001600160a01b031660009081526003602052604090205460ff1690565b34801561039f57600080fd5b5061011e6103ae366004610dff565b6108f5565b3480156103bf57600080fd5b5061011e6103ce366004610e2b565b610a91565b3480156103df57600080fd5b5061011e6103ee366004610ddb565b610ade565b3480156103ff57600080fd5b506000546001600160a01b031661026a565b600080600760009054906101000a90046001600160a01b03166001600160a01b031663feaf968c6040518163ffffffff1660e01b815260040160a060405180830381865afa158015610467573d6000803e3d6000fd5b505050506040513d601f19601f8201168201806040525081019061048b9190610e63565b505050915050600081136104ba5760405163075f2beb60e01b8152600481018290526024015b60405180910390fd5b6007546040805163313ce56760e01b8152905183926001600160a01b03169163313ce5679160048083019260209291908290030181865afa158015610503573d6000803e3d6000fd5b505050506040513d601f19601f820116820180604052508101906105279190610eb3565b61053290600a610fd2565b60065461053f9190610fe1565b6105499190610ff8565b91505090565b7ff0c57e16840df040f15088dc2f81fe391c3923bec73e23a9662efc9c229c6a008054600160401b810460ff16159067ffffffffffffffff166000811580156105955750825b905060008267ffffffffffffffff1660011480156105b25750303b155b9050811580156105c0575080155b156105de5760405163f92ee8a960e01b815260040160405180910390fd5b845467ffffffffffffffff19166001178555831561060857845460ff60401b1916600160401b1785555b61061133610b1c565b610619610b2d565b600080546001600160a01b03808b166001600160a01b03199283161790925560078054928a16929091169190911790556006869055831561069457845460ff60401b19168555604051600181527fc7f505b2f371ae2175ee4913f4499e1f2633a7b5936321eed1cdaeb6115181d29060200160405180910390a15b5050505050505050565b3360008181526004602052604090205460ff166106d957604051632ec43bdb60e11b81526001600160a01b03821660048201526024016104b1565b6001600160a01b038216600081815260036020526040808220805460ff19166001179055517f745c90b656b4aafe296c8ca35aeacfe56cb96c90e1d320e5da643fff1051b6c09190a25050565b61072e610b3d565b610736610b98565b565b610740610b3d565b610748610bf8565b6000826001600160a01b03168260405160006040518083038185875af1925050503d8060008114610795576040519150601f19603f3d011682016040523d82523d6000602084013e61079a565b606091505b50509050806107ce57604051636d1d7d4560e01b81526001600160a01b0384166004820152602481018390526044016104b1565b826001600160a01b03167f7fcf532c15f0a6db0bd6d0e038bea71d30d808c7d98cb3bf7268a95bf5081b658360405161080991815260200190565b60405180910390a2505050565b61081e610b3d565b6001600160a01b0381166000818152600460209081526040808320805460ff19169055519182527f23ed95901120b95e671ca412943b6ad1ccb6158feefab1dd978f1aa89f3006f891015b60405180910390a250565b61087c610b3d565b6107366000610c28565b61088e610b3d565b6001600160a01b038116600081815260046020908152604091829020805460ff1916600190811790915591519182527f23ed95901120b95e671ca412943b6ad1ccb6158feefab1dd978f1aa89f3006f89101610869565b6108ed610b3d565b610736610c99565b6108fd610ce2565b60005433906001600160a01b03168114610935576040516302f23f5b60e41b81526001600160a01b03821660048201526024016104b1565b60058054600091826109468361101a565b90915550600081815260016020818152604080842080546001600160a01b0319166001600160a01b038b169081179091558452600290915282208054939450909290919061099990849061ffff16611033565b92506101000a81548161ffff021916908361ffff16021790555060006109bd610411565b90506000856001600160a01b03168260405160006040518083038185875af1925050503d8060008114610a0c576040519150601f19603f3d011682016040523d82523d6000602084013e610a11565b606091505b5050905080610a4557604051636d1d7d4560e01b81526001600160a01b0387166004820152602481018390526044016104b1565b60408051868152602081018590526001600160a01b038816917f23ff0e75edf108e3d0392d92e13e8c8a868ef19001bd49f9e94876dc46dff87f910160405180910390a2505050505050565b610a99610b3d565b600680549082905560408051828152602081018490527f19183a01e1c630d639c815b8b64f65201e80337e01514b81fb1419ece11067fc910160405180910390a15050565b610ae6610b3d565b6001600160a01b038116610b1057604051631e4fbdf760e01b8152600060048201526024016104b1565b610b1981610c28565b50565b610b24610d13565b610b1981610d5c565b610b35610d13565b610736610d64565b33610b6f7f9016d09d72d40fdae2fd8ceac6b6234c7706214fd39c1cd1e609a0528c199300546001600160a01b031690565b6001600160a01b0316146107365760405163118cdaa760e01b81523360048201526024016104b1565b610ba0610bf8565b600080516020611056833981519152805460ff191681557f5db9ee0a495bf2e6ff9c91a7834c1ba4fdd244a5e8aa4e537bd38aeae4b073aa335b6040516001600160a01b03909116815260200160405180910390a150565b6000805160206110568339815191525460ff1661073657604051638dfc202b60e01b815260040160405180910390fd5b7f9016d09d72d40fdae2fd8ceac6b6234c7706214fd39c1cd1e609a0528c19930080546001600160a01b031981166001600160a01b03848116918217845560405192169182907f8be0079c531659141344cd1fd0a4f28419497f9722a3daafe3b4186f6b6457e090600090a3505050565b610ca1610ce2565b600080516020611056833981519152805460ff191660011781557f62e78cea01bee320cd4e420270b5ea74000d11b0c9f74754ebdbfc544b05a25833610bda565b6000805160206110568339815191525460ff16156107365760405163d93c066560e01b815260040160405180910390fd5b7ff0c57e16840df040f15088dc2f81fe391c3923bec73e23a9662efc9c229c6a0054600160401b900460ff1661073657604051631afcd79f60e31b815260040160405180910390fd5b610ae6610d13565b610d6c610d13565b600080516020611056833981519152805460ff19169055565b6001600160a01b0381168114610b1957600080fd5b600080600060608486031215610daf57600080fd5b8335610dba81610d85565b92506020840135610dca81610d85565b929592945050506040919091013590565b600060208284031215610ded57600080fd5b8135610df881610d85565b9392505050565b60008060408385031215610e1257600080fd5b8235610e1d81610d85565b946020939093013593505050565b600060208284031215610e3d57600080fd5b5035919050565b805169ffffffffffffffffffff81168114610e5e57600080fd5b919050565b600080600080600060a08688031215610e7b57600080fd5b610e8486610e44565b9450602086015193506040860151925060608601519150610ea760808701610e44565b90509295509295909350565b600060208284031215610ec557600080fd5b815160ff81168114610df857600080fd5b634e487b7160e01b600052601160045260246000fd5b600181815b80851115610f27578160001904821115610f0d57610f0d610ed6565b80851615610f1a57918102915b93841c9390800290610ef1565b509250929050565b600082610f3e57506001610fcc565b81610f4b57506000610fcc565b8160018114610f615760028114610f6b57610f87565b6001915050610fcc565b60ff841115610f7c57610f7c610ed6565b50506001821b610fcc565b5060208310610133831016604e8410600b8410161715610faa575081810a610fcc565b610fb48383610eec565b8060001904821115610fc857610fc8610ed6565b0290505b92915050565b6000610df860ff841683610f2f565b8082028115828204841417610fcc57610fcc610ed6565b60008261101557634e487b7160e01b600052601260045260246000fd5b500490565b60006001820161102c5761102c610ed6565b5060010190565b61ffff81811683821601908082111561104e5761104e610ed6565b509291505056fecd5ed15c6e187e77e9aee88184c21f4f2182ab5827cb3b7e07fbedcd63f03300a2646970667358221220542f26893312ffa4d5cef3290267630c14c56d1bec91de4675452dd43a6ccda064736f6c63430008140033",
  "linkReferences": {},
  "deployedLinkReferences": {}
}