{
  "_format": "hh-sol-artifact-1",
  "contractName": "ERC721V2",
  "sourceName": "contracts/NFT/ERC721V2.sol",
  "abi": [
    {
      "inputs": [],
      "stateMutability": "nonpayable",
      "type": "constructor"
    },
    {
      "inputs": [],
      "name": "ECDSAInvalidSignature",
      "type": "error"
    },
    {
      "inputs": [
        {
          "internalType": "uint256",
          "name": "length",
          "type": "uint256"
        }
      ],
      "name": "ECDSAInvalidSignatureLength",
      "type": "error"
    },
    {
      "inputs": [
        {
          "internalType": "bytes32",
          "name": "s",
          "type": "bytes32"
        }
      ],
      "name": "ECDSAInvalidSignatureS",
      "type": "error"
    },
    {
      "inputs": [
        {
          "internalType": "address",
          "name": "sender",
          "type": "address"
        },
        {
          "internalType": "uint256",
          "name": "tokenId",
          "type": "uint256"
        },
        {
          "internalType": "address",
          "name": "owner",
          "type": "address"
        }
      ],
      "name": "ERC721IncorrectOwner",
      "type": "error"
    },
    {
      "inputs": [
        {
          "internalType": "address",
          "name": "operator",
          "type": "address"
        },
        {
          "internalType": "uint256",
          "name": "tokenId",
          "type": "uint256"
        }
      ],
      "name": "ERC721InsufficientApproval",
      "type": "error"
    },
    {
      "inputs": [
        {
          "internalType": "address",
          "name": "approver",
          "type": "address"
        }
      ],
      "name": "ERC721InvalidApprover",
      "type": "error"
    },
    {
      "inputs": [
        {
          "internalType": "address",
          "name": "operator",
          "type": "address"
        }
      ],
      "name": "ERC721InvalidOperator",
      "type": "error"
    },
    {
      "inputs": [
        {
          "internalType": "address",
          "name": "owner",
          "type": "address"
        }
      ],
      "name": "ERC721InvalidOwner",
      "type": "error"
    },
    {
      "inputs": [
        {
          "internalType": "address",
          "name": "receiver",
          "type": "address"
        }
      ],
      "name": "ERC721InvalidReceiver",
      "type": "error"
    },
    {
      "inputs": [
        {
          "internalType": "address",
          "name": "sender",
          "type": "address"
        }
      ],
      "name": "ERC721InvalidSender",
      "type": "error"
    },
    {
      "inputs": [
        {
          "internalType": "uint256",
          "name": "tokenId",
          "type": "uint256"
        }
      ],
      "name": "ERC721NonexistentToken",
      "type": "error"
    },
    {
      "inputs": [
        {
          "internalType": "address",
          "name": "recipient",
          "type": "address"
        },
        {
          "internalType": "uint256",
          "name": "costs",
          "type": "uint256"
        },
        {
          "internalType": "uint256",
          "name": "value",
          "type": "uint256"
        }
      ],
      "name": "ERC721V1InsufficientFundsForMint",
      "type": "error"
    },
    {
      "inputs": [],
      "name": "ERC721V1InvalidMintSignature",
      "type": "error"
    },
    {
      "inputs": [
        {
          "internalType": "int256",
          "name": "price",
          "type": "int256"
        }
      ],
      "name": "ERC721V1NegativeCosts",
      "type": "error"
    },
    {
      "inputs": [
        {
          "internalType": "address",
          "name": "recipient",
          "type": "address"
        },
        {
          "internalType": "uint256",
          "name": "totalSupply",
          "type": "uint256"
        },
        {
          "internalType": "uint256",
          "name": "maxTotalSupply",
          "type": "uint256"
        }
      ],
      "name": "ERC721V1NoTokenAvailable",
      "type": "error"
    },
    {
      "inputs": [
        {
          "internalType": "address",
          "name": "recipient",
          "type": "address"
        }
      ],
      "name": "ERC721V1TokenAlreadyMinted",
      "type": "error"
    },
    {
      "inputs": [
        {
          "internalType": "address",
          "name": "recipient",
          "type": "address"
        },
        {
          "internalType": "uint256",
          "name": "value",
          "type": "uint256"
        }
      ],
      "name": "ERC721V1TransferFailed",
      "type": "error"
    },
    {
      "inputs": [],
      "name": "ERC721V1TransferForbidden",
      "type": "error"
    },
    {
      "inputs": [],
      "name": "ERC721V2InvalidBurnRegistry",
      "type": "error"
    },
    {
      "inputs": [],
      "name": "InvalidInitialization",
      "type": "error"
    },
    {
      "inputs": [],
      "name": "NotInitializing",
      "type": "error"
    },
    {
      "inputs": [
        {
          "internalType": "address",
          "name": "owner",
          "type": "address"
        }
      ],
      "name": "OwnableInvalidOwner",
      "type": "error"
    },
    {
      "inputs": [
        {
          "internalType": "address",
          "name": "account",
          "type": "address"
        }
      ],
      "name": "OwnableUnauthorizedAccount",
      "type": "error"
    },
    {
      "inputs": [],
      "name": "ReentrancyGuardReentrantCall",
      "type": "error"
    },
    {
      "anonymous": false,
      "inputs": [
        {
          "indexed": true,
          "internalType": "address",
          "name": "owner",
          "type": "address"
        },
        {
          "indexed": true,
          "internalType": "address",
          "name": "approved",
          "type": "address"
        },
        {
          "indexed": true,
          "internalType": "uint256",
          "name": "tokenId",
          "type": "uint256"
        }
      ],
      "name": "Approval",
      "type": "event"
    },
    {
      "anonymous": false,
      "inputs": [
        {
          "indexed": true,
          "internalType": "address",
          "name": "owner",
          "type": "address"
        },
        {
          "indexed": true,
          "internalType": "address",
          "name": "operator",
          "type": "address"
        },
        {
          "indexed": false,
          "internalType": "bool",
          "name": "approved",
          "type": "bool"
        }
      ],
      "name": "ApprovalForAll",
      "type": "event"
    },
    {
      "anonymous": false,
      "inputs": [
        {
          "indexed": false,
          "internalType": "uint256",
          "name": "oldCosts",
          "type": "uint256"
        },
        {
          "indexed": false,
          "internalType": "uint256",
          "name": "newCosts",
          "type": "uint256"
        }
      ],
      "name": "CostsChanged",
      "type": "event"
    },
    {
      "anonymous": false,
      "inputs": [],
      "name": "ERC721V2BurnRegistryChanged",
      "type": "event"
    },
    {
      "anonymous": false,
      "inputs": [
        {
          "indexed": false,
          "internalType": "uint64",
          "name": "version",
          "type": "uint64"
        }
      ],
      "name": "Initialized",
      "type": "event"
    },
    {
      "anonymous": false,
      "inputs": [
        {
          "indexed": true,
          "internalType": "address",
          "name": "recipient",
          "type": "address"
        },
        {
          "indexed": false,
          "internalType": "uint256",
          "name": "tokenId",
          "type": "uint256"
        },
        {
          "indexed": false,
          "internalType": "uint256",
          "name": "costs",
          "type": "uint256"
        },
        {
          "indexed": false,
          "internalType": "string",
          "name": "referral",
          "type": "string"
        }
      ],
      "name": "Minted",
      "type": "event"
    },
    {
      "anonymous": false,
      "inputs": [
        {
          "indexed": true,
          "internalType": "address",
          "name": "previousOwner",
          "type": "address"
        },
        {
          "indexed": true,
          "internalType": "address",
          "name": "newOwner",
          "type": "address"
        }
      ],
      "name": "OwnershipTransferred",
      "type": "event"
    },
    {
      "anonymous": false,
      "inputs": [
        {
          "indexed": true,
          "internalType": "address",
          "name": "from",
          "type": "address"
        },
        {
          "indexed": true,
          "internalType": "address",
          "name": "to",
          "type": "address"
        },
        {
          "indexed": true,
          "internalType": "uint256",
          "name": "tokenId",
          "type": "uint256"
        }
      ],
      "name": "Transfer",
      "type": "event"
    },
    {
      "inputs": [
        {
          "internalType": "address",
          "name": "to",
          "type": "address"
        },
        {
          "internalType": "uint256",
          "name": "tokenId",
          "type": "uint256"
        }
      ],
      "name": "approve",
      "outputs": [],
      "stateMutability": "nonpayable",
      "type": "function"
    },
    {
      "inputs": [
        {
          "internalType": "address",
          "name": "owner",
          "type": "address"
        }
      ],
      "name": "balanceOf",
      "outputs": [
        {
          "internalType": "uint256",
          "name": "",
          "type": "uint256"
        }
      ],
      "stateMutability": "view",
      "type": "function"
    },
    {
      "inputs": [
        {
          "internalType": "uint256",
          "name": "tokenId",
          "type": "uint256"
        }
      ],
      "name": "burn",
      "outputs": [],
      "stateMutability": "nonpayable",
      "type": "function"
    },
    {
      "inputs": [],
      "name": "burnRegistry",
      "outputs": [
        {
          "internalType": "address",
          "name": "",
          "type": "address"
        }
      ],
      "stateMutability": "view",
      "type": "function"
    },
    {
      "inputs": [
        {
          "internalType": "address payable",
          "name": "__burnRegistry",
          "type": "address"
        }
      ],
      "name": "changeBurnRegistry",
      "outputs": [],
      "stateMutability": "nonpayable",
      "type": "function"
    },
    {
      "inputs": [
        {
          "internalType": "uint256",
          "name": "newCostsUSD",
          "type": "uint256"
        }
      ],
      "name": "changeCosts",
      "outputs": [],
      "stateMutability": "nonpayable",
      "type": "function"
    },
    {
      "inputs": [],
      "name": "costsETH",
      "outputs": [
        {
          "internalType": "uint256",
          "name": "",
          "type": "uint256"
        }
      ],
      "stateMutability": "view",
      "type": "function"
    },
    {
      "inputs": [],
      "name": "costsUSD",
      "outputs": [
        {
          "internalType": "uint256",
          "name": "",
          "type": "uint256"
        }
      ],
      "stateMutability": "view",
      "type": "function"
    },
    {
      "inputs": [
        {
          "internalType": "uint256",
          "name": "tokenId",
          "type": "uint256"
        }
      ],
      "name": "getApproved",
      "outputs": [
        {
          "internalType": "address",
          "name": "",
          "type": "address"
        }
      ],
      "stateMutability": "view",
      "type": "function"
    },
    {
      "inputs": [],
      "name": "id",
      "outputs": [
        {
          "internalType": "bytes32",
          "name": "",
          "type": "bytes32"
        }
      ],
      "stateMutability": "view",
      "type": "function"
    },
    {
      "inputs": [
        {
          "internalType": "bytes32",
          "name": "__id",
          "type": "bytes32"
        },
        {
          "internalType": "uint256",
          "name": "__maxTotalSupply",
          "type": "uint256"
        },
        {
          "internalType": "string",
          "name": "name",
          "type": "string"
        },
        {
          "internalType": "string",
          "name": "symbol",
          "type": "string"
        },
        {
          "internalType": "string",
          "name": "uri",
          "type": "string"
        },
        {
          "internalType": "uint256",
          "name": "__costsUSD",
          "type": "uint256"
        },
        {
          "internalType": "address",
          "name": "__signer",
          "type": "address"
        },
        {
          "internalType": "address",
          "name": "__priceFeed",
          "type": "address"
        },
        {
          "internalType": "address",
          "name": "__vault",
          "type": "address"
        }
      ],
      "name": "initialize",
      "outputs": [],
      "stateMutability": "nonpayable",
      "type": "function"
    },
    {
      "inputs": [
        {
          "internalType": "address",
          "name": "owner",
          "type": "address"
        },
        {
          "internalType": "address",
          "name": "operator",
          "type": "address"
        }
      ],
      "name": "isApprovedForAll",
      "outputs": [
        {
          "internalType": "bool",
          "name": "",
          "type": "bool"
        }
      ],
      "stateMutability": "view",
      "type": "function"
    },
    {
      "inputs": [],
      "name": "maxTotalSupply",
      "outputs": [
        {
          "internalType": "uint256",
          "name": "",
          "type": "uint256"
        }
      ],
      "stateMutability": "view",
      "type": "function"
    },
    {
      "inputs": [
        {
          "internalType": "address payable",
          "name": "__burnRegistry",
          "type": "address"
        }
      ],
      "name": "migrateToV2",
      "outputs": [],
      "stateMutability": "nonpayable",
      "type": "function"
    },
    {
      "inputs": [
        {
          "components": [
            {
              "internalType": "bytes32",
              "name": "id",
              "type": "bytes32"
            },
            {
              "internalType": "address",
              "name": "recipient",
              "type": "address"
            },
            {
              "internalType": "string",
              "name": "referral",
              "type": "string"
            },
            {
              "internalType": "bytes",
              "name": "signature",
              "type": "bytes"
            }
          ],
          "internalType": "struct ERC721V1.MintPayload",
          "name": "payload",
          "type": "tuple"
        }
      ],
      "name": "mint",
      "outputs": [],
      "stateMutability": "payable",
      "type": "function"
    },
    {
      "inputs": [],
      "name": "name",
      "outputs": [
        {
          "internalType": "string",
          "name": "",
          "type": "string"
        }
      ],
      "stateMutability": "view",
      "type": "function"
    },
    {
      "inputs": [],
      "name": "owner",
      "outputs": [
        {
          "internalType": "address",
          "name": "",
          "type": "address"
        }
      ],
      "stateMutability": "view",
      "type": "function"
    },
    {
      "inputs": [
        {
          "internalType": "uint256",
          "name": "tokenId",
          "type": "uint256"
        }
      ],
      "name": "ownerOf",
      "outputs": [
        {
          "internalType": "address",
          "name": "",
          "type": "address"
        }
      ],
      "stateMutability": "view",
      "type": "function"
    },
    {
      "inputs": [],
      "name": "priceFeed",
      "outputs": [
        {
          "internalType": "address",
          "name": "",
          "type": "address"
        }
      ],
      "stateMutability": "view",
      "type": "function"
    },
    {
      "inputs": [],
      "name": "renounceOwnership",
      "outputs": [],
      "stateMutability": "nonpayable",
      "type": "function"
    },
    {
      "inputs": [
        {
          "internalType": "address",
          "name": "from",
          "type": "address"
        },
        {
          "internalType": "address",
          "name": "to",
          "type": "address"
        },
        {
          "internalType": "uint256",
          "name": "tokenId",
          "type": "uint256"
        }
      ],
      "name": "safeTransferFrom",
      "outputs": [],
      "stateMutability": "nonpayable",
      "type": "function"
    },
    {
      "inputs": [
        {
          "internalType": "address",
          "name": "from",
          "type": "address"
        },
        {
          "internalType": "address",
          "name": "to",
          "type": "address"
        },
        {
          "internalType": "uint256",
          "name": "tokenId",
          "type": "uint256"
        },
        {
          "internalType": "bytes",
          "name": "data",
          "type": "bytes"
        }
      ],
      "name": "safeTransferFrom",
      "outputs": [],
      "stateMutability": "nonpayable",
      "type": "function"
    },
    {
      "inputs": [
        {
          "internalType": "address",
          "name": "operator",
          "type": "address"
        },
        {
          "internalType": "bool",
          "name": "approved",
          "type": "bool"
        }
      ],
      "name": "setApprovalForAll",
      "outputs": [],
      "stateMutability": "nonpayable",
      "type": "function"
    },
    {
      "inputs": [],
      "name": "signer",
      "outputs": [
        {
          "internalType": "address",
          "name": "",
          "type": "address"
        }
      ],
      "stateMutability": "view",
      "type": "function"
    },
    {
      "inputs": [
        {
          "internalType": "bytes4",
          "name": "interfaceId",
          "type": "bytes4"
        }
      ],
      "name": "supportsInterface",
      "outputs": [
        {
          "internalType": "bool",
          "name": "",
          "type": "bool"
        }
      ],
      "stateMutability": "view",
      "type": "function"
    },
    {
      "inputs": [],
      "name": "symbol",
      "outputs": [
        {
          "internalType": "string",
          "name": "",
          "type": "string"
        }
      ],
      "stateMutability": "view",
      "type": "function"
    },
    {
      "inputs": [
        {
          "internalType": "uint256",
          "name": "tokenId",
          "type": "uint256"
        }
      ],
      "name": "tokenURI",
      "outputs": [
        {
          "internalType": "string",
          "name": "",
          "type": "string"
        }
      ],
      "stateMutability": "view",
      "type": "function"
    },
    {
      "inputs": [],
      "name": "totalSupply",
      "outputs": [
        {
          "internalType": "uint256",
          "name": "",
          "type": "uint256"
        }
      ],
      "stateMutability": "view",
      "type": "function"
    },
    {
      "inputs": [
        {
          "internalType": "address",
          "name": "",
          "type": "address"
        },
        {
          "internalType": "address",
          "name": "",
          "type": "address"
        },
        {
          "internalType": "uint256",
          "name": "",
          "type": "uint256"
        }
      ],
      "name": "transferFrom",
      "outputs": [],
      "stateMutability": "nonpayable",
      "type": "function"
    },
    {
      "inputs": [
        {
          "internalType": "address",
          "name": "newOwner",
          "type": "address"
        }
      ],
      "name": "transferOwnership",
      "outputs": [],
      "stateMutability": "nonpayable",
      "type": "function"
    },
    {
      "inputs": [],
      "name": "vault",
      "outputs": [
        {
          "internalType": "address",
          "name": "",
          "type": "address"
        }
      ],
      "stateMutability": "view",
      "type": "function"
    }
  ],
  "bytecode": "0x60806040523480156200001157600080fd5b506200001c6200002c565b620000266200002c565b620000e0565b7ff0c57e16840df040f15088dc2f81fe391c3923bec73e23a9662efc9c229c6a00805468010000000000000000900460ff16156200007d5760405163f92ee8a960e01b815260040160405180910390fd5b80546001600160401b0390811614620000dd5780546001600160401b0319166001600160401b0390811782556040519081527fc7f505b2f371ae2175ee4913f4499e1f2633a7b5936321eed1cdaeb6115181d29060200160405180910390a15b50565b61262d80620000f06000396000f3fe6080604052600436106101d85760003560e01c8063715018a611610102578063af640d0f11610095578063e985e9c511610064578063e985e9c514610540578063f2fde38b14610560578063f800f22814610580578063fbfa77cf1461059557600080fd5b8063af640d0f146104cb578063b88d4fde146104e0578063c87b56dd14610500578063cf59aa6c1461052057600080fd5b806395d89b41116100d157806395d89b41146104585780639a12cb1e1461046d578063a22cb4651461048d578063ae0b662c146104ad57600080fd5b8063715018a6146103d5578063741bef1a146103ea57806387ca93ce146104085780638da5cb5b1461041b57600080fd5b80632ab4d0521161017a5780636574ef86116101495780636574ef861461036057806366ebd54c14610375578063691d24f31461039557806370a08231146103b557600080fd5b80632ab4d052146102eb57806342842e0e1461030057806342966c68146103205780636352211e1461034057600080fd5b8063095ea7b3116101b6578063095ea7b31461026c57806318160ddd1461028e578063238ac933146102ad57806323b872dd146102cb57600080fd5b806301ffc9a7146101dd57806306fdde0314610212578063081812fc14610234575b600080fd5b3480156101e957600080fd5b506101fd6101f8366004611cfc565b6105b3565b60405190151581526020015b60405180910390f35b34801561021e57600080fd5b50610227610605565b6040516102099190611d69565b34801561024057600080fd5b5061025461024f366004611d7c565b6106a9565b6040516001600160a01b039091168152602001610209565b34801561027857600080fd5b5061028c610287366004611dba565b6106be565b005b34801561029a57600080fd5b506002545b604051908152602001610209565b3480156102b957600080fd5b506005546001600160a01b0316610254565b3480156102d757600080fd5b5061028c6102e6366004611de6565b6106cd565b3480156102f757600080fd5b5060035461029f565b34801561030c57600080fd5b5061028c61031b366004611de6565b6106e6565b34801561032c57600080fd5b5061028c61033b366004611d7c565b610706565b34801561034c57600080fd5b5061025461035b366004611d7c565b6107ca565b34801561036c57600080fd5b5061029f6107d5565b34801561038157600080fd5b5061028c610390366004611e27565b610913565b3480156103a157600080fd5b5061028c6103b0366004611f10565b61095f565b3480156103c157600080fd5b5061029f6103d0366004611e27565b610ae2565b3480156103e157600080fd5b5061028c610b3e565b3480156103f657600080fd5b506006546001600160a01b0316610254565b61028c610416366004611fe8565b610b52565b34801561042757600080fd5b507f9016d09d72d40fdae2fd8ceac6b6234c7706214fd39c1cd1e609a0528c199300546001600160a01b0316610254565b34801561046457600080fd5b50610227610ead565b34801561047957600080fd5b5061028c610488366004611d7c565b610eec565b34801561049957600080fd5b5061028c6104a8366004612096565b610f39565b3480156104b957600080fd5b506012546001600160a01b0316610254565b3480156104d757600080fd5b5060005461029f565b3480156104ec57600080fd5b5061028c6104fb3660046120d4565b610f44565b34801561050c57600080fd5b5061022761051b366004611d7c565b610f61565b34801561052c57600080fd5b5061028c61053b366004611e27565b610fc9565b34801561054c57600080fd5b506101fd61055b366004612140565b61103f565b34801561056c57600080fd5b5061028c61057b366004611e27565b61108c565b34801561058c57600080fd5b5060045461029f565b3480156105a157600080fd5b506007546001600160a01b0316610254565b60006001600160e01b031982166380ac58cd60e01b14806105e457506001600160e01b03198216635b5e139f60e01b145b806105ff57506301ffc9a760e01b6001600160e01b03198316145b92915050565b6000805160206125b883398151915280546060919081906106259061216e565b80601f01602080910402602001604051908101604052809291908181526020018280546106519061216e565b801561069e5780601f106106735761010080835404028352916020019161069e565b820191906000526020600020905b81548152906001019060200180831161068157829003601f168201915b505050505091505090565b60006106b4826110c7565b506105ff826110ff565b6106c9828233611139565b5050565b604051637d8626bf60e11b815260040160405180910390fd5b61070183838360405180602001604052806000815250610f44565b505050565b61070e611146565b3380610719836107ca565b6001600160a01b03161461074057604051637d8626bf60e11b815260040160405180910390fd5b6107498261117e565b601254604051632770a7eb60e21b81526001600160a01b0383811660048301526024820185905290911690639dc29fac90604401600060405180830381600087803b15801561079757600080fd5b505af11580156107ab573d6000803e3d6000fd5b50505050506107c760016000805160206125d883398151915255565b50565b60006105ff826110c7565b600080600660009054906101000a90046001600160a01b03166001600160a01b031663feaf968c6040518163ffffffff1660e01b815260040160a060405180830381865afa15801561082b573d6000803e3d6000fd5b505050506040513d601f19601f8201168201806040525081019061084f91906121c2565b5050509150506000811361087e5760405163153f03af60e21b8152600481018290526024015b60405180910390fd5b6006546040805163313ce56760e01b8152905183926001600160a01b03169163313ce5679160048083019260209291908290030181865afa1580156108c7573d6000803e3d6000fd5b505050506040513d601f19601f820116820180604052508101906108eb9190612212565b6108f690600a61232f565b600454610903919061233e565b61090d9190612355565b91505090565b6012546001600160a01b03161561093d5760405163dd57295560e01b815260040160405180910390fd5b601280546001600160a01b0319166001600160a01b0392909216919091179055565b7ff0c57e16840df040f15088dc2f81fe391c3923bec73e23a9662efc9c229c6a008054600160401b810460ff16159067ffffffffffffffff166000811580156109a55750825b905060008267ffffffffffffffff1660011480156109c25750303b155b9050811580156109d0575080155b156109ee5760405163f92ee8a960e01b815260040160405180910390fd5b845467ffffffffffffffff191660011785558315610a1857845460ff60401b1916600160401b1785555b610a228c8c6111cd565b610a2b336111df565b610a336111f0565b60008e905560038d90556001610a498b826123c5565b506004899055600580546001600160a01b03808b166001600160a01b031992831617909255600680548a841690831617905560078054928916929091169190911790558315610ad257845460ff60401b19168555604051600181527fc7f505b2f371ae2175ee4913f4499e1f2633a7b5936321eed1cdaeb6115181d29060200160405180910390a15b5050505050505050505050505050565b60006000805160206125b88339815191526001600160a01b038316610b1d576040516322718ad960e21b815260006004820152602401610875565b6001600160a01b039092166000908152600390920160205250604090205490565b610b46611200565b610b50600061125b565b565b610b5a611146565b6000816000015182602001518360400151604051602001610b7d93929190612485565b604051602081830303815290604052805190602001209050600054826000015114610bbb576040516349f32f0160e11b815260040160405180910390fd5b60055460608301517f19457468657265756d205369676e6564204d6573736167653a0a3332000000006000908152601c849052603c90206001600160a01b0390921691610c07916112cc565b6001600160a01b031614610c2e576040516349f32f0160e11b815260040160405180910390fd5b602082015160035415801590610c48575060035460025410155b15610c845760025460035460405163ac99281f60e01b81526001600160a01b038416600482015260248101929092526044820152606401610875565b6000610c8f82610ae2565b1115610cb9576040516365f273e960e01b81526001600160a01b0382166004820152602401610875565b6000610cc36107d5565b905080341015610cfe57604051634af7288d60e11b81526001600160a01b038316600482015260248101829052346044820152606401610875565b6007546040516000916001600160a01b03169083908381818185875af1925050503d8060008114610d4b576040519150601f19603f3d011682016040523d82523d6000602084013e610d50565b606091505b5050905080610d88576007546040516309955be960e21b81526001600160a01b03909116600482015260248101839052604401610875565b81341115610e27576000610d9c83346124c4565b90506000846001600160a01b03168260405160006040518083038185875af1925050503d8060008114610deb576040519150601f19603f3d011682016040523d82523d6000602084013e610df0565b606091505b5050905080610e24576040516309955be960e21b81526001600160a01b038616600482015260248101839052604401610875565b50505b6002805460009182610e38836124d7565b919050559050610e4884826112f6565b836001600160a01b03167ff2cb5e52049d127ad1c335f1cc25f2fdbc911bec1beb2611f4c1e8b1c274d4b482858960400151604051610e89939291906124f0565b60405180910390a250505050506107c760016000805160206125d883398151915255565b7f80bb2b638cc20bc4d0a60d66940f3ab4a00c1d7b313497ca82fb0b4ab007930180546060916000805160206125b8833981519152916106259061216e565b610ef4611200565b600480549082905560408051828152602081018490527f2679f06bd6ac5b0498704c9232cd7f20206df1261540db52c85327dc0cf6d333910160405180910390a15050565b6106c9338383611310565b610f4f8484846106cd565b610f5b848484846113c1565b50505050565b6060610f6c826110c7565b506000610f776114ea565b90506000815111610f975760405180602001604052806000815250610fc2565b80610fa18461157c565b604051602001610fb2929190612518565b6040516020818303038152906040525b9392505050565b610fd1611200565b6001600160a01b038116610ff85760405163dd57295560e01b815260040160405180910390fd5b601280546001600160a01b0319166001600160a01b0383161790556040517f223d196da290c17d7ff0c4d2803d81e694c21d40da70fdfd73fcfbde0c8822f590600090a150565b6001600160a01b0391821660009081527f80bb2b638cc20bc4d0a60d66940f3ab4a00c1d7b313497ca82fb0b4ab00793056020908152604080832093909416825291909152205460ff1690565b611094611200565b6001600160a01b0381166110be57604051631e4fbdf760e01b815260006004820152602401610875565b6107c78161125b565b6000806110d38361160f565b90506001600160a01b0381166105ff57604051637e27328960e01b815260048101849052602401610875565b60009081527f80bb2b638cc20bc4d0a60d66940f3ab4a00c1d7b313497ca82fb0b4ab007930460205260409020546001600160a01b031690565b6107018383836001611649565b6000805160206125d883398151915280546001190161117857604051633ee5aeb560e01b815260040160405180910390fd5b60029055565b600061118d600083600061175f565b90506001600160a01b0381166106c957604051637e27328960e01b815260048101839052602401610875565b60016000805160206125d883398151915255565b6111d5611869565b6106c982826118b2565b6111e7611869565b6107c7816118e3565b6111f8611869565b610b506118eb565b336112327f9016d09d72d40fdae2fd8ceac6b6234c7706214fd39c1cd1e609a0528c199300546001600160a01b031690565b6001600160a01b031614610b505760405163118cdaa760e01b8152336004820152602401610875565b7f9016d09d72d40fdae2fd8ceac6b6234c7706214fd39c1cd1e609a0528c19930080546001600160a01b031981166001600160a01b03848116918217845560405192169182907f8be0079c531659141344cd1fd0a4f28419497f9722a3daafe3b4186f6b6457e090600090a3505050565b6000806000806112dc86866118f3565b9250925092506112ec8282611940565b5090949350505050565b6106c98282604051806020016040528060008152506119f9565b6000805160206125b88339815191526001600160a01b03831661135157604051630b61174360e31b81526001600160a01b0384166004820152602401610875565b6001600160a01b038481166000818152600584016020908152604080832094881680845294825291829020805460ff191687151590811790915591519182527f17307eab39ab6107e8899845ad3d59bd9653f200f220920489ca2b5937696c31910160405180910390a350505050565b6001600160a01b0383163b15610f5b57604051630a85bd0160e11b81526001600160a01b0384169063150b7a0290611403903390889087908790600401612547565b6020604051808303816000875af192505050801561143e575060408051601f3d908101601f1916820190925261143b91810190612584565b60015b6114a7573d80801561146c576040519150601f19603f3d011682016040523d82523d6000602084013e611471565b606091505b50805160000361149f57604051633250574960e11b81526001600160a01b0385166004820152602401610875565b805181602001fd5b6001600160e01b03198116630a85bd0160e11b146114e357604051633250574960e11b81526001600160a01b0385166004820152602401610875565b5050505050565b6060600180546114f99061216e565b80601f01602080910402602001604051908101604052809291908181526020018280546115259061216e565b80156115725780601f1061154757610100808354040283529160200191611572565b820191906000526020600020905b81548152906001019060200180831161155557829003601f168201915b5050505050905090565b6060600061158983611a10565b600101905060008167ffffffffffffffff8111156115a9576115a9611e44565b6040519080825280601f01601f1916602001820160405280156115d3576020820181803683370190505b5090508181016020015b600019016f181899199a1a9b1b9c1cb0b131b232b360811b600a86061a8153600a85049450846115dd57509392505050565b60009081527f80bb2b638cc20bc4d0a60d66940f3ab4a00c1d7b313497ca82fb0b4ab007930260205260409020546001600160a01b031690565b6000805160206125b8833981519152818061166c57506001600160a01b03831615155b1561172e57600061167c856110c7565b90506001600160a01b038416158015906116a85750836001600160a01b0316816001600160a01b031614155b80156116bb57506116b9818561103f565b155b156116e45760405163a9fbf51f60e01b81526001600160a01b0385166004820152602401610875565b821561172c5784866001600160a01b0316826001600160a01b03167f8c5be1e5ebec7d5bd14f71427d1e84f3dd0314c0f7b2291e5b200ac8c7c3b92560405160405180910390a45b505b600093845260040160205250506040902080546001600160a01b0319166001600160a01b0392909216919091179055565b60006000805160206125b88339815191528161177a8561160f565b90506001600160a01b0384161561179657611796818587611ae8565b6001600160a01b038116156117d6576117b3600086600080611649565b6001600160a01b0381166000908152600383016020526040902080546000190190555b6001600160a01b03861615611807576001600160a01b03861660009081526003830160205260409020805460010190555b600085815260028301602052604080822080546001600160a01b0319166001600160a01b038a811691821790925591518893918516917fddf252ad1be2c89b69c2b068fc378daa952ba7f163c4a11628f55a4df523b3ef91a495945050505050565b7ff0c57e16840df040f15088dc2f81fe391c3923bec73e23a9662efc9c229c6a0054600160401b900460ff16610b5057604051631afcd79f60e31b815260040160405180910390fd5b6118ba611869565b6000805160206125b8833981519152806118d484826123c5565b5060018101610f5b83826123c5565b611094611869565b6111b9611869565b6000806000835160410361192d5760208401516040850151606086015160001a61191f88828585611b4c565b955095509550505050611939565b50508151600091506002905b9250925092565b6000826003811115611954576119546125a1565b0361195d575050565b6001826003811115611971576119716125a1565b0361198f5760405163f645eedf60e01b815260040160405180910390fd5b60028260038111156119a3576119a36125a1565b036119c45760405163fce698f760e01b815260048101829052602401610875565b60038260038111156119d8576119d86125a1565b036106c9576040516335e2f38360e21b815260048101829052602401610875565b611a038383611c1b565b61070160008484846113c1565b60008072184f03e93ff9f4daa797ed6e38ed64bf6a1f0160401b8310611a4f5772184f03e93ff9f4daa797ed6e38ed64bf6a1f0160401b830492506040015b6d04ee2d6d415b85acef81000000008310611a7b576d04ee2d6d415b85acef8100000000830492506020015b662386f26fc100008310611a9957662386f26fc10000830492506010015b6305f5e1008310611ab1576305f5e100830492506008015b6127108310611ac557612710830492506004015b60648310611ad7576064830492506002015b600a83106105ff5760010192915050565b611af3838383611c80565b610701576001600160a01b038316611b2157604051637e27328960e01b815260048101829052602401610875565b60405163177e802f60e01b81526001600160a01b038316600482015260248101829052604401610875565b600080807f7fffffffffffffffffffffffffffffff5d576e7357a4501ddfe92f46681b20a0841115611b875750600091506003905082611c11565b604080516000808252602082018084528a905260ff891692820192909252606081018790526080810186905260019060a0016020604051602081039080840390855afa158015611bdb573d6000803e3d6000fd5b5050604051601f1901519150506001600160a01b038116611c0757506000925060019150829050611c11565b9250600091508190505b9450945094915050565b6001600160a01b038216611c4557604051633250574960e11b815260006004820152602401610875565b6000611c538383600061175f565b90506001600160a01b03811615610701576040516339e3563760e11b815260006004820152602401610875565b60006001600160a01b03831615801590611cde5750826001600160a01b0316846001600160a01b03161480611cba5750611cba848461103f565b80611cde5750826001600160a01b0316611cd3836110ff565b6001600160a01b0316145b949350505050565b6001600160e01b0319811681146107c757600080fd5b600060208284031215611d0e57600080fd5b8135610fc281611ce6565b60005b83811015611d34578181015183820152602001611d1c565b50506000910152565b60008151808452611d55816020860160208601611d19565b601f01601f19169290920160200192915050565b602081526000610fc26020830184611d3d565b600060208284031215611d8e57600080fd5b5035919050565b6001600160a01b03811681146107c757600080fd5b8035611db581611d95565b919050565b60008060408385031215611dcd57600080fd5b8235611dd881611d95565b946020939093013593505050565b600080600060608486031215611dfb57600080fd5b8335611e0681611d95565b92506020840135611e1681611d95565b929592945050506040919091013590565b600060208284031215611e3957600080fd5b8135610fc281611d95565b634e487b7160e01b600052604160045260246000fd5b6040516080810167ffffffffffffffff81118282101715611e7d57611e7d611e44565b60405290565b600082601f830112611e9457600080fd5b813567ffffffffffffffff80821115611eaf57611eaf611e44565b604051601f8301601f19908116603f01168101908282118183101715611ed757611ed7611e44565b81604052838152866020858801011115611ef057600080fd5b836020870160208301376000602085830101528094505050505092915050565b60008060008060008060008060006101208a8c031215611f2f57600080fd5b8935985060208a0135975060408a013567ffffffffffffffff80821115611f5557600080fd5b611f618d838e01611e83565b985060608c0135915080821115611f7757600080fd5b611f838d838e01611e83565b975060808c0135915080821115611f9957600080fd5b50611fa68c828d01611e83565b95505060a08a01359350611fbc60c08b01611daa565b9250611fca60e08b01611daa565b9150611fd96101008b01611daa565b90509295985092959850929598565b600060208284031215611ffa57600080fd5b813567ffffffffffffffff8082111561201257600080fd5b908301906080828603121561202657600080fd5b61202e611e5a565b82358152602083013561204081611d95565b602082015260408301358281111561205757600080fd5b61206387828601611e83565b60408301525060608301358281111561207b57600080fd5b61208787828601611e83565b60608301525095945050505050565b600080604083850312156120a957600080fd5b82356120b481611d95565b9150602083013580151581146120c957600080fd5b809150509250929050565b600080600080608085870312156120ea57600080fd5b84356120f581611d95565b9350602085013561210581611d95565b925060408501359150606085013567ffffffffffffffff81111561212857600080fd5b61213487828801611e83565b91505092959194509250565b6000806040838503121561215357600080fd5b823561215e81611d95565b915060208301356120c981611d95565b600181811c9082168061218257607f821691505b6020821081036121a257634e487b7160e01b600052602260045260246000fd5b50919050565b805169ffffffffffffffffffff81168114611db557600080fd5b600080600080600060a086880312156121da57600080fd5b6121e3866121a8565b9450602086015193506040860151925060608601519150612206608087016121a8565b90509295509295909350565b60006020828403121561222457600080fd5b815160ff81168114610fc257600080fd5b634e487b7160e01b600052601160045260246000fd5b600181815b8085111561228657816000190482111561226c5761226c612235565b8085161561227957918102915b93841c9390800290612250565b509250929050565b60008261229d575060016105ff565b816122aa575060006105ff565b81600181146122c057600281146122ca576122e6565b60019150506105ff565b60ff8411156122db576122db612235565b50506001821b6105ff565b5060208310610133831016604e8410600b8410161715612309575081810a6105ff565b612313838361224b565b806000190482111561232757612327612235565b029392505050565b6000610fc260ff84168361228e565b80820281158282048414176105ff576105ff612235565b60008261237257634e487b7160e01b600052601260045260246000fd5b500490565b601f82111561070157600081815260208120601f850160051c8101602086101561239e5750805b601f850160051c820191505b818110156123bd578281556001016123aa565b505050505050565b815167ffffffffffffffff8111156123df576123df611e44565b6123f3816123ed845461216e565b84612377565b602080601f83116001811461242857600084156124105750858301515b600019600386901b1c1916600185901b1785556123bd565b600085815260208120601f198616915b8281101561245757888601518255948401946001909101908401612438565b50858210156124755787850151600019600388901b60f8161c191681555b5050505050600190811b01905550565b8381526bffffffffffffffffffffffff198360601b166020820152600082516124b5816034850160208701611d19565b91909101603401949350505050565b818103818111156105ff576105ff612235565b6000600182016124e9576124e9612235565b5060010190565b83815282602082015260606040820152600061250f6060830184611d3d565b95945050505050565b6000835161252a818460208801611d19565b83519083019061253e818360208801611d19565b01949350505050565b6001600160a01b038581168252841660208201526040810183905260806060820181905260009061257a90830184611d3d565b9695505050505050565b60006020828403121561259657600080fd5b8151610fc281611ce6565b634e487b7160e01b600052602160045260246000fdfe80bb2b638cc20bc4d0a60d66940f3ab4a00c1d7b313497ca82fb0b4ab00793009b779b17422d0df92223018b32b4d1fa46e071723d6817e2486d003becc55f00a264697066735822122026641a8c8a0f9b333aefdadcd834fffa63c16e3c279765791ee9f744b06e0fb864736f6c63430008140033",
  "linkReferences": {},
  "deployedLinkReferences": {}
}