{
  "_format": "hh-sol-artifact-1",
  "contractName": "GovernorMultisig",
  "sourceName": "contracts/governance/GovernorMultisig.sol",
  "abi": [
    {
      "anonymous": false,
      "inputs": [
        {
          "indexed": false,
          "internalType": "bytes32",
          "name": "operation",
          "type": "bytes32"
        },
        {
          "indexed": false,
          "internalType": "address",
          "name": "lastCanceller",
          "type": "address"
        }
      ],
      "name": "OperationCancelled",
      "type": "event"
    },
    {
      "anonymous": false,
      "inputs": [
        {
          "indexed": false,
          "internalType": "bytes32",
          "name": "operation",
          "type": "bytes32"
        },
        {
          "indexed": false,
          "internalType": "uint256",
          "name": "howMany",
          "type": "uint256"
        },
        {
          "indexed": false,
          "internalType": "uint256",
          "name": "ownersCount",
          "type": "uint256"
        },
        {
          "indexed": false,
          "internalType": "address",
          "name": "proposer",
          "type": "address"
        }
      ],
      "name": "OperationCreated",
      "type": "event"
    },
    {
      "anonymous": false,
      "inputs": [
        {
          "indexed": false,
          "internalType": "bytes32",
          "name": "operation",
          "type": "bytes32"
        },
        {
          "indexed": false,
          "internalType": "uint256",
          "name": "votes",
          "type": "uint256"
        },
        {
          "indexed": false,
          "internalType": "uint256",
          "name": "ownersCount",
          "type": "uint256"
        },
        {
          "indexed": false,
          "internalType": "address",
          "name": "downvoter",
          "type": "address"
        }
      ],
      "name": "OperationDownvoted",
      "type": "event"
    },
    {
      "anonymous": false,
      "inputs": [
        {
          "indexed": false,
          "internalType": "bytes32",
          "name": "operation",
          "type": "bytes32"
        },
        {
          "indexed": false,
          "internalType": "uint256",
          "name": "howMany",
          "type": "uint256"
        },
        {
          "indexed": false,
          "internalType": "uint256",
          "name": "ownersCount",
          "type": "uint256"
        },
        {
          "indexed": false,
          "internalType": "address",
          "name": "performer",
          "type": "address"
        }
      ],
      "name": "OperationPerformed",
      "type": "event"
    },
    {
      "anonymous": false,
      "inputs": [
        {
          "indexed": false,
          "internalType": "bytes32",
          "name": "operation",
          "type": "bytes32"
        },
        {
          "indexed": false,
          "internalType": "uint256",
          "name": "votes",
          "type": "uint256"
        },
        {
          "indexed": false,
          "internalType": "uint256",
          "name": "howMany",
          "type": "uint256"
        },
        {
          "indexed": false,
          "internalType": "uint256",
          "name": "ownersCount",
          "type": "uint256"
        },
        {
          "indexed": false,
          "internalType": "address",
          "name": "upvoter",
          "type": "address"
        }
      ],
      "name": "OperationUpvoted",
      "type": "event"
    },
    {
      "anonymous": false,
      "inputs": [
        {
          "indexed": false,
          "internalType": "address[]",
          "name": "previousOwners",
          "type": "address[]"
        },
        {
          "indexed": false,
          "internalType": "uint256",
          "name": "howManyOwnersDecide",
          "type": "uint256"
        },
        {
          "indexed": false,
          "internalType": "address[]",
          "name": "newOwners",
          "type": "address[]"
        },
        {
          "indexed": false,
          "internalType": "uint256",
          "name": "newHowManyOwnersDecide",
          "type": "uint256"
        }
      ],
      "name": "OwnershipTransferred",
      "type": "event"
    },
    {
      "inputs": [],
      "name": "MAX_OPERATIONS",
      "outputs": [
        {
          "internalType": "uint256",
          "name": "",
          "type": "uint256"
        }
      ],
      "stateMutability": "view",
      "type": "function"
    },
    {
      "inputs": [
        {
          "internalType": "uint256",
          "name": "",
          "type": "uint256"
        }
      ],
      "name": "allOperations",
      "outputs": [
        {
          "internalType": "bytes32",
          "name": "",
          "type": "bytes32"
        }
      ],
      "stateMutability": "view",
      "type": "function"
    },
    {
      "inputs": [],
      "name": "allOperationsCount",
      "outputs": [
        {
          "internalType": "uint256",
          "name": "",
          "type": "uint256"
        }
      ],
      "stateMutability": "view",
      "type": "function"
    },
    {
      "inputs": [
        {
          "internalType": "bytes32",
          "name": "",
          "type": "bytes32"
        }
      ],
      "name": "allOperationsIndicies",
      "outputs": [
        {
          "internalType": "uint256",
          "name": "",
          "type": "uint256"
        }
      ],
      "stateMutability": "view",
      "type": "function"
    },
    {
      "inputs": [
        {
          "internalType": "bytes32",
          "name": "operation",
          "type": "bytes32"
        }
      ],
      "name": "cancelPending",
      "outputs": [],
      "stateMutability": "nonpayable",
      "type": "function"
    },
    {
      "inputs": [
        {
          "internalType": "address[]",
          "name": "targets",
          "type": "address[]"
        },
        {
          "internalType": "uint256[]",
          "name": "values",
          "type": "uint256[]"
        },
        {
          "internalType": "string[]",
          "name": "signatures",
          "type": "string[]"
        },
        {
          "internalType": "bytes[]",
          "name": "calldatas",
          "type": "bytes[]"
        }
      ],
      "name": "executeTransaction",
      "outputs": [],
      "stateMutability": "nonpayable",
      "type": "function"
    },
    {
      "inputs": [],
      "name": "howManyOwnersDecide",
      "outputs": [
        {
          "internalType": "uint256",
          "name": "",
          "type": "uint256"
        }
      ],
      "stateMutability": "view",
      "type": "function"
    },
    {
      "inputs": [
        {
          "internalType": "address",
          "name": "wallet",
          "type": "address"
        }
      ],
      "name": "isOwner",
      "outputs": [
        {
          "internalType": "bool",
          "name": "",
          "type": "bool"
        }
      ],
      "stateMutability": "view",
      "type": "function"
    },
    {
      "inputs": [
        {
          "internalType": "uint256",
          "name": "",
          "type": "uint256"
        }
      ],
      "name": "owners",
      "outputs": [
        {
          "internalType": "address",
          "name": "",
          "type": "address"
        }
      ],
      "stateMutability": "view",
      "type": "function"
    },
    {
      "inputs": [],
      "name": "ownersCount",
      "outputs": [
        {
          "internalType": "uint256",
          "name": "",
          "type": "uint256"
        }
      ],
      "stateMutability": "view",
      "type": "function"
    },
    {
      "inputs": [],
      "name": "ownersGeneration",
      "outputs": [
        {
          "internalType": "uint256",
          "name": "",
          "type": "uint256"
        }
      ],
      "stateMutability": "view",
      "type": "function"
    },
    {
      "inputs": [
        {
          "internalType": "address",
          "name": "",
          "type": "address"
        }
      ],
      "name": "ownersIndices",
      "outputs": [
        {
          "internalType": "uint256",
          "name": "",
          "type": "uint256"
        }
      ],
      "stateMutability": "view",
      "type": "function"
    },
    {
      "inputs": [
        {
          "internalType": "address[]",
          "name": "newOwners",
          "type": "address[]"
        }
      ],
      "name": "transferOwnership",
      "outputs": [],
      "stateMutability": "nonpayable",
      "type": "function"
    },
    {
      "inputs": [
        {
          "internalType": "address[]",
          "name": "newOwners",
          "type": "address[]"
        },
        {
          "internalType": "uint256",
          "name": "newHowManyOwnersDecide",
          "type": "uint256"
        }
      ],
      "name": "transferOwnershipWithHowMany",
      "outputs": [],
      "stateMutability": "nonpayable",
      "type": "function"
    },
    {
      "inputs": [
        {
          "internalType": "bytes32",
          "name": "",
          "type": "bytes32"
        }
      ],
      "name": "votesCountByOperation",
      "outputs": [
        {
          "internalType": "uint256",
          "name": "",
          "type": "uint256"
        }
      ],
      "stateMutability": "view",
      "type": "function"
    },
    {
      "inputs": [
        {
          "internalType": "bytes32",
          "name": "",
          "type": "bytes32"
        }
      ],
      "name": "votesMaskByOperation",
      "outputs": [
        {
          "internalType": "uint256",
          "name": "",
          "type": "uint256"
        }
      ],
      "stateMutability": "view",
      "type": "function"
    }
  ],
  "bytecode": "0x608060405234801561001057600080fd5b506002805460018181019092557f405787fa12a823e0f2b7631cc41b3ba8828b3321ca811111fa75cd3aa3bb5ace0180546001600160a01b03191633908117909155600090815260066020526040902081905580556119d7806100746000396000f3fe608060405234801561001057600080fd5b50600436106101005760003560e01c80638680ce4b11610097578063b948854611610066578063b94885461461022a578063cc047a0414610232578063e851834114610252578063ea1a26441461026557600080fd5b80638680ce4b146101db578063893372ca146101ee57806390a5308514610201578063b25bb3a71461022157600080fd5b80632f54bf6e116100d35780632f54bf6e14610165578063431ab233146101a0578063568b5915146101b35780635dc2803a146101d357600080fd5b8063025e7c271461010557806318bcd3d01461013557806322f2f89a1461014a5780632f4a81df1461015c575b600080fd5b61011861011336600461121f565b610285565b6040516001600160a01b0390911681526020015b60405180910390f35b610148610143366004611284565b6102af565b005b6003545b60405190815260200161012c565b61014e60015481565b6101906101733660046112e2565b6001600160a01b0316600090815260066020526040902054151590565b604051901515815260200161012c565b61014e6101ae36600461121f565b6102be565b61014e6101c136600461121f565b60086020526000908152604090205481565b61014e600a81565b6101486101e936600461155c565b6102df565b6101486101fc36600461121f565b610673565b61014e61020f36600461121f565b60096020526000908152604090205481565b61014e60005481565b60025461014e565b61014e6102403660046112e2565b60066020526000908152604090205481565b610148610260366004611665565b610853565b61014e61027336600461121f565b60076020526000908152604090205481565b6002818154811061029557600080fd5b6000918252602090912001546001600160a01b0316905081565b6102ba828280610853565b5050565b600381815481106102ce57600080fd5b600091825260209091200154905081565b6102ea600154610ceb565b1561066d576004546001600160a01b031615801561031b57600480546001600160a01b031916331790556001546005555b8351855114801561032d575082518551145b801561033a575081518551145b6103b15760405162461bcd60e51b8152602060048201526049602482015260008051602061196283398151915260448201527f74696f6e3a2066756e6374696f6e20696e666f726d6174696f6e206172697479606482015268040dad2e6dac2e8c6d60bb1b608482015260a4015b60405180910390fd5b84516000036104165760405162461bcd60e51b815260206004820152603a602482015260008051602061196283398151915260448201527f74696f6e3a206d7573742070726f7669646520616374696f6e7300000000000060648201526084016103a8565b600a855111156104755760405162461bcd60e51b8152602060048201526036602482015260008051602061196283398151915260448201527574696f6e3a20746f6f206d616e7920616374696f6e7360501b60648201526084016103a8565b60005b85518160ff16101561064e576000848260ff168151811061049b5761049b6116b1565b60200260200101515160001461051157848260ff16815181106104c0576104c06116b1565b602002602001015180519060200120848360ff16815181106104e4576104e46116b1565b60200260200101516040516020016104fd9291906116f7565b60405160208183030381529060405261052f565b838260ff1681518110610526576105266116b1565b60200260200101515b90506000878360ff1681518110610548576105486116b1565b60200260200101516001600160a01b0316878460ff168151811061056e5761056e6116b1565b602002602001015183604051610584919061171b565b60006040518083038185875af1925050503d80600081146105c1576040519150601f19603f3d011682016040523d82523d6000602084013e6105c6565b606091505b50509050806106395760405162461bcd60e51b815260206004820152604460248201819052600080516020611962833981519152908201527f74696f6e3a207472616e73616374696f6e20657865637574696f6e20726576656064820152631c9d195960e21b608482015260a4016103a8565b505080806106469061173d565b915050610478565b50801561066b57600480546001600160a01b031916905560006005555b505b50505050565b61067d6001610ceb565b15610850576004546001600160a01b03161580156106ad57600480546001600160a01b0319163317905560016005555b336000908152600660205260408120546106c99060019061175c565b90506106d6816002611859565b6000848152600860205260408120549190911690036107505760405162461bcd60e51b815260206004820152603060248201527f63616e63656c50656e64696e673a206f7065726174696f6e206e6f7420666f7560448201526f3732103337b9103a3434b9903ab9b2b960811b60648201526084016103a8565b61075b816002611859565b600084815260086020908152604080832080549419909416909355600990529081205461078a9060019061175c565b60008581526009602090815260409182902083905560025482518881529182018490528183015233606082015290519192507f3e0a7036018b5a2a3c5d0afa14e51998ef3cf98c38e4289a8897222b3acf75a7919081900360800190a180600003610831576107f884611092565b604080518581523360208201527f55e0dd61c29aac6fc36807628300ad3e3ec68655ae76ae4002f7fb101496fa9f910160405180910390a15b505080156102ba57600480546001600160a01b03191690556000600555505b50565b61085e600154610ceb565b15610ce6576004546001600160a01b031615801561088f57600480546001600160a01b031916331790556001546005555b826108e65760405162461bcd60e51b815260206004820152603360248201526000805160206119828339815191526044820152726e65727320617272617920697320656d70747960681b60648201526084016103a8565b61010083111561094c5760405162461bcd60e51b815260206004820152603e602482015260008051602061198283398151915260448201527f6e65727320636f756e742069732067726561746572207468656e20323536000060648201526084016103a8565b600082116109c25760405162461bcd60e51b815260206004820152603f60248201527f7472616e736665724f776e65727368697057697468486f774d616e793a206e6560448201527f77486f774d616e794f776e65727344656369646520657175616c20746f20300060648201526084016103a8565b82821115610a525760405162461bcd60e51b815260206004820152605160248201527f7472616e736665724f776e65727368697057697468486f774d616e793a206e6560448201527f77486f774d616e794f776e657273446563696465206578636565647320746865606482015270206e756d626572206f66206f776e65727360781b608482015260a4016103a8565b60005b600254811015610aad576006600060028381548110610a7657610a766116b1565b60009182526020808320909101546001600160a01b0316835282019290925260400181205580610aa581611865565b915050610a55565b5060005b83811015610c54576000858583818110610acd57610acd6116b1565b9050602002016020810190610ae291906112e2565b6001600160a01b031603610b4c5760405162461bcd60e51b8152602060048201526038602482015260008051602061198283398151915260448201527f6e65727320617272617920636f6e7461696e73207a65726f000000000000000060648201526084016103a8565b60066000868684818110610b6257610b626116b1565b9050602002016020810190610b7791906112e2565b6001600160a01b0316815260208101919091526040016000205415610bf25760405162461bcd60e51b815260206004820152603e602482015260008051602061198283398151915260448201527f6e65727320617272617920636f6e7461696e73206475706c696361746573000060648201526084016103a8565b610bfd81600161187e565b60066000878785818110610c1357610c136116b1565b9050602002016020810190610c2891906112e2565b6001600160a01b0316815260208101919091526040016000205580610c4c81611865565b915050610ab1565b507fd167b96814cd24898418cc293e8d47d54afe6dcf0631283f0830e1eae621f6bd6002600154868686604051610c8f959493929190611891565b60405180910390a1610ca36002858561118d565b506001829055610cb5600360006111f0565b600080549080610cc483611865565b9190505550801561066d57600480546001600160a01b03191690556000600555505b505050565b600454600090336001600160a01b0390911603610d9057600554821115610d885760405162461bcd60e51b815260206004820152604560248201527f5f636865636b486f774d616e794f776e6572733a206e6573746564206f776e6560448201527f7273206d6f64696669657220636865636b2072657175697265206d6f7265206f606482015264776e65727360d81b608482015260a4016103a8565b506001919050565b33600090815260066020526040902054610e045760405162461bcd60e51b815260206004820152602f60248201527f5f636865636b486f774d616e794f776e6572733a206d73672e73656e6465722060448201526e34b9903737ba1030b71037bbb732b960891b60648201526084016103a8565b33600090815260066020526040812054610e209060019061175c565b905060008036600054604051602001610e3b93929190611939565b604051602081830303815290604052805190602001209050816002610e609190611859565b6000828152600860205260409020541615610ee35760405162461bcd60e51b815260206004820152603a60248201527f5f636865636b486f774d616e794f776e6572733a206f776e657220616c72656160448201527f647920766f74656420666f7220746865206f7065726174696f6e00000000000060648201526084016103a8565b610eee826002611859565b600082815260086020908152604080832080549094179093556009905290812054610f1a90600161187e565b600083815260096020526040902081905590506001819003610fc457600380546000848152600760209081526040808320849055600184018555939091527fc2575a0e9e593c00f959f8c92f12db2869c3395a3b0502d05e2516446f71f85b90910184905560025482518581529182018890528183015233606082015290517f6bab0114f9524353d2d33e64edd3ebbd16e21edd57de2226ba76c310a7ce22659181900360800190a15b60025460408051848152602081018490528082018890526060810192909252336080830152517f8dd9582c6577aea81973b5adeb6c135f6e18565d99578b7ba0c9377437ec02219181900360a00190a16000828152600960205260409020548590036110875761103382611092565b600254604080518481526020810188905280820192909252336060830152517f8a11c8ca99994c292318ce367f65bf6ff61d390bc814b3588496f6fbcc32807a9181900360800190a1506001949350505050565b506000949350505050565b6000818152600760205260409020546003546110b09060019061175c565b81101561113957600380546110c79060019061175c565b815481106110d7576110d76116b1565b9060005260206000200154600382815481106110f5576110f56116b1565b906000526020600020018190555080600760006003848154811061111b5761111b6116b1565b90600052602060002001548152602001908152602001600020819055505b600380548061114a5761114a61194b565b6000828152602080822083016000199081018390559092019092559281526008835260408082208290556009845280822082905560079093529182209190915550565b8280548282559060005260206000209081019282156111e0579160200282015b828111156111e05781546001600160a01b0319166001600160a01b038435161782556020909201916001909101906111ad565b506111ec92915061120a565b5090565b508054600082559060005260206000209081019061085091905b5b808211156111ec576000815560010161120b565b60006020828403121561123157600080fd5b5035919050565b60008083601f84011261124a57600080fd5b50813567ffffffffffffffff81111561126257600080fd5b6020830191508360208260051b850101111561127d57600080fd5b9250929050565b6000806020838503121561129757600080fd5b823567ffffffffffffffff8111156112ae57600080fd5b6112ba85828601611238565b90969095509350505050565b80356001600160a01b03811681146112dd57600080fd5b919050565b6000602082840312156112f457600080fd5b6112fd826112c6565b9392505050565b634e487b7160e01b600052604160045260246000fd5b604051601f8201601f1916810167ffffffffffffffff8111828210171561134357611343611304565b604052919050565b600067ffffffffffffffff82111561136557611365611304565b5060051b60200190565b600082601f83011261138057600080fd5b813560206113956113908361134b565b61131a565b82815260059290921b840181019181810190868411156113b457600080fd5b8286015b848110156113cf57803583529183019183016113b8565b509695505050505050565b600067ffffffffffffffff8311156113f4576113f4611304565b611407601f8401601f191660200161131a565b905082815283838301111561141b57600080fd5b828260208301376000602084830101529392505050565b600082601f83011261144357600080fd5b813560206114536113908361134b565b82815260059290921b8401810191818101908684111561147257600080fd5b8286015b848110156113cf57803567ffffffffffffffff8111156114965760008081fd5b8701603f810189136114a85760008081fd5b6114b98986830135604084016113da565b845250918301918301611476565b600082601f8301126114d857600080fd5b813560206114e86113908361134b565b82815260059290921b8401810191818101908684111561150757600080fd5b8286015b848110156113cf57803567ffffffffffffffff81111561152b5760008081fd5b8701603f8101891361153d5760008081fd5b61154e8986830135604084016113da565b84525091830191830161150b565b6000806000806080858703121561157257600080fd5b843567ffffffffffffffff8082111561158a57600080fd5b818701915087601f83011261159e57600080fd5b813560206115ae6113908361134b565b82815260059290921b8401810191818101908b8411156115cd57600080fd5b948201945b838610156115f2576115e3866112c6565b825294820194908201906115d2565b9850508801359250508082111561160857600080fd5b6116148883890161136f565b9450604087013591508082111561162a57600080fd5b61163688838901611432565b9350606087013591508082111561164c57600080fd5b50611659878288016114c7565b91505092959194509250565b60008060006040848603121561167a57600080fd5b833567ffffffffffffffff81111561169157600080fd5b61169d86828701611238565b909790965060209590950135949350505050565b634e487b7160e01b600052603260045260246000fd5b6000815160005b818110156116e857602081850181015186830152016116ce565b50600093019283525090919050565b6001600160e01b031983168152600061171360048301846116c7565b949350505050565b60006112fd82846116c7565b634e487b7160e01b600052601160045260246000fd5b600060ff821660ff810361175357611753611727565b60010192915050565b8181038181111561176f5761176f611727565b92915050565b600181815b808511156117b057816000190482111561179657611796611727565b808516156117a357918102915b93841c939080029061177a565b509250929050565b6000826117c75750600161176f565b816117d45750600061176f565b81600181146117ea57600281146117f457611810565b600191505061176f565b60ff84111561180557611805611727565b50506001821b61176f565b5060208310610133831016604e8410600b8410161715611833575081810a61176f565b61183d8383611775565b806000190482111561185157611851611727565b029392505050565b60006112fd83836117b8565b60006001820161187757611877611727565b5060010190565b8082018082111561176f5761176f611727565b6000608082016080835280885480835260a08501915089600052602092508260002060005b828110156118db5781546001600160a01b0316845292840192600191820191016118b6565b50505083820188905283810360408501528581528690820160005b87811015611922576001600160a01b0361190f846112c6565b16825291830191908301906001016118f6565b508093505050508260608301529695505050505050565b82848237909101908152602001919050565b634e487b7160e01b600052603160045260246000fdfe476f7665726e6f724d756c74697369673a3a657865637574655472616e7361637472616e736665724f776e65727368697057697468486f774d616e793a206f77a2646970667358221220e210f62581a70b0d6ae12230cc8c9e04df192d2715adb9f57dd05b9fcd060b8b64736f6c63430008140033",
  "linkReferences": {},
  "deployedLinkReferences": {}
}