{
  "_format": "hh-sol-artifact-1",
  "contractName": "TreasuryV1",
  "sourceName": "contracts/treasury/TreasuryV1.sol",
  "abi": [
    {
      "inputs": [],
      "stateMutability": "nonpayable",
      "type": "constructor"
    },
    {
      "inputs": [
        {
          "internalType": "address",
          "name": "target",
          "type": "address"
        }
      ],
      "name": "AddressEmptyCode",
      "type": "error"
    },
    {
      "inputs": [
        {
          "internalType": "address",
          "name": "account",
          "type": "address"
        }
      ],
      "name": "AddressInsufficientBalance",
      "type": "error"
    },
    {
      "inputs": [],
      "name": "FailedInnerCall",
      "type": "error"
    },
    {
      "inputs": [],
      "name": "InvalidInitialization",
      "type": "error"
    },
    {
      "inputs": [],
      "name": "NotInitializing",
      "type": "error"
    },
    {
      "inputs": [
        {
          "internalType": "address",
          "name": "owner",
          "type": "address"
        }
      ],
      "name": "OwnableInvalidOwner",
      "type": "error"
    },
    {
      "inputs": [
        {
          "internalType": "address",
          "name": "account",
          "type": "address"
        }
      ],
      "name": "OwnableUnauthorizedAccount",
      "type": "error"
    },
    {
      "inputs": [
        {
          "internalType": "address",
          "name": "token",
          "type": "address"
        }
      ],
      "name": "SafeERC20FailedOperation",
      "type": "error"
    },
    {
      "inputs": [
        {
          "internalType": "uint256",
          "name": "amount",
          "type": "uint256"
        }
      ],
      "name": "TreasuryInvalidAmount",
      "type": "error"
    },
    {
      "inputs": [
        {
          "internalType": "address",
          "name": "recipient",
          "type": "address"
        }
      ],
      "name": "TreasuryInvalidRecipient",
      "type": "error"
    },
    {
      "inputs": [
        {
          "internalType": "address",
          "name": "recipient",
          "type": "address"
        },
        {
          "internalType": "uint256",
          "name": "amount",
          "type": "uint256"
        }
      ],
      "name": "TreasuryTransferFailed",
      "type": "error"
    },
    {
      "anonymous": false,
      "inputs": [
        {
          "indexed": false,
          "internalType": "uint64",
          "name": "version",
          "type": "uint64"
        }
      ],
      "name": "Initialized",
      "type": "event"
    },
    {
      "anonymous": false,
      "inputs": [
        {
          "indexed": true,
          "internalType": "address",
          "name": "previousOwner",
          "type": "address"
        },
        {
          "indexed": true,
          "internalType": "address",
          "name": "newOwner",
          "type": "address"
        }
      ],
      "name": "OwnershipTransferred",
      "type": "event"
    },
    {
      "stateMutability": "payable",
      "type": "fallback"
    },
    {
      "inputs": [
        {
          "internalType": "address",
          "name": "token",
          "type": "address"
        },
        {
          "internalType": "address",
          "name": "recipient",
          "type": "address"
        },
        {
          "internalType": "uint256",
          "name": "amount",
          "type": "uint256"
        }
      ],
      "name": "approve",
      "outputs": [
        {
          "internalType": "bool",
          "name": "",
          "type": "bool"
        }
      ],
      "stateMutability": "nonpayable",
      "type": "function"
    },
    {
      "inputs": [],
      "name": "initialize",
      "outputs": [],
      "stateMutability": "nonpayable",
      "type": "function"
    },
    {
      "inputs": [],
      "name": "owner",
      "outputs": [
        {
          "internalType": "address",
          "name": "",
          "type": "address"
        }
      ],
      "stateMutability": "view",
      "type": "function"
    },
    {
      "inputs": [],
      "name": "renounceOwnership",
      "outputs": [],
      "stateMutability": "nonpayable",
      "type": "function"
    },
    {
      "inputs": [
        {
          "internalType": "address",
          "name": "token",
          "type": "address"
        },
        {
          "internalType": "address",
          "name": "recipient",
          "type": "address"
        },
        {
          "internalType": "uint256",
          "name": "amount",
          "type": "uint256"
        }
      ],
      "name": "transfer",
      "outputs": [
        {
          "internalType": "bool",
          "name": "",
          "type": "bool"
        }
      ],
      "stateMutability": "nonpayable",
      "type": "function"
    },
    {
      "inputs": [
        {
          "internalType": "address payable",
          "name": "recipient",
          "type": "address"
        },
        {
          "internalType": "uint256",
          "name": "amount",
          "type": "uint256"
        }
      ],
      "name": "transferETH",
      "outputs": [
        {
          "internalType": "bool",
          "name": "",
          "type": "bool"
        }
      ],
      "stateMutability": "nonpayable",
      "type": "function"
    },
    {
      "inputs": [
        {
          "internalType": "address",
          "name": "newOwner",
          "type": "address"
        }
      ],
      "name": "transferOwnership",
      "outputs": [],
      "stateMutability": "nonpayable",
      "type": "function"
    },
    {
      "inputs": [
        {
          "internalType": "address payable",
          "name": "spender",
          "type": "address"
        }
      ],
      "name": "withdrawFrom",
      "outputs": [],
      "stateMutability": "nonpayable",
      "type": "function"
    },
    {
      "stateMutability": "payable",
      "type": "receive"
    }
  ],
  "bytecode": "0x608060405234801561001057600080fd5b5061001961001e565b6100d0565b7ff0c57e16840df040f15088dc2f81fe391c3923bec73e23a9662efc9c229c6a00805468010000000000000000900460ff161561006e5760405163f92ee8a960e01b815260040160405180910390fd5b80546001600160401b03908116146100cd5780546001600160401b0319166001600160401b0390811782556040519081527fc7f505b2f371ae2175ee4913f4499e1f2633a7b5936321eed1cdaeb6115181d29060200160405180910390a15b50565b610a4e806100df6000396000f3fe6080604052600436106100795760003560e01c8063beabacc81161004b578063beabacc814610128578063de1b048614610148578063e1f21c6714610168578063f2fde38b1461018857005b8063715018a6146100825780637b1a4909146100975780638129fc1c146100cc5780638da5cb5b146100e157005b3661008057005b005b34801561008e57600080fd5b506100806101a8565b3480156100a357600080fd5b506100b76100b236600461093d565b6101bc565b60405190151581526020015b60405180910390f35b3480156100d857600080fd5b506100806102b1565b3480156100ed57600080fd5b507f9016d09d72d40fdae2fd8ceac6b6234c7706214fd39c1cd1e609a0528c199300546040516001600160a01b0390911681526020016100c3565b34801561013457600080fd5b506100b7610143366004610969565b6103c0565b34801561015457600080fd5b506100806101633660046109aa565b61043b565b34801561017457600080fd5b506100b7610183366004610969565b610492565b34801561019457600080fd5b506100806101a33660046109aa565b6104b0565b6101b06104ee565b6101ba6000610549565b565b60006101c66104ee565b816000036101ef57604051635b14778f60e11b8152600481018390526024015b60405180910390fd5b6001600160a01b03831661022157604051631137831360e31b81526001600160a01b03841660048201526024016101e6565b6000836001600160a01b03168360405160006040518083038185875af1925050503d806000811461026e576040519150601f19603f3d011682016040523d82523d6000602084013e610273565b606091505b50509050806102a7576040516328f0126760e21b81526001600160a01b0385166004820152602481018490526044016101e6565b5060019392505050565b7ff0c57e16840df040f15088dc2f81fe391c3923bec73e23a9662efc9c229c6a008054600160401b810460ff16159067ffffffffffffffff166000811580156102f75750825b905060008267ffffffffffffffff1660011480156103145750303b155b905081158015610322575080155b156103405760405163f92ee8a960e01b815260040160405180910390fd5b845467ffffffffffffffff19166001178555831561036a57845460ff60401b1916600160401b1785555b610373336105ba565b83156103b957845460ff60401b19168555604051600181527fc7f505b2f371ae2175ee4913f4499e1f2633a7b5936321eed1cdaeb6115181d29060200160405180910390a15b5050505050565b60006103ca6104ee565b816000036103ee57604051635b14778f60e11b8152600481018390526024016101e6565b6001600160a01b03831661042057604051631137831360e31b81526001600160a01b03841660048201526024016101e6565b6102a76001600160a01b03851684846105cb565b9392505050565b6104436104ee565b806001600160a01b0316633ccfd60b6040518163ffffffff1660e01b8152600401600060405180830381600087803b15801561047e57600080fd5b505af11580156103b9573d6000803e3d6000fd5b600061049c6104ee565b6102a76001600160a01b038516848461062f565b6104b86104ee565b6001600160a01b0381166104e257604051631e4fbdf760e01b8152600060048201526024016101e6565b6104eb81610549565b50565b336105207f9016d09d72d40fdae2fd8ceac6b6234c7706214fd39c1cd1e609a0528c199300546001600160a01b031690565b6001600160a01b0316146101ba5760405163118cdaa760e01b81523360048201526024016101e6565b7f9016d09d72d40fdae2fd8ceac6b6234c7706214fd39c1cd1e609a0528c19930080546001600160a01b031981166001600160a01b03848116918217845560405192169182907f8be0079c531659141344cd1fd0a4f28419497f9722a3daafe3b4186f6b6457e090600090a3505050565b6105c26106c5565b6104eb8161070e565b6040516001600160a01b0383811660248301526044820183905261062a91859182169063a9059cbb906064015b604051602081830303815290604052915060e01b6020820180516001600160e01b038381831617835250505050610716565b505050565b604080516001600160a01b038416602482015260448082018490528251808303909101815260649091019091526020810180516001600160e01b031663095ea7b360e01b1790526106808482610779565b6106bf576040516001600160a01b038481166024830152600060448301526106b591869182169063095ea7b3906064016105f8565b6106bf8482610716565b50505050565b7ff0c57e16840df040f15088dc2f81fe391c3923bec73e23a9662efc9c229c6a0054600160401b900460ff166101ba57604051631afcd79f60e31b815260040160405180910390fd5b6104b86106c5565b600061072b6001600160a01b03841683610821565b9050805160001415801561075057508080602001905181019061074e91906109c7565b155b1561062a57604051635274afe760e01b81526001600160a01b03841660048201526024016101e6565b6000806000846001600160a01b03168460405161079691906109e9565b6000604051808303816000865af19150503d80600081146107d3576040519150601f19603f3d011682016040523d82523d6000602084013e6107d8565b606091505b509150915081801561080257508051158061080257508080602001905181019061080291906109c7565b801561081857506000856001600160a01b03163b115b95945050505050565b60606104348383600084600080856001600160a01b0316848660405161084791906109e9565b60006040518083038185875af1925050503d8060008114610884576040519150601f19603f3d011682016040523d82523d6000602084013e610889565b606091505b50915091506108998683836108a3565b9695505050505050565b6060826108b8576108b3826108ff565b610434565b81511580156108cf57506001600160a01b0384163b155b156108f857604051639996b31560e01b81526001600160a01b03851660048201526024016101e6565b5080610434565b80511561090f5780518082602001fd5b604051630a12f52160e11b815260040160405180910390fd5b6001600160a01b03811681146104eb57600080fd5b6000806040838503121561095057600080fd5b823561095b81610928565b946020939093013593505050565b60008060006060848603121561097e57600080fd5b833561098981610928565b9250602084013561099981610928565b929592945050506040919091013590565b6000602082840312156109bc57600080fd5b813561043481610928565b6000602082840312156109d957600080fd5b8151801515811461043457600080fd5b6000825160005b81811015610a0a57602081860181015185830152016109f0565b50600092019182525091905056fea2646970667358221220765a6a18de374c2333d83977a8453fe1a9b8484f1d673e9c58ec2f4067d5d16964736f6c63430008140033",
  "linkReferences": {},
  "deployedLinkReferences": {}
}