{
  "_format": "hh-sol-artifact-1",
  "contractName": "ERC721Mock",
  "sourceName": "contracts/ERC721Mock.sol",
  "abi": [
    {
      "inputs": [],
      "stateMutability": "nonpayable",
      "type": "constructor"
    },
    {
      "inputs": [
        {
          "internalType": "address",
          "name": "sender",
          "type": "address"
        },
        {
          "internalType": "uint256",
          "name": "tokenId",
          "type": "uint256"
        },
        {
          "internalType": "address",
          "name": "owner",
          "type": "address"
        }
      ],
      "name": "ERC721IncorrectOwner",
      "type": "error"
    },
    {
      "inputs": [
        {
          "internalType": "address",
          "name": "operator",
          "type": "address"
        },
        {
          "internalType": "uint256",
          "name": "tokenId",
          "type": "uint256"
        }
      ],
      "name": "ERC721InsufficientApproval",
      "type": "error"
    },
    {
      "inputs": [
        {
          "internalType": "address",
          "name": "approver",
          "type": "address"
        }
      ],
      "name": "ERC721InvalidApprover",
      "type": "error"
    },
    {
      "inputs": [
        {
          "internalType": "address",
          "name": "operator",
          "type": "address"
        }
      ],
      "name": "ERC721InvalidOperator",
      "type": "error"
    },
    {
      "inputs": [
        {
          "internalType": "address",
          "name": "owner",
          "type": "address"
        }
      ],
      "name": "ERC721InvalidOwner",
      "type": "error"
    },
    {
      "inputs": [
        {
          "internalType": "address",
          "name": "receiver",
          "type": "address"
        }
      ],
      "name": "ERC721InvalidReceiver",
      "type": "error"
    },
    {
      "inputs": [
        {
          "internalType": "address",
          "name": "sender",
          "type": "address"
        }
      ],
      "name": "ERC721InvalidSender",
      "type": "error"
    },
    {
      "inputs": [],
      "name": "ERC721MockTransferProhibited",
      "type": "error"
    },
    {
      "inputs": [
        {
          "internalType": "uint256",
          "name": "tokenId",
          "type": "uint256"
        }
      ],
      "name": "ERC721NonexistentToken",
      "type": "error"
    },
    {
      "inputs": [],
      "name": "InvalidInitialization",
      "type": "error"
    },
    {
      "inputs": [],
      "name": "NotInitializing",
      "type": "error"
    },
    {
      "inputs": [
        {
          "internalType": "address",
          "name": "owner",
          "type": "address"
        }
      ],
      "name": "OwnableInvalidOwner",
      "type": "error"
    },
    {
      "inputs": [
        {
          "internalType": "address",
          "name": "account",
          "type": "address"
        }
      ],
      "name": "OwnableUnauthorizedAccount",
      "type": "error"
    },
    {
      "anonymous": false,
      "inputs": [
        {
          "indexed": true,
          "internalType": "address",
          "name": "owner",
          "type": "address"
        },
        {
          "indexed": true,
          "internalType": "address",
          "name": "approved",
          "type": "address"
        },
        {
          "indexed": true,
          "internalType": "uint256",
          "name": "tokenId",
          "type": "uint256"
        }
      ],
      "name": "Approval",
      "type": "event"
    },
    {
      "anonymous": false,
      "inputs": [
        {
          "indexed": true,
          "internalType": "address",
          "name": "owner",
          "type": "address"
        },
        {
          "indexed": true,
          "internalType": "address",
          "name": "operator",
          "type": "address"
        },
        {
          "indexed": false,
          "internalType": "bool",
          "name": "approved",
          "type": "bool"
        }
      ],
      "name": "ApprovalForAll",
      "type": "event"
    },
    {
      "anonymous": false,
      "inputs": [
        {
          "indexed": false,
          "internalType": "uint64",
          "name": "version",
          "type": "uint64"
        }
      ],
      "name": "Initialized",
      "type": "event"
    },
    {
      "anonymous": false,
      "inputs": [
        {
          "indexed": true,
          "internalType": "address",
          "name": "previousOwner",
          "type": "address"
        },
        {
          "indexed": true,
          "internalType": "address",
          "name": "newOwner",
          "type": "address"
        }
      ],
      "name": "OwnershipTransferred",
      "type": "event"
    },
    {
      "anonymous": false,
      "inputs": [
        {
          "indexed": true,
          "internalType": "address",
          "name": "from",
          "type": "address"
        },
        {
          "indexed": true,
          "internalType": "address",
          "name": "to",
          "type": "address"
        },
        {
          "indexed": true,
          "internalType": "uint256",
          "name": "tokenId",
          "type": "uint256"
        }
      ],
      "name": "Transfer",
      "type": "event"
    },
    {
      "stateMutability": "payable",
      "type": "fallback"
    },
    {
      "inputs": [
        {
          "internalType": "address",
          "name": "to",
          "type": "address"
        },
        {
          "internalType": "uint256",
          "name": "tokenId",
          "type": "uint256"
        }
      ],
      "name": "approve",
      "outputs": [],
      "stateMutability": "nonpayable",
      "type": "function"
    },
    {
      "inputs": [
        {
          "internalType": "address",
          "name": "owner",
          "type": "address"
        }
      ],
      "name": "balanceOf",
      "outputs": [
        {
          "internalType": "uint256",
          "name": "",
          "type": "uint256"
        }
      ],
      "stateMutability": "view",
      "type": "function"
    },
    {
      "inputs": [
        {
          "internalType": "uint256",
          "name": "tokenId",
          "type": "uint256"
        }
      ],
      "name": "getApproved",
      "outputs": [
        {
          "internalType": "address",
          "name": "",
          "type": "address"
        }
      ],
      "stateMutability": "view",
      "type": "function"
    },
    {
      "inputs": [
        {
          "internalType": "string",
          "name": "name",
          "type": "string"
        },
        {
          "internalType": "string",
          "name": "symbol",
          "type": "string"
        },
        {
          "internalType": "string",
          "name": "uri",
          "type": "string"
        }
      ],
      "name": "initialize",
      "outputs": [],
      "stateMutability": "nonpayable",
      "type": "function"
    },
    {
      "inputs": [
        {
          "internalType": "address",
          "name": "owner",
          "type": "address"
        },
        {
          "internalType": "address",
          "name": "operator",
          "type": "address"
        }
      ],
      "name": "isApprovedForAll",
      "outputs": [
        {
          "internalType": "bool",
          "name": "",
          "type": "bool"
        }
      ],
      "stateMutability": "view",
      "type": "function"
    },
    {
      "inputs": [],
      "name": "name",
      "outputs": [
        {
          "internalType": "string",
          "name": "",
          "type": "string"
        }
      ],
      "stateMutability": "view",
      "type": "function"
    },
    {
      "inputs": [],
      "name": "owner",
      "outputs": [
        {
          "internalType": "address",
          "name": "",
          "type": "address"
        }
      ],
      "stateMutability": "view",
      "type": "function"
    },
    {
      "inputs": [
        {
          "internalType": "uint256",
          "name": "tokenId",
          "type": "uint256"
        }
      ],
      "name": "ownerOf",
      "outputs": [
        {
          "internalType": "address",
          "name": "",
          "type": "address"
        }
      ],
      "stateMutability": "view",
      "type": "function"
    },
    {
      "inputs": [],
      "name": "renounceOwnership",
      "outputs": [],
      "stateMutability": "nonpayable",
      "type": "function"
    },
    {
      "inputs": [
        {
          "internalType": "address",
          "name": "from",
          "type": "address"
        },
        {
          "internalType": "address",
          "name": "to",
          "type": "address"
        },
        {
          "internalType": "uint256",
          "name": "tokenId",
          "type": "uint256"
        }
      ],
      "name": "safeTransferFrom",
      "outputs": [],
      "stateMutability": "nonpayable",
      "type": "function"
    },
    {
      "inputs": [
        {
          "internalType": "address",
          "name": "from",
          "type": "address"
        },
        {
          "internalType": "address",
          "name": "to",
          "type": "address"
        },
        {
          "internalType": "uint256",
          "name": "tokenId",
          "type": "uint256"
        },
        {
          "internalType": "bytes",
          "name": "data",
          "type": "bytes"
        }
      ],
      "name": "safeTransferFrom",
      "outputs": [],
      "stateMutability": "nonpayable",
      "type": "function"
    },
    {
      "inputs": [
        {
          "internalType": "address",
          "name": "operator",
          "type": "address"
        },
        {
          "internalType": "bool",
          "name": "approved",
          "type": "bool"
        }
      ],
      "name": "setApprovalForAll",
      "outputs": [],
      "stateMutability": "nonpayable",
      "type": "function"
    },
    {
      "inputs": [
        {
          "internalType": "bytes4",
          "name": "interfaceId",
          "type": "bytes4"
        }
      ],
      "name": "supportsInterface",
      "outputs": [
        {
          "internalType": "bool",
          "name": "",
          "type": "bool"
        }
      ],
      "stateMutability": "view",
      "type": "function"
    },
    {
      "inputs": [],
      "name": "symbol",
      "outputs": [
        {
          "internalType": "string",
          "name": "",
          "type": "string"
        }
      ],
      "stateMutability": "view",
      "type": "function"
    },
    {
      "inputs": [
        {
          "internalType": "uint256",
          "name": "tokenId",
          "type": "uint256"
        }
      ],
      "name": "tokenURI",
      "outputs": [
        {
          "internalType": "string",
          "name": "",
          "type": "string"
        }
      ],
      "stateMutability": "view",
      "type": "function"
    },
    {
      "inputs": [
        {
          "internalType": "address",
          "name": "",
          "type": "address"
        },
        {
          "internalType": "address",
          "name": "",
          "type": "address"
        },
        {
          "internalType": "uint256",
          "name": "",
          "type": "uint256"
        }
      ],
      "name": "transferFrom",
      "outputs": [],
      "stateMutability": "nonpayable",
      "type": "function"
    },
    {
      "inputs": [
        {
          "internalType": "address",
          "name": "newOwner",
          "type": "address"
        }
      ],
      "name": "transferOwnership",
      "outputs": [],
      "stateMutability": "nonpayable",
      "type": "function"
    },
    {
      "stateMutability": "payable",
      "type": "receive"
    }
  ],
  "bytecode": "0x608060405234801561001057600080fd5b5061001961001e565b6100d0565b7ff0c57e16840df040f15088dc2f81fe391c3923bec73e23a9662efc9c229c6a00805468010000000000000000900460ff161561006e5760405163f92ee8a960e01b815260040160405180910390fd5b80546001600160401b03908116146100cd5780546001600160401b0319166001600160401b0390811782556040519081527fc7f505b2f371ae2175ee4913f4499e1f2633a7b5936321eed1cdaeb6115181d29060200160405180910390a15b50565b611441806100df6000396000f3fe6080604052600436106100f65760003560e01c8063715018a61161008f578063a6487c5311610061578063a6487c53146102c3578063b88d4fde146102e3578063c87b56dd14610303578063e985e9c514610323578063f2fde38b1461034357005b8063715018a61461023c5780638da5cb5b1461025157806395d89b411461028e578063a22cb465146102a357005b806323b872dd116100c857806323b872dd146101ae57806342842e0e146101ce5780636352211e146101ee57806370a082311461020e57005b806301ffc9a7146100ff57806306fdde0314610134578063081812fc14610156578063095ea7b31461018e57005b366100fd57005b005b34801561010b57600080fd5b5061011f61011a366004610ec5565b610363565b60405190151581526020015b60405180910390f35b34801561014057600080fd5b506101496103b5565b60405161012b9190610f32565b34801561016257600080fd5b50610176610171366004610f45565b610459565b6040516001600160a01b03909116815260200161012b565b34801561019a57600080fd5b506100fd6101a9366004610f7a565b6104a1565b3480156101ba57600080fd5b506100fd6101c9366004610fa4565b6104b0565b3480156101da57600080fd5b506100fd6101e9366004610fa4565b6104c9565b3480156101fa57600080fd5b50610176610209366004610f45565b6104e9565b34801561021a57600080fd5b5061022e610229366004610fe0565b6104f4565b60405190815260200161012b565b34801561024857600080fd5b506100fd610555565b34801561025d57600080fd5b507f9016d09d72d40fdae2fd8ceac6b6234c7706214fd39c1cd1e609a0528c199300546001600160a01b0316610176565b34801561029a57600080fd5b50610149610569565b3480156102af57600080fd5b506100fd6102be366004610ffb565b6105a8565b3480156102cf57600080fd5b506100fd6102de3660046110e3565b6105b3565b3480156102ef57600080fd5b506100fd6102fe36600461116b565b6106dc565b34801561030f57600080fd5b5061014961031e366004610f45565b6106f9565b34801561032f57600080fd5b5061011f61033e3660046111e7565b610761565b34801561034f57600080fd5b506100fd61035e366004610fe0565b6107ae565b60006001600160e01b031982166380ac58cd60e01b148061039457506001600160e01b03198216635b5e139f60e01b145b806103af57506301ffc9a760e01b6001600160e01b03198316145b92915050565b6000805160206113ec83398151915280546060919081906103d59061121a565b80601f01602080910402602001604051908101604052809291908181526020018280546104019061121a565b801561044e5780601f106104235761010080835404028352916020019161044e565b820191906000526020600020905b81548152906001019060200180831161043157829003601f168201915b505050505091505090565b6000610464826107ec565b5060008281527f80bb2b638cc20bc4d0a60d66940f3ab4a00c1d7b313497ca82fb0b4ab007930460205260409020546001600160a01b03166103af565b6104ac828233610844565b5050565b60405163550e100360e11b815260040160405180910390fd5b6104e4838383604051806020016040528060008152506106dc565b505050565b60006103af826107ec565b60006000805160206113ec8339815191526001600160a01b038316610534576040516322718ad960e21b8152600060048201526024015b60405180910390fd5b6001600160a01b039092166000908152600390920160205250604090205490565b61055d610851565b61056760006108ac565b565b7f80bb2b638cc20bc4d0a60d66940f3ab4a00c1d7b313497ca82fb0b4ab007930180546060916000805160206113ec833981519152916103d59061121a565b6104ac33838361091d565b7ff0c57e16840df040f15088dc2f81fe391c3923bec73e23a9662efc9c229c6a008054600160401b810460ff16159067ffffffffffffffff166000811580156105f95750825b905060008267ffffffffffffffff1660011480156106165750303b155b905081158015610624575080155b156106425760405163f92ee8a960e01b815260040160405180910390fd5b845467ffffffffffffffff19166001178555831561066c57845460ff60401b1916600160401b1785555b61067688886109ce565b61067f336109e0565b600061068b87826112a2565b5083156106d257845460ff60401b19168555604051600181527fc7f505b2f371ae2175ee4913f4499e1f2633a7b5936321eed1cdaeb6115181d29060200160405180910390a15b5050505050505050565b6106e78484846104b0565b6106f3848484846109f1565b50505050565b6060610704826107ec565b50600061070f610b1a565b9050600081511161072f576040518060200160405280600081525061075a565b8061073984610bac565b60405160200161074a929190611362565b6040516020818303038152906040525b9392505050565b6001600160a01b0391821660009081527f80bb2b638cc20bc4d0a60d66940f3ab4a00c1d7b313497ca82fb0b4ab00793056020908152604080832093909416825291909152205460ff1690565b6107b6610851565b6001600160a01b0381166107e057604051631e4fbdf760e01b81526000600482015260240161052b565b6107e9816108ac565b50565b60008181527f80bb2b638cc20bc4d0a60d66940f3ab4a00c1d7b313497ca82fb0b4ab007930260205260408120546001600160a01b0316806103af57604051637e27328960e01b81526004810184905260240161052b565b6104e48383836001610c3f565b336108837f9016d09d72d40fdae2fd8ceac6b6234c7706214fd39c1cd1e609a0528c199300546001600160a01b031690565b6001600160a01b0316146105675760405163118cdaa760e01b815233600482015260240161052b565b7f9016d09d72d40fdae2fd8ceac6b6234c7706214fd39c1cd1e609a0528c19930080546001600160a01b031981166001600160a01b03848116918217845560405192169182907f8be0079c531659141344cd1fd0a4f28419497f9722a3daafe3b4186f6b6457e090600090a3505050565b6000805160206113ec8339815191526001600160a01b03831661095e57604051630b61174360e31b81526001600160a01b038416600482015260240161052b565b6001600160a01b038481166000818152600584016020908152604080832094881680845294825291829020805460ff191687151590811790915591519182527f17307eab39ab6107e8899845ad3d59bd9653f200f220920489ca2b5937696c31910160405180910390a350505050565b6109d6610d55565b6104ac8282610d9e565b6109e8610d55565b6107e981610dcf565b6001600160a01b0383163b156106f357604051630a85bd0160e11b81526001600160a01b0384169063150b7a0290610a33903390889087908790600401611391565b6020604051808303816000875af1925050508015610a6e575060408051601f3d908101601f19168201909252610a6b918101906113ce565b60015b610ad7573d808015610a9c576040519150601f19603f3d011682016040523d82523d6000602084013e610aa1565b606091505b508051600003610acf57604051633250574960e11b81526001600160a01b038516600482015260240161052b565b805181602001fd5b6001600160e01b03198116630a85bd0160e11b14610b1357604051633250574960e11b81526001600160a01b038516600482015260240161052b565b5050505050565b606060008054610b299061121a565b80601f0160208091040260200160405190810160405280929190818152602001828054610b559061121a565b8015610ba25780601f10610b7757610100808354040283529160200191610ba2565b820191906000526020600020905b815481529060010190602001808311610b8557829003601f168201915b5050505050905090565b60606000610bb983610dd7565b600101905060008167ffffffffffffffff811115610bd957610bd9611037565b6040519080825280601f01601f191660200182016040528015610c03576020820181803683370190505b5090508181016020015b600019016f181899199a1a9b1b9c1cb0b131b232b360811b600a86061a8153600a8504945084610c0d57509392505050565b6000805160206113ec8339815191528180610c6257506001600160a01b03831615155b15610d24576000610c72856107ec565b90506001600160a01b03841615801590610c9e5750836001600160a01b0316816001600160a01b031614155b8015610cb15750610caf8185610761565b155b15610cda5760405163a9fbf51f60e01b81526001600160a01b038516600482015260240161052b565b8215610d225784866001600160a01b0316826001600160a01b03167f8c5be1e5ebec7d5bd14f71427d1e84f3dd0314c0f7b2291e5b200ac8c7c3b92560405160405180910390a45b505b600093845260040160205250506040902080546001600160a01b0319166001600160a01b0392909216919091179055565b7ff0c57e16840df040f15088dc2f81fe391c3923bec73e23a9662efc9c229c6a0054600160401b900460ff1661056757604051631afcd79f60e31b815260040160405180910390fd5b610da6610d55565b6000805160206113ec83398151915280610dc084826112a2565b50600181016106f383826112a2565b6107b6610d55565b60008072184f03e93ff9f4daa797ed6e38ed64bf6a1f0160401b8310610e165772184f03e93ff9f4daa797ed6e38ed64bf6a1f0160401b830492506040015b6d04ee2d6d415b85acef81000000008310610e42576d04ee2d6d415b85acef8100000000830492506020015b662386f26fc100008310610e6057662386f26fc10000830492506010015b6305f5e1008310610e78576305f5e100830492506008015b6127108310610e8c57612710830492506004015b60648310610e9e576064830492506002015b600a83106103af5760010192915050565b6001600160e01b0319811681146107e957600080fd5b600060208284031215610ed757600080fd5b813561075a81610eaf565b60005b83811015610efd578181015183820152602001610ee5565b50506000910152565b60008151808452610f1e816020860160208601610ee2565b601f01601f19169290920160200192915050565b60208152600061075a6020830184610f06565b600060208284031215610f5757600080fd5b5035919050565b80356001600160a01b0381168114610f7557600080fd5b919050565b60008060408385031215610f8d57600080fd5b610f9683610f5e565b946020939093013593505050565b600080600060608486031215610fb957600080fd5b610fc284610f5e565b9250610fd060208501610f5e565b9150604084013590509250925092565b600060208284031215610ff257600080fd5b61075a82610f5e565b6000806040838503121561100e57600080fd5b61101783610f5e565b91506020830135801515811461102c57600080fd5b809150509250929050565b634e487b7160e01b600052604160045260246000fd5b600067ffffffffffffffff8084111561106857611068611037565b604051601f8501601f19908116603f0116810190828211818310171561109057611090611037565b816040528093508581528686860111156110a957600080fd5b858560208301376000602087830101525050509392505050565b600082601f8301126110d457600080fd5b61075a8383356020850161104d565b6000806000606084860312156110f857600080fd5b833567ffffffffffffffff8082111561111057600080fd5b61111c878388016110c3565b9450602086013591508082111561113257600080fd5b61113e878388016110c3565b9350604086013591508082111561115457600080fd5b50611161868287016110c3565b9150509250925092565b6000806000806080858703121561118157600080fd5b61118a85610f5e565b935061119860208601610f5e565b925060408501359150606085013567ffffffffffffffff8111156111bb57600080fd5b8501601f810187136111cc57600080fd5b6111db8782356020840161104d565b91505092959194509250565b600080604083850312156111fa57600080fd5b61120383610f5e565b915061121160208401610f5e565b90509250929050565b600181811c9082168061122e57607f821691505b60208210810361124e57634e487b7160e01b600052602260045260246000fd5b50919050565b601f8211156104e457600081815260208120601f850160051c8101602086101561127b5750805b601f850160051c820191505b8181101561129a57828155600101611287565b505050505050565b815167ffffffffffffffff8111156112bc576112bc611037565b6112d0816112ca845461121a565b84611254565b602080601f83116001811461130557600084156112ed5750858301515b600019600386901b1c1916600185901b17855561129a565b600085815260208120601f198616915b8281101561133457888601518255948401946001909101908401611315565b50858210156113525787850151600019600388901b60f8161c191681555b5050505050600190811b01905550565b60008351611374818460208801610ee2565b835190830190611388818360208801610ee2565b01949350505050565b6001600160a01b03858116825284166020820152604081018390526080606082018190526000906113c490830184610f06565b9695505050505050565b6000602082840312156113e057600080fd5b815161075a81610eaf56fe80bb2b638cc20bc4d0a60d66940f3ab4a00c1d7b313497ca82fb0b4ab0079300a264697066735822122009bd97cec7039522c2a1cacbfb2cca0e543d570825a51a1ce3acaa5a56cef77264736f6c63430008140033",
  "linkReferences": {},
  "deployedLinkReferences": {}
}