{
  "_format": "hh-sol-artifact-1",
  "contractName": "CashbackVaultV1",
  "sourceName": "contracts/cashback/CashbackVaultV1.sol",
  "abi": [
    {
      "inputs": [],
      "stateMutability": "nonpayable",
      "type": "constructor"
    },
    {
      "inputs": [
        {
          "internalType": "address",
          "name": "target",
          "type": "address"
        }
      ],
      "name": "AddressEmptyCode",
      "type": "error"
    },
    {
      "inputs": [
        {
          "internalType": "address",
          "name": "account",
          "type": "address"
        }
      ],
      "name": "AddressInsufficientBalance",
      "type": "error"
    },
    {
      "inputs": [],
      "name": "CashbackVaultV1InvalidWithdrawSignature",
      "type": "error"
    },
    {
      "inputs": [],
      "name": "CashbackVaultV1WithdrawAlreadyCompleted",
      "type": "error"
    },
    {
      "inputs": [],
      "name": "ECDSAInvalidSignature",
      "type": "error"
    },
    {
      "inputs": [
        {
          "internalType": "uint256",
          "name": "length",
          "type": "uint256"
        }
      ],
      "name": "ECDSAInvalidSignatureLength",
      "type": "error"
    },
    {
      "inputs": [
        {
          "internalType": "bytes32",
          "name": "s",
          "type": "bytes32"
        }
      ],
      "name": "ECDSAInvalidSignatureS",
      "type": "error"
    },
    {
      "inputs": [],
      "name": "EnforcedPause",
      "type": "error"
    },
    {
      "inputs": [],
      "name": "ExpectedPause",
      "type": "error"
    },
    {
      "inputs": [],
      "name": "FailedInnerCall",
      "type": "error"
    },
    {
      "inputs": [],
      "name": "InvalidInitialization",
      "type": "error"
    },
    {
      "inputs": [],
      "name": "NotInitializing",
      "type": "error"
    },
    {
      "inputs": [
        {
          "internalType": "address",
          "name": "owner",
          "type": "address"
        }
      ],
      "name": "OwnableInvalidOwner",
      "type": "error"
    },
    {
      "inputs": [
        {
          "internalType": "address",
          "name": "account",
          "type": "address"
        }
      ],
      "name": "OwnableUnauthorizedAccount",
      "type": "error"
    },
    {
      "inputs": [
        {
          "internalType": "address",
          "name": "token",
          "type": "address"
        }
      ],
      "name": "SafeERC20FailedOperation",
      "type": "error"
    },
    {
      "anonymous": false,
      "inputs": [
        {
          "indexed": true,
          "internalType": "address",
          "name": "recipient",
          "type": "address"
        },
        {
          "indexed": false,
          "internalType": "uint80",
          "name": "requestId",
          "type": "uint80"
        },
        {
          "indexed": false,
          "internalType": "uint256",
          "name": "amount",
          "type": "uint256"
        }
      ],
      "name": "CashbackWithdraw",
      "type": "event"
    },
    {
      "anonymous": false,
      "inputs": [
        {
          "indexed": true,
          "internalType": "address",
          "name": "recipient",
          "type": "address"
        },
        {
          "indexed": false,
          "internalType": "uint256",
          "name": "amount",
          "type": "uint256"
        }
      ],
      "name": "CashbackWithdrawCrumbs",
      "type": "event"
    },
    {
      "anonymous": false,
      "inputs": [
        {
          "indexed": false,
          "internalType": "uint64",
          "name": "version",
          "type": "uint64"
        }
      ],
      "name": "Initialized",
      "type": "event"
    },
    {
      "anonymous": false,
      "inputs": [
        {
          "indexed": true,
          "internalType": "address",
          "name": "previousOwner",
          "type": "address"
        },
        {
          "indexed": true,
          "internalType": "address",
          "name": "newOwner",
          "type": "address"
        }
      ],
      "name": "OwnershipTransferred",
      "type": "event"
    },
    {
      "anonymous": false,
      "inputs": [
        {
          "indexed": false,
          "internalType": "address",
          "name": "account",
          "type": "address"
        }
      ],
      "name": "Paused",
      "type": "event"
    },
    {
      "anonymous": false,
      "inputs": [
        {
          "indexed": false,
          "internalType": "address",
          "name": "account",
          "type": "address"
        }
      ],
      "name": "Unpaused",
      "type": "event"
    },
    {
      "inputs": [
        {
          "internalType": "address",
          "name": "_token",
          "type": "address"
        },
        {
          "internalType": "address",
          "name": "_signer",
          "type": "address"
        }
      ],
      "name": "initialize",
      "outputs": [],
      "stateMutability": "nonpayable",
      "type": "function"
    },
    {
      "inputs": [],
      "name": "owner",
      "outputs": [
        {
          "internalType": "address",
          "name": "",
          "type": "address"
        }
      ],
      "stateMutability": "view",
      "type": "function"
    },
    {
      "inputs": [],
      "name": "pause",
      "outputs": [],
      "stateMutability": "nonpayable",
      "type": "function"
    },
    {
      "inputs": [],
      "name": "paused",
      "outputs": [
        {
          "internalType": "bool",
          "name": "",
          "type": "bool"
        }
      ],
      "stateMutability": "view",
      "type": "function"
    },
    {
      "inputs": [],
      "name": "renounceOwnership",
      "outputs": [],
      "stateMutability": "nonpayable",
      "type": "function"
    },
    {
      "inputs": [
        {
          "internalType": "uint80",
          "name": "",
          "type": "uint80"
        }
      ],
      "name": "request",
      "outputs": [
        {
          "internalType": "bool",
          "name": "",
          "type": "bool"
        }
      ],
      "stateMutability": "view",
      "type": "function"
    },
    {
      "inputs": [],
      "name": "signer",
      "outputs": [
        {
          "internalType": "address",
          "name": "",
          "type": "address"
        }
      ],
      "stateMutability": "view",
      "type": "function"
    },
    {
      "inputs": [],
      "name": "token",
      "outputs": [
        {
          "internalType": "address",
          "name": "",
          "type": "address"
        }
      ],
      "stateMutability": "view",
      "type": "function"
    },
    {
      "inputs": [
        {
          "internalType": "address",
          "name": "newOwner",
          "type": "address"
        }
      ],
      "name": "transferOwnership",
      "outputs": [],
      "stateMutability": "nonpayable",
      "type": "function"
    },
    {
      "inputs": [],
      "name": "unpause",
      "outputs": [],
      "stateMutability": "nonpayable",
      "type": "function"
    },
    {
      "inputs": [
        {
          "internalType": "address",
          "name": "recipient",
          "type": "address"
        },
        {
          "internalType": "uint80",
          "name": "requestId",
          "type": "uint80"
        },
        {
          "internalType": "uint256",
          "name": "amount",
          "type": "uint256"
        },
        {
          "internalType": "bytes",
          "name": "signature",
          "type": "bytes"
        }
      ],
      "name": "withdraw",
      "outputs": [],
      "stateMutability": "nonpayable",
      "type": "function"
    },
    {
      "inputs": [
        {
          "internalType": "address",
          "name": "recipient",
          "type": "address"
        },
        {
          "internalType": "uint256",
          "name": "amount",
          "type": "uint256"
        }
      ],
      "name": "withdrawCrumbs",
      "outputs": [],
      "stateMutability": "nonpayable",
      "type": "function"
    }
  ],
  "bytecode": "0x608060405234801561001057600080fd5b5061001961001e565b6100d0565b7ff0c57e16840df040f15088dc2f81fe391c3923bec73e23a9662efc9c229c6a00805468010000000000000000900460ff161561006e5760405163f92ee8a960e01b815260040160405180910390fd5b80546001600160401b03908116146100cd5780546001600160401b0319166001600160401b0390811782556040519081527fc7f505b2f371ae2175ee4913f4499e1f2633a7b5936321eed1cdaeb6115181d29060200160405180910390a15b50565b610e7a806100df6000396000f3fe608060405234801561001057600080fd5b50600436106100b45760003560e01c8063715018a611610071578063715018a6146101605780638456cb59146101685780638da5cb5b14610170578063aea96dc6146101a0578063f2fde38b146101b3578063fc0c546a146101c657600080fd5b8063238ac933146100b95780633f4ba83a146100e957806342b3b539146100f3578063485cc955146101065780635c975abb146101195780636a300c141461013d575b600080fd5b6000546100cc906001600160a01b031681565b6040516001600160a01b0390911681526020015b60405180910390f35b6100f16101d9565b005b6100f1610101366004610c1e565b6101eb565b6100f1610114366004610c48565b610251565b600080516020610e258339815191525460ff165b60405190151581526020016100e0565b61012d61014b366004610c95565b60026020526000908152604090205460ff1681565b6100f161039a565b6100f16103ac565b7f9016d09d72d40fdae2fd8ceac6b6234c7706214fd39c1cd1e609a0528c199300546001600160a01b03166100cc565b6100f16101ae366004610cc6565b6103bc565b6100f16101c1366004610da2565b610562565b6001546100cc906001600160a01b031681565b6101e16105a5565b6101e9610600565b565b6101f36105a5565b60015461020a906001600160a01b03168383610660565b816001600160a01b03167f1a84998461bb05646619352852916378248beb523a7f4742ce205bc5c27e537d8260405161024591815260200190565b60405180910390a25050565b7ff0c57e16840df040f15088dc2f81fe391c3923bec73e23a9662efc9c229c6a008054600160401b810460ff16159067ffffffffffffffff166000811580156102975750825b905060008267ffffffffffffffff1660011480156102b45750303b155b9050811580156102c2575080155b156102e05760405163f92ee8a960e01b815260040160405180910390fd5b845467ffffffffffffffff19166001178555831561030a57845460ff60401b1916600160401b1785555b610313336106b7565b61031b6106c8565b600180546001600160a01b03808a166001600160a01b0319928316179092556000805492891692909116919091179055831561039157845460ff60401b19168555604051600181527fc7f505b2f371ae2175ee4913f4499e1f2633a7b5936321eed1cdaeb6115181d29060200160405180910390a15b50505050505050565b6103a26105a5565b6101e960006106d8565b6103b46105a5565b6101e9610749565b6103c4610792565b6040516001600160b01b031960b085901b1660208201526bffffffffffffffffffffffff19606086901b16602a820152603e8101839052600090605e0160408051601f1981840301815291905280516020909101206000549091506001600160a01b031661046983610463847f19457468657265756d205369676e6564204d6573736167653a0a3332000000006000908152601c91909152603c902090565b906107c3565b6001600160a01b031614610490576040516307c425f160e11b815260040160405180910390fd5b69ffffffffffffffffffff841660009081526002602052604090205460ff16156104cd57604051633f6c8bdd60e01b815260040160405180910390fd5b69ffffffffffffffffffff84166000908152600260205260409020805460ff191660019081179091555461050b906001600160a01b03168685610660565b6040805169ffffffffffffffffffff86168152602081018590526001600160a01b038716917fb8044ce34d1445e63bcceb4343f60fbfb66aa8f978eb2e1ddd817e390700f077910160405180910390a25050505050565b61056a6105a5565b6001600160a01b03811661059957604051631e4fbdf760e01b8152600060048201526024015b60405180910390fd5b6105a2816106d8565b50565b336105d77f9016d09d72d40fdae2fd8ceac6b6234c7706214fd39c1cd1e609a0528c199300546001600160a01b031690565b6001600160a01b0316146101e95760405163118cdaa760e01b8152336004820152602401610590565b6106086107ed565b600080516020610e25833981519152805460ff191681557f5db9ee0a495bf2e6ff9c91a7834c1ba4fdd244a5e8aa4e537bd38aeae4b073aa335b6040516001600160a01b03909116815260200160405180910390a150565b604080516001600160a01b038416602482015260448082018490528251808303909101815260649091019091526020810180516001600160e01b031663a9059cbb60e01b1790526106b290849061081d565b505050565b6106bf610880565b6105a2816108c9565b6106d0610880565b6101e96108d1565b7f9016d09d72d40fdae2fd8ceac6b6234c7706214fd39c1cd1e609a0528c19930080546001600160a01b031981166001600160a01b03848116918217845560405192169182907f8be0079c531659141344cd1fd0a4f28419497f9722a3daafe3b4186f6b6457e090600090a3505050565b610751610792565b600080516020610e25833981519152805460ff191660011781557f62e78cea01bee320cd4e420270b5ea74000d11b0c9f74754ebdbfc544b05a25833610642565b600080516020610e258339815191525460ff16156101e95760405163d93c066560e01b815260040160405180910390fd5b6000806000806107d386866108f2565b9250925092506107e3828261093f565b5090949350505050565b600080516020610e258339815191525460ff166101e957604051638dfc202b60e01b815260040160405180910390fd5b60006108326001600160a01b038416836109fc565b905080516000141580156108575750808060200190518101906108559190610dbd565b155b156106b257604051635274afe760e01b81526001600160a01b0384166004820152602401610590565b7ff0c57e16840df040f15088dc2f81fe391c3923bec73e23a9662efc9c229c6a0054600160401b900460ff166101e957604051631afcd79f60e31b815260040160405180910390fd5b61056a610880565b6108d9610880565b600080516020610e25833981519152805460ff19169055565b6000806000835160410361092c5760208401516040850151606086015160001a61091e88828585610a11565b955095509550505050610938565b50508151600091506002905b9250925092565b600082600381111561095357610953610ddf565b0361095c575050565b600182600381111561097057610970610ddf565b0361098e5760405163f645eedf60e01b815260040160405180910390fd5b60028260038111156109a2576109a2610ddf565b036109c35760405163fce698f760e01b815260048101829052602401610590565b60038260038111156109d7576109d7610ddf565b036109f8576040516335e2f38360e21b815260048101829052602401610590565b5050565b6060610a0a83836000610ae0565b9392505050565b600080807f7fffffffffffffffffffffffffffffff5d576e7357a4501ddfe92f46681b20a0841115610a4c5750600091506003905082610ad6565b604080516000808252602082018084528a905260ff891692820192909252606081018790526080810186905260019060a0016020604051602081039080840390855afa158015610aa0573d6000803e3d6000fd5b5050604051601f1901519150506001600160a01b038116610acc57506000925060019150829050610ad6565b9250600091508190505b9450945094915050565b606081471015610b055760405163cd78605960e01b8152306004820152602401610590565b600080856001600160a01b03168486604051610b219190610df5565b60006040518083038185875af1925050503d8060008114610b5e576040519150601f19603f3d011682016040523d82523d6000602084013e610b63565b606091505b5091509150610b73868383610b7d565b9695505050505050565b606082610b9257610b8d82610bd9565b610a0a565b8151158015610ba957506001600160a01b0384163b155b15610bd257604051639996b31560e01b81526001600160a01b0385166004820152602401610590565b5080610a0a565b805115610be95780518082602001fd5b604051630a12f52160e11b815260040160405180910390fd5b80356001600160a01b0381168114610c1957600080fd5b919050565b60008060408385031215610c3157600080fd5b610c3a83610c02565b946020939093013593505050565b60008060408385031215610c5b57600080fd5b610c6483610c02565b9150610c7260208401610c02565b90509250929050565b803569ffffffffffffffffffff81168114610c1957600080fd5b600060208284031215610ca757600080fd5b610a0a82610c7b565b634e487b7160e01b600052604160045260246000fd5b60008060008060808587031215610cdc57600080fd5b610ce585610c02565b9350610cf360208601610c7b565b925060408501359150606085013567ffffffffffffffff80821115610d1757600080fd5b818701915087601f830112610d2b57600080fd5b813581811115610d3d57610d3d610cb0565b604051601f8201601f19908116603f01168101908382118183101715610d6557610d65610cb0565b816040528281528a6020848701011115610d7e57600080fd5b82602086016020830137600060208483010152809550505050505092959194509250565b600060208284031215610db457600080fd5b610a0a82610c02565b600060208284031215610dcf57600080fd5b81518015158114610a0a57600080fd5b634e487b7160e01b600052602160045260246000fd5b6000825160005b81811015610e165760208186018101518583015201610dfc565b50600092019182525091905056fecd5ed15c6e187e77e9aee88184c21f4f2182ab5827cb3b7e07fbedcd63f03300a264697066735822122087b45bb165c051db9b69352d29f58d0da576c14cb1cfd337402300857c18ae2f64736f6c63430008140033",
  "linkReferences": {},
  "deployedLinkReferences": {}
}