{
  "_format": "hh-sol-artifact-1",
  "contractName": "ERC721V1",
  "sourceName": "contracts/NFT/ERC721V1.sol",
  "abi": [
    {
      "inputs": [],
      "stateMutability": "nonpayable",
      "type": "constructor"
    },
    {
      "inputs": [],
      "name": "ECDSAInvalidSignature",
      "type": "error"
    },
    {
      "inputs": [
        {
          "internalType": "uint256",
          "name": "length",
          "type": "uint256"
        }
      ],
      "name": "ECDSAInvalidSignatureLength",
      "type": "error"
    },
    {
      "inputs": [
        {
          "internalType": "bytes32",
          "name": "s",
          "type": "bytes32"
        }
      ],
      "name": "ECDSAInvalidSignatureS",
      "type": "error"
    },
    {
      "inputs": [
        {
          "internalType": "address",
          "name": "sender",
          "type": "address"
        },
        {
          "internalType": "uint256",
          "name": "tokenId",
          "type": "uint256"
        },
        {
          "internalType": "address",
          "name": "owner",
          "type": "address"
        }
      ],
      "name": "ERC721IncorrectOwner",
      "type": "error"
    },
    {
      "inputs": [
        {
          "internalType": "address",
          "name": "operator",
          "type": "address"
        },
        {
          "internalType": "uint256",
          "name": "tokenId",
          "type": "uint256"
        }
      ],
      "name": "ERC721InsufficientApproval",
      "type": "error"
    },
    {
      "inputs": [
        {
          "internalType": "address",
          "name": "approver",
          "type": "address"
        }
      ],
      "name": "ERC721InvalidApprover",
      "type": "error"
    },
    {
      "inputs": [
        {
          "internalType": "address",
          "name": "operator",
          "type": "address"
        }
      ],
      "name": "ERC721InvalidOperator",
      "type": "error"
    },
    {
      "inputs": [
        {
          "internalType": "address",
          "name": "owner",
          "type": "address"
        }
      ],
      "name": "ERC721InvalidOwner",
      "type": "error"
    },
    {
      "inputs": [
        {
          "internalType": "address",
          "name": "receiver",
          "type": "address"
        }
      ],
      "name": "ERC721InvalidReceiver",
      "type": "error"
    },
    {
      "inputs": [
        {
          "internalType": "address",
          "name": "sender",
          "type": "address"
        }
      ],
      "name": "ERC721InvalidSender",
      "type": "error"
    },
    {
      "inputs": [
        {
          "internalType": "uint256",
          "name": "tokenId",
          "type": "uint256"
        }
      ],
      "name": "ERC721NonexistentToken",
      "type": "error"
    },
    {
      "inputs": [
        {
          "internalType": "address",
          "name": "recipient",
          "type": "address"
        },
        {
          "internalType": "uint256",
          "name": "commission",
          "type": "uint256"
        },
        {
          "internalType": "uint256",
          "name": "value",
          "type": "uint256"
        }
      ],
      "name": "ERC721V1InsufficientFundsForMint",
      "type": "error"
    },
    {
      "inputs": [],
      "name": "ERC721V1InvalidMintSignature",
      "type": "error"
    },
    {
      "inputs": [
        {
          "internalType": "int256",
          "name": "price",
          "type": "int256"
        }
      ],
      "name": "ERC721V1NegativeCommission",
      "type": "error"
    },
    {
      "inputs": [
        {
          "internalType": "address",
          "name": "recipient",
          "type": "address"
        }
      ],
      "name": "ERC721V1TokenAlreadyMinted",
      "type": "error"
    },
    {
      "inputs": [
        {
          "internalType": "address",
          "name": "recipient",
          "type": "address"
        },
        {
          "internalType": "uint256",
          "name": "value",
          "type": "uint256"
        }
      ],
      "name": "ERC721V1TransferFailed",
      "type": "error"
    },
    {
      "inputs": [],
      "name": "ERC721V1TransferForbidden",
      "type": "error"
    },
    {
      "inputs": [],
      "name": "InvalidInitialization",
      "type": "error"
    },
    {
      "inputs": [],
      "name": "NotInitializing",
      "type": "error"
    },
    {
      "inputs": [
        {
          "internalType": "address",
          "name": "owner",
          "type": "address"
        }
      ],
      "name": "OwnableInvalidOwner",
      "type": "error"
    },
    {
      "inputs": [
        {
          "internalType": "address",
          "name": "account",
          "type": "address"
        }
      ],
      "name": "OwnableUnauthorizedAccount",
      "type": "error"
    },
    {
      "anonymous": false,
      "inputs": [
        {
          "indexed": true,
          "internalType": "address",
          "name": "owner",
          "type": "address"
        },
        {
          "indexed": true,
          "internalType": "address",
          "name": "approved",
          "type": "address"
        },
        {
          "indexed": true,
          "internalType": "uint256",
          "name": "tokenId",
          "type": "uint256"
        }
      ],
      "name": "Approval",
      "type": "event"
    },
    {
      "anonymous": false,
      "inputs": [
        {
          "indexed": true,
          "internalType": "address",
          "name": "owner",
          "type": "address"
        },
        {
          "indexed": true,
          "internalType": "address",
          "name": "operator",
          "type": "address"
        },
        {
          "indexed": false,
          "internalType": "bool",
          "name": "approved",
          "type": "bool"
        }
      ],
      "name": "ApprovalForAll",
      "type": "event"
    },
    {
      "anonymous": false,
      "inputs": [
        {
          "indexed": false,
          "internalType": "uint256",
          "name": "oldCommission",
          "type": "uint256"
        },
        {
          "indexed": false,
          "internalType": "uint256",
          "name": "newCommission",
          "type": "uint256"
        }
      ],
      "name": "CommissionChanged",
      "type": "event"
    },
    {
      "anonymous": false,
      "inputs": [
        {
          "indexed": false,
          "internalType": "uint64",
          "name": "version",
          "type": "uint64"
        }
      ],
      "name": "Initialized",
      "type": "event"
    },
    {
      "anonymous": false,
      "inputs": [
        {
          "indexed": true,
          "internalType": "address",
          "name": "recipient",
          "type": "address"
        },
        {
          "indexed": false,
          "internalType": "uint256",
          "name": "tokenId",
          "type": "uint256"
        },
        {
          "indexed": false,
          "internalType": "uint256",
          "name": "commission",
          "type": "uint256"
        },
        {
          "indexed": false,
          "internalType": "string",
          "name": "referral",
          "type": "string"
        }
      ],
      "name": "Minted",
      "type": "event"
    },
    {
      "anonymous": false,
      "inputs": [
        {
          "indexed": true,
          "internalType": "address",
          "name": "previousOwner",
          "type": "address"
        },
        {
          "indexed": true,
          "internalType": "address",
          "name": "newOwner",
          "type": "address"
        }
      ],
      "name": "OwnershipTransferred",
      "type": "event"
    },
    {
      "anonymous": false,
      "inputs": [
        {
          "indexed": true,
          "internalType": "address",
          "name": "from",
          "type": "address"
        },
        {
          "indexed": true,
          "internalType": "address",
          "name": "to",
          "type": "address"
        },
        {
          "indexed": true,
          "internalType": "uint256",
          "name": "tokenId",
          "type": "uint256"
        }
      ],
      "name": "Transfer",
      "type": "event"
    },
    {
      "inputs": [
        {
          "internalType": "address",
          "name": "to",
          "type": "address"
        },
        {
          "internalType": "uint256",
          "name": "tokenId",
          "type": "uint256"
        }
      ],
      "name": "approve",
      "outputs": [],
      "stateMutability": "nonpayable",
      "type": "function"
    },
    {
      "inputs": [
        {
          "internalType": "address",
          "name": "owner",
          "type": "address"
        }
      ],
      "name": "balanceOf",
      "outputs": [
        {
          "internalType": "uint256",
          "name": "",
          "type": "uint256"
        }
      ],
      "stateMutability": "view",
      "type": "function"
    },
    {
      "inputs": [
        {
          "internalType": "uint256",
          "name": "newCommissionUSD",
          "type": "uint256"
        }
      ],
      "name": "changeCommission",
      "outputs": [],
      "stateMutability": "nonpayable",
      "type": "function"
    },
    {
      "inputs": [],
      "name": "commissionETH",
      "outputs": [
        {
          "internalType": "uint256",
          "name": "",
          "type": "uint256"
        }
      ],
      "stateMutability": "view",
      "type": "function"
    },
    {
      "inputs": [],
      "name": "commissionUSD",
      "outputs": [
        {
          "internalType": "uint256",
          "name": "",
          "type": "uint256"
        }
      ],
      "stateMutability": "view",
      "type": "function"
    },
    {
      "inputs": [
        {
          "internalType": "uint256",
          "name": "tokenId",
          "type": "uint256"
        }
      ],
      "name": "getApproved",
      "outputs": [
        {
          "internalType": "address",
          "name": "",
          "type": "address"
        }
      ],
      "stateMutability": "view",
      "type": "function"
    },
    {
      "inputs": [
        {
          "internalType": "string",
          "name": "name",
          "type": "string"
        },
        {
          "internalType": "string",
          "name": "symbol",
          "type": "string"
        },
        {
          "internalType": "string",
          "name": "uri",
          "type": "string"
        },
        {
          "internalType": "uint256",
          "name": "__commissionUSD",
          "type": "uint256"
        },
        {
          "internalType": "address",
          "name": "signer",
          "type": "address"
        },
        {
          "internalType": "address",
          "name": "priceFeed",
          "type": "address"
        },
        {
          "internalType": "address",
          "name": "vault",
          "type": "address"
        }
      ],
      "name": "initialize",
      "outputs": [],
      "stateMutability": "nonpayable",
      "type": "function"
    },
    {
      "inputs": [
        {
          "internalType": "address",
          "name": "owner",
          "type": "address"
        },
        {
          "internalType": "address",
          "name": "operator",
          "type": "address"
        }
      ],
      "name": "isApprovedForAll",
      "outputs": [
        {
          "internalType": "bool",
          "name": "",
          "type": "bool"
        }
      ],
      "stateMutability": "view",
      "type": "function"
    },
    {
      "inputs": [
        {
          "components": [
            {
              "internalType": "address",
              "name": "recipient",
              "type": "address"
            },
            {
              "internalType": "string",
              "name": "referral",
              "type": "string"
            },
            {
              "internalType": "bytes32",
              "name": "message",
              "type": "bytes32"
            },
            {
              "internalType": "bytes",
              "name": "signature",
              "type": "bytes"
            }
          ],
          "internalType": "struct ERC721V1.MintPayload",
          "name": "payload",
          "type": "tuple"
        }
      ],
      "name": "mint",
      "outputs": [],
      "stateMutability": "payable",
      "type": "function"
    },
    {
      "inputs": [],
      "name": "name",
      "outputs": [
        {
          "internalType": "string",
          "name": "",
          "type": "string"
        }
      ],
      "stateMutability": "view",
      "type": "function"
    },
    {
      "inputs": [],
      "name": "owner",
      "outputs": [
        {
          "internalType": "address",
          "name": "",
          "type": "address"
        }
      ],
      "stateMutability": "view",
      "type": "function"
    },
    {
      "inputs": [
        {
          "internalType": "uint256",
          "name": "tokenId",
          "type": "uint256"
        }
      ],
      "name": "ownerOf",
      "outputs": [
        {
          "internalType": "address",
          "name": "",
          "type": "address"
        }
      ],
      "stateMutability": "view",
      "type": "function"
    },
    {
      "inputs": [],
      "name": "renounceOwnership",
      "outputs": [],
      "stateMutability": "nonpayable",
      "type": "function"
    },
    {
      "inputs": [
        {
          "internalType": "address",
          "name": "from",
          "type": "address"
        },
        {
          "internalType": "address",
          "name": "to",
          "type": "address"
        },
        {
          "internalType": "uint256",
          "name": "tokenId",
          "type": "uint256"
        }
      ],
      "name": "safeTransferFrom",
      "outputs": [],
      "stateMutability": "nonpayable",
      "type": "function"
    },
    {
      "inputs": [
        {
          "internalType": "address",
          "name": "from",
          "type": "address"
        },
        {
          "internalType": "address",
          "name": "to",
          "type": "address"
        },
        {
          "internalType": "uint256",
          "name": "tokenId",
          "type": "uint256"
        },
        {
          "internalType": "bytes",
          "name": "data",
          "type": "bytes"
        }
      ],
      "name": "safeTransferFrom",
      "outputs": [],
      "stateMutability": "nonpayable",
      "type": "function"
    },
    {
      "inputs": [
        {
          "internalType": "address",
          "name": "operator",
          "type": "address"
        },
        {
          "internalType": "bool",
          "name": "approved",
          "type": "bool"
        }
      ],
      "name": "setApprovalForAll",
      "outputs": [],
      "stateMutability": "nonpayable",
      "type": "function"
    },
    {
      "inputs": [
        {
          "internalType": "bytes4",
          "name": "interfaceId",
          "type": "bytes4"
        }
      ],
      "name": "supportsInterface",
      "outputs": [
        {
          "internalType": "bool",
          "name": "",
          "type": "bool"
        }
      ],
      "stateMutability": "view",
      "type": "function"
    },
    {
      "inputs": [],
      "name": "symbol",
      "outputs": [
        {
          "internalType": "string",
          "name": "",
          "type": "string"
        }
      ],
      "stateMutability": "view",
      "type": "function"
    },
    {
      "inputs": [
        {
          "internalType": "uint256",
          "name": "tokenId",
          "type": "uint256"
        }
      ],
      "name": "tokenURI",
      "outputs": [
        {
          "internalType": "string",
          "name": "",
          "type": "string"
        }
      ],
      "stateMutability": "view",
      "type": "function"
    },
    {
      "inputs": [],
      "name": "totalSupply",
      "outputs": [
        {
          "internalType": "uint256",
          "name": "",
          "type": "uint256"
        }
      ],
      "stateMutability": "view",
      "type": "function"
    },
    {
      "inputs": [
        {
          "internalType": "address",
          "name": "",
          "type": "address"
        },
        {
          "internalType": "address",
          "name": "",
          "type": "address"
        },
        {
          "internalType": "uint256",
          "name": "",
          "type": "uint256"
        }
      ],
      "name": "transferFrom",
      "outputs": [],
      "stateMutability": "nonpayable",
      "type": "function"
    },
    {
      "inputs": [
        {
          "internalType": "address",
          "name": "newOwner",
          "type": "address"
        }
      ],
      "name": "transferOwnership",
      "outputs": [],
      "stateMutability": "nonpayable",
      "type": "function"
    }
  ],
  "bytecode": "0x608060405234801561001057600080fd5b5061001961001e565b6100d0565b7ff0c57e16840df040f15088dc2f81fe391c3923bec73e23a9662efc9c229c6a00805468010000000000000000900460ff161561006e5760405163f92ee8a960e01b815260040160405180910390fd5b80546001600160401b03908116146100cd5780546001600160401b0319166001600160401b0390811782556040519081527fc7f505b2f371ae2175ee4913f4499e1f2633a7b5936321eed1cdaeb6115181d29060200160405180910390a15b50565b6120cf80620000e06000396000f3fe6080604052600436106101355760003560e01c8063715018a6116100ab578063a22cb4651161006f578063a22cb46514610352578063b88d4fde14610372578063c87b56dd14610392578063df922f3a146103b2578063e985e9c5146103d2578063f2fde38b146103f257600080fd5b8063715018a6146102b65780637a19b2b8146102cb5780637f812575146102e05780638da5cb5b1461030057806395d89b411461033d57600080fd5b806311d30767116100fd57806311d30767146101fe57806318160ddd1461022157806323b872dd1461023657806342842e0e146102565780636352211e1461027657806370a082311461029657600080fd5b806301ffc9a71461013a57806306fdde031461016f578063081812fc14610191578063095ea7b3146101c957806311b93445146101eb575b600080fd5b34801561014657600080fd5b5061015a610155366004611826565b610412565b60405190151581526020015b60405180910390f35b34801561017b57600080fd5b50610184610464565b6040516101669190611893565b34801561019d57600080fd5b506101b16101ac3660046118a6565b610508565b6040516001600160a01b039091168152602001610166565b3480156101d557600080fd5b506101e96101e43660046118db565b61051d565b005b6101e96101f93660046119d1565b61052c565b34801561020a57600080fd5b5061021361078f565b604051908152602001610166565b34801561022d57600080fd5b50600154610213565b34801561024257600080fd5b506101e9610251366004611a7d565b6108c6565b34801561026257600080fd5b506101e9610271366004611a7d565b6108df565b34801561028257600080fd5b506101b16102913660046118a6565b6108ff565b3480156102a257600080fd5b506102136102b1366004611ab9565b61090a565b3480156102c257600080fd5b506101e9610966565b3480156102d757600080fd5b50600254610213565b3480156102ec57600080fd5b506101e96102fb366004611ad4565b61097a565b34801561030c57600080fd5b507f9016d09d72d40fdae2fd8ceac6b6234c7706214fd39c1cd1e609a0528c199300546001600160a01b03166101b1565b34801561034957600080fd5b50610184610ae9565b34801561035e57600080fd5b506101e961036d366004611b98565b610b28565b34801561037e57600080fd5b506101e961038d366004611bd4565b610b33565b34801561039e57600080fd5b506101846103ad3660046118a6565b610b50565b3480156103be57600080fd5b506101e96103cd3660046118a6565b610bb8565b3480156103de57600080fd5b5061015a6103ed366004611c3c565b610c05565b3480156103fe57600080fd5b506101e961040d366004611ab9565b610c52565b60006001600160e01b031982166380ac58cd60e01b148061044357506001600160e01b03198216635b5e139f60e01b145b8061045e57506301ffc9a760e01b6001600160e01b03198316145b92915050565b60008051602061207a833981519152805460609190819061048490611c6f565b80601f01602080910402602001604051908101604052809291908181526020018280546104b090611c6f565b80156104fd5780601f106104d2576101008083540402835291602001916104fd565b820191906000526020600020905b8154815290600101906020018083116104e057829003601f168201915b505050505091505090565b600061051382610c90565b5061045e82610cc8565b610528828233610d02565b5050565b600354606082015160408301516001600160a01b039092169161054e91610d0f565b6001600160a01b031614610575576040516349f32f0160e11b815260040160405180910390fd5b3360006105818261090a565b11156105b0576040516365f273e960e01b81526001600160a01b03821660048201526024015b60405180910390fd5b60006105ba61078f565b9050803410156105f557604051634af7288d60e11b81526001600160a01b0383166004820152602481018290523460448201526064016105a7565b6005546040516000916001600160a01b03169083908381818185875af1925050503d8060008114610642576040519150601f19603f3d011682016040523d82523d6000602084013e610647565b606091505b505090508061067f576005546040516309955be960e21b81526001600160a01b039091166004820152602481018390526044016105a7565b8134111561071e5760006106938334611cbf565b90506000846001600160a01b03168260405160006040518083038185875af1925050503d80600081146106e2576040519150601f19603f3d011682016040523d82523d6000602084013e6106e7565b606091505b505090508061071b576040516309955be960e21b81526001600160a01b0386166004820152602481018390526044016105a7565b50505b600180546000918261072f83611cd2565b91905055905061073f8482610d39565b836001600160a01b03167ff2cb5e52049d127ad1c335f1cc25f2fdbc911bec1beb2611f4c1e8b1c274d4b48285886020015160405161078093929190611ceb565b60405180910390a25050505050565b6004805460408051633fabe5a360e21b8152905160009384936001600160a01b03169263feaf968c928183019260a0928290030181865afa1580156107d8573d6000803e3d6000fd5b505050506040513d601f19601f820116820180604052508101906107fc9190611d2d565b505050915050600081136108265760405163ea9a436360e01b8152600481018290526024016105a7565b80600460009054906101000a90046001600160a01b03166001600160a01b031663313ce5676040518163ffffffff1660e01b8152600401602060405180830381865afa15801561087a573d6000803e3d6000fd5b505050506040513d601f19601f8201168201806040525081019061089e9190611d7d565b6108a990600a611e84565b6002546108b69190611e93565b6108c09190611eaa565b91505090565b604051637d8626bf60e11b815260040160405180910390fd5b6108fa83838360405180602001604052806000815250610b33565b505050565b600061045e82610c90565b600060008051602061207a8339815191526001600160a01b038316610945576040516322718ad960e21b8152600060048201526024016105a7565b6001600160a01b039092166000908152600390920160205250604090205490565b61096e610d53565b6109786000610dae565b565b7ff0c57e16840df040f15088dc2f81fe391c3923bec73e23a9662efc9c229c6a008054600160401b810460ff16159067ffffffffffffffff166000811580156109c05750825b905060008267ffffffffffffffff1660011480156109dd5750303b155b9050811580156109eb575080155b15610a095760405163f92ee8a960e01b815260040160405180910390fd5b845467ffffffffffffffff191660011785558315610a3357845460ff60401b1916600160401b1785555b610a3d8c8c610e1f565b610a4633610e31565b6000610a528b82611f1a565b506002899055600380546001600160a01b03808b166001600160a01b031992831617909255600480548a841690831617905560058054928916929091169190911790558315610adb57845460ff60401b19168555604051600181527fc7f505b2f371ae2175ee4913f4499e1f2633a7b5936321eed1cdaeb6115181d29060200160405180910390a15b505050505050505050505050565b7f80bb2b638cc20bc4d0a60d66940f3ab4a00c1d7b313497ca82fb0b4ab0079301805460609160008051602061207a8339815191529161048490611c6f565b610528338383610e42565b610b3e8484846108c6565b610b4a84848484610ef3565b50505050565b6060610b5b82610c90565b506000610b6661101c565b90506000815111610b865760405180602001604052806000815250610bb1565b80610b90846110ae565b604051602001610ba1929190611fda565b6040516020818303038152906040525b9392505050565b610bc0610d53565b600280549082905560408051828152602081018490527f9b8c4484ba5e4a0dde5339b45a03dd83281d6b1958617ee553dfbcd3532b0e2a910160405180910390a15050565b6001600160a01b0391821660009081527f80bb2b638cc20bc4d0a60d66940f3ab4a00c1d7b313497ca82fb0b4ab00793056020908152604080832093909416825291909152205460ff1690565b610c5a610d53565b6001600160a01b038116610c8457604051631e4fbdf760e01b8152600060048201526024016105a7565b610c8d81610dae565b50565b600080610c9c83611141565b90506001600160a01b03811661045e57604051637e27328960e01b8152600481018490526024016105a7565b60009081527f80bb2b638cc20bc4d0a60d66940f3ab4a00c1d7b313497ca82fb0b4ab007930460205260409020546001600160a01b031690565b6108fa838383600161117b565b600080600080610d1f8686611291565b925092509250610d2f82826112de565b5090949350505050565b610528828260405180602001604052806000815250611397565b33610d857f9016d09d72d40fdae2fd8ceac6b6234c7706214fd39c1cd1e609a0528c199300546001600160a01b031690565b6001600160a01b0316146109785760405163118cdaa760e01b81523360048201526024016105a7565b7f9016d09d72d40fdae2fd8ceac6b6234c7706214fd39c1cd1e609a0528c19930080546001600160a01b031981166001600160a01b03848116918217845560405192169182907f8be0079c531659141344cd1fd0a4f28419497f9722a3daafe3b4186f6b6457e090600090a3505050565b610e276113ae565b61052882826113f7565b610e396113ae565b610c8d81611428565b60008051602061207a8339815191526001600160a01b038316610e8357604051630b61174360e31b81526001600160a01b03841660048201526024016105a7565b6001600160a01b038481166000818152600584016020908152604080832094881680845294825291829020805460ff191687151590811790915591519182527f17307eab39ab6107e8899845ad3d59bd9653f200f220920489ca2b5937696c31910160405180910390a350505050565b6001600160a01b0383163b15610b4a57604051630a85bd0160e11b81526001600160a01b0384169063150b7a0290610f35903390889087908790600401612009565b6020604051808303816000875af1925050508015610f70575060408051601f3d908101601f19168201909252610f6d91810190612046565b60015b610fd9573d808015610f9e576040519150601f19603f3d011682016040523d82523d6000602084013e610fa3565b606091505b508051600003610fd157604051633250574960e11b81526001600160a01b03851660048201526024016105a7565b805181602001fd5b6001600160e01b03198116630a85bd0160e11b1461101557604051633250574960e11b81526001600160a01b03851660048201526024016105a7565b5050505050565b60606000805461102b90611c6f565b80601f016020809104026020016040519081016040528092919081815260200182805461105790611c6f565b80156110a45780601f10611079576101008083540402835291602001916110a4565b820191906000526020600020905b81548152906001019060200180831161108757829003601f168201915b5050505050905090565b606060006110bb83611430565b600101905060008167ffffffffffffffff8111156110db576110db611905565b6040519080825280601f01601f191660200182016040528015611105576020820181803683370190505b5090508181016020015b600019016f181899199a1a9b1b9c1cb0b131b232b360811b600a86061a8153600a850494508461110f57509392505050565b60009081527f80bb2b638cc20bc4d0a60d66940f3ab4a00c1d7b313497ca82fb0b4ab007930260205260409020546001600160a01b031690565b60008051602061207a833981519152818061119e57506001600160a01b03831615155b156112605760006111ae85610c90565b90506001600160a01b038416158015906111da5750836001600160a01b0316816001600160a01b031614155b80156111ed57506111eb8185610c05565b155b156112165760405163a9fbf51f60e01b81526001600160a01b03851660048201526024016105a7565b821561125e5784866001600160a01b0316826001600160a01b03167f8c5be1e5ebec7d5bd14f71427d1e84f3dd0314c0f7b2291e5b200ac8c7c3b92560405160405180910390a45b505b600093845260040160205250506040902080546001600160a01b0319166001600160a01b0392909216919091179055565b600080600083516041036112cb5760208401516040850151606086015160001a6112bd88828585611508565b9550955095505050506112d7565b50508151600091506002905b9250925092565b60008260038111156112f2576112f2612063565b036112fb575050565b600182600381111561130f5761130f612063565b0361132d5760405163f645eedf60e01b815260040160405180910390fd5b600282600381111561134157611341612063565b036113625760405163fce698f760e01b8152600481018290526024016105a7565b600382600381111561137657611376612063565b03610528576040516335e2f38360e21b8152600481018290526024016105a7565b6113a183836115d7565b6108fa6000848484610ef3565b7ff0c57e16840df040f15088dc2f81fe391c3923bec73e23a9662efc9c229c6a0054600160401b900460ff1661097857604051631afcd79f60e31b815260040160405180910390fd5b6113ff6113ae565b60008051602061207a833981519152806114198482611f1a565b5060018101610b4a8382611f1a565b610c5a6113ae565b60008072184f03e93ff9f4daa797ed6e38ed64bf6a1f0160401b831061146f5772184f03e93ff9f4daa797ed6e38ed64bf6a1f0160401b830492506040015b6d04ee2d6d415b85acef8100000000831061149b576d04ee2d6d415b85acef8100000000830492506020015b662386f26fc1000083106114b957662386f26fc10000830492506010015b6305f5e10083106114d1576305f5e100830492506008015b61271083106114e557612710830492506004015b606483106114f7576064830492506002015b600a831061045e5760010192915050565b600080807f7fffffffffffffffffffffffffffffff5d576e7357a4501ddfe92f46681b20a084111561154357506000915060039050826115cd565b604080516000808252602082018084528a905260ff891692820192909252606081018790526080810186905260019060a0016020604051602081039080840390855afa158015611597573d6000803e3d6000fd5b5050604051601f1901519150506001600160a01b0381166115c3575060009250600191508290506115cd565b9250600091508190505b9450945094915050565b6001600160a01b03821661160157604051633250574960e11b8152600060048201526024016105a7565b600061160f8383600061163c565b90506001600160a01b038116156108fa576040516339e3563760e11b8152600060048201526024016105a7565b600060008051602061207a8339815191528161165785611141565b90506001600160a01b0384161561167357611673818587611746565b6001600160a01b038116156116b35761169060008660008061117b565b6001600160a01b0381166000908152600383016020526040902080546000190190555b6001600160a01b038616156116e4576001600160a01b03861660009081526003830160205260409020805460010190555b600085815260028301602052604080822080546001600160a01b0319166001600160a01b038a811691821790925591518893918516917fddf252ad1be2c89b69c2b068fc378daa952ba7f163c4a11628f55a4df523b3ef91a495945050505050565b6117518383836117aa565b6108fa576001600160a01b03831661177f57604051637e27328960e01b8152600481018290526024016105a7565b60405163177e802f60e01b81526001600160a01b0383166004820152602481018290526044016105a7565b60006001600160a01b038316158015906118085750826001600160a01b0316846001600160a01b031614806117e457506117e48484610c05565b806118085750826001600160a01b03166117fd83610cc8565b6001600160a01b0316145b949350505050565b6001600160e01b031981168114610c8d57600080fd5b60006020828403121561183857600080fd5b8135610bb181611810565b60005b8381101561185e578181015183820152602001611846565b50506000910152565b6000815180845261187f816020860160208601611843565b601f01601f19169290920160200192915050565b602081526000610bb16020830184611867565b6000602082840312156118b857600080fd5b5035919050565b80356001600160a01b03811681146118d657600080fd5b919050565b600080604083850312156118ee57600080fd5b6118f7836118bf565b946020939093013593505050565b634e487b7160e01b600052604160045260246000fd5b6040516080810167ffffffffffffffff8111828210171561193e5761193e611905565b60405290565b600082601f83011261195557600080fd5b813567ffffffffffffffff8082111561197057611970611905565b604051601f8301601f19908116603f0116810190828211818310171561199857611998611905565b816040528381528660208588010111156119b157600080fd5b836020870160208301376000602085830101528094505050505092915050565b6000602082840312156119e357600080fd5b813567ffffffffffffffff808211156119fb57600080fd5b9083019060808286031215611a0f57600080fd5b611a1761191b565b611a20836118bf565b8152602083013582811115611a3457600080fd5b611a4087828601611944565b60208301525060408301356040820152606083013582811115611a6257600080fd5b611a6e87828601611944565b60608301525095945050505050565b600080600060608486031215611a9257600080fd5b611a9b846118bf565b9250611aa9602085016118bf565b9150604084013590509250925092565b600060208284031215611acb57600080fd5b610bb1826118bf565b600080600080600080600060e0888a031215611aef57600080fd5b873567ffffffffffffffff80821115611b0757600080fd5b611b138b838c01611944565b985060208a0135915080821115611b2957600080fd5b611b358b838c01611944565b975060408a0135915080821115611b4b57600080fd5b50611b588a828b01611944565b95505060608801359350611b6e608089016118bf565b9250611b7c60a089016118bf565b9150611b8a60c089016118bf565b905092959891949750929550565b60008060408385031215611bab57600080fd5b611bb4836118bf565b915060208301358015158114611bc957600080fd5b809150509250929050565b60008060008060808587031215611bea57600080fd5b611bf3856118bf565b9350611c01602086016118bf565b925060408501359150606085013567ffffffffffffffff811115611c2457600080fd5b611c3087828801611944565b91505092959194509250565b60008060408385031215611c4f57600080fd5b611c58836118bf565b9150611c66602084016118bf565b90509250929050565b600181811c90821680611c8357607f821691505b602082108103611ca357634e487b7160e01b600052602260045260246000fd5b50919050565b634e487b7160e01b600052601160045260246000fd5b8181038181111561045e5761045e611ca9565b600060018201611ce457611ce4611ca9565b5060010190565b838152826020820152606060408201526000611d0a6060830184611867565b95945050505050565b805169ffffffffffffffffffff811681146118d657600080fd5b600080600080600060a08688031215611d4557600080fd5b611d4e86611d13565b9450602086015193506040860151925060608601519150611d7160808701611d13565b90509295509295909350565b600060208284031215611d8f57600080fd5b815160ff81168114610bb157600080fd5b600181815b80851115611ddb578160001904821115611dc157611dc1611ca9565b80851615611dce57918102915b93841c9390800290611da5565b509250929050565b600082611df25750600161045e565b81611dff5750600061045e565b8160018114611e155760028114611e1f57611e3b565b600191505061045e565b60ff841115611e3057611e30611ca9565b50506001821b61045e565b5060208310610133831016604e8410600b8410161715611e5e575081810a61045e565b611e688383611da0565b8060001904821115611e7c57611e7c611ca9565b029392505050565b6000610bb160ff841683611de3565b808202811582820484141761045e5761045e611ca9565b600082611ec757634e487b7160e01b600052601260045260246000fd5b500490565b601f8211156108fa57600081815260208120601f850160051c81016020861015611ef35750805b601f850160051c820191505b81811015611f1257828155600101611eff565b505050505050565b815167ffffffffffffffff811115611f3457611f34611905565b611f4881611f428454611c6f565b84611ecc565b602080601f831160018114611f7d5760008415611f655750858301515b600019600386901b1c1916600185901b178555611f12565b600085815260208120601f198616915b82811015611fac57888601518255948401946001909101908401611f8d565b5085821015611fca5787850151600019600388901b60f8161c191681555b5050505050600190811b01905550565b60008351611fec818460208801611843565b835190830190612000818360208801611843565b01949350505050565b6001600160a01b038581168252841660208201526040810183905260806060820181905260009061203c90830184611867565b9695505050505050565b60006020828403121561205857600080fd5b8151610bb181611810565b634e487b7160e01b600052602160045260246000fdfe80bb2b638cc20bc4d0a60d66940f3ab4a00c1d7b313497ca82fb0b4ab0079300a26469706673582212203190ee6511032b15a32218020b1ac55086676e93ecb9b4c8a8f6ee069571654164736f6c63430008140033",
  "linkReferences": {},
  "deployedLinkReferences": {}
}