{
  "_format": "hh-sol-artifact-1",
  "contractName": "ERC721V1",
  "sourceName": "contracts/NFT/ERC721V1.sol",
  "abi": [
    {
      "inputs": [],
      "stateMutability": "nonpayable",
      "type": "constructor"
    },
    {
      "inputs": [],
      "name": "ECDSAInvalidSignature",
      "type": "error"
    },
    {
      "inputs": [
        {
          "internalType": "uint256",
          "name": "length",
          "type": "uint256"
        }
      ],
      "name": "ECDSAInvalidSignatureLength",
      "type": "error"
    },
    {
      "inputs": [
        {
          "internalType": "bytes32",
          "name": "s",
          "type": "bytes32"
        }
      ],
      "name": "ECDSAInvalidSignatureS",
      "type": "error"
    },
    {
      "inputs": [
        {
          "internalType": "address",
          "name": "sender",
          "type": "address"
        },
        {
          "internalType": "uint256",
          "name": "tokenId",
          "type": "uint256"
        },
        {
          "internalType": "address",
          "name": "owner",
          "type": "address"
        }
      ],
      "name": "ERC721IncorrectOwner",
      "type": "error"
    },
    {
      "inputs": [
        {
          "internalType": "address",
          "name": "operator",
          "type": "address"
        },
        {
          "internalType": "uint256",
          "name": "tokenId",
          "type": "uint256"
        }
      ],
      "name": "ERC721InsufficientApproval",
      "type": "error"
    },
    {
      "inputs": [
        {
          "internalType": "address",
          "name": "approver",
          "type": "address"
        }
      ],
      "name": "ERC721InvalidApprover",
      "type": "error"
    },
    {
      "inputs": [
        {
          "internalType": "address",
          "name": "operator",
          "type": "address"
        }
      ],
      "name": "ERC721InvalidOperator",
      "type": "error"
    },
    {
      "inputs": [
        {
          "internalType": "address",
          "name": "owner",
          "type": "address"
        }
      ],
      "name": "ERC721InvalidOwner",
      "type": "error"
    },
    {
      "inputs": [
        {
          "internalType": "address",
          "name": "receiver",
          "type": "address"
        }
      ],
      "name": "ERC721InvalidReceiver",
      "type": "error"
    },
    {
      "inputs": [
        {
          "internalType": "address",
          "name": "sender",
          "type": "address"
        }
      ],
      "name": "ERC721InvalidSender",
      "type": "error"
    },
    {
      "inputs": [
        {
          "internalType": "uint256",
          "name": "tokenId",
          "type": "uint256"
        }
      ],
      "name": "ERC721NonexistentToken",
      "type": "error"
    },
    {
      "inputs": [
        {
          "internalType": "address",
          "name": "recipient",
          "type": "address"
        },
        {
          "internalType": "uint256",
          "name": "costs",
          "type": "uint256"
        },
        {
          "internalType": "uint256",
          "name": "value",
          "type": "uint256"
        }
      ],
      "name": "ERC721V1InsufficientFundsForMint",
      "type": "error"
    },
    {
      "inputs": [],
      "name": "ERC721V1InvalidMintSignature",
      "type": "error"
    },
    {
      "inputs": [
        {
          "internalType": "int256",
          "name": "price",
          "type": "int256"
        }
      ],
      "name": "ERC721V1NegativeCosts",
      "type": "error"
    },
    {
      "inputs": [
        {
          "internalType": "address",
          "name": "recipient",
          "type": "address"
        },
        {
          "internalType": "uint256",
          "name": "totalSupply",
          "type": "uint256"
        },
        {
          "internalType": "uint256",
          "name": "maxTotalSupply",
          "type": "uint256"
        }
      ],
      "name": "ERC721V1NoTokenAvailable",
      "type": "error"
    },
    {
      "inputs": [
        {
          "internalType": "address",
          "name": "recipient",
          "type": "address"
        }
      ],
      "name": "ERC721V1TokenAlreadyMinted",
      "type": "error"
    },
    {
      "inputs": [
        {
          "internalType": "address",
          "name": "recipient",
          "type": "address"
        },
        {
          "internalType": "uint256",
          "name": "value",
          "type": "uint256"
        }
      ],
      "name": "ERC721V1TransferFailed",
      "type": "error"
    },
    {
      "inputs": [],
      "name": "ERC721V1TransferForbidden",
      "type": "error"
    },
    {
      "inputs": [],
      "name": "InvalidInitialization",
      "type": "error"
    },
    {
      "inputs": [],
      "name": "NotInitializing",
      "type": "error"
    },
    {
      "inputs": [
        {
          "internalType": "address",
          "name": "owner",
          "type": "address"
        }
      ],
      "name": "OwnableInvalidOwner",
      "type": "error"
    },
    {
      "inputs": [
        {
          "internalType": "address",
          "name": "account",
          "type": "address"
        }
      ],
      "name": "OwnableUnauthorizedAccount",
      "type": "error"
    },
    {
      "inputs": [],
      "name": "ReentrancyGuardReentrantCall",
      "type": "error"
    },
    {
      "anonymous": false,
      "inputs": [
        {
          "indexed": true,
          "internalType": "address",
          "name": "owner",
          "type": "address"
        },
        {
          "indexed": true,
          "internalType": "address",
          "name": "approved",
          "type": "address"
        },
        {
          "indexed": true,
          "internalType": "uint256",
          "name": "tokenId",
          "type": "uint256"
        }
      ],
      "name": "Approval",
      "type": "event"
    },
    {
      "anonymous": false,
      "inputs": [
        {
          "indexed": true,
          "internalType": "address",
          "name": "owner",
          "type": "address"
        },
        {
          "indexed": true,
          "internalType": "address",
          "name": "operator",
          "type": "address"
        },
        {
          "indexed": false,
          "internalType": "bool",
          "name": "approved",
          "type": "bool"
        }
      ],
      "name": "ApprovalForAll",
      "type": "event"
    },
    {
      "anonymous": false,
      "inputs": [
        {
          "indexed": false,
          "internalType": "uint256",
          "name": "oldCosts",
          "type": "uint256"
        },
        {
          "indexed": false,
          "internalType": "uint256",
          "name": "newCosts",
          "type": "uint256"
        }
      ],
      "name": "CostsChanged",
      "type": "event"
    },
    {
      "anonymous": false,
      "inputs": [
        {
          "indexed": false,
          "internalType": "uint64",
          "name": "version",
          "type": "uint64"
        }
      ],
      "name": "Initialized",
      "type": "event"
    },
    {
      "anonymous": false,
      "inputs": [
        {
          "indexed": true,
          "internalType": "address",
          "name": "recipient",
          "type": "address"
        },
        {
          "indexed": false,
          "internalType": "uint256",
          "name": "tokenId",
          "type": "uint256"
        },
        {
          "indexed": false,
          "internalType": "uint256",
          "name": "costs",
          "type": "uint256"
        },
        {
          "indexed": false,
          "internalType": "string",
          "name": "referral",
          "type": "string"
        }
      ],
      "name": "Minted",
      "type": "event"
    },
    {
      "anonymous": false,
      "inputs": [
        {
          "indexed": true,
          "internalType": "address",
          "name": "previousOwner",
          "type": "address"
        },
        {
          "indexed": true,
          "internalType": "address",
          "name": "newOwner",
          "type": "address"
        }
      ],
      "name": "OwnershipTransferred",
      "type": "event"
    },
    {
      "anonymous": false,
      "inputs": [
        {
          "indexed": true,
          "internalType": "address",
          "name": "from",
          "type": "address"
        },
        {
          "indexed": true,
          "internalType": "address",
          "name": "to",
          "type": "address"
        },
        {
          "indexed": true,
          "internalType": "uint256",
          "name": "tokenId",
          "type": "uint256"
        }
      ],
      "name": "Transfer",
      "type": "event"
    },
    {
      "inputs": [
        {
          "internalType": "address",
          "name": "to",
          "type": "address"
        },
        {
          "internalType": "uint256",
          "name": "tokenId",
          "type": "uint256"
        }
      ],
      "name": "approve",
      "outputs": [],
      "stateMutability": "nonpayable",
      "type": "function"
    },
    {
      "inputs": [
        {
          "internalType": "address",
          "name": "owner",
          "type": "address"
        }
      ],
      "name": "balanceOf",
      "outputs": [
        {
          "internalType": "uint256",
          "name": "",
          "type": "uint256"
        }
      ],
      "stateMutability": "view",
      "type": "function"
    },
    {
      "inputs": [
        {
          "internalType": "uint256",
          "name": "newCostsUSD",
          "type": "uint256"
        }
      ],
      "name": "changeCosts",
      "outputs": [],
      "stateMutability": "nonpayable",
      "type": "function"
    },
    {
      "inputs": [],
      "name": "costsETH",
      "outputs": [
        {
          "internalType": "uint256",
          "name": "",
          "type": "uint256"
        }
      ],
      "stateMutability": "view",
      "type": "function"
    },
    {
      "inputs": [],
      "name": "costsUSD",
      "outputs": [
        {
          "internalType": "uint256",
          "name": "",
          "type": "uint256"
        }
      ],
      "stateMutability": "view",
      "type": "function"
    },
    {
      "inputs": [
        {
          "internalType": "uint256",
          "name": "tokenId",
          "type": "uint256"
        }
      ],
      "name": "getApproved",
      "outputs": [
        {
          "internalType": "address",
          "name": "",
          "type": "address"
        }
      ],
      "stateMutability": "view",
      "type": "function"
    },
    {
      "inputs": [],
      "name": "id",
      "outputs": [
        {
          "internalType": "bytes32",
          "name": "",
          "type": "bytes32"
        }
      ],
      "stateMutability": "view",
      "type": "function"
    },
    {
      "inputs": [
        {
          "internalType": "bytes32",
          "name": "__id",
          "type": "bytes32"
        },
        {
          "internalType": "uint256",
          "name": "__maxTotalSupply",
          "type": "uint256"
        },
        {
          "internalType": "string",
          "name": "name",
          "type": "string"
        },
        {
          "internalType": "string",
          "name": "symbol",
          "type": "string"
        },
        {
          "internalType": "string",
          "name": "uri",
          "type": "string"
        },
        {
          "internalType": "uint256",
          "name": "__costsUSD",
          "type": "uint256"
        },
        {
          "internalType": "address",
          "name": "signer",
          "type": "address"
        },
        {
          "internalType": "address",
          "name": "priceFeed",
          "type": "address"
        },
        {
          "internalType": "address",
          "name": "vault",
          "type": "address"
        }
      ],
      "name": "initialize",
      "outputs": [],
      "stateMutability": "nonpayable",
      "type": "function"
    },
    {
      "inputs": [
        {
          "internalType": "address",
          "name": "owner",
          "type": "address"
        },
        {
          "internalType": "address",
          "name": "operator",
          "type": "address"
        }
      ],
      "name": "isApprovedForAll",
      "outputs": [
        {
          "internalType": "bool",
          "name": "",
          "type": "bool"
        }
      ],
      "stateMutability": "view",
      "type": "function"
    },
    {
      "inputs": [],
      "name": "maxTotalSupply",
      "outputs": [
        {
          "internalType": "uint256",
          "name": "",
          "type": "uint256"
        }
      ],
      "stateMutability": "view",
      "type": "function"
    },
    {
      "inputs": [
        {
          "components": [
            {
              "internalType": "bytes32",
              "name": "id",
              "type": "bytes32"
            },
            {
              "internalType": "address",
              "name": "recipient",
              "type": "address"
            },
            {
              "internalType": "string",
              "name": "referral",
              "type": "string"
            },
            {
              "internalType": "bytes",
              "name": "signature",
              "type": "bytes"
            }
          ],
          "internalType": "struct ERC721V1.MintPayload",
          "name": "payload",
          "type": "tuple"
        }
      ],
      "name": "mint",
      "outputs": [],
      "stateMutability": "payable",
      "type": "function"
    },
    {
      "inputs": [],
      "name": "name",
      "outputs": [
        {
          "internalType": "string",
          "name": "",
          "type": "string"
        }
      ],
      "stateMutability": "view",
      "type": "function"
    },
    {
      "inputs": [],
      "name": "owner",
      "outputs": [
        {
          "internalType": "address",
          "name": "",
          "type": "address"
        }
      ],
      "stateMutability": "view",
      "type": "function"
    },
    {
      "inputs": [
        {
          "internalType": "uint256",
          "name": "tokenId",
          "type": "uint256"
        }
      ],
      "name": "ownerOf",
      "outputs": [
        {
          "internalType": "address",
          "name": "",
          "type": "address"
        }
      ],
      "stateMutability": "view",
      "type": "function"
    },
    {
      "inputs": [],
      "name": "priceFeed",
      "outputs": [
        {
          "internalType": "address",
          "name": "",
          "type": "address"
        }
      ],
      "stateMutability": "view",
      "type": "function"
    },
    {
      "inputs": [],
      "name": "renounceOwnership",
      "outputs": [],
      "stateMutability": "nonpayable",
      "type": "function"
    },
    {
      "inputs": [
        {
          "internalType": "address",
          "name": "from",
          "type": "address"
        },
        {
          "internalType": "address",
          "name": "to",
          "type": "address"
        },
        {
          "internalType": "uint256",
          "name": "tokenId",
          "type": "uint256"
        }
      ],
      "name": "safeTransferFrom",
      "outputs": [],
      "stateMutability": "nonpayable",
      "type": "function"
    },
    {
      "inputs": [
        {
          "internalType": "address",
          "name": "from",
          "type": "address"
        },
        {
          "internalType": "address",
          "name": "to",
          "type": "address"
        },
        {
          "internalType": "uint256",
          "name": "tokenId",
          "type": "uint256"
        },
        {
          "internalType": "bytes",
          "name": "data",
          "type": "bytes"
        }
      ],
      "name": "safeTransferFrom",
      "outputs": [],
      "stateMutability": "nonpayable",
      "type": "function"
    },
    {
      "inputs": [
        {
          "internalType": "address",
          "name": "operator",
          "type": "address"
        },
        {
          "internalType": "bool",
          "name": "approved",
          "type": "bool"
        }
      ],
      "name": "setApprovalForAll",
      "outputs": [],
      "stateMutability": "nonpayable",
      "type": "function"
    },
    {
      "inputs": [],
      "name": "signer",
      "outputs": [
        {
          "internalType": "address",
          "name": "",
          "type": "address"
        }
      ],
      "stateMutability": "view",
      "type": "function"
    },
    {
      "inputs": [
        {
          "internalType": "bytes4",
          "name": "interfaceId",
          "type": "bytes4"
        }
      ],
      "name": "supportsInterface",
      "outputs": [
        {
          "internalType": "bool",
          "name": "",
          "type": "bool"
        }
      ],
      "stateMutability": "view",
      "type": "function"
    },
    {
      "inputs": [],
      "name": "symbol",
      "outputs": [
        {
          "internalType": "string",
          "name": "",
          "type": "string"
        }
      ],
      "stateMutability": "view",
      "type": "function"
    },
    {
      "inputs": [
        {
          "internalType": "uint256",
          "name": "tokenId",
          "type": "uint256"
        }
      ],
      "name": "tokenURI",
      "outputs": [
        {
          "internalType": "string",
          "name": "",
          "type": "string"
        }
      ],
      "stateMutability": "view",
      "type": "function"
    },
    {
      "inputs": [],
      "name": "totalSupply",
      "outputs": [
        {
          "internalType": "uint256",
          "name": "",
          "type": "uint256"
        }
      ],
      "stateMutability": "view",
      "type": "function"
    },
    {
      "inputs": [
        {
          "internalType": "address",
          "name": "",
          "type": "address"
        },
        {
          "internalType": "address",
          "name": "",
          "type": "address"
        },
        {
          "internalType": "uint256",
          "name": "",
          "type": "uint256"
        }
      ],
      "name": "transferFrom",
      "outputs": [],
      "stateMutability": "nonpayable",
      "type": "function"
    },
    {
      "inputs": [
        {
          "internalType": "address",
          "name": "newOwner",
          "type": "address"
        }
      ],
      "name": "transferOwnership",
      "outputs": [],
      "stateMutability": "nonpayable",
      "type": "function"
    },
    {
      "inputs": [],
      "name": "vault",
      "outputs": [
        {
          "internalType": "address",
          "name": "",
          "type": "address"
        }
      ],
      "stateMutability": "view",
      "type": "function"
    }
  ],
  "bytecode": "0x608060405234801561001057600080fd5b5061001961001e565b6100d0565b7ff0c57e16840df040f15088dc2f81fe391c3923bec73e23a9662efc9c229c6a00805468010000000000000000900460ff161561006e5760405163f92ee8a960e01b815260040160405180910390fd5b80546001600160401b03908116146100cd5780546001600160401b0319166001600160401b0390811782556040519081527fc7f505b2f371ae2175ee4913f4499e1f2633a7b5936321eed1cdaeb6115181d29060200160405180910390a15b50565b6123b680620000e06000396000f3fe60806040526004361061019c5760003560e01c8063715018a6116100ec578063af640d0f1161008a578063e985e9c511610064578063e985e9c514610486578063f2fde38b146104a6578063f800f228146104c6578063fbfa77cf146104db57600080fd5b8063af640d0f14610431578063b88d4fde14610446578063c87b56dd1461046657600080fd5b80638da5cb5b116100c65780638da5cb5b1461039f57806395d89b41146103dc5780639a12cb1e146103f1578063a22cb4651461041157600080fd5b8063715018a614610359578063741bef1a1461036e57806387ca93ce1461038c57600080fd5b806323b872dd116101595780636352211e116101335780636352211e146102e45780636574ef8614610304578063691d24f31461031957806370a082311461033957600080fd5b806323b872dd1461028f5780632ab4d052146102af57806342842e0e146102c457600080fd5b806301ffc9a7146101a157806306fdde03146101d6578063081812fc146101f8578063095ea7b31461023057806318160ddd14610252578063238ac93314610271575b600080fd5b3480156101ad57600080fd5b506101c16101bc366004611aba565b6104f9565b60405190151581526020015b60405180910390f35b3480156101e257600080fd5b506101eb61054b565b6040516101cd9190611b27565b34801561020457600080fd5b50610218610213366004611b3a565b6105ef565b6040516001600160a01b0390911681526020016101cd565b34801561023c57600080fd5b5061025061024b366004611b6f565b610604565b005b34801561025e57600080fd5b506002545b6040519081526020016101cd565b34801561027d57600080fd5b506005546001600160a01b0316610218565b34801561029b57600080fd5b506102506102aa366004611b99565b610613565b3480156102bb57600080fd5b50600354610263565b3480156102d057600080fd5b506102506102df366004611b99565b61062c565b3480156102f057600080fd5b506102186102ff366004611b3a565b61064c565b34801561031057600080fd5b50610263610657565b34801561032557600080fd5b50610250610334366004611ca1565b610795565b34801561034557600080fd5b50610263610354366004611d79565b610918565b34801561036557600080fd5b50610250610974565b34801561037a57600080fd5b506006546001600160a01b0316610218565b61025061039a366004611d94565b610988565b3480156103ab57600080fd5b507f9016d09d72d40fdae2fd8ceac6b6234c7706214fd39c1cd1e609a0528c199300546001600160a01b0316610218565b3480156103e857600080fd5b506101eb610cf8565b3480156103fd57600080fd5b5061025061040c366004611b3a565b610d37565b34801561041d57600080fd5b5061025061042c366004611e40565b610d84565b34801561043d57600080fd5b50600054610263565b34801561045257600080fd5b50610250610461366004611e7c565b610d8f565b34801561047257600080fd5b506101eb610481366004611b3a565b610dac565b34801561049257600080fd5b506101c16104a1366004611ee4565b610e14565b3480156104b257600080fd5b506102506104c1366004611d79565b610e61565b3480156104d257600080fd5b50600454610263565b3480156104e757600080fd5b506007546001600160a01b0316610218565b60006001600160e01b031982166380ac58cd60e01b148061052a57506001600160e01b03198216635b5e139f60e01b145b8061054557506301ffc9a760e01b6001600160e01b03198316145b92915050565b600080516020612361833981519152805460609190819061056b90611f17565b80601f016020809104026020016040519081016040528092919081815260200182805461059790611f17565b80156105e45780601f106105b9576101008083540402835291602001916105e4565b820191906000526020600020905b8154815290600101906020018083116105c757829003601f168201915b505050505091505090565b60006105fa82610e9c565b5061054582610ed4565b61060f828233610f0e565b5050565b604051637d8626bf60e11b815260040160405180910390fd5b61064783838360405180602001604052806000815250610d8f565b505050565b600061054582610e9c565b600080600660009054906101000a90046001600160a01b03166001600160a01b031663feaf968c6040518163ffffffff1660e01b815260040160a060405180830381865afa1580156106ad573d6000803e3d6000fd5b505050506040513d601f19601f820116820180604052508101906106d19190611f6b565b505050915050600081136107005760405163153f03af60e21b8152600481018290526024015b60405180910390fd5b6006546040805163313ce56760e01b8152905183926001600160a01b03169163313ce5679160048083019260209291908290030181865afa158015610749573d6000803e3d6000fd5b505050506040513d601f19601f8201168201806040525081019061076d9190611fbb565b61077890600a6120d8565b60045461078591906120e7565b61078f91906120fe565b91505090565b7ff0c57e16840df040f15088dc2f81fe391c3923bec73e23a9662efc9c229c6a008054600160401b810460ff16159067ffffffffffffffff166000811580156107db5750825b905060008267ffffffffffffffff1660011480156107f85750303b155b905081158015610806575080155b156108245760405163f92ee8a960e01b815260040160405180910390fd5b845467ffffffffffffffff19166001178555831561084e57845460ff60401b1916600160401b1785555b6108588c8c610f1b565b61086133610f2d565b610869610f3e565b60008e905560038d9055600161087f8b8261216e565b506004899055600580546001600160a01b03808b166001600160a01b031992831617909255600680548a84169083161790556007805492891692909116919091179055831561090857845460ff60401b19168555604051600181527fc7f505b2f371ae2175ee4913f4499e1f2633a7b5936321eed1cdaeb6115181d29060200160405180910390a15b5050505050505050505050505050565b60006000805160206123618339815191526001600160a01b038316610953576040516322718ad960e21b8152600060048201526024016106f7565b6001600160a01b039092166000908152600390920160205250604090205490565b61097c610f4e565b6109866000610fa9565b565b61099061101a565b60008160000151826020015183604001516040516020016109b39392919061222e565b6040516020818303038152906040528051906020012090506000548260000151146109f1576040516349f32f0160e11b815260040160405180910390fd5b60055460608301517f19457468657265756d205369676e6564204d6573736167653a0a3332000000006000908152601c849052603c90206001600160a01b0390921691610a3d91611064565b6001600160a01b031614610a64576040516349f32f0160e11b815260040160405180910390fd5b602082015160035415801590610a7e575060035460025410155b15610aba5760025460035460405163ac99281f60e01b81526001600160a01b0384166004820152602481019290925260448201526064016106f7565b6000610ac582610918565b1115610aef576040516365f273e960e01b81526001600160a01b03821660048201526024016106f7565b6000610af9610657565b905080341015610b3457604051634af7288d60e11b81526001600160a01b0383166004820152602481018290523460448201526064016106f7565b6007546040516000916001600160a01b03169083908381818185875af1925050503d8060008114610b81576040519150601f19603f3d011682016040523d82523d6000602084013e610b86565b606091505b5050905080610bbe576007546040516309955be960e21b81526001600160a01b039091166004820152602481018390526044016106f7565b81341115610c5d576000610bd2833461226d565b90506000846001600160a01b03168260405160006040518083038185875af1925050503d8060008114610c21576040519150601f19603f3d011682016040523d82523d6000602084013e610c26565b606091505b5050905080610c5a576040516309955be960e21b81526001600160a01b0386166004820152602481018390526044016106f7565b50505b6002805460009182610c6e83612280565b919050559050610c7e848261108e565b836001600160a01b03167ff2cb5e52049d127ad1c335f1cc25f2fdbc911bec1beb2611f4c1e8b1c274d4b482858960400151604051610cbf93929190612299565b60405180910390a25050505050610cf560017f9b779b17422d0df92223018b32b4d1fa46e071723d6817e2486d003becc55f0055565b50565b7f80bb2b638cc20bc4d0a60d66940f3ab4a00c1d7b313497ca82fb0b4ab007930180546060916000805160206123618339815191529161056b90611f17565b610d3f610f4e565b600480549082905560408051828152602081018490527f2679f06bd6ac5b0498704c9232cd7f20206df1261540db52c85327dc0cf6d333910160405180910390a15050565b61060f3383836110ce565b610d9a848484610613565b610da68484848461117f565b50505050565b6060610db782610e9c565b506000610dc26112a8565b90506000815111610de25760405180602001604052806000815250610e0d565b80610dec8461133a565b604051602001610dfd9291906122c1565b6040516020818303038152906040525b9392505050565b6001600160a01b0391821660009081527f80bb2b638cc20bc4d0a60d66940f3ab4a00c1d7b313497ca82fb0b4ab00793056020908152604080832093909416825291909152205460ff1690565b610e69610f4e565b6001600160a01b038116610e9357604051631e4fbdf760e01b8152600060048201526024016106f7565b610cf581610fa9565b600080610ea8836113cd565b90506001600160a01b03811661054557604051637e27328960e01b8152600481018490526024016106f7565b60009081527f80bb2b638cc20bc4d0a60d66940f3ab4a00c1d7b313497ca82fb0b4ab007930460205260409020546001600160a01b031690565b6106478383836001611407565b610f2361151d565b61060f8282611566565b610f3561151d565b610cf581611597565b610f4661151d565b61098661159f565b33610f807f9016d09d72d40fdae2fd8ceac6b6234c7706214fd39c1cd1e609a0528c199300546001600160a01b031690565b6001600160a01b0316146109865760405163118cdaa760e01b81523360048201526024016106f7565b7f9016d09d72d40fdae2fd8ceac6b6234c7706214fd39c1cd1e609a0528c19930080546001600160a01b031981166001600160a01b03848116918217845560405192169182907f8be0079c531659141344cd1fd0a4f28419497f9722a3daafe3b4186f6b6457e090600090a3505050565b7f9b779b17422d0df92223018b32b4d1fa46e071723d6817e2486d003becc55f0080546001190161105e57604051633ee5aeb560e01b815260040160405180910390fd5b60029055565b60008060008061107486866115a7565b92509250925061108482826115f4565b5090949350505050565b61060f8282604051806020016040528060008152506116ad565b60017f9b779b17422d0df92223018b32b4d1fa46e071723d6817e2486d003becc55f0055565b6000805160206123618339815191526001600160a01b03831661110f57604051630b61174360e31b81526001600160a01b03841660048201526024016106f7565b6001600160a01b038481166000818152600584016020908152604080832094881680845294825291829020805460ff191687151590811790915591519182527f17307eab39ab6107e8899845ad3d59bd9653f200f220920489ca2b5937696c31910160405180910390a350505050565b6001600160a01b0383163b15610da657604051630a85bd0160e11b81526001600160a01b0384169063150b7a02906111c19033908890879087906004016122f0565b6020604051808303816000875af19250505080156111fc575060408051601f3d908101601f191682019092526111f99181019061232d565b60015b611265573d80801561122a576040519150601f19603f3d011682016040523d82523d6000602084013e61122f565b606091505b50805160000361125d57604051633250574960e11b81526001600160a01b03851660048201526024016106f7565b805181602001fd5b6001600160e01b03198116630a85bd0160e11b146112a157604051633250574960e11b81526001600160a01b03851660048201526024016106f7565b5050505050565b6060600180546112b790611f17565b80601f01602080910402602001604051908101604052809291908181526020018280546112e390611f17565b80156113305780601f1061130557610100808354040283529160200191611330565b820191906000526020600020905b81548152906001019060200180831161131357829003601f168201915b5050505050905090565b60606000611347836116c4565b600101905060008167ffffffffffffffff81111561136757611367611bd5565b6040519080825280601f01601f191660200182016040528015611391576020820181803683370190505b5090508181016020015b600019016f181899199a1a9b1b9c1cb0b131b232b360811b600a86061a8153600a850494508461139b57509392505050565b60009081527f80bb2b638cc20bc4d0a60d66940f3ab4a00c1d7b313497ca82fb0b4ab007930260205260409020546001600160a01b031690565b600080516020612361833981519152818061142a57506001600160a01b03831615155b156114ec57600061143a85610e9c565b90506001600160a01b038416158015906114665750836001600160a01b0316816001600160a01b031614155b801561147957506114778185610e14565b155b156114a25760405163a9fbf51f60e01b81526001600160a01b03851660048201526024016106f7565b82156114ea5784866001600160a01b0316826001600160a01b03167f8c5be1e5ebec7d5bd14f71427d1e84f3dd0314c0f7b2291e5b200ac8c7c3b92560405160405180910390a45b505b600093845260040160205250506040902080546001600160a01b0319166001600160a01b0392909216919091179055565b7ff0c57e16840df040f15088dc2f81fe391c3923bec73e23a9662efc9c229c6a0054600160401b900460ff1661098657604051631afcd79f60e31b815260040160405180910390fd5b61156e61151d565b60008051602061236183398151915280611588848261216e565b5060018101610da6838261216e565b610e6961151d565b6110a861151d565b600080600083516041036115e15760208401516040850151606086015160001a6115d38882858561179c565b9550955095505050506115ed565b50508151600091506002905b9250925092565b60008260038111156116085761160861234a565b03611611575050565b60018260038111156116255761162561234a565b036116435760405163f645eedf60e01b815260040160405180910390fd5b60028260038111156116575761165761234a565b036116785760405163fce698f760e01b8152600481018290526024016106f7565b600382600381111561168c5761168c61234a565b0361060f576040516335e2f38360e21b8152600481018290526024016106f7565b6116b7838361186b565b610647600084848461117f565b60008072184f03e93ff9f4daa797ed6e38ed64bf6a1f0160401b83106117035772184f03e93ff9f4daa797ed6e38ed64bf6a1f0160401b830492506040015b6d04ee2d6d415b85acef8100000000831061172f576d04ee2d6d415b85acef8100000000830492506020015b662386f26fc10000831061174d57662386f26fc10000830492506010015b6305f5e1008310611765576305f5e100830492506008015b612710831061177957612710830492506004015b6064831061178b576064830492506002015b600a83106105455760010192915050565b600080807f7fffffffffffffffffffffffffffffff5d576e7357a4501ddfe92f46681b20a08411156117d75750600091506003905082611861565b604080516000808252602082018084528a905260ff891692820192909252606081018790526080810186905260019060a0016020604051602081039080840390855afa15801561182b573d6000803e3d6000fd5b5050604051601f1901519150506001600160a01b03811661185757506000925060019150829050611861565b9250600091508190505b9450945094915050565b6001600160a01b03821661189557604051633250574960e11b8152600060048201526024016106f7565b60006118a3838360006118d0565b90506001600160a01b03811615610647576040516339e3563760e11b8152600060048201526024016106f7565b6000600080516020612361833981519152816118eb856113cd565b90506001600160a01b03841615611907576119078185876119da565b6001600160a01b0381161561194757611924600086600080611407565b6001600160a01b0381166000908152600383016020526040902080546000190190555b6001600160a01b03861615611978576001600160a01b03861660009081526003830160205260409020805460010190555b600085815260028301602052604080822080546001600160a01b0319166001600160a01b038a811691821790925591518893918516917fddf252ad1be2c89b69c2b068fc378daa952ba7f163c4a11628f55a4df523b3ef91a495945050505050565b6119e5838383611a3e565b610647576001600160a01b038316611a1357604051637e27328960e01b8152600481018290526024016106f7565b60405163177e802f60e01b81526001600160a01b0383166004820152602481018290526044016106f7565b60006001600160a01b03831615801590611a9c5750826001600160a01b0316846001600160a01b03161480611a785750611a788484610e14565b80611a9c5750826001600160a01b0316611a9183610ed4565b6001600160a01b0316145b949350505050565b6001600160e01b031981168114610cf557600080fd5b600060208284031215611acc57600080fd5b8135610e0d81611aa4565b60005b83811015611af2578181015183820152602001611ada565b50506000910152565b60008151808452611b13816020860160208601611ad7565b601f01601f19169290920160200192915050565b602081526000610e0d6020830184611afb565b600060208284031215611b4c57600080fd5b5035919050565b80356001600160a01b0381168114611b6a57600080fd5b919050565b60008060408385031215611b8257600080fd5b611b8b83611b53565b946020939093013593505050565b600080600060608486031215611bae57600080fd5b611bb784611b53565b9250611bc560208501611b53565b9150604084013590509250925092565b634e487b7160e01b600052604160045260246000fd5b6040516080810167ffffffffffffffff81118282101715611c0e57611c0e611bd5565b60405290565b600082601f830112611c2557600080fd5b813567ffffffffffffffff80821115611c4057611c40611bd5565b604051601f8301601f19908116603f01168101908282118183101715611c6857611c68611bd5565b81604052838152866020858801011115611c8157600080fd5b836020870160208301376000602085830101528094505050505092915050565b60008060008060008060008060006101208a8c031215611cc057600080fd5b8935985060208a0135975060408a013567ffffffffffffffff80821115611ce657600080fd5b611cf28d838e01611c14565b985060608c0135915080821115611d0857600080fd5b611d148d838e01611c14565b975060808c0135915080821115611d2a57600080fd5b50611d378c828d01611c14565b95505060a08a01359350611d4d60c08b01611b53565b9250611d5b60e08b01611b53565b9150611d6a6101008b01611b53565b90509295985092959850929598565b600060208284031215611d8b57600080fd5b610e0d82611b53565b600060208284031215611da657600080fd5b813567ffffffffffffffff80821115611dbe57600080fd5b9083019060808286031215611dd257600080fd5b611dda611beb565b82358152611dea60208401611b53565b6020820152604083013582811115611e0157600080fd5b611e0d87828601611c14565b604083015250606083013582811115611e2557600080fd5b611e3187828601611c14565b60608301525095945050505050565b60008060408385031215611e5357600080fd5b611e5c83611b53565b915060208301358015158114611e7157600080fd5b809150509250929050565b60008060008060808587031215611e9257600080fd5b611e9b85611b53565b9350611ea960208601611b53565b925060408501359150606085013567ffffffffffffffff811115611ecc57600080fd5b611ed887828801611c14565b91505092959194509250565b60008060408385031215611ef757600080fd5b611f0083611b53565b9150611f0e60208401611b53565b90509250929050565b600181811c90821680611f2b57607f821691505b602082108103611f4b57634e487b7160e01b600052602260045260246000fd5b50919050565b805169ffffffffffffffffffff81168114611b6a57600080fd5b600080600080600060a08688031215611f8357600080fd5b611f8c86611f51565b9450602086015193506040860151925060608601519150611faf60808701611f51565b90509295509295909350565b600060208284031215611fcd57600080fd5b815160ff81168114610e0d57600080fd5b634e487b7160e01b600052601160045260246000fd5b600181815b8085111561202f57816000190482111561201557612015611fde565b8085161561202257918102915b93841c9390800290611ff9565b509250929050565b60008261204657506001610545565b8161205357506000610545565b816001811461206957600281146120735761208f565b6001915050610545565b60ff84111561208457612084611fde565b50506001821b610545565b5060208310610133831016604e8410600b84101617156120b2575081810a610545565b6120bc8383611ff4565b80600019048211156120d0576120d0611fde565b029392505050565b6000610e0d60ff841683612037565b808202811582820484141761054557610545611fde565b60008261211b57634e487b7160e01b600052601260045260246000fd5b500490565b601f82111561064757600081815260208120601f850160051c810160208610156121475750805b601f850160051c820191505b8181101561216657828155600101612153565b505050505050565b815167ffffffffffffffff81111561218857612188611bd5565b61219c816121968454611f17565b84612120565b602080601f8311600181146121d157600084156121b95750858301515b600019600386901b1c1916600185901b178555612166565b600085815260208120601f198616915b82811015612200578886015182559484019460019091019084016121e1565b508582101561221e5787850151600019600388901b60f8161c191681555b5050505050600190811b01905550565b8381526bffffffffffffffffffffffff198360601b1660208201526000825161225e816034850160208701611ad7565b91909101603401949350505050565b8181038181111561054557610545611fde565b60006001820161229257612292611fde565b5060010190565b8381528260208201526060604082015260006122b86060830184611afb565b95945050505050565b600083516122d3818460208801611ad7565b8351908301906122e7818360208801611ad7565b01949350505050565b6001600160a01b038581168252841660208201526040810183905260806060820181905260009061232390830184611afb565b9695505050505050565b60006020828403121561233f57600080fd5b8151610e0d81611aa4565b634e487b7160e01b600052602160045260246000fdfe80bb2b638cc20bc4d0a60d66940f3ab4a00c1d7b313497ca82fb0b4ab0079300a2646970667358221220754befa41d3fc69091de7a4758cf3536b64c9325da120d50f3356c36ad82fa3464736f6c63430008140033",
  "linkReferences": {},
  "deployedLinkReferences": {}
}