{
  "_format": "hh-sol-artifact-1",
  "contractName": "ERC721V1",
  "sourceName": "contracts/NFT/ERC721V1.sol",
  "abi": [
    {
      "inputs": [],
      "stateMutability": "nonpayable",
      "type": "constructor"
    },
    {
      "inputs": [],
      "name": "ECDSAInvalidSignature",
      "type": "error"
    },
    {
      "inputs": [
        {
          "internalType": "uint256",
          "name": "length",
          "type": "uint256"
        }
      ],
      "name": "ECDSAInvalidSignatureLength",
      "type": "error"
    },
    {
      "inputs": [
        {
          "internalType": "bytes32",
          "name": "s",
          "type": "bytes32"
        }
      ],
      "name": "ECDSAInvalidSignatureS",
      "type": "error"
    },
    {
      "inputs": [
        {
          "internalType": "address",
          "name": "sender",
          "type": "address"
        },
        {
          "internalType": "uint256",
          "name": "tokenId",
          "type": "uint256"
        },
        {
          "internalType": "address",
          "name": "owner",
          "type": "address"
        }
      ],
      "name": "ERC721IncorrectOwner",
      "type": "error"
    },
    {
      "inputs": [
        {
          "internalType": "address",
          "name": "operator",
          "type": "address"
        },
        {
          "internalType": "uint256",
          "name": "tokenId",
          "type": "uint256"
        }
      ],
      "name": "ERC721InsufficientApproval",
      "type": "error"
    },
    {
      "inputs": [
        {
          "internalType": "address",
          "name": "approver",
          "type": "address"
        }
      ],
      "name": "ERC721InvalidApprover",
      "type": "error"
    },
    {
      "inputs": [
        {
          "internalType": "address",
          "name": "operator",
          "type": "address"
        }
      ],
      "name": "ERC721InvalidOperator",
      "type": "error"
    },
    {
      "inputs": [
        {
          "internalType": "address",
          "name": "owner",
          "type": "address"
        }
      ],
      "name": "ERC721InvalidOwner",
      "type": "error"
    },
    {
      "inputs": [
        {
          "internalType": "address",
          "name": "receiver",
          "type": "address"
        }
      ],
      "name": "ERC721InvalidReceiver",
      "type": "error"
    },
    {
      "inputs": [
        {
          "internalType": "address",
          "name": "sender",
          "type": "address"
        }
      ],
      "name": "ERC721InvalidSender",
      "type": "error"
    },
    {
      "inputs": [
        {
          "internalType": "uint256",
          "name": "tokenId",
          "type": "uint256"
        }
      ],
      "name": "ERC721NonexistentToken",
      "type": "error"
    },
    {
      "inputs": [
        {
          "internalType": "address",
          "name": "recipient",
          "type": "address"
        },
        {
          "internalType": "uint256",
          "name": "costs",
          "type": "uint256"
        },
        {
          "internalType": "uint256",
          "name": "value",
          "type": "uint256"
        }
      ],
      "name": "ERC721V1InsufficientFundsForMint",
      "type": "error"
    },
    {
      "inputs": [],
      "name": "ERC721V1InvalidMintSignature",
      "type": "error"
    },
    {
      "inputs": [
        {
          "internalType": "int256",
          "name": "price",
          "type": "int256"
        }
      ],
      "name": "ERC721V1NegativeCosts",
      "type": "error"
    },
    {
      "inputs": [
        {
          "internalType": "address",
          "name": "recipient",
          "type": "address"
        }
      ],
      "name": "ERC721V1TokenAlreadyMinted",
      "type": "error"
    },
    {
      "inputs": [
        {
          "internalType": "address",
          "name": "recipient",
          "type": "address"
        },
        {
          "internalType": "uint256",
          "name": "value",
          "type": "uint256"
        }
      ],
      "name": "ERC721V1TransferFailed",
      "type": "error"
    },
    {
      "inputs": [],
      "name": "ERC721V1TransferForbidden",
      "type": "error"
    },
    {
      "inputs": [],
      "name": "InvalidInitialization",
      "type": "error"
    },
    {
      "inputs": [],
      "name": "NotInitializing",
      "type": "error"
    },
    {
      "inputs": [
        {
          "internalType": "address",
          "name": "owner",
          "type": "address"
        }
      ],
      "name": "OwnableInvalidOwner",
      "type": "error"
    },
    {
      "inputs": [
        {
          "internalType": "address",
          "name": "account",
          "type": "address"
        }
      ],
      "name": "OwnableUnauthorizedAccount",
      "type": "error"
    },
    {
      "anonymous": false,
      "inputs": [
        {
          "indexed": true,
          "internalType": "address",
          "name": "owner",
          "type": "address"
        },
        {
          "indexed": true,
          "internalType": "address",
          "name": "approved",
          "type": "address"
        },
        {
          "indexed": true,
          "internalType": "uint256",
          "name": "tokenId",
          "type": "uint256"
        }
      ],
      "name": "Approval",
      "type": "event"
    },
    {
      "anonymous": false,
      "inputs": [
        {
          "indexed": true,
          "internalType": "address",
          "name": "owner",
          "type": "address"
        },
        {
          "indexed": true,
          "internalType": "address",
          "name": "operator",
          "type": "address"
        },
        {
          "indexed": false,
          "internalType": "bool",
          "name": "approved",
          "type": "bool"
        }
      ],
      "name": "ApprovalForAll",
      "type": "event"
    },
    {
      "anonymous": false,
      "inputs": [
        {
          "indexed": false,
          "internalType": "uint256",
          "name": "oldCosts",
          "type": "uint256"
        },
        {
          "indexed": false,
          "internalType": "uint256",
          "name": "newCosts",
          "type": "uint256"
        }
      ],
      "name": "CostsChanged",
      "type": "event"
    },
    {
      "anonymous": false,
      "inputs": [
        {
          "indexed": false,
          "internalType": "uint64",
          "name": "version",
          "type": "uint64"
        }
      ],
      "name": "Initialized",
      "type": "event"
    },
    {
      "anonymous": false,
      "inputs": [
        {
          "indexed": true,
          "internalType": "address",
          "name": "recipient",
          "type": "address"
        },
        {
          "indexed": false,
          "internalType": "uint256",
          "name": "tokenId",
          "type": "uint256"
        },
        {
          "indexed": false,
          "internalType": "uint256",
          "name": "costs",
          "type": "uint256"
        },
        {
          "indexed": false,
          "internalType": "string",
          "name": "referral",
          "type": "string"
        }
      ],
      "name": "Minted",
      "type": "event"
    },
    {
      "anonymous": false,
      "inputs": [
        {
          "indexed": true,
          "internalType": "address",
          "name": "previousOwner",
          "type": "address"
        },
        {
          "indexed": true,
          "internalType": "address",
          "name": "newOwner",
          "type": "address"
        }
      ],
      "name": "OwnershipTransferred",
      "type": "event"
    },
    {
      "anonymous": false,
      "inputs": [
        {
          "indexed": true,
          "internalType": "address",
          "name": "from",
          "type": "address"
        },
        {
          "indexed": true,
          "internalType": "address",
          "name": "to",
          "type": "address"
        },
        {
          "indexed": true,
          "internalType": "uint256",
          "name": "tokenId",
          "type": "uint256"
        }
      ],
      "name": "Transfer",
      "type": "event"
    },
    {
      "inputs": [
        {
          "internalType": "address",
          "name": "to",
          "type": "address"
        },
        {
          "internalType": "uint256",
          "name": "tokenId",
          "type": "uint256"
        }
      ],
      "name": "approve",
      "outputs": [],
      "stateMutability": "nonpayable",
      "type": "function"
    },
    {
      "inputs": [
        {
          "internalType": "address",
          "name": "owner",
          "type": "address"
        }
      ],
      "name": "balanceOf",
      "outputs": [
        {
          "internalType": "uint256",
          "name": "",
          "type": "uint256"
        }
      ],
      "stateMutability": "view",
      "type": "function"
    },
    {
      "inputs": [
        {
          "internalType": "uint256",
          "name": "newCostsUSD",
          "type": "uint256"
        }
      ],
      "name": "changeCosts",
      "outputs": [],
      "stateMutability": "nonpayable",
      "type": "function"
    },
    {
      "inputs": [],
      "name": "costsETH",
      "outputs": [
        {
          "internalType": "uint256",
          "name": "",
          "type": "uint256"
        }
      ],
      "stateMutability": "view",
      "type": "function"
    },
    {
      "inputs": [],
      "name": "costsUSD",
      "outputs": [
        {
          "internalType": "uint256",
          "name": "",
          "type": "uint256"
        }
      ],
      "stateMutability": "view",
      "type": "function"
    },
    {
      "inputs": [
        {
          "internalType": "uint256",
          "name": "tokenId",
          "type": "uint256"
        }
      ],
      "name": "getApproved",
      "outputs": [
        {
          "internalType": "address",
          "name": "",
          "type": "address"
        }
      ],
      "stateMutability": "view",
      "type": "function"
    },
    {
      "inputs": [],
      "name": "id",
      "outputs": [
        {
          "internalType": "bytes32",
          "name": "",
          "type": "bytes32"
        }
      ],
      "stateMutability": "view",
      "type": "function"
    },
    {
      "inputs": [
        {
          "internalType": "bytes32",
          "name": "__id",
          "type": "bytes32"
        },
        {
          "internalType": "string",
          "name": "name",
          "type": "string"
        },
        {
          "internalType": "string",
          "name": "symbol",
          "type": "string"
        },
        {
          "internalType": "string",
          "name": "uri",
          "type": "string"
        },
        {
          "internalType": "uint256",
          "name": "__costsUSD",
          "type": "uint256"
        },
        {
          "internalType": "address",
          "name": "signer",
          "type": "address"
        },
        {
          "internalType": "address",
          "name": "priceFeed",
          "type": "address"
        },
        {
          "internalType": "address",
          "name": "vault",
          "type": "address"
        }
      ],
      "name": "initialize",
      "outputs": [],
      "stateMutability": "nonpayable",
      "type": "function"
    },
    {
      "inputs": [
        {
          "internalType": "address",
          "name": "owner",
          "type": "address"
        },
        {
          "internalType": "address",
          "name": "operator",
          "type": "address"
        }
      ],
      "name": "isApprovedForAll",
      "outputs": [
        {
          "internalType": "bool",
          "name": "",
          "type": "bool"
        }
      ],
      "stateMutability": "view",
      "type": "function"
    },
    {
      "inputs": [
        {
          "components": [
            {
              "internalType": "bytes32",
              "name": "id",
              "type": "bytes32"
            },
            {
              "internalType": "address",
              "name": "recipient",
              "type": "address"
            },
            {
              "internalType": "string",
              "name": "referral",
              "type": "string"
            },
            {
              "internalType": "bytes",
              "name": "signature",
              "type": "bytes"
            }
          ],
          "internalType": "struct ERC721V1.MintPayload",
          "name": "payload",
          "type": "tuple"
        }
      ],
      "name": "mint",
      "outputs": [],
      "stateMutability": "payable",
      "type": "function"
    },
    {
      "inputs": [],
      "name": "name",
      "outputs": [
        {
          "internalType": "string",
          "name": "",
          "type": "string"
        }
      ],
      "stateMutability": "view",
      "type": "function"
    },
    {
      "inputs": [],
      "name": "owner",
      "outputs": [
        {
          "internalType": "address",
          "name": "",
          "type": "address"
        }
      ],
      "stateMutability": "view",
      "type": "function"
    },
    {
      "inputs": [
        {
          "internalType": "uint256",
          "name": "tokenId",
          "type": "uint256"
        }
      ],
      "name": "ownerOf",
      "outputs": [
        {
          "internalType": "address",
          "name": "",
          "type": "address"
        }
      ],
      "stateMutability": "view",
      "type": "function"
    },
    {
      "inputs": [],
      "name": "renounceOwnership",
      "outputs": [],
      "stateMutability": "nonpayable",
      "type": "function"
    },
    {
      "inputs": [
        {
          "internalType": "address",
          "name": "from",
          "type": "address"
        },
        {
          "internalType": "address",
          "name": "to",
          "type": "address"
        },
        {
          "internalType": "uint256",
          "name": "tokenId",
          "type": "uint256"
        }
      ],
      "name": "safeTransferFrom",
      "outputs": [],
      "stateMutability": "nonpayable",
      "type": "function"
    },
    {
      "inputs": [
        {
          "internalType": "address",
          "name": "from",
          "type": "address"
        },
        {
          "internalType": "address",
          "name": "to",
          "type": "address"
        },
        {
          "internalType": "uint256",
          "name": "tokenId",
          "type": "uint256"
        },
        {
          "internalType": "bytes",
          "name": "data",
          "type": "bytes"
        }
      ],
      "name": "safeTransferFrom",
      "outputs": [],
      "stateMutability": "nonpayable",
      "type": "function"
    },
    {
      "inputs": [
        {
          "internalType": "address",
          "name": "operator",
          "type": "address"
        },
        {
          "internalType": "bool",
          "name": "approved",
          "type": "bool"
        }
      ],
      "name": "setApprovalForAll",
      "outputs": [],
      "stateMutability": "nonpayable",
      "type": "function"
    },
    {
      "inputs": [
        {
          "internalType": "bytes4",
          "name": "interfaceId",
          "type": "bytes4"
        }
      ],
      "name": "supportsInterface",
      "outputs": [
        {
          "internalType": "bool",
          "name": "",
          "type": "bool"
        }
      ],
      "stateMutability": "view",
      "type": "function"
    },
    {
      "inputs": [],
      "name": "symbol",
      "outputs": [
        {
          "internalType": "string",
          "name": "",
          "type": "string"
        }
      ],
      "stateMutability": "view",
      "type": "function"
    },
    {
      "inputs": [
        {
          "internalType": "uint256",
          "name": "tokenId",
          "type": "uint256"
        }
      ],
      "name": "tokenURI",
      "outputs": [
        {
          "internalType": "string",
          "name": "",
          "type": "string"
        }
      ],
      "stateMutability": "view",
      "type": "function"
    },
    {
      "inputs": [],
      "name": "totalSupply",
      "outputs": [
        {
          "internalType": "uint256",
          "name": "",
          "type": "uint256"
        }
      ],
      "stateMutability": "view",
      "type": "function"
    },
    {
      "inputs": [
        {
          "internalType": "address",
          "name": "",
          "type": "address"
        },
        {
          "internalType": "address",
          "name": "",
          "type": "address"
        },
        {
          "internalType": "uint256",
          "name": "",
          "type": "uint256"
        }
      ],
      "name": "transferFrom",
      "outputs": [],
      "stateMutability": "nonpayable",
      "type": "function"
    },
    {
      "inputs": [
        {
          "internalType": "address",
          "name": "newOwner",
          "type": "address"
        }
      ],
      "name": "transferOwnership",
      "outputs": [],
      "stateMutability": "nonpayable",
      "type": "function"
    }
  ],
  "bytecode": "0x608060405234801561001057600080fd5b5061001961001e565b6100d0565b7ff0c57e16840df040f15088dc2f81fe391c3923bec73e23a9662efc9c229c6a00805468010000000000000000900460ff161561006e5760405163f92ee8a960e01b815260040160405180910390fd5b80546001600160401b03908116146100cd5780546001600160401b0319166001600160401b0390811782556040519081527fc7f505b2f371ae2175ee4913f4499e1f2633a7b5936321eed1cdaeb6115181d29060200160405180910390a15b50565b6121cc80620000e06000396000f3fe6080604052600436106101405760003560e01c8063715018a6116100b6578063af640d0f1161006f578063af640d0f14610384578063b88d4fde14610399578063c87b56dd146103b9578063e985e9c5146103d9578063f2fde38b146103f9578063f800f2281461041957600080fd5b8063715018a6146102ca57806387ca93ce146102df5780638da5cb5b146102f257806395d89b411461032f5780639a12cb1e14610344578063a22cb4651461036457600080fd5b806323b872dd1161010857806323b872dd1461021557806342842e0e146102355780634817f925146102555780636352211e146102755780636574ef861461029557806370a08231146102aa57600080fd5b806301ffc9a71461014557806306fdde031461017a578063081812fc1461019c578063095ea7b3146101d457806318160ddd146101f6575b600080fd5b34801561015157600080fd5b506101656101603660046118da565b61042e565b60405190151581526020015b60405180910390f35b34801561018657600080fd5b5061018f610480565b6040516101719190611947565b3480156101a857600080fd5b506101bc6101b736600461195a565b610524565b6040516001600160a01b039091168152602001610171565b3480156101e057600080fd5b506101f46101ef36600461198f565b610539565b005b34801561020257600080fd5b506002545b604051908152602001610171565b34801561022157600080fd5b506101f46102303660046119b9565b610548565b34801561024157600080fd5b506101f46102503660046119b9565b610561565b34801561026157600080fd5b506101f4610270366004611ac1565b610581565b34801561028157600080fd5b506101bc61029036600461195a565b6106f6565b3480156102a157600080fd5b50610207610701565b3480156102b657600080fd5b506102076102c5366004611b8f565b61083f565b3480156102d657600080fd5b506101f461089b565b6101f46102ed366004611baa565b6108af565b3480156102fe57600080fd5b507f9016d09d72d40fdae2fd8ceac6b6234c7706214fd39c1cd1e609a0528c199300546001600160a01b03166101bc565b34801561033b57600080fd5b5061018f610b9d565b34801561035057600080fd5b506101f461035f36600461195a565b610bdc565b34801561037057600080fd5b506101f461037f366004611c56565b610c29565b34801561039057600080fd5b50600054610207565b3480156103a557600080fd5b506101f46103b4366004611c92565b610c34565b3480156103c557600080fd5b5061018f6103d436600461195a565b610c51565b3480156103e557600080fd5b506101656103f4366004611cfa565b610cb9565b34801561040557600080fd5b506101f4610414366004611b8f565b610d06565b34801561042557600080fd5b50600354610207565b60006001600160e01b031982166380ac58cd60e01b148061045f57506001600160e01b03198216635b5e139f60e01b145b8061047a57506301ffc9a760e01b6001600160e01b03198316145b92915050565b60008051602061217783398151915280546060919081906104a090611d2d565b80601f01602080910402602001604051908101604052809291908181526020018280546104cc90611d2d565b80156105195780601f106104ee57610100808354040283529160200191610519565b820191906000526020600020905b8154815290600101906020018083116104fc57829003601f168201915b505050505091505090565b600061052f82610d44565b5061047a82610d7c565b610544828233610db6565b5050565b604051637d8626bf60e11b815260040160405180910390fd5b61057c83838360405180602001604052806000815250610c34565b505050565b7ff0c57e16840df040f15088dc2f81fe391c3923bec73e23a9662efc9c229c6a008054600160401b810460ff16159067ffffffffffffffff166000811580156105c75750825b905060008267ffffffffffffffff1660011480156105e45750303b155b9050811580156105f2575080155b156106105760405163f92ee8a960e01b815260040160405180910390fd5b845467ffffffffffffffff19166001178555831561063a57845460ff60401b1916600160401b1785555b6106448c8c610dc3565b61064d33610dd5565b60008d9055600161065e8b82611db5565b506003899055600480546001600160a01b03808b166001600160a01b031992831617909255600580548a8416908316179055600680549289169290911691909117905583156106e757845460ff60401b19168555604051600181527fc7f505b2f371ae2175ee4913f4499e1f2633a7b5936321eed1cdaeb6115181d29060200160405180910390a15b50505050505050505050505050565b600061047a82610d44565b600080600560009054906101000a90046001600160a01b03166001600160a01b031663feaf968c6040518163ffffffff1660e01b815260040160a060405180830381865afa158015610757573d6000803e3d6000fd5b505050506040513d601f19601f8201168201806040525081019061077b9190611e8f565b505050915050600081136107aa5760405163153f03af60e21b8152600481018290526024015b60405180910390fd5b6005546040805163313ce56760e01b8152905183926001600160a01b03169163313ce5679160048083019260209291908290030181865afa1580156107f3573d6000803e3d6000fd5b505050506040513d601f19601f820116820180604052508101906108179190611edf565b61082290600a611ffc565b60035461082f919061200b565b6108399190612022565b91505090565b60006000805160206121778339815191526001600160a01b03831661087a576040516322718ad960e21b8152600060048201526024016107a1565b6001600160a01b039092166000908152600390920160205250604090205490565b6108a3610de6565b6108ad6000610e41565b565b60008160000151826020015183604001516040516020016108d293929190612044565b604051602081830303815290604052805190602001209050600054826000015114610910576040516349f32f0160e11b815260040160405180910390fd5b60045460608301517f19457468657265756d205369676e6564204d6573736167653a0a3332000000006000908152601c849052603c90206001600160a01b039092169161095c91610eb2565b6001600160a01b031614610983576040516349f32f0160e11b815260040160405180910390fd5b602082015160006109938261083f565b11156109bd576040516365f273e960e01b81526001600160a01b03821660048201526024016107a1565b60006109c7610701565b905080341015610a0257604051634af7288d60e11b81526001600160a01b0383166004820152602481018290523460448201526064016107a1565b6006546040516000916001600160a01b03169083908381818185875af1925050503d8060008114610a4f576040519150601f19603f3d011682016040523d82523d6000602084013e610a54565b606091505b5050905080610a8c576006546040516309955be960e21b81526001600160a01b039091166004820152602481018390526044016107a1565b81341115610b2b576000610aa08334612083565b90506000846001600160a01b03168260405160006040518083038185875af1925050503d8060008114610aef576040519150601f19603f3d011682016040523d82523d6000602084013e610af4565b606091505b5050905080610b28576040516309955be960e21b81526001600160a01b0386166004820152602481018390526044016107a1565b50505b6002805460009182610b3c83612096565b919050559050610b4c8482610edc565b836001600160a01b03167ff2cb5e52049d127ad1c335f1cc25f2fdbc911bec1beb2611f4c1e8b1c274d4b482858960400151604051610b8d939291906120af565b60405180910390a2505050505050565b7f80bb2b638cc20bc4d0a60d66940f3ab4a00c1d7b313497ca82fb0b4ab00793018054606091600080516020612177833981519152916104a090611d2d565b610be4610de6565b600380549082905560408051828152602081018490527f2679f06bd6ac5b0498704c9232cd7f20206df1261540db52c85327dc0cf6d333910160405180910390a15050565b610544338383610ef6565b610c3f848484610548565b610c4b84848484610fa7565b50505050565b6060610c5c82610d44565b506000610c676110d0565b90506000815111610c875760405180602001604052806000815250610cb2565b80610c9184611162565b604051602001610ca29291906120d7565b6040516020818303038152906040525b9392505050565b6001600160a01b0391821660009081527f80bb2b638cc20bc4d0a60d66940f3ab4a00c1d7b313497ca82fb0b4ab00793056020908152604080832093909416825291909152205460ff1690565b610d0e610de6565b6001600160a01b038116610d3857604051631e4fbdf760e01b8152600060048201526024016107a1565b610d4181610e41565b50565b600080610d50836111f5565b90506001600160a01b03811661047a57604051637e27328960e01b8152600481018490526024016107a1565b60009081527f80bb2b638cc20bc4d0a60d66940f3ab4a00c1d7b313497ca82fb0b4ab007930460205260409020546001600160a01b031690565b61057c838383600161122f565b610dcb611345565b610544828261138e565b610ddd611345565b610d41816113bf565b33610e187f9016d09d72d40fdae2fd8ceac6b6234c7706214fd39c1cd1e609a0528c199300546001600160a01b031690565b6001600160a01b0316146108ad5760405163118cdaa760e01b81523360048201526024016107a1565b7f9016d09d72d40fdae2fd8ceac6b6234c7706214fd39c1cd1e609a0528c19930080546001600160a01b031981166001600160a01b03848116918217845560405192169182907f8be0079c531659141344cd1fd0a4f28419497f9722a3daafe3b4186f6b6457e090600090a3505050565b600080600080610ec286866113c7565b925092509250610ed28282611414565b5090949350505050565b6105448282604051806020016040528060008152506114cd565b6000805160206121778339815191526001600160a01b038316610f3757604051630b61174360e31b81526001600160a01b03841660048201526024016107a1565b6001600160a01b038481166000818152600584016020908152604080832094881680845294825291829020805460ff191687151590811790915591519182527f17307eab39ab6107e8899845ad3d59bd9653f200f220920489ca2b5937696c31910160405180910390a350505050565b6001600160a01b0383163b15610c4b57604051630a85bd0160e11b81526001600160a01b0384169063150b7a0290610fe9903390889087908790600401612106565b6020604051808303816000875af1925050508015611024575060408051601f3d908101601f1916820190925261102191810190612143565b60015b61108d573d808015611052576040519150601f19603f3d011682016040523d82523d6000602084013e611057565b606091505b50805160000361108557604051633250574960e11b81526001600160a01b03851660048201526024016107a1565b805181602001fd5b6001600160e01b03198116630a85bd0160e11b146110c957604051633250574960e11b81526001600160a01b03851660048201526024016107a1565b5050505050565b6060600180546110df90611d2d565b80601f016020809104026020016040519081016040528092919081815260200182805461110b90611d2d565b80156111585780601f1061112d57610100808354040283529160200191611158565b820191906000526020600020905b81548152906001019060200180831161113b57829003601f168201915b5050505050905090565b6060600061116f836114e4565b600101905060008167ffffffffffffffff81111561118f5761118f6119f5565b6040519080825280601f01601f1916602001820160405280156111b9576020820181803683370190505b5090508181016020015b600019016f181899199a1a9b1b9c1cb0b131b232b360811b600a86061a8153600a85049450846111c357509392505050565b60009081527f80bb2b638cc20bc4d0a60d66940f3ab4a00c1d7b313497ca82fb0b4ab007930260205260409020546001600160a01b031690565b600080516020612177833981519152818061125257506001600160a01b03831615155b1561131457600061126285610d44565b90506001600160a01b0384161580159061128e5750836001600160a01b0316816001600160a01b031614155b80156112a1575061129f8185610cb9565b155b156112ca5760405163a9fbf51f60e01b81526001600160a01b03851660048201526024016107a1565b82156113125784866001600160a01b0316826001600160a01b03167f8c5be1e5ebec7d5bd14f71427d1e84f3dd0314c0f7b2291e5b200ac8c7c3b92560405160405180910390a45b505b600093845260040160205250506040902080546001600160a01b0319166001600160a01b0392909216919091179055565b7ff0c57e16840df040f15088dc2f81fe391c3923bec73e23a9662efc9c229c6a0054600160401b900460ff166108ad57604051631afcd79f60e31b815260040160405180910390fd5b611396611345565b600080516020612177833981519152806113b08482611db5565b5060018101610c4b8382611db5565b610d0e611345565b600080600083516041036114015760208401516040850151606086015160001a6113f3888285856115bc565b95509550955050505061140d565b50508151600091506002905b9250925092565b600082600381111561142857611428612160565b03611431575050565b600182600381111561144557611445612160565b036114635760405163f645eedf60e01b815260040160405180910390fd5b600282600381111561147757611477612160565b036114985760405163fce698f760e01b8152600481018290526024016107a1565b60038260038111156114ac576114ac612160565b03610544576040516335e2f38360e21b8152600481018290526024016107a1565b6114d7838361168b565b61057c6000848484610fa7565b60008072184f03e93ff9f4daa797ed6e38ed64bf6a1f0160401b83106115235772184f03e93ff9f4daa797ed6e38ed64bf6a1f0160401b830492506040015b6d04ee2d6d415b85acef8100000000831061154f576d04ee2d6d415b85acef8100000000830492506020015b662386f26fc10000831061156d57662386f26fc10000830492506010015b6305f5e1008310611585576305f5e100830492506008015b612710831061159957612710830492506004015b606483106115ab576064830492506002015b600a831061047a5760010192915050565b600080807f7fffffffffffffffffffffffffffffff5d576e7357a4501ddfe92f46681b20a08411156115f75750600091506003905082611681565b604080516000808252602082018084528a905260ff891692820192909252606081018790526080810186905260019060a0016020604051602081039080840390855afa15801561164b573d6000803e3d6000fd5b5050604051601f1901519150506001600160a01b03811661167757506000925060019150829050611681565b9250600091508190505b9450945094915050565b6001600160a01b0382166116b557604051633250574960e11b8152600060048201526024016107a1565b60006116c3838360006116f0565b90506001600160a01b0381161561057c576040516339e3563760e11b8152600060048201526024016107a1565b60006000805160206121778339815191528161170b856111f5565b90506001600160a01b03841615611727576117278185876117fa565b6001600160a01b038116156117675761174460008660008061122f565b6001600160a01b0381166000908152600383016020526040902080546000190190555b6001600160a01b03861615611798576001600160a01b03861660009081526003830160205260409020805460010190555b600085815260028301602052604080822080546001600160a01b0319166001600160a01b038a811691821790925591518893918516917fddf252ad1be2c89b69c2b068fc378daa952ba7f163c4a11628f55a4df523b3ef91a495945050505050565b61180583838361185e565b61057c576001600160a01b03831661183357604051637e27328960e01b8152600481018290526024016107a1565b60405163177e802f60e01b81526001600160a01b0383166004820152602481018290526044016107a1565b60006001600160a01b038316158015906118bc5750826001600160a01b0316846001600160a01b0316148061189857506118988484610cb9565b806118bc5750826001600160a01b03166118b183610d7c565b6001600160a01b0316145b949350505050565b6001600160e01b031981168114610d4157600080fd5b6000602082840312156118ec57600080fd5b8135610cb2816118c4565b60005b838110156119125781810151838201526020016118fa565b50506000910152565b600081518084526119338160208601602086016118f7565b601f01601f19169290920160200192915050565b602081526000610cb2602083018461191b565b60006020828403121561196c57600080fd5b5035919050565b80356001600160a01b038116811461198a57600080fd5b919050565b600080604083850312156119a257600080fd5b6119ab83611973565b946020939093013593505050565b6000806000606084860312156119ce57600080fd5b6119d784611973565b92506119e560208501611973565b9150604084013590509250925092565b634e487b7160e01b600052604160045260246000fd5b6040516080810167ffffffffffffffff81118282101715611a2e57611a2e6119f5565b60405290565b600082601f830112611a4557600080fd5b813567ffffffffffffffff80821115611a6057611a606119f5565b604051601f8301601f19908116603f01168101908282118183101715611a8857611a886119f5565b81604052838152866020858801011115611aa157600080fd5b836020870160208301376000602085830101528094505050505092915050565b600080600080600080600080610100898b031215611ade57600080fd5b88359750602089013567ffffffffffffffff80821115611afd57600080fd5b611b098c838d01611a34565b985060408b0135915080821115611b1f57600080fd5b611b2b8c838d01611a34565b975060608b0135915080821115611b4157600080fd5b50611b4e8b828c01611a34565b95505060808901359350611b6460a08a01611973565b9250611b7260c08a01611973565b9150611b8060e08a01611973565b90509295985092959890939650565b600060208284031215611ba157600080fd5b610cb282611973565b600060208284031215611bbc57600080fd5b813567ffffffffffffffff80821115611bd457600080fd5b9083019060808286031215611be857600080fd5b611bf0611a0b565b82358152611c0060208401611973565b6020820152604083013582811115611c1757600080fd5b611c2387828601611a34565b604083015250606083013582811115611c3b57600080fd5b611c4787828601611a34565b60608301525095945050505050565b60008060408385031215611c6957600080fd5b611c7283611973565b915060208301358015158114611c8757600080fd5b809150509250929050565b60008060008060808587031215611ca857600080fd5b611cb185611973565b9350611cbf60208601611973565b925060408501359150606085013567ffffffffffffffff811115611ce257600080fd5b611cee87828801611a34565b91505092959194509250565b60008060408385031215611d0d57600080fd5b611d1683611973565b9150611d2460208401611973565b90509250929050565b600181811c90821680611d4157607f821691505b602082108103611d6157634e487b7160e01b600052602260045260246000fd5b50919050565b601f82111561057c57600081815260208120601f850160051c81016020861015611d8e5750805b601f850160051c820191505b81811015611dad57828155600101611d9a565b505050505050565b815167ffffffffffffffff811115611dcf57611dcf6119f5565b611de381611ddd8454611d2d565b84611d67565b602080601f831160018114611e185760008415611e005750858301515b600019600386901b1c1916600185901b178555611dad565b600085815260208120601f198616915b82811015611e4757888601518255948401946001909101908401611e28565b5085821015611e655787850151600019600388901b60f8161c191681555b5050505050600190811b01905550565b805169ffffffffffffffffffff8116811461198a57600080fd5b600080600080600060a08688031215611ea757600080fd5b611eb086611e75565b9450602086015193506040860151925060608601519150611ed360808701611e75565b90509295509295909350565b600060208284031215611ef157600080fd5b815160ff81168114610cb257600080fd5b634e487b7160e01b600052601160045260246000fd5b600181815b80851115611f53578160001904821115611f3957611f39611f02565b80851615611f4657918102915b93841c9390800290611f1d565b509250929050565b600082611f6a5750600161047a565b81611f775750600061047a565b8160018114611f8d5760028114611f9757611fb3565b600191505061047a565b60ff841115611fa857611fa8611f02565b50506001821b61047a565b5060208310610133831016604e8410600b8410161715611fd6575081810a61047a565b611fe08383611f18565b8060001904821115611ff457611ff4611f02565b029392505050565b6000610cb260ff841683611f5b565b808202811582820484141761047a5761047a611f02565b60008261203f57634e487b7160e01b600052601260045260246000fd5b500490565b8381526bffffffffffffffffffffffff198360601b166020820152600082516120748160348501602087016118f7565b91909101603401949350505050565b8181038181111561047a5761047a611f02565b6000600182016120a8576120a8611f02565b5060010190565b8381528260208201526060604082015260006120ce606083018461191b565b95945050505050565b600083516120e98184602088016118f7565b8351908301906120fd8183602088016118f7565b01949350505050565b6001600160a01b03858116825284166020820152604081018390526080606082018190526000906121399083018461191b565b9695505050505050565b60006020828403121561215557600080fd5b8151610cb2816118c4565b634e487b7160e01b600052602160045260246000fdfe80bb2b638cc20bc4d0a60d66940f3ab4a00c1d7b313497ca82fb0b4ab0079300a2646970667358221220d2c5cee9f49a194187d234675b10c41a7373390032896769d622e23f8a6a917b64736f6c63430008140033",
  "linkReferences": {},
  "deployedLinkReferences": {}
}