{
  "_format": "hh-sol-artifact-1",
  "contractName": "ERC721V1",
  "sourceName": "contracts/NFT/ERC721V1.sol",
  "abi": [
    {
      "inputs": [],
      "stateMutability": "nonpayable",
      "type": "constructor"
    },
    {
      "inputs": [],
      "name": "ECDSAInvalidSignature",
      "type": "error"
    },
    {
      "inputs": [
        {
          "internalType": "uint256",
          "name": "length",
          "type": "uint256"
        }
      ],
      "name": "ECDSAInvalidSignatureLength",
      "type": "error"
    },
    {
      "inputs": [
        {
          "internalType": "bytes32",
          "name": "s",
          "type": "bytes32"
        }
      ],
      "name": "ECDSAInvalidSignatureS",
      "type": "error"
    },
    {
      "inputs": [
        {
          "internalType": "address",
          "name": "sender",
          "type": "address"
        },
        {
          "internalType": "uint256",
          "name": "tokenId",
          "type": "uint256"
        },
        {
          "internalType": "address",
          "name": "owner",
          "type": "address"
        }
      ],
      "name": "ERC721IncorrectOwner",
      "type": "error"
    },
    {
      "inputs": [
        {
          "internalType": "address",
          "name": "operator",
          "type": "address"
        },
        {
          "internalType": "uint256",
          "name": "tokenId",
          "type": "uint256"
        }
      ],
      "name": "ERC721InsufficientApproval",
      "type": "error"
    },
    {
      "inputs": [
        {
          "internalType": "address",
          "name": "approver",
          "type": "address"
        }
      ],
      "name": "ERC721InvalidApprover",
      "type": "error"
    },
    {
      "inputs": [
        {
          "internalType": "address",
          "name": "operator",
          "type": "address"
        }
      ],
      "name": "ERC721InvalidOperator",
      "type": "error"
    },
    {
      "inputs": [
        {
          "internalType": "address",
          "name": "owner",
          "type": "address"
        }
      ],
      "name": "ERC721InvalidOwner",
      "type": "error"
    },
    {
      "inputs": [
        {
          "internalType": "address",
          "name": "receiver",
          "type": "address"
        }
      ],
      "name": "ERC721InvalidReceiver",
      "type": "error"
    },
    {
      "inputs": [
        {
          "internalType": "address",
          "name": "sender",
          "type": "address"
        }
      ],
      "name": "ERC721InvalidSender",
      "type": "error"
    },
    {
      "inputs": [
        {
          "internalType": "uint256",
          "name": "tokenId",
          "type": "uint256"
        }
      ],
      "name": "ERC721NonexistentToken",
      "type": "error"
    },
    {
      "inputs": [
        {
          "internalType": "address",
          "name": "recipient",
          "type": "address"
        },
        {
          "internalType": "uint256",
          "name": "costs",
          "type": "uint256"
        },
        {
          "internalType": "uint256",
          "name": "value",
          "type": "uint256"
        }
      ],
      "name": "ERC721V1InsufficientFundsForMint",
      "type": "error"
    },
    {
      "inputs": [],
      "name": "ERC721V1InvalidMintSignature",
      "type": "error"
    },
    {
      "inputs": [
        {
          "internalType": "int256",
          "name": "price",
          "type": "int256"
        }
      ],
      "name": "ERC721V1NegativeCosts",
      "type": "error"
    },
    {
      "inputs": [
        {
          "internalType": "address",
          "name": "recipient",
          "type": "address"
        }
      ],
      "name": "ERC721V1TokenAlreadyMinted",
      "type": "error"
    },
    {
      "inputs": [
        {
          "internalType": "address",
          "name": "recipient",
          "type": "address"
        },
        {
          "internalType": "uint256",
          "name": "value",
          "type": "uint256"
        }
      ],
      "name": "ERC721V1TransferFailed",
      "type": "error"
    },
    {
      "inputs": [],
      "name": "ERC721V1TransferForbidden",
      "type": "error"
    },
    {
      "inputs": [],
      "name": "InvalidInitialization",
      "type": "error"
    },
    {
      "inputs": [],
      "name": "NotInitializing",
      "type": "error"
    },
    {
      "inputs": [
        {
          "internalType": "address",
          "name": "owner",
          "type": "address"
        }
      ],
      "name": "OwnableInvalidOwner",
      "type": "error"
    },
    {
      "inputs": [
        {
          "internalType": "address",
          "name": "account",
          "type": "address"
        }
      ],
      "name": "OwnableUnauthorizedAccount",
      "type": "error"
    },
    {
      "anonymous": false,
      "inputs": [
        {
          "indexed": true,
          "internalType": "address",
          "name": "owner",
          "type": "address"
        },
        {
          "indexed": true,
          "internalType": "address",
          "name": "approved",
          "type": "address"
        },
        {
          "indexed": true,
          "internalType": "uint256",
          "name": "tokenId",
          "type": "uint256"
        }
      ],
      "name": "Approval",
      "type": "event"
    },
    {
      "anonymous": false,
      "inputs": [
        {
          "indexed": true,
          "internalType": "address",
          "name": "owner",
          "type": "address"
        },
        {
          "indexed": true,
          "internalType": "address",
          "name": "operator",
          "type": "address"
        },
        {
          "indexed": false,
          "internalType": "bool",
          "name": "approved",
          "type": "bool"
        }
      ],
      "name": "ApprovalForAll",
      "type": "event"
    },
    {
      "anonymous": false,
      "inputs": [
        {
          "indexed": false,
          "internalType": "uint256",
          "name": "oldCosts",
          "type": "uint256"
        },
        {
          "indexed": false,
          "internalType": "uint256",
          "name": "newCosts",
          "type": "uint256"
        }
      ],
      "name": "CostsChanged",
      "type": "event"
    },
    {
      "anonymous": false,
      "inputs": [
        {
          "indexed": false,
          "internalType": "uint64",
          "name": "version",
          "type": "uint64"
        }
      ],
      "name": "Initialized",
      "type": "event"
    },
    {
      "anonymous": false,
      "inputs": [
        {
          "indexed": true,
          "internalType": "address",
          "name": "recipient",
          "type": "address"
        },
        {
          "indexed": false,
          "internalType": "uint256",
          "name": "tokenId",
          "type": "uint256"
        },
        {
          "indexed": false,
          "internalType": "uint256",
          "name": "costs",
          "type": "uint256"
        },
        {
          "indexed": false,
          "internalType": "string",
          "name": "referral",
          "type": "string"
        }
      ],
      "name": "Minted",
      "type": "event"
    },
    {
      "anonymous": false,
      "inputs": [
        {
          "indexed": true,
          "internalType": "address",
          "name": "previousOwner",
          "type": "address"
        },
        {
          "indexed": true,
          "internalType": "address",
          "name": "newOwner",
          "type": "address"
        }
      ],
      "name": "OwnershipTransferred",
      "type": "event"
    },
    {
      "anonymous": false,
      "inputs": [
        {
          "indexed": true,
          "internalType": "address",
          "name": "from",
          "type": "address"
        },
        {
          "indexed": true,
          "internalType": "address",
          "name": "to",
          "type": "address"
        },
        {
          "indexed": true,
          "internalType": "uint256",
          "name": "tokenId",
          "type": "uint256"
        }
      ],
      "name": "Transfer",
      "type": "event"
    },
    {
      "inputs": [
        {
          "internalType": "address",
          "name": "to",
          "type": "address"
        },
        {
          "internalType": "uint256",
          "name": "tokenId",
          "type": "uint256"
        }
      ],
      "name": "approve",
      "outputs": [],
      "stateMutability": "nonpayable",
      "type": "function"
    },
    {
      "inputs": [
        {
          "internalType": "address",
          "name": "owner",
          "type": "address"
        }
      ],
      "name": "balanceOf",
      "outputs": [
        {
          "internalType": "uint256",
          "name": "",
          "type": "uint256"
        }
      ],
      "stateMutability": "view",
      "type": "function"
    },
    {
      "inputs": [
        {
          "internalType": "uint256",
          "name": "newCostsUSD",
          "type": "uint256"
        }
      ],
      "name": "changeCosts",
      "outputs": [],
      "stateMutability": "nonpayable",
      "type": "function"
    },
    {
      "inputs": [],
      "name": "costsETH",
      "outputs": [
        {
          "internalType": "uint256",
          "name": "",
          "type": "uint256"
        }
      ],
      "stateMutability": "view",
      "type": "function"
    },
    {
      "inputs": [],
      "name": "costsUSD",
      "outputs": [
        {
          "internalType": "uint256",
          "name": "",
          "type": "uint256"
        }
      ],
      "stateMutability": "view",
      "type": "function"
    },
    {
      "inputs": [
        {
          "internalType": "uint256",
          "name": "tokenId",
          "type": "uint256"
        }
      ],
      "name": "getApproved",
      "outputs": [
        {
          "internalType": "address",
          "name": "",
          "type": "address"
        }
      ],
      "stateMutability": "view",
      "type": "function"
    },
    {
      "inputs": [
        {
          "internalType": "string",
          "name": "name",
          "type": "string"
        },
        {
          "internalType": "string",
          "name": "symbol",
          "type": "string"
        },
        {
          "internalType": "string",
          "name": "uri",
          "type": "string"
        },
        {
          "internalType": "uint256",
          "name": "__costsUSD",
          "type": "uint256"
        },
        {
          "internalType": "address",
          "name": "signer",
          "type": "address"
        },
        {
          "internalType": "address",
          "name": "priceFeed",
          "type": "address"
        },
        {
          "internalType": "address",
          "name": "vault",
          "type": "address"
        }
      ],
      "name": "initialize",
      "outputs": [],
      "stateMutability": "nonpayable",
      "type": "function"
    },
    {
      "inputs": [
        {
          "internalType": "address",
          "name": "owner",
          "type": "address"
        },
        {
          "internalType": "address",
          "name": "operator",
          "type": "address"
        }
      ],
      "name": "isApprovedForAll",
      "outputs": [
        {
          "internalType": "bool",
          "name": "",
          "type": "bool"
        }
      ],
      "stateMutability": "view",
      "type": "function"
    },
    {
      "inputs": [
        {
          "components": [
            {
              "internalType": "bytes32",
              "name": "id",
              "type": "bytes32"
            },
            {
              "internalType": "address",
              "name": "recipient",
              "type": "address"
            },
            {
              "internalType": "string",
              "name": "referral",
              "type": "string"
            },
            {
              "internalType": "bytes",
              "name": "signature",
              "type": "bytes"
            }
          ],
          "internalType": "struct ERC721V1.MintPayload",
          "name": "payload",
          "type": "tuple"
        }
      ],
      "name": "mint",
      "outputs": [],
      "stateMutability": "payable",
      "type": "function"
    },
    {
      "inputs": [],
      "name": "name",
      "outputs": [
        {
          "internalType": "string",
          "name": "",
          "type": "string"
        }
      ],
      "stateMutability": "view",
      "type": "function"
    },
    {
      "inputs": [],
      "name": "owner",
      "outputs": [
        {
          "internalType": "address",
          "name": "",
          "type": "address"
        }
      ],
      "stateMutability": "view",
      "type": "function"
    },
    {
      "inputs": [
        {
          "internalType": "uint256",
          "name": "tokenId",
          "type": "uint256"
        }
      ],
      "name": "ownerOf",
      "outputs": [
        {
          "internalType": "address",
          "name": "",
          "type": "address"
        }
      ],
      "stateMutability": "view",
      "type": "function"
    },
    {
      "inputs": [],
      "name": "renounceOwnership",
      "outputs": [],
      "stateMutability": "nonpayable",
      "type": "function"
    },
    {
      "inputs": [
        {
          "internalType": "address",
          "name": "from",
          "type": "address"
        },
        {
          "internalType": "address",
          "name": "to",
          "type": "address"
        },
        {
          "internalType": "uint256",
          "name": "tokenId",
          "type": "uint256"
        }
      ],
      "name": "safeTransferFrom",
      "outputs": [],
      "stateMutability": "nonpayable",
      "type": "function"
    },
    {
      "inputs": [
        {
          "internalType": "address",
          "name": "from",
          "type": "address"
        },
        {
          "internalType": "address",
          "name": "to",
          "type": "address"
        },
        {
          "internalType": "uint256",
          "name": "tokenId",
          "type": "uint256"
        },
        {
          "internalType": "bytes",
          "name": "data",
          "type": "bytes"
        }
      ],
      "name": "safeTransferFrom",
      "outputs": [],
      "stateMutability": "nonpayable",
      "type": "function"
    },
    {
      "inputs": [
        {
          "internalType": "address",
          "name": "operator",
          "type": "address"
        },
        {
          "internalType": "bool",
          "name": "approved",
          "type": "bool"
        }
      ],
      "name": "setApprovalForAll",
      "outputs": [],
      "stateMutability": "nonpayable",
      "type": "function"
    },
    {
      "inputs": [
        {
          "internalType": "bytes4",
          "name": "interfaceId",
          "type": "bytes4"
        }
      ],
      "name": "supportsInterface",
      "outputs": [
        {
          "internalType": "bool",
          "name": "",
          "type": "bool"
        }
      ],
      "stateMutability": "view",
      "type": "function"
    },
    {
      "inputs": [],
      "name": "symbol",
      "outputs": [
        {
          "internalType": "string",
          "name": "",
          "type": "string"
        }
      ],
      "stateMutability": "view",
      "type": "function"
    },
    {
      "inputs": [
        {
          "internalType": "uint256",
          "name": "tokenId",
          "type": "uint256"
        }
      ],
      "name": "tokenURI",
      "outputs": [
        {
          "internalType": "string",
          "name": "",
          "type": "string"
        }
      ],
      "stateMutability": "view",
      "type": "function"
    },
    {
      "inputs": [],
      "name": "totalSupply",
      "outputs": [
        {
          "internalType": "uint256",
          "name": "",
          "type": "uint256"
        }
      ],
      "stateMutability": "view",
      "type": "function"
    },
    {
      "inputs": [
        {
          "internalType": "address",
          "name": "",
          "type": "address"
        },
        {
          "internalType": "address",
          "name": "",
          "type": "address"
        },
        {
          "internalType": "uint256",
          "name": "",
          "type": "uint256"
        }
      ],
      "name": "transferFrom",
      "outputs": [],
      "stateMutability": "nonpayable",
      "type": "function"
    },
    {
      "inputs": [
        {
          "internalType": "address",
          "name": "newOwner",
          "type": "address"
        }
      ],
      "name": "transferOwnership",
      "outputs": [],
      "stateMutability": "nonpayable",
      "type": "function"
    }
  ],
  "bytecode": "0x608060405234801561001057600080fd5b5061001961001e565b6100d0565b7ff0c57e16840df040f15088dc2f81fe391c3923bec73e23a9662efc9c229c6a00805468010000000000000000900460ff161561006e5760405163f92ee8a960e01b815260040160405180910390fd5b80546001600160401b03908116146100cd5780546001600160401b0319166001600160401b0390811782556040519081527fc7f505b2f371ae2175ee4913f4499e1f2633a7b5936321eed1cdaeb6115181d29060200160405180910390a15b50565b61217e80620000e06000396000f3fe6080604052600436106101355760003560e01c80637f812575116100ab578063a22cb4651161006f578063a22cb46514610359578063b88d4fde14610379578063c87b56dd14610399578063e985e9c5146103b9578063f2fde38b146103d9578063f800f228146103f957600080fd5b80637f812575146102b457806387ca93ce146102d45780638da5cb5b146102e757806395d89b41146103245780639a12cb1e1461033957600080fd5b806323b872dd116100fd57806323b872dd1461020a57806342842e0e1461022a5780636352211e1461024a5780636574ef861461026a57806370a082311461027f578063715018a61461029f57600080fd5b806301ffc9a71461013a57806306fdde031461016f578063081812fc14610191578063095ea7b3146101c957806318160ddd146101eb575b600080fd5b34801561014657600080fd5b5061015a610155366004611896565b61040e565b60405190151581526020015b60405180910390f35b34801561017b57600080fd5b50610184610460565b6040516101669190611903565b34801561019d57600080fd5b506101b16101ac366004611916565b610504565b6040516001600160a01b039091168152602001610166565b3480156101d557600080fd5b506101e96101e436600461194b565b610519565b005b3480156101f757600080fd5b506001545b604051908152602001610166565b34801561021657600080fd5b506101e9610225366004611975565b610528565b34801561023657600080fd5b506101e9610245366004611975565b610541565b34801561025657600080fd5b506101b1610265366004611916565b610561565b34801561027657600080fd5b506101fc61056c565b34801561028b57600080fd5b506101fc61029a3660046119b1565b6106a8565b3480156102ab57600080fd5b506101e9610704565b3480156102c057600080fd5b506101e96102cf366004611a98565b610718565b6101e96102e2366004611b5c565b610887565b3480156102f357600080fd5b507f9016d09d72d40fdae2fd8ceac6b6234c7706214fd39c1cd1e609a0528c199300546001600160a01b03166101b1565b34801561033057600080fd5b50610184610b59565b34801561034557600080fd5b506101e9610354366004611916565b610b98565b34801561036557600080fd5b506101e9610374366004611c08565b610be5565b34801561038557600080fd5b506101e9610394366004611c44565b610bf0565b3480156103a557600080fd5b506101846103b4366004611916565b610c0d565b3480156103c557600080fd5b5061015a6103d4366004611cac565b610c75565b3480156103e557600080fd5b506101e96103f43660046119b1565b610cc2565b34801561040557600080fd5b506002546101fc565b60006001600160e01b031982166380ac58cd60e01b148061043f57506001600160e01b03198216635b5e139f60e01b145b8061045a57506301ffc9a760e01b6001600160e01b03198316145b92915050565b600080516020612129833981519152805460609190819061048090611cdf565b80601f01602080910402602001604051908101604052809291908181526020018280546104ac90611cdf565b80156104f95780601f106104ce576101008083540402835291602001916104f9565b820191906000526020600020905b8154815290600101906020018083116104dc57829003601f168201915b505050505091505090565b600061050f82610d00565b5061045a82610d38565b610524828233610d72565b5050565b604051637d8626bf60e11b815260040160405180910390fd5b61055c83838360405180602001604052806000815250610bf0565b505050565b600061045a82610d00565b6004805460408051633fabe5a360e21b8152905160009384936001600160a01b03169263feaf968c928183019260a0928290030181865afa1580156105b5573d6000803e3d6000fd5b505050506040513d601f19601f820116820180604052508101906105d99190611d33565b505050915050600081136106085760405163153f03af60e21b8152600481018290526024015b60405180910390fd5b80600460009054906101000a90046001600160a01b03166001600160a01b031663313ce5676040518163ffffffff1660e01b8152600401602060405180830381865afa15801561065c573d6000803e3d6000fd5b505050506040513d601f19601f820116820180604052508101906106809190611d83565b61068b90600a611ea0565b6002546106989190611eaf565b6106a29190611ec6565b91505090565b60006000805160206121298339815191526001600160a01b0383166106e3576040516322718ad960e21b8152600060048201526024016105ff565b6001600160a01b039092166000908152600390920160205250604090205490565b61070c610d7f565b6107166000610dda565b565b7ff0c57e16840df040f15088dc2f81fe391c3923bec73e23a9662efc9c229c6a008054600160401b810460ff16159067ffffffffffffffff1660008115801561075e5750825b905060008267ffffffffffffffff16600114801561077b5750303b155b905081158015610789575080155b156107a75760405163f92ee8a960e01b815260040160405180910390fd5b845467ffffffffffffffff1916600117855583156107d157845460ff60401b1916600160401b1785555b6107db8c8c610e4b565b6107e433610e5d565b60006107f08b82611f36565b506002899055600380546001600160a01b03808b166001600160a01b031992831617909255600480548a84169083161790556005805492891692909116919091179055831561087957845460ff60401b19168555604051600181527fc7f505b2f371ae2175ee4913f4499e1f2633a7b5936321eed1cdaeb6115181d29060200160405180910390a15b505050505050505050505050565b60008160000151826020015183604001516040516020016108aa93929190611ff6565b60408051601f19818403018152919052805160209091012060035460608401519192506001600160a01b03169061091890610912847f19457468657265756d205369676e6564204d6573736167653a0a3332000000006000908152601c91909152603c902090565b90610e6e565b6001600160a01b03161461093f576040516349f32f0160e11b815260040160405180910390fd5b6020820151600061094f826106a8565b1115610979576040516365f273e960e01b81526001600160a01b03821660048201526024016105ff565b600061098361056c565b9050803410156109be57604051634af7288d60e11b81526001600160a01b0383166004820152602481018290523460448201526064016105ff565b6005546040516000916001600160a01b03169083908381818185875af1925050503d8060008114610a0b576040519150601f19603f3d011682016040523d82523d6000602084013e610a10565b606091505b5050905080610a48576005546040516309955be960e21b81526001600160a01b039091166004820152602481018390526044016105ff565b81341115610ae7576000610a5c8334612035565b90506000846001600160a01b03168260405160006040518083038185875af1925050503d8060008114610aab576040519150601f19603f3d011682016040523d82523d6000602084013e610ab0565b606091505b5050905080610ae4576040516309955be960e21b81526001600160a01b0386166004820152602481018390526044016105ff565b50505b6001805460009182610af883612048565b919050559050610b088482610e98565b836001600160a01b03167ff2cb5e52049d127ad1c335f1cc25f2fdbc911bec1beb2611f4c1e8b1c274d4b482858960400151604051610b4993929190612061565b60405180910390a2505050505050565b7f80bb2b638cc20bc4d0a60d66940f3ab4a00c1d7b313497ca82fb0b4ab007930180546060916000805160206121298339815191529161048090611cdf565b610ba0610d7f565b600280549082905560408051828152602081018490527f2679f06bd6ac5b0498704c9232cd7f20206df1261540db52c85327dc0cf6d333910160405180910390a15050565b610524338383610eb2565b610bfb848484610528565b610c0784848484610f63565b50505050565b6060610c1882610d00565b506000610c2361108c565b90506000815111610c435760405180602001604052806000815250610c6e565b80610c4d8461111e565b604051602001610c5e929190612089565b6040516020818303038152906040525b9392505050565b6001600160a01b0391821660009081527f80bb2b638cc20bc4d0a60d66940f3ab4a00c1d7b313497ca82fb0b4ab00793056020908152604080832093909416825291909152205460ff1690565b610cca610d7f565b6001600160a01b038116610cf457604051631e4fbdf760e01b8152600060048201526024016105ff565b610cfd81610dda565b50565b600080610d0c836111b1565b90506001600160a01b03811661045a57604051637e27328960e01b8152600481018490526024016105ff565b60009081527f80bb2b638cc20bc4d0a60d66940f3ab4a00c1d7b313497ca82fb0b4ab007930460205260409020546001600160a01b031690565b61055c83838360016111eb565b33610db17f9016d09d72d40fdae2fd8ceac6b6234c7706214fd39c1cd1e609a0528c199300546001600160a01b031690565b6001600160a01b0316146107165760405163118cdaa760e01b81523360048201526024016105ff565b7f9016d09d72d40fdae2fd8ceac6b6234c7706214fd39c1cd1e609a0528c19930080546001600160a01b031981166001600160a01b03848116918217845560405192169182907f8be0079c531659141344cd1fd0a4f28419497f9722a3daafe3b4186f6b6457e090600090a3505050565b610e53611301565b610524828261134a565b610e65611301565b610cfd8161137b565b600080600080610e7e8686611383565b925092509250610e8e82826113d0565b5090949350505050565b610524828260405180602001604052806000815250611489565b6000805160206121298339815191526001600160a01b038316610ef357604051630b61174360e31b81526001600160a01b03841660048201526024016105ff565b6001600160a01b038481166000818152600584016020908152604080832094881680845294825291829020805460ff191687151590811790915591519182527f17307eab39ab6107e8899845ad3d59bd9653f200f220920489ca2b5937696c31910160405180910390a350505050565b6001600160a01b0383163b15610c0757604051630a85bd0160e11b81526001600160a01b0384169063150b7a0290610fa59033908890879087906004016120b8565b6020604051808303816000875af1925050508015610fe0575060408051601f3d908101601f19168201909252610fdd918101906120f5565b60015b611049573d80801561100e576040519150601f19603f3d011682016040523d82523d6000602084013e611013565b606091505b50805160000361104157604051633250574960e11b81526001600160a01b03851660048201526024016105ff565b805181602001fd5b6001600160e01b03198116630a85bd0160e11b1461108557604051633250574960e11b81526001600160a01b03851660048201526024016105ff565b5050505050565b60606000805461109b90611cdf565b80601f01602080910402602001604051908101604052809291908181526020018280546110c790611cdf565b80156111145780601f106110e957610100808354040283529160200191611114565b820191906000526020600020905b8154815290600101906020018083116110f757829003601f168201915b5050505050905090565b6060600061112b836114a0565b600101905060008167ffffffffffffffff81111561114b5761114b6119cc565b6040519080825280601f01601f191660200182016040528015611175576020820181803683370190505b5090508181016020015b600019016f181899199a1a9b1b9c1cb0b131b232b360811b600a86061a8153600a850494508461117f57509392505050565b60009081527f80bb2b638cc20bc4d0a60d66940f3ab4a00c1d7b313497ca82fb0b4ab007930260205260409020546001600160a01b031690565b600080516020612129833981519152818061120e57506001600160a01b03831615155b156112d057600061121e85610d00565b90506001600160a01b0384161580159061124a5750836001600160a01b0316816001600160a01b031614155b801561125d575061125b8185610c75565b155b156112865760405163a9fbf51f60e01b81526001600160a01b03851660048201526024016105ff565b82156112ce5784866001600160a01b0316826001600160a01b03167f8c5be1e5ebec7d5bd14f71427d1e84f3dd0314c0f7b2291e5b200ac8c7c3b92560405160405180910390a45b505b600093845260040160205250506040902080546001600160a01b0319166001600160a01b0392909216919091179055565b7ff0c57e16840df040f15088dc2f81fe391c3923bec73e23a9662efc9c229c6a0054600160401b900460ff1661071657604051631afcd79f60e31b815260040160405180910390fd5b611352611301565b6000805160206121298339815191528061136c8482611f36565b5060018101610c078382611f36565b610cca611301565b600080600083516041036113bd5760208401516040850151606086015160001a6113af88828585611578565b9550955095505050506113c9565b50508151600091506002905b9250925092565b60008260038111156113e4576113e4612112565b036113ed575050565b600182600381111561140157611401612112565b0361141f5760405163f645eedf60e01b815260040160405180910390fd5b600282600381111561143357611433612112565b036114545760405163fce698f760e01b8152600481018290526024016105ff565b600382600381111561146857611468612112565b03610524576040516335e2f38360e21b8152600481018290526024016105ff565b6114938383611647565b61055c6000848484610f63565b60008072184f03e93ff9f4daa797ed6e38ed64bf6a1f0160401b83106114df5772184f03e93ff9f4daa797ed6e38ed64bf6a1f0160401b830492506040015b6d04ee2d6d415b85acef8100000000831061150b576d04ee2d6d415b85acef8100000000830492506020015b662386f26fc10000831061152957662386f26fc10000830492506010015b6305f5e1008310611541576305f5e100830492506008015b612710831061155557612710830492506004015b60648310611567576064830492506002015b600a831061045a5760010192915050565b600080807f7fffffffffffffffffffffffffffffff5d576e7357a4501ddfe92f46681b20a08411156115b3575060009150600390508261163d565b604080516000808252602082018084528a905260ff891692820192909252606081018790526080810186905260019060a0016020604051602081039080840390855afa158015611607573d6000803e3d6000fd5b5050604051601f1901519150506001600160a01b0381166116335750600092506001915082905061163d565b9250600091508190505b9450945094915050565b6001600160a01b03821661167157604051633250574960e11b8152600060048201526024016105ff565b600061167f838360006116ac565b90506001600160a01b0381161561055c576040516339e3563760e11b8152600060048201526024016105ff565b6000600080516020612129833981519152816116c7856111b1565b90506001600160a01b038416156116e3576116e38185876117b6565b6001600160a01b03811615611723576117006000866000806111eb565b6001600160a01b0381166000908152600383016020526040902080546000190190555b6001600160a01b03861615611754576001600160a01b03861660009081526003830160205260409020805460010190555b600085815260028301602052604080822080546001600160a01b0319166001600160a01b038a811691821790925591518893918516917fddf252ad1be2c89b69c2b068fc378daa952ba7f163c4a11628f55a4df523b3ef91a495945050505050565b6117c183838361181a565b61055c576001600160a01b0383166117ef57604051637e27328960e01b8152600481018290526024016105ff565b60405163177e802f60e01b81526001600160a01b0383166004820152602481018290526044016105ff565b60006001600160a01b038316158015906118785750826001600160a01b0316846001600160a01b0316148061185457506118548484610c75565b806118785750826001600160a01b031661186d83610d38565b6001600160a01b0316145b949350505050565b6001600160e01b031981168114610cfd57600080fd5b6000602082840312156118a857600080fd5b8135610c6e81611880565b60005b838110156118ce5781810151838201526020016118b6565b50506000910152565b600081518084526118ef8160208601602086016118b3565b601f01601f19169290920160200192915050565b602081526000610c6e60208301846118d7565b60006020828403121561192857600080fd5b5035919050565b80356001600160a01b038116811461194657600080fd5b919050565b6000806040838503121561195e57600080fd5b6119678361192f565b946020939093013593505050565b60008060006060848603121561198a57600080fd5b6119938461192f565b92506119a16020850161192f565b9150604084013590509250925092565b6000602082840312156119c357600080fd5b610c6e8261192f565b634e487b7160e01b600052604160045260246000fd5b6040516080810167ffffffffffffffff81118282101715611a0557611a056119cc565b60405290565b600082601f830112611a1c57600080fd5b813567ffffffffffffffff80821115611a3757611a376119cc565b604051601f8301601f19908116603f01168101908282118183101715611a5f57611a5f6119cc565b81604052838152866020858801011115611a7857600080fd5b836020870160208301376000602085830101528094505050505092915050565b600080600080600080600060e0888a031215611ab357600080fd5b873567ffffffffffffffff80821115611acb57600080fd5b611ad78b838c01611a0b565b985060208a0135915080821115611aed57600080fd5b611af98b838c01611a0b565b975060408a0135915080821115611b0f57600080fd5b50611b1c8a828b01611a0b565b95505060608801359350611b326080890161192f565b9250611b4060a0890161192f565b9150611b4e60c0890161192f565b905092959891949750929550565b600060208284031215611b6e57600080fd5b813567ffffffffffffffff80821115611b8657600080fd5b9083019060808286031215611b9a57600080fd5b611ba26119e2565b82358152611bb26020840161192f565b6020820152604083013582811115611bc957600080fd5b611bd587828601611a0b565b604083015250606083013582811115611bed57600080fd5b611bf987828601611a0b565b60608301525095945050505050565b60008060408385031215611c1b57600080fd5b611c248361192f565b915060208301358015158114611c3957600080fd5b809150509250929050565b60008060008060808587031215611c5a57600080fd5b611c638561192f565b9350611c716020860161192f565b925060408501359150606085013567ffffffffffffffff811115611c9457600080fd5b611ca087828801611a0b565b91505092959194509250565b60008060408385031215611cbf57600080fd5b611cc88361192f565b9150611cd66020840161192f565b90509250929050565b600181811c90821680611cf357607f821691505b602082108103611d1357634e487b7160e01b600052602260045260246000fd5b50919050565b805169ffffffffffffffffffff8116811461194657600080fd5b600080600080600060a08688031215611d4b57600080fd5b611d5486611d19565b9450602086015193506040860151925060608601519150611d7760808701611d19565b90509295509295909350565b600060208284031215611d9557600080fd5b815160ff81168114610c6e57600080fd5b634e487b7160e01b600052601160045260246000fd5b600181815b80851115611df7578160001904821115611ddd57611ddd611da6565b80851615611dea57918102915b93841c9390800290611dc1565b509250929050565b600082611e0e5750600161045a565b81611e1b5750600061045a565b8160018114611e315760028114611e3b57611e57565b600191505061045a565b60ff841115611e4c57611e4c611da6565b50506001821b61045a565b5060208310610133831016604e8410600b8410161715611e7a575081810a61045a565b611e848383611dbc565b8060001904821115611e9857611e98611da6565b029392505050565b6000610c6e60ff841683611dff565b808202811582820484141761045a5761045a611da6565b600082611ee357634e487b7160e01b600052601260045260246000fd5b500490565b601f82111561055c57600081815260208120601f850160051c81016020861015611f0f5750805b601f850160051c820191505b81811015611f2e57828155600101611f1b565b505050505050565b815167ffffffffffffffff811115611f5057611f506119cc565b611f6481611f5e8454611cdf565b84611ee8565b602080601f831160018114611f995760008415611f815750858301515b600019600386901b1c1916600185901b178555611f2e565b600085815260208120601f198616915b82811015611fc857888601518255948401946001909101908401611fa9565b5085821015611fe65787850151600019600388901b60f8161c191681555b5050505050600190811b01905550565b8381526bffffffffffffffffffffffff198360601b166020820152600082516120268160348501602087016118b3565b91909101603401949350505050565b8181038181111561045a5761045a611da6565b60006001820161205a5761205a611da6565b5060010190565b83815282602082015260606040820152600061208060608301846118d7565b95945050505050565b6000835161209b8184602088016118b3565b8351908301906120af8183602088016118b3565b01949350505050565b6001600160a01b03858116825284166020820152604081018390526080606082018190526000906120eb908301846118d7565b9695505050505050565b60006020828403121561210757600080fd5b8151610c6e81611880565b634e487b7160e01b600052602160045260246000fdfe80bb2b638cc20bc4d0a60d66940f3ab4a00c1d7b313497ca82fb0b4ab0079300a2646970667358221220bffc35d6907b6c923f5d513c025ad71565b7afbe0ba33ca7c490e28d4779479764736f6c63430008140033",
  "linkReferences": {},
  "deployedLinkReferences": {}
}