{
  "_format": "hh-sol-artifact-1",
  "contractName": "BadgeV1",
  "sourceName": "contracts/NFT/BadgeV1.sol",
  "abi": [
    {
      "inputs": [],
      "stateMutability": "nonpayable",
      "type": "constructor"
    },
    {
      "inputs": [
        {
          "internalType": "address",
          "name": "recipient",
          "type": "address"
        },
        {
          "internalType": "uint256",
          "name": "costs",
          "type": "uint256"
        },
        {
          "internalType": "uint256",
          "name": "value",
          "type": "uint256"
        }
      ],
      "name": "BadgeV1InsufficientFundsForMint",
      "type": "error"
    },
    {
      "inputs": [],
      "name": "BadgeV1InvalidBurnRegistry",
      "type": "error"
    },
    {
      "inputs": [],
      "name": "BadgeV1InvalidMintSignature",
      "type": "error"
    },
    {
      "inputs": [
        {
          "internalType": "int256",
          "name": "price",
          "type": "int256"
        }
      ],
      "name": "BadgeV1NegativeCosts",
      "type": "error"
    },
    {
      "inputs": [
        {
          "internalType": "address",
          "name": "recipient",
          "type": "address"
        },
        {
          "internalType": "uint256",
          "name": "totalSupply",
          "type": "uint256"
        },
        {
          "internalType": "uint256",
          "name": "maxTotalSupply",
          "type": "uint256"
        }
      ],
      "name": "BadgeV1NoTokenAvailable",
      "type": "error"
    },
    {
      "inputs": [
        {
          "internalType": "address",
          "name": "recipient",
          "type": "address"
        }
      ],
      "name": "BadgeV1TokenAlreadyMinted",
      "type": "error"
    },
    {
      "inputs": [
        {
          "internalType": "address",
          "name": "recipient",
          "type": "address"
        },
        {
          "internalType": "uint256",
          "name": "value",
          "type": "uint256"
        }
      ],
      "name": "BadgeV1TransferFailed",
      "type": "error"
    },
    {
      "inputs": [],
      "name": "BadgeV1TransferForbidden",
      "type": "error"
    },
    {
      "inputs": [],
      "name": "ECDSAInvalidSignature",
      "type": "error"
    },
    {
      "inputs": [
        {
          "internalType": "uint256",
          "name": "length",
          "type": "uint256"
        }
      ],
      "name": "ECDSAInvalidSignatureLength",
      "type": "error"
    },
    {
      "inputs": [
        {
          "internalType": "bytes32",
          "name": "s",
          "type": "bytes32"
        }
      ],
      "name": "ECDSAInvalidSignatureS",
      "type": "error"
    },
    {
      "inputs": [
        {
          "internalType": "address",
          "name": "sender",
          "type": "address"
        },
        {
          "internalType": "uint256",
          "name": "tokenId",
          "type": "uint256"
        },
        {
          "internalType": "address",
          "name": "owner",
          "type": "address"
        }
      ],
      "name": "ERC721IncorrectOwner",
      "type": "error"
    },
    {
      "inputs": [
        {
          "internalType": "address",
          "name": "operator",
          "type": "address"
        },
        {
          "internalType": "uint256",
          "name": "tokenId",
          "type": "uint256"
        }
      ],
      "name": "ERC721InsufficientApproval",
      "type": "error"
    },
    {
      "inputs": [
        {
          "internalType": "address",
          "name": "approver",
          "type": "address"
        }
      ],
      "name": "ERC721InvalidApprover",
      "type": "error"
    },
    {
      "inputs": [
        {
          "internalType": "address",
          "name": "operator",
          "type": "address"
        }
      ],
      "name": "ERC721InvalidOperator",
      "type": "error"
    },
    {
      "inputs": [
        {
          "internalType": "address",
          "name": "owner",
          "type": "address"
        }
      ],
      "name": "ERC721InvalidOwner",
      "type": "error"
    },
    {
      "inputs": [
        {
          "internalType": "address",
          "name": "receiver",
          "type": "address"
        }
      ],
      "name": "ERC721InvalidReceiver",
      "type": "error"
    },
    {
      "inputs": [
        {
          "internalType": "address",
          "name": "sender",
          "type": "address"
        }
      ],
      "name": "ERC721InvalidSender",
      "type": "error"
    },
    {
      "inputs": [
        {
          "internalType": "uint256",
          "name": "tokenId",
          "type": "uint256"
        }
      ],
      "name": "ERC721NonexistentToken",
      "type": "error"
    },
    {
      "inputs": [],
      "name": "InvalidInitialization",
      "type": "error"
    },
    {
      "inputs": [],
      "name": "NotInitializing",
      "type": "error"
    },
    {
      "inputs": [
        {
          "internalType": "address",
          "name": "owner",
          "type": "address"
        }
      ],
      "name": "OwnableInvalidOwner",
      "type": "error"
    },
    {
      "inputs": [
        {
          "internalType": "address",
          "name": "account",
          "type": "address"
        }
      ],
      "name": "OwnableUnauthorizedAccount",
      "type": "error"
    },
    {
      "inputs": [],
      "name": "ReentrancyGuardReentrantCall",
      "type": "error"
    },
    {
      "anonymous": false,
      "inputs": [
        {
          "indexed": true,
          "internalType": "address",
          "name": "owner",
          "type": "address"
        },
        {
          "indexed": true,
          "internalType": "address",
          "name": "approved",
          "type": "address"
        },
        {
          "indexed": true,
          "internalType": "uint256",
          "name": "tokenId",
          "type": "uint256"
        }
      ],
      "name": "Approval",
      "type": "event"
    },
    {
      "anonymous": false,
      "inputs": [
        {
          "indexed": true,
          "internalType": "address",
          "name": "owner",
          "type": "address"
        },
        {
          "indexed": true,
          "internalType": "address",
          "name": "operator",
          "type": "address"
        },
        {
          "indexed": false,
          "internalType": "bool",
          "name": "approved",
          "type": "bool"
        }
      ],
      "name": "ApprovalForAll",
      "type": "event"
    },
    {
      "anonymous": false,
      "inputs": [],
      "name": "BurnRegistryChanged",
      "type": "event"
    },
    {
      "anonymous": false,
      "inputs": [
        {
          "indexed": false,
          "internalType": "uint256",
          "name": "oldCosts",
          "type": "uint256"
        },
        {
          "indexed": false,
          "internalType": "uint256",
          "name": "newCosts",
          "type": "uint256"
        }
      ],
      "name": "CostsChanged",
      "type": "event"
    },
    {
      "anonymous": false,
      "inputs": [
        {
          "indexed": false,
          "internalType": "uint64",
          "name": "version",
          "type": "uint64"
        }
      ],
      "name": "Initialized",
      "type": "event"
    },
    {
      "anonymous": false,
      "inputs": [
        {
          "indexed": true,
          "internalType": "address",
          "name": "recipient",
          "type": "address"
        },
        {
          "indexed": false,
          "internalType": "uint256",
          "name": "tokenId",
          "type": "uint256"
        },
        {
          "indexed": false,
          "internalType": "uint256",
          "name": "costs",
          "type": "uint256"
        },
        {
          "indexed": false,
          "internalType": "string",
          "name": "referral",
          "type": "string"
        }
      ],
      "name": "Minted",
      "type": "event"
    },
    {
      "anonymous": false,
      "inputs": [
        {
          "indexed": true,
          "internalType": "address",
          "name": "previousOwner",
          "type": "address"
        },
        {
          "indexed": true,
          "internalType": "address",
          "name": "newOwner",
          "type": "address"
        }
      ],
      "name": "OwnershipTransferred",
      "type": "event"
    },
    {
      "anonymous": false,
      "inputs": [
        {
          "indexed": true,
          "internalType": "address",
          "name": "from",
          "type": "address"
        },
        {
          "indexed": true,
          "internalType": "address",
          "name": "to",
          "type": "address"
        },
        {
          "indexed": true,
          "internalType": "uint256",
          "name": "tokenId",
          "type": "uint256"
        }
      ],
      "name": "Transfer",
      "type": "event"
    },
    {
      "inputs": [
        {
          "internalType": "address",
          "name": "to",
          "type": "address"
        },
        {
          "internalType": "uint256",
          "name": "tokenId",
          "type": "uint256"
        }
      ],
      "name": "approve",
      "outputs": [],
      "stateMutability": "nonpayable",
      "type": "function"
    },
    {
      "inputs": [
        {
          "internalType": "address",
          "name": "owner",
          "type": "address"
        }
      ],
      "name": "balanceOf",
      "outputs": [
        {
          "internalType": "uint256",
          "name": "",
          "type": "uint256"
        }
      ],
      "stateMutability": "view",
      "type": "function"
    },
    {
      "inputs": [
        {
          "internalType": "uint256",
          "name": "tokenId",
          "type": "uint256"
        }
      ],
      "name": "burn",
      "outputs": [],
      "stateMutability": "nonpayable",
      "type": "function"
    },
    {
      "inputs": [],
      "name": "burnRegistry",
      "outputs": [
        {
          "internalType": "address",
          "name": "",
          "type": "address"
        }
      ],
      "stateMutability": "view",
      "type": "function"
    },
    {
      "inputs": [
        {
          "internalType": "address payable",
          "name": "__burnRegistry",
          "type": "address"
        }
      ],
      "name": "changeBurnRegistry",
      "outputs": [],
      "stateMutability": "nonpayable",
      "type": "function"
    },
    {
      "inputs": [
        {
          "internalType": "uint256",
          "name": "newCostsUSD",
          "type": "uint256"
        }
      ],
      "name": "changeCosts",
      "outputs": [],
      "stateMutability": "nonpayable",
      "type": "function"
    },
    {
      "inputs": [],
      "name": "costsETH",
      "outputs": [
        {
          "internalType": "uint256",
          "name": "",
          "type": "uint256"
        }
      ],
      "stateMutability": "view",
      "type": "function"
    },
    {
      "inputs": [],
      "name": "costsUSD",
      "outputs": [
        {
          "internalType": "uint256",
          "name": "",
          "type": "uint256"
        }
      ],
      "stateMutability": "view",
      "type": "function"
    },
    {
      "inputs": [
        {
          "internalType": "uint256",
          "name": "tokenId",
          "type": "uint256"
        }
      ],
      "name": "getApproved",
      "outputs": [
        {
          "internalType": "address",
          "name": "",
          "type": "address"
        }
      ],
      "stateMutability": "view",
      "type": "function"
    },
    {
      "inputs": [],
      "name": "id",
      "outputs": [
        {
          "internalType": "bytes32",
          "name": "",
          "type": "bytes32"
        }
      ],
      "stateMutability": "view",
      "type": "function"
    },
    {
      "inputs": [
        {
          "internalType": "bytes32",
          "name": "__id",
          "type": "bytes32"
        },
        {
          "internalType": "uint256",
          "name": "__maxTotalSupply",
          "type": "uint256"
        },
        {
          "internalType": "string",
          "name": "name",
          "type": "string"
        },
        {
          "internalType": "string",
          "name": "symbol",
          "type": "string"
        },
        {
          "internalType": "string",
          "name": "uri",
          "type": "string"
        },
        {
          "internalType": "uint256",
          "name": "__costsUSD",
          "type": "uint256"
        },
        {
          "internalType": "address",
          "name": "__signer",
          "type": "address"
        },
        {
          "internalType": "address",
          "name": "__priceFeed",
          "type": "address"
        },
        {
          "internalType": "address",
          "name": "__vault",
          "type": "address"
        },
        {
          "internalType": "address payable",
          "name": "__burnRegistry",
          "type": "address"
        }
      ],
      "name": "initialize",
      "outputs": [],
      "stateMutability": "nonpayable",
      "type": "function"
    },
    {
      "inputs": [
        {
          "internalType": "address",
          "name": "owner",
          "type": "address"
        },
        {
          "internalType": "address",
          "name": "operator",
          "type": "address"
        }
      ],
      "name": "isApprovedForAll",
      "outputs": [
        {
          "internalType": "bool",
          "name": "",
          "type": "bool"
        }
      ],
      "stateMutability": "view",
      "type": "function"
    },
    {
      "inputs": [],
      "name": "maxTotalSupply",
      "outputs": [
        {
          "internalType": "uint256",
          "name": "",
          "type": "uint256"
        }
      ],
      "stateMutability": "view",
      "type": "function"
    },
    {
      "inputs": [
        {
          "components": [
            {
              "internalType": "bytes32",
              "name": "id",
              "type": "bytes32"
            },
            {
              "internalType": "address",
              "name": "recipient",
              "type": "address"
            },
            {
              "internalType": "string",
              "name": "referral",
              "type": "string"
            },
            {
              "internalType": "bytes",
              "name": "signature",
              "type": "bytes"
            }
          ],
          "internalType": "struct BadgeV1.MintPayload",
          "name": "payload",
          "type": "tuple"
        }
      ],
      "name": "mint",
      "outputs": [],
      "stateMutability": "payable",
      "type": "function"
    },
    {
      "inputs": [
        {
          "components": [
            {
              "internalType": "bytes32",
              "name": "id",
              "type": "bytes32"
            },
            {
              "internalType": "address",
              "name": "recipient",
              "type": "address"
            },
            {
              "internalType": "uint256",
              "name": "tokenId",
              "type": "uint256"
            },
            {
              "internalType": "uint256",
              "name": "costs",
              "type": "uint256"
            },
            {
              "internalType": "string",
              "name": "referral",
              "type": "string"
            },
            {
              "internalType": "bytes",
              "name": "signature",
              "type": "bytes"
            }
          ],
          "internalType": "struct BadgeV1.MintForPayload[]",
          "name": "payloads",
          "type": "tuple[]"
        }
      ],
      "name": "mintForBulk",
      "outputs": [],
      "stateMutability": "nonpayable",
      "type": "function"
    },
    {
      "inputs": [],
      "name": "name",
      "outputs": [
        {
          "internalType": "string",
          "name": "",
          "type": "string"
        }
      ],
      "stateMutability": "view",
      "type": "function"
    },
    {
      "inputs": [],
      "name": "owner",
      "outputs": [
        {
          "internalType": "address",
          "name": "",
          "type": "address"
        }
      ],
      "stateMutability": "view",
      "type": "function"
    },
    {
      "inputs": [
        {
          "internalType": "uint256",
          "name": "tokenId",
          "type": "uint256"
        }
      ],
      "name": "ownerOf",
      "outputs": [
        {
          "internalType": "address",
          "name": "",
          "type": "address"
        }
      ],
      "stateMutability": "view",
      "type": "function"
    },
    {
      "inputs": [],
      "name": "priceFeed",
      "outputs": [
        {
          "internalType": "address",
          "name": "",
          "type": "address"
        }
      ],
      "stateMutability": "view",
      "type": "function"
    },
    {
      "inputs": [],
      "name": "renounceOwnership",
      "outputs": [],
      "stateMutability": "nonpayable",
      "type": "function"
    },
    {
      "inputs": [
        {
          "internalType": "address",
          "name": "from",
          "type": "address"
        },
        {
          "internalType": "address",
          "name": "to",
          "type": "address"
        },
        {
          "internalType": "uint256",
          "name": "tokenId",
          "type": "uint256"
        }
      ],
      "name": "safeTransferFrom",
      "outputs": [],
      "stateMutability": "nonpayable",
      "type": "function"
    },
    {
      "inputs": [
        {
          "internalType": "address",
          "name": "from",
          "type": "address"
        },
        {
          "internalType": "address",
          "name": "to",
          "type": "address"
        },
        {
          "internalType": "uint256",
          "name": "tokenId",
          "type": "uint256"
        },
        {
          "internalType": "bytes",
          "name": "data",
          "type": "bytes"
        }
      ],
      "name": "safeTransferFrom",
      "outputs": [],
      "stateMutability": "nonpayable",
      "type": "function"
    },
    {
      "inputs": [
        {
          "internalType": "address",
          "name": "operator",
          "type": "address"
        },
        {
          "internalType": "bool",
          "name": "approved",
          "type": "bool"
        }
      ],
      "name": "setApprovalForAll",
      "outputs": [],
      "stateMutability": "nonpayable",
      "type": "function"
    },
    {
      "inputs": [],
      "name": "signer",
      "outputs": [
        {
          "internalType": "address",
          "name": "",
          "type": "address"
        }
      ],
      "stateMutability": "view",
      "type": "function"
    },
    {
      "inputs": [
        {
          "internalType": "bytes4",
          "name": "interfaceId",
          "type": "bytes4"
        }
      ],
      "name": "supportsInterface",
      "outputs": [
        {
          "internalType": "bool",
          "name": "",
          "type": "bool"
        }
      ],
      "stateMutability": "view",
      "type": "function"
    },
    {
      "inputs": [],
      "name": "symbol",
      "outputs": [
        {
          "internalType": "string",
          "name": "",
          "type": "string"
        }
      ],
      "stateMutability": "view",
      "type": "function"
    },
    {
      "inputs": [
        {
          "internalType": "uint256",
          "name": "tokenId",
          "type": "uint256"
        }
      ],
      "name": "tokenURI",
      "outputs": [
        {
          "internalType": "string",
          "name": "",
          "type": "string"
        }
      ],
      "stateMutability": "view",
      "type": "function"
    },
    {
      "inputs": [],
      "name": "totalSupply",
      "outputs": [
        {
          "internalType": "uint256",
          "name": "",
          "type": "uint256"
        }
      ],
      "stateMutability": "view",
      "type": "function"
    },
    {
      "inputs": [
        {
          "internalType": "address",
          "name": "",
          "type": "address"
        },
        {
          "internalType": "address",
          "name": "",
          "type": "address"
        },
        {
          "internalType": "uint256",
          "name": "",
          "type": "uint256"
        }
      ],
      "name": "transferFrom",
      "outputs": [],
      "stateMutability": "nonpayable",
      "type": "function"
    },
    {
      "inputs": [
        {
          "internalType": "address",
          "name": "newOwner",
          "type": "address"
        }
      ],
      "name": "transferOwnership",
      "outputs": [],
      "stateMutability": "nonpayable",
      "type": "function"
    },
    {
      "inputs": [],
      "name": "vault",
      "outputs": [
        {
          "internalType": "address",
          "name": "",
          "type": "address"
        }
      ],
      "stateMutability": "view",
      "type": "function"
    }
  ],
  "bytecode": "0x60806040523480156200001157600080fd5b506200001c62000022565b620000d6565b7ff0c57e16840df040f15088dc2f81fe391c3923bec73e23a9662efc9c229c6a00805468010000000000000000900460ff1615620000735760405163f92ee8a960e01b815260040160405180910390fd5b80546001600160401b0390811614620000d35780546001600160401b0319166001600160401b0390811782556040519081527fc7f505b2f371ae2175ee4913f4499e1f2633a7b5936321eed1cdaeb6115181d29060200160405180910390a15b50565b6129bc80620000e66000396000f3fe6080604052600436106101d85760003560e01c80637c421a7911610102578063b88d4fde11610095578063e985e9c511610064578063e985e9c514610540578063f2fde38b14610560578063f800f22814610580578063fbfa77cf1461059557600080fd5b8063b88d4fde146104c0578063bec6e63d146104e0578063c87b56dd14610500578063cf59aa6c1461052057600080fd5b80639a12cb1e116100d15780639a12cb1e1461044d578063a22cb4651461046d578063ae0b662c1461048d578063af640d0f146104ab57600080fd5b80637c421a79146103c857806387ca93ce146103e85780638da5cb5b146103fb57806395d89b411461043857600080fd5b80632ab4d0521161017a5780636574ef86116101495780636574ef861461036057806370a0823114610375578063715018a614610395578063741bef1a146103aa57600080fd5b80632ab4d052146102eb57806342842e0e1461030057806342966c68146103205780636352211e1461034057600080fd5b8063095ea7b3116101b6578063095ea7b31461026c57806318160ddd1461028e578063238ac933146102ad57806323b872dd146102cb57600080fd5b806301ffc9a7146101dd57806306fdde0314610212578063081812fc14610234575b600080fd5b3480156101e957600080fd5b506101fd6101f8366004611e70565b6105b3565b60405190151581526020015b60405180910390f35b34801561021e57600080fd5b50610227610605565b6040516102099190611edd565b34801561024057600080fd5b5061025461024f366004611ef0565b6106a9565b6040516001600160a01b039091168152602001610209565b34801561027857600080fd5b5061028c610287366004611f2e565b6106be565b005b34801561029a57600080fd5b506002545b604051908152602001610209565b3480156102b957600080fd5b506005546001600160a01b0316610254565b3480156102d757600080fd5b5061028c6102e6366004611f5a565b6106cd565b3480156102f757600080fd5b5060035461029f565b34801561030c57600080fd5b5061028c61031b366004611f5a565b6106e6565b34801561032c57600080fd5b5061028c61033b366004611ef0565b610706565b34801561034c57600080fd5b5061025461035b366004611ef0565b6107f3565b34801561036c57600080fd5b5061029f6107fe565b34801561038157600080fd5b5061029f610390366004611f9b565b61093b565b3480156103a157600080fd5b5061028c610997565b3480156103b657600080fd5b506006546001600160a01b0316610254565b3480156103d457600080fd5b5061028c6103e33660046120bb565b6109ab565b61028c6103f63660046121a5565b610b3c565b34801561040757600080fd5b507f9016d09d72d40fdae2fd8ceac6b6234c7706214fd39c1cd1e609a0528c199300546001600160a01b0316610254565b34801561044457600080fd5b50610227610e9a565b34801561045957600080fd5b5061028c610468366004611ef0565b610ed9565b34801561047957600080fd5b5061028c610488366004612253565b610f26565b34801561049957600080fd5b506008546001600160a01b0316610254565b3480156104b757600080fd5b5060005461029f565b3480156104cc57600080fd5b5061028c6104db366004612291565b610f31565b3480156104ec57600080fd5b5061028c6104fb3660046122fd565b610f4e565b34801561050c57600080fd5b5061022761051b366004611ef0565b6110fc565b34801561052c57600080fd5b5061028c61053b366004611f9b565b611164565b34801561054c57600080fd5b506101fd61055b36600461244d565b6111b3565b34801561056c57600080fd5b5061028c61057b366004611f9b565b611200565b34801561058c57600080fd5b5060045461029f565b3480156105a157600080fd5b506007546001600160a01b0316610254565b60006001600160e01b031982166380ac58cd60e01b14806105e457506001600160e01b03198216635b5e139f60e01b145b806105ff57506301ffc9a760e01b6001600160e01b03198316145b92915050565b60008051602061294783398151915280546060919081906106259061247b565b80601f01602080910402602001604051908101604052809291908181526020018280546106519061247b565b801561069e5780601f106106735761010080835404028352916020019161069e565b820191906000526020600020905b81548152906001019060200180831161068157829003601f168201915b505050505091505090565b60006106b48261123b565b506105ff82611273565b6106c98282336112ad565b5050565b6040516303e8bf2760e21b815260040160405180910390fd5b61070183838360405180602001604052806000815250610f31565b505050565b61070e6112ba565b6008546001600160a01b03166107375760405163035a342360e31b815260040160405180910390fd5b3380610742836107f3565b6001600160a01b031614610769576040516303e8bf2760e21b815260040160405180910390fd5b610772826112f2565b600854604051632770a7eb60e21b81526001600160a01b0383811660048301526024820185905290911690639dc29fac90604401600060405180830381600087803b1580156107c057600080fd5b505af11580156107d4573d6000803e3d6000fd5b50505050506107f0600160008051602061296783398151915255565b50565b60006105ff8261123b565b600080600660009054906101000a90046001600160a01b03166001600160a01b031663feaf968c6040518163ffffffff1660e01b815260040160a060405180830381865afa158015610854573d6000803e3d6000fd5b505050506040513d601f19601f8201168201806040525081019061087891906124cf565b505050915050600081136108a6576040516249320b60e51b8152600481018290526024015b60405180910390fd5b6006546040805163313ce56760e01b8152905183926001600160a01b03169163313ce5679160048083019260209291908290030181865afa1580156108ef573d6000803e3d6000fd5b505050506040513d601f19601f82011682018060405250810190610913919061251f565b61091e90600a61263c565b60045461092b919061264b565b6109359190612662565b91505090565b60006000805160206129478339815191526001600160a01b038316610976576040516322718ad960e21b81526000600482015260240161089d565b6001600160a01b039092166000908152600390920160205250604090205490565b61099f611341565b6109a9600061139c565b565b7ff0c57e16840df040f15088dc2f81fe391c3923bec73e23a9662efc9c229c6a008054600160401b810460ff16159067ffffffffffffffff166000811580156109f15750825b905060008267ffffffffffffffff166001148015610a0e5750303b155b905081158015610a1c575080155b15610a3a5760405163f92ee8a960e01b815260040160405180910390fd5b845467ffffffffffffffff191660011785558315610a6457845460ff60401b1916600160401b1785555b610a6e8d8d61140d565b610a773361141f565b610a7f611430565b60008f905560038e90556001610a958c826126d2565b5060048a9055600580546001600160a01b03808c166001600160a01b031992831617909255600680548b8416908316179055600780548a841690831617905560088054928916929091169190911790558315610b2b57845460ff60401b19168555604051600181527fc7f505b2f371ae2175ee4913f4499e1f2633a7b5936321eed1cdaeb6115181d29060200160405180910390a15b505050505050505050505050505050565b610b446112ba565b6000816000015182602001518360400151604051602001610b6793929190612792565b604051602081830303815290604052805190602001209050600054826000015114610ba557604051636b4d22d160e01b815260040160405180910390fd5b60055460608301517f19457468657265756d205369676e6564204d6573736167653a0a3332000000006000908152601c849052603c90206001600160a01b0390921691610bf491905b90611440565b6001600160a01b031614610c1b57604051636b4d22d160e01b815260040160405180910390fd5b602082015160035415801590610c35575060035460025410155b15610c715760025460035460405163c40ebc5760e01b81526001600160a01b03841660048201526024810192909252604482015260640161089d565b6000610c7c8261093b565b1115610ca65760405163125fb62b60e11b81526001600160a01b038216600482015260240161089d565b6000610cb06107fe565b905080341015610ceb576040516366b4250560e01b81526001600160a01b03831660048201526024810182905234604482015260640161089d565b6007546040516000916001600160a01b03169083908381818185875af1925050503d8060008114610d38576040519150601f19603f3d011682016040523d82523d6000602084013e610d3d565b606091505b5050905080610d75576007546040516307d8c52160e01b81526001600160a01b0390911660048201526024810183905260440161089d565b81341115610e14576000610d8983346127d1565b90506000846001600160a01b03168260405160006040518083038185875af1925050503d8060008114610dd8576040519150601f19603f3d011682016040523d82523d6000602084013e610ddd565b606091505b5050905080610e11576040516307d8c52160e01b81526001600160a01b03861660048201526024810183905260440161089d565b50505b6002805460009182610e25836127e4565b919050559050610e35848261146a565b836001600160a01b03167ff2cb5e52049d127ad1c335f1cc25f2fdbc911bec1beb2611f4c1e8b1c274d4b482858960400151604051610e76939291906127fd565b60405180910390a250505050506107f0600160008051602061296783398151915255565b7f80bb2b638cc20bc4d0a60d66940f3ab4a00c1d7b313497ca82fb0b4ab00793018054606091600080516020612947833981519152916106259061247b565b610ee1611341565b600480549082905560408051828152602081018490527f2679f06bd6ac5b0498704c9232cd7f20206df1261540db52c85327dc0cf6d333910160405180910390a15050565b6106c9338383611484565b610f3c8484846106cd565b610f4884848484611535565b50505050565b60005b81518160ff1610156106c9576000828260ff1681518110610f7457610f74612825565b60200260200101519050600081600001518260200151836040015184606001518560800151604051602001610fad95949392919061283b565b604051602081830303815290604052805190602001209050600054826000015114610feb57604051636b4d22d160e01b815260040160405180910390fd5b60055460a08301517f19457468657265756d205369676e6564204d6573736167653a0a3332000000006000908152601c849052603c90206001600160a01b03909216916110389190610bee565b6001600160a01b03161461105f57604051636b4d22d160e01b815260040160405180910390fd5b6110718260200151836040015161146a565b8160400151600254106110865760025461108c565b81604001515b60028190555081602001516001600160a01b03167ff2cb5e52049d127ad1c335f1cc25f2fdbc911bec1beb2611f4c1e8b1c274d4b48360400151846060015185608001516040516110df939291906127fd565b60405180910390a2505080806110f490612888565b915050610f51565b60606111078261123b565b50600061111261165e565b90506000815111611132576040518060200160405280600081525061115d565b8061113c846116f0565b60405160200161114d9291906128a7565b6040516020818303038152906040525b9392505050565b61116c611341565b600880546001600160a01b0319166001600160a01b0383161790556040517fb3f10144b03fe28f0861c425a4ea038671a29ded574f7eece0676b14d04e20b090600090a150565b6001600160a01b0391821660009081527f80bb2b638cc20bc4d0a60d66940f3ab4a00c1d7b313497ca82fb0b4ab00793056020908152604080832093909416825291909152205460ff1690565b611208611341565b6001600160a01b03811661123257604051631e4fbdf760e01b81526000600482015260240161089d565b6107f08161139c565b60008061124783611783565b90506001600160a01b0381166105ff57604051637e27328960e01b81526004810184905260240161089d565b60009081527f80bb2b638cc20bc4d0a60d66940f3ab4a00c1d7b313497ca82fb0b4ab007930460205260409020546001600160a01b031690565b61070183838360016117bd565b6000805160206129678339815191528054600119016112ec57604051633ee5aeb560e01b815260040160405180910390fd5b60029055565b600061130160008360006118d3565b90506001600160a01b0381166106c957604051637e27328960e01b81526004810183905260240161089d565b600160008051602061296783398151915255565b336113737f9016d09d72d40fdae2fd8ceac6b6234c7706214fd39c1cd1e609a0528c199300546001600160a01b031690565b6001600160a01b0316146109a95760405163118cdaa760e01b815233600482015260240161089d565b7f9016d09d72d40fdae2fd8ceac6b6234c7706214fd39c1cd1e609a0528c19930080546001600160a01b031981166001600160a01b03848116918217845560405192169182907f8be0079c531659141344cd1fd0a4f28419497f9722a3daafe3b4186f6b6457e090600090a3505050565b6114156119dd565b6106c98282611a26565b6114276119dd565b6107f081611a57565b6114386119dd565b6109a9611a5f565b6000806000806114508686611a67565b9250925092506114608282611ab4565b5090949350505050565b6106c9828260405180602001604052806000815250611b6d565b6000805160206129478339815191526001600160a01b0383166114c557604051630b61174360e31b81526001600160a01b038416600482015260240161089d565b6001600160a01b038481166000818152600584016020908152604080832094881680845294825291829020805460ff191687151590811790915591519182527f17307eab39ab6107e8899845ad3d59bd9653f200f220920489ca2b5937696c31910160405180910390a350505050565b6001600160a01b0383163b15610f4857604051630a85bd0160e11b81526001600160a01b0384169063150b7a02906115779033908890879087906004016128d6565b6020604051808303816000875af19250505080156115b2575060408051601f3d908101601f191682019092526115af91810190612913565b60015b61161b573d8080156115e0576040519150601f19603f3d011682016040523d82523d6000602084013e6115e5565b606091505b50805160000361161357604051633250574960e11b81526001600160a01b038516600482015260240161089d565b805181602001fd5b6001600160e01b03198116630a85bd0160e11b1461165757604051633250574960e11b81526001600160a01b038516600482015260240161089d565b5050505050565b60606001805461166d9061247b565b80601f01602080910402602001604051908101604052809291908181526020018280546116999061247b565b80156116e65780601f106116bb576101008083540402835291602001916116e6565b820191906000526020600020905b8154815290600101906020018083116116c957829003601f168201915b5050505050905090565b606060006116fd83611b84565b600101905060008167ffffffffffffffff81111561171d5761171d611fb8565b6040519080825280601f01601f191660200182016040528015611747576020820181803683370190505b5090508181016020015b600019016f181899199a1a9b1b9c1cb0b131b232b360811b600a86061a8153600a850494508461175157509392505050565b60009081527f80bb2b638cc20bc4d0a60d66940f3ab4a00c1d7b313497ca82fb0b4ab007930260205260409020546001600160a01b031690565b60008051602061294783398151915281806117e057506001600160a01b03831615155b156118a25760006117f08561123b565b90506001600160a01b0384161580159061181c5750836001600160a01b0316816001600160a01b031614155b801561182f575061182d81856111b3565b155b156118585760405163a9fbf51f60e01b81526001600160a01b038516600482015260240161089d565b82156118a05784866001600160a01b0316826001600160a01b03167f8c5be1e5ebec7d5bd14f71427d1e84f3dd0314c0f7b2291e5b200ac8c7c3b92560405160405180910390a45b505b600093845260040160205250506040902080546001600160a01b0319166001600160a01b0392909216919091179055565b6000600080516020612947833981519152816118ee85611783565b90506001600160a01b0384161561190a5761190a818587611c5c565b6001600160a01b0381161561194a576119276000866000806117bd565b6001600160a01b0381166000908152600383016020526040902080546000190190555b6001600160a01b0386161561197b576001600160a01b03861660009081526003830160205260409020805460010190555b600085815260028301602052604080822080546001600160a01b0319166001600160a01b038a811691821790925591518893918516917fddf252ad1be2c89b69c2b068fc378daa952ba7f163c4a11628f55a4df523b3ef91a495945050505050565b7ff0c57e16840df040f15088dc2f81fe391c3923bec73e23a9662efc9c229c6a0054600160401b900460ff166109a957604051631afcd79f60e31b815260040160405180910390fd5b611a2e6119dd565b60008051602061294783398151915280611a4884826126d2565b5060018101610f4883826126d2565b6112086119dd565b61132d6119dd565b60008060008351604103611aa15760208401516040850151606086015160001a611a9388828585611cc0565b955095509550505050611aad565b50508151600091506002905b9250925092565b6000826003811115611ac857611ac8612930565b03611ad1575050565b6001826003811115611ae557611ae5612930565b03611b035760405163f645eedf60e01b815260040160405180910390fd5b6002826003811115611b1757611b17612930565b03611b385760405163fce698f760e01b81526004810182905260240161089d565b6003826003811115611b4c57611b4c612930565b036106c9576040516335e2f38360e21b81526004810182905260240161089d565b611b778383611d8f565b6107016000848484611535565b60008072184f03e93ff9f4daa797ed6e38ed64bf6a1f0160401b8310611bc35772184f03e93ff9f4daa797ed6e38ed64bf6a1f0160401b830492506040015b6d04ee2d6d415b85acef81000000008310611bef576d04ee2d6d415b85acef8100000000830492506020015b662386f26fc100008310611c0d57662386f26fc10000830492506010015b6305f5e1008310611c25576305f5e100830492506008015b6127108310611c3957612710830492506004015b60648310611c4b576064830492506002015b600a83106105ff5760010192915050565b611c67838383611df4565b610701576001600160a01b038316611c9557604051637e27328960e01b81526004810182905260240161089d565b60405163177e802f60e01b81526001600160a01b03831660048201526024810182905260440161089d565b600080807f7fffffffffffffffffffffffffffffff5d576e7357a4501ddfe92f46681b20a0841115611cfb5750600091506003905082611d85565b604080516000808252602082018084528a905260ff891692820192909252606081018790526080810186905260019060a0016020604051602081039080840390855afa158015611d4f573d6000803e3d6000fd5b5050604051601f1901519150506001600160a01b038116611d7b57506000925060019150829050611d85565b9250600091508190505b9450945094915050565b6001600160a01b038216611db957604051633250574960e11b81526000600482015260240161089d565b6000611dc7838360006118d3565b90506001600160a01b03811615610701576040516339e3563760e11b81526000600482015260240161089d565b60006001600160a01b03831615801590611e525750826001600160a01b0316846001600160a01b03161480611e2e5750611e2e84846111b3565b80611e525750826001600160a01b0316611e4783611273565b6001600160a01b0316145b949350505050565b6001600160e01b0319811681146107f057600080fd5b600060208284031215611e8257600080fd5b813561115d81611e5a565b60005b83811015611ea8578181015183820152602001611e90565b50506000910152565b60008151808452611ec9816020860160208601611e8d565b601f01601f19169290920160200192915050565b60208152600061115d6020830184611eb1565b600060208284031215611f0257600080fd5b5035919050565b6001600160a01b03811681146107f057600080fd5b8035611f2981611f09565b919050565b60008060408385031215611f4157600080fd5b8235611f4c81611f09565b946020939093013593505050565b600080600060608486031215611f6f57600080fd5b8335611f7a81611f09565b92506020840135611f8a81611f09565b929592945050506040919091013590565b600060208284031215611fad57600080fd5b813561115d81611f09565b634e487b7160e01b600052604160045260246000fd5b6040516080810167ffffffffffffffff81118282101715611ff157611ff1611fb8565b60405290565b60405160c0810167ffffffffffffffff81118282101715611ff157611ff1611fb8565b604051601f8201601f1916810167ffffffffffffffff8111828210171561204357612043611fb8565b604052919050565b600082601f83011261205c57600080fd5b813567ffffffffffffffff81111561207657612076611fb8565b612089601f8201601f191660200161201a565b81815284602083860101111561209e57600080fd5b816020850160208301376000918101602001919091529392505050565b6000806000806000806000806000806101408b8d0312156120db57600080fd5b8a35995060208b0135985060408b013567ffffffffffffffff8082111561210157600080fd5b61210d8e838f0161204b565b995060608d013591508082111561212357600080fd5b61212f8e838f0161204b565b985060808d013591508082111561214557600080fd5b506121528d828e0161204b565b96505060a08b0135945061216860c08c01611f1e565b935061217660e08c01611f1e565b92506121856101008c01611f1e565b91506121946101208c01611f1e565b90509295989b9194979a5092959850565b6000602082840312156121b757600080fd5b813567ffffffffffffffff808211156121cf57600080fd5b90830190608082860312156121e357600080fd5b6121eb611fce565b8235815260208301356121fd81611f09565b602082015260408301358281111561221457600080fd5b6122208782860161204b565b60408301525060608301358281111561223857600080fd5b6122448782860161204b565b60608301525095945050505050565b6000806040838503121561226657600080fd5b823561227181611f09565b91506020830135801515811461228657600080fd5b809150509250929050565b600080600080608085870312156122a757600080fd5b84356122b281611f09565b935060208501356122c281611f09565b925060408501359150606085013567ffffffffffffffff8111156122e557600080fd5b6122f18782880161204b565b91505092959194509250565b6000602080838503121561231057600080fd5b823567ffffffffffffffff8082111561232857600080fd5b818501915085601f83011261233c57600080fd5b81358181111561234e5761234e611fb8565b8060051b61235d85820161201a565b918252838101850191858101908984111561237757600080fd5b86860192505b838310156124405782358581111561239457600080fd5b860160c0818c03601f190112156123ab5760008081fd5b6123b3611ff7565b88820135815260406123c6818401611f1e565b8a830152606080840135828401526080915081840135818401525060a080840135898111156123f55760008081fd5b6124038f8d8388010161204b565b838501525060c084013591508882111561241d5760008081fd5b61242b8e8c8487010161204b565b9083015250835250918601919086019061237d565b9998505050505050505050565b6000806040838503121561246057600080fd5b823561246b81611f09565b9150602083013561228681611f09565b600181811c9082168061248f57607f821691505b6020821081036124af57634e487b7160e01b600052602260045260246000fd5b50919050565b805169ffffffffffffffffffff81168114611f2957600080fd5b600080600080600060a086880312156124e757600080fd5b6124f0866124b5565b9450602086015193506040860151925060608601519150612513608087016124b5565b90509295509295909350565b60006020828403121561253157600080fd5b815160ff8116811461115d57600080fd5b634e487b7160e01b600052601160045260246000fd5b600181815b8085111561259357816000190482111561257957612579612542565b8085161561258657918102915b93841c939080029061255d565b509250929050565b6000826125aa575060016105ff565b816125b7575060006105ff565b81600181146125cd57600281146125d7576125f3565b60019150506105ff565b60ff8411156125e8576125e8612542565b50506001821b6105ff565b5060208310610133831016604e8410600b8410161715612616575081810a6105ff565b6126208383612558565b806000190482111561263457612634612542565b029392505050565b600061115d60ff84168361259b565b80820281158282048414176105ff576105ff612542565b60008261267f57634e487b7160e01b600052601260045260246000fd5b500490565b601f82111561070157600081815260208120601f850160051c810160208610156126ab5750805b601f850160051c820191505b818110156126ca578281556001016126b7565b505050505050565b815167ffffffffffffffff8111156126ec576126ec611fb8565b612700816126fa845461247b565b84612684565b602080601f831160018114612735576000841561271d5750858301515b600019600386901b1c1916600185901b1785556126ca565b600085815260208120601f198616915b8281101561276457888601518255948401946001909101908401612745565b50858210156127825787850151600019600388901b60f8161c191681555b5050505050600190811b01905550565b8381526bffffffffffffffffffffffff198360601b166020820152600082516127c2816034850160208701611e8d565b91909101603401949350505050565b818103818111156105ff576105ff612542565b6000600182016127f6576127f6612542565b5060010190565b83815282602082015260606040820152600061281c6060830184611eb1565b95945050505050565b634e487b7160e01b600052603260045260246000fd5b8581526bffffffffffffffffffffffff198560601b16602082015283603482015282605482015260008251612877816074850160208701611e8d565b919091016074019695505050505050565b600060ff821660ff810361289e5761289e612542565b60010192915050565b600083516128b9818460208801611e8d565b8351908301906128cd818360208801611e8d565b01949350505050565b6001600160a01b038581168252841660208201526040810183905260806060820181905260009061290990830184611eb1565b9695505050505050565b60006020828403121561292557600080fd5b815161115d81611e5a565b634e487b7160e01b600052602160045260246000fdfe80bb2b638cc20bc4d0a60d66940f3ab4a00c1d7b313497ca82fb0b4ab00793009b779b17422d0df92223018b32b4d1fa46e071723d6817e2486d003becc55f00a2646970667358221220d8e26e2bce6b6e2052a0baf7b04f793a1308eb2a7e77bbef1054ed481796b02864736f6c63430008140033",
  "linkReferences": {},
  "deployedLinkReferences": {}
}