{
  "_format": "hh-sol-artifact-1",
  "contractName": "PriceFeedMock",
  "sourceName": "contracts/mock/PriceFeedMock.sol",
  "abi": [
    {
      "inputs": [
        {
          "internalType": "uint8",
          "name": "_decimals",
          "type": "uint8"
        }
      ],
      "stateMutability": "nonpayable",
      "type": "constructor"
    },
    {
      "inputs": [],
      "name": "decimals",
      "outputs": [
        {
          "internalType": "uint8",
          "name": "",
          "type": "uint8"
        }
      ],
      "stateMutability": "view",
      "type": "function"
    },
    {
      "inputs": [],
      "name": "latestRound",
      "outputs": [
        {
          "internalType": "uint256",
          "name": "",
          "type": "uint256"
        }
      ],
      "stateMutability": "view",
      "type": "function"
    },
    {
      "inputs": [],
      "name": "latestRoundData",
      "outputs": [
        {
          "internalType": "uint80",
          "name": "",
          "type": "uint80"
        },
        {
          "internalType": "int256",
          "name": "answer",
          "type": "int256"
        },
        {
          "internalType": "uint256",
          "name": "",
          "type": "uint256"
        },
        {
          "internalType": "uint256",
          "name": "",
          "type": "uint256"
        },
        {
          "internalType": "uint80",
          "name": "",
          "type": "uint80"
        }
      ],
      "stateMutability": "view",
      "type": "function"
    },
    {
      "inputs": [
        {
          "internalType": "int256",
          "name": "answer",
          "type": "int256"
        }
      ],
      "name": "setRound",
      "outputs": [],
      "stateMutability": "nonpayable",
      "type": "function"
    }
  ],
  "bytecode": "0x608060405234801561001057600080fd5b5060405161027238038061027283398101604081905261002f91610048565b6000805460ff191660ff92909216919091179055610072565b60006020828403121561005a57600080fd5b815160ff8116811461006b57600080fd5b9392505050565b6101f1806100816000396000f3fe608060405234801561001057600080fd5b506004361061004c5760003560e01c80631452264c14610051578063313ce56714610066578063668a0f021461008a578063feaf968c146100a1575b600080fd5b61006461005f36600461017b565b6100dd565b005b6000546100739060ff1681565b60405160ff90911681526020015b60405180910390f35b61009360015481565b604051908152602001610081565b6001805460009081526002602090815260408083209093015483518381529182015291820181905260608201819052608082015260a001610081565b600180549060006100ed83610194565b90915550506040805160a081018252600080825260208083019485528284018281526060840183815260808501848152600180548652600294859052969094209451855469ffffffffffffffffffff1990811669ffffffffffffffffffff92831617875597519686019690965590519184019190915551600383015551600490910180549093169116179055565b60006020828403121561018d57600080fd5b5035919050565b6000600182016101b457634e487b7160e01b600052601160045260246000fd5b506001019056fea2646970667358221220f43b95abbc21a9bf8b7d9fe8eeba77f8244568461398a08d4b402cafe1492e4f64736f6c63430008140033",
  "linkReferences": {},
  "deployedLinkReferences": {}
}