{
  "_format": "hh-sol-artifact-1",
  "contractName": "BridgeMiddleware",
  "sourceName": "contracts/bridgeMiddleware/BridgeMiddleware.sol",
  "abi": [
    {
      "inputs": [],
      "stateMutability": "nonpayable",
      "type": "constructor"
    },
    {
      "inputs": [],
      "name": "BridgeNotFound",
      "type": "error"
    },
    {
      "inputs": [],
      "name": "DepositFailed",
      "type": "error"
    },
    {
      "inputs": [],
      "name": "Forbidden",
      "type": "error"
    },
    {
      "inputs": [],
      "name": "InvalidInitialization",
      "type": "error"
    },
    {
      "inputs": [],
      "name": "NotInitializing",
      "type": "error"
    },
    {
      "anonymous": false,
      "inputs": [
        {
          "indexed": true,
          "internalType": "address",
          "name": "token",
          "type": "address"
        },
        {
          "indexed": false,
          "internalType": "uint256",
          "name": "amount",
          "type": "uint256"
        }
      ],
      "name": "Deposit",
      "type": "event"
    },
    {
      "anonymous": false,
      "inputs": [
        {
          "indexed": false,
          "internalType": "uint64",
          "name": "version",
          "type": "uint64"
        }
      ],
      "name": "Initialized",
      "type": "event"
    },
    {
      "stateMutability": "payable",
      "type": "fallback"
    },
    {
      "inputs": [
        {
          "internalType": "bytes32",
          "name": "bridgeName",
          "type": "bytes32"
        },
        {
          "internalType": "address",
          "name": "token",
          "type": "address"
        },
        {
          "internalType": "uint256",
          "name": "amount",
          "type": "uint256"
        },
        {
          "internalType": "bytes",
          "name": "data",
          "type": "bytes"
        }
      ],
      "name": "deposit",
      "outputs": [],
      "stateMutability": "nonpayable",
      "type": "function"
    },
    {
      "inputs": [],
      "name": "info",
      "outputs": [
        {
          "internalType": "address",
          "name": "",
          "type": "address"
        }
      ],
      "stateMutability": "view",
      "type": "function"
    },
    {
      "inputs": [
        {
          "internalType": "address",
          "name": "_info",
          "type": "address"
        },
        {
          "internalType": "address",
          "name": "_owner",
          "type": "address"
        }
      ],
      "name": "initialize",
      "outputs": [],
      "stateMutability": "nonpayable",
      "type": "function"
    },
    {
      "inputs": [],
      "name": "owner",
      "outputs": [
        {
          "internalType": "address",
          "name": "",
          "type": "address"
        }
      ],
      "stateMutability": "view",
      "type": "function"
    },
    {
      "stateMutability": "payable",
      "type": "receive"
    }
  ],
  "bytecode": "0x608060405234801561001057600080fd5b5061001961001e565b6100d0565b7ff0c57e16840df040f15088dc2f81fe391c3923bec73e23a9662efc9c229c6a00805468010000000000000000900460ff161561006e5760405163f92ee8a960e01b815260040160405180910390fd5b80546001600160401b03908116146100cd5780546001600160401b0319166001600160401b0390811782556040519081527fc7f505b2f371ae2175ee4913f4499e1f2633a7b5936321eed1cdaeb6115181d29060200160405180910390a15b50565b610861806100df6000396000f3fe6080604052600436106100405760003560e01c8063370158ea1461004957806338dbfa9b14610085578063485cc955146100a55780638da5cb5b146100c557005b3661004757005b005b34801561005557600080fd5b50600054610069906001600160a01b031681565b6040516001600160a01b03909116815260200160405180910390f35b34801561009157600080fd5b506100476100a036600461068d565b6100e5565b3480156100b157600080fd5b506100476100c0366004610764565b6103b6565b3480156100d157600080fd5b50600154610069906001600160a01b031681565b600080546040517f45483a4272696467654d6964646c65776172653a4465706f7369746f723a000060208201526bffffffffffffffffffffffff193360601b16603e8201526001600160a01b0390911690637ae1cfca90605201604051602081830303815290604052805190602001206040518263ffffffff1660e01b815260040161017391815260200190565b602060405180830381865afa158015610190573d6000803e3d6000fd5b505050506040513d601f19601f820116820180604052508101906101b4919061079d565b9050806101d457604051631dd2188d60e31b815260040160405180910390fd5b600080546040516321f8a72160e01b8152600481018890526001600160a01b03909116906321f8a72190602401602060405180830381865afa15801561021e573d6000803e3d6000fd5b505050506040513d601f19601f8201168201806040525081019061024291906107c6565b90506001600160a01b03811661026b576040516331f0d02960e11b815260040160405180910390fd5b60006001600160a01b0386166102e157816001600160a01b0316858560405161029491906107e3565b60006040518083038185875af1925050503d80600081146102d1576040519150601f19603f3d011682016040523d82523d6000602084013e6102d6565b606091505b50508091505061034c565b6102ec8683876104ee565b816001600160a01b03168460405161030491906107e3565b6000604051808303816000865af19150503d8060008114610341576040519150601f19603f3d011682016040523d82523d6000602084013e610346565b606091505b50909150505b8061036a576040516379cacff160e01b815260040160405180910390fd5b856001600160a01b03167fe1fffcc4923d04b559f4d29a8bfc6cda04eb5b0d3c460751c2402c5c5cc9109c866040516103a591815260200190565b60405180910390a250505050505050565b7ff0c57e16840df040f15088dc2f81fe391c3923bec73e23a9662efc9c229c6a008054600160401b810460ff16159067ffffffffffffffff166000811580156103fc5750825b905060008267ffffffffffffffff1660011480156104195750303b155b905081158015610427575080155b156104455760405163f92ee8a960e01b815260040160405180910390fd5b845467ffffffffffffffff19166001178555831561046f57845460ff60401b1916600160401b1785555b600080546001600160a01b03808a166001600160a01b031992831617909255600180549289169290911691909117905583156104e557845460ff60401b19168555604051600181527fc7f505b2f371ae2175ee4913f4499e1f2633a7b5936321eed1cdaeb6115181d29060200160405180910390a15b50505050505050565b604051636eb1769f60e11b81523060048201526001600160a01b0383811660248301526000919085169063dd62ed3e90604401602060405180830381865afa15801561053e573d6000803e3d6000fd5b505050506040513d601f19601f820116820180604052508101906105629190610812565b90508181106105715750505050565b60405163095ea7b360e01b81526001600160a01b0384811660048301526000602483015285169063095ea7b3906044016020604051808303816000875af11580156105c0573d6000803e3d6000fd5b505050506040513d601f19601f820116820180604052508101906105e4919061079d565b5060405163095ea7b360e01b81526001600160a01b0384811660048301526024820184905285169063095ea7b3906044016020604051808303816000875af1158015610634573d6000803e3d6000fd5b505050506040513d601f19601f82011682018060405250810190610658919061079d565b5050505050565b6001600160a01b038116811461067457600080fd5b50565b634e487b7160e01b600052604160045260246000fd5b600080600080608085870312156106a357600080fd5b8435935060208501356106b58161065f565b925060408501359150606085013567ffffffffffffffff808211156106d957600080fd5b818701915087601f8301126106ed57600080fd5b8135818111156106ff576106ff610677565b604051601f8201601f19908116603f0116810190838211818310171561072757610727610677565b816040528281528a602084870101111561074057600080fd5b82602086016020830137600060208483010152809550505050505092959194509250565b6000806040838503121561077757600080fd5b82356107828161065f565b915060208301356107928161065f565b809150509250929050565b6000602082840312156107af57600080fd5b815180151581146107bf57600080fd5b9392505050565b6000602082840312156107d857600080fd5b81516107bf8161065f565b6000825160005b8181101561080457602081860181015185830152016107ea565b506000920191825250919050565b60006020828403121561082457600080fd5b505191905056fea264697066735822122005e604af5ea3791c7a3f52007c3c6fca89b820bb165605c4dd0b088983fcd7bb64736f6c63430008140033",
  "linkReferences": {},
  "deployedLinkReferences": {}
}