{
  "_format": "hh-sol-artifact-1",
  "contractName": "BridgeMiddleware",
  "sourceName": "contracts/bridgeMiddleware/BridgeMiddleware.sol",
  "abi": [
    {
      "inputs": [],
      "stateMutability": "nonpayable",
      "type": "constructor"
    },
    {
      "inputs": [],
      "name": "BridgeNotFound",
      "type": "error"
    },
    {
      "inputs": [],
      "name": "DepositFailed",
      "type": "error"
    },
    {
      "inputs": [],
      "name": "Forbidden",
      "type": "error"
    },
    {
      "inputs": [],
      "name": "InvalidInitialization",
      "type": "error"
    },
    {
      "inputs": [],
      "name": "NotInitializing",
      "type": "error"
    },
    {
      "anonymous": false,
      "inputs": [
        {
          "indexed": true,
          "internalType": "address",
          "name": "token",
          "type": "address"
        },
        {
          "indexed": false,
          "internalType": "uint256",
          "name": "amount",
          "type": "uint256"
        }
      ],
      "name": "Deposit",
      "type": "event"
    },
    {
      "anonymous": false,
      "inputs": [
        {
          "indexed": false,
          "internalType": "uint64",
          "name": "version",
          "type": "uint64"
        }
      ],
      "name": "Initialized",
      "type": "event"
    },
    {
      "stateMutability": "payable",
      "type": "fallback"
    },
    {
      "inputs": [
        {
          "internalType": "address",
          "name": "token",
          "type": "address"
        },
        {
          "internalType": "uint256",
          "name": "amount",
          "type": "uint256"
        },
        {
          "internalType": "bytes",
          "name": "data",
          "type": "bytes"
        }
      ],
      "name": "deposit",
      "outputs": [],
      "stateMutability": "nonpayable",
      "type": "function"
    },
    {
      "inputs": [],
      "name": "info",
      "outputs": [
        {
          "internalType": "address",
          "name": "",
          "type": "address"
        }
      ],
      "stateMutability": "view",
      "type": "function"
    },
    {
      "inputs": [
        {
          "internalType": "address",
          "name": "_info",
          "type": "address"
        },
        {
          "internalType": "address",
          "name": "_owner",
          "type": "address"
        }
      ],
      "name": "initialize",
      "outputs": [],
      "stateMutability": "nonpayable",
      "type": "function"
    },
    {
      "inputs": [],
      "name": "owner",
      "outputs": [
        {
          "internalType": "address",
          "name": "",
          "type": "address"
        }
      ],
      "stateMutability": "view",
      "type": "function"
    },
    {
      "stateMutability": "payable",
      "type": "receive"
    }
  ],
  "bytecode": "0x608060405234801561001057600080fd5b5061001961001e565b6100d0565b7ff0c57e16840df040f15088dc2f81fe391c3923bec73e23a9662efc9c229c6a00805468010000000000000000900460ff161561006e5760405163f92ee8a960e01b815260040160405180910390fd5b80546001600160401b03908116146100cd5780546001600160401b0319166001600160401b0390811782556040519081527fc7f505b2f371ae2175ee4913f4499e1f2633a7b5936321eed1cdaeb6115181d29060200160405180910390a15b50565b610875806100df6000396000f3fe6080604052600436106100405760003560e01c8063370158ea14610049578063485cc9551461008557806349bdc2b8146100a55780638da5cb5b146100c557005b3661004757005b005b34801561005557600080fd5b50600054610069906001600160a01b031681565b6040516001600160a01b03909116815260200160405180910390f35b34801561009157600080fd5b506100476100a0366004610695565b6100e5565b3480156100b157600080fd5b506100476100c03660046106e4565b61021d565b3480156100d157600080fd5b50600154610069906001600160a01b031681565b7ff0c57e16840df040f15088dc2f81fe391c3923bec73e23a9662efc9c229c6a008054600160401b810460ff16159067ffffffffffffffff1660008115801561012b5750825b905060008267ffffffffffffffff1660011480156101485750303b155b905081158015610156575080155b156101745760405163f92ee8a960e01b815260040160405180910390fd5b845467ffffffffffffffff19166001178555831561019e57845460ff60401b1916600160401b1785555b600080546001600160a01b03808a166001600160a01b0319928316179092556001805492891692909116919091179055831561021457845460ff60401b19168555604051600181527fc7f505b2f371ae2175ee4913f4499e1f2633a7b5936321eed1cdaeb6115181d29060200160405180910390a15b50505050505050565b600080546040517f45483a4272696467654d6964646c65776172653a4465706f7369746f723a000060208201526bffffffffffffffffffffffff193360601b16603e8201526001600160a01b0390911690637ae1cfca90605201604051602081830303815290604052805190602001206040518263ffffffff1660e01b81526004016102ab91815260200190565b602060405180830381865afa1580156102c8573d6000803e3d6000fd5b505050506040513d601f19601f820116820180604052508101906102ec91906107b1565b90508061030c57604051631dd2188d60e31b815260040160405180910390fd5b600080546040516321f8a72160e01b81527f26c28758774d93263f4f2f24dffda950b40651db53c5bf9638b799f11e1b98b560048201526001600160a01b03909116906321f8a72190602401602060405180830381865afa158015610375573d6000803e3d6000fd5b505050506040513d601f19601f8201168201806040525081019061039991906107da565b90506001600160a01b0381166103c2576040516331f0d02960e11b815260040160405180910390fd5b60006001600160a01b03861661043857816001600160a01b031685856040516103eb91906107f7565b60006040518083038185875af1925050503d8060008114610428576040519150601f19603f3d011682016040523d82523d6000602084013e61042d565b606091505b5050809150506104a3565b61044386838761050c565b816001600160a01b03168460405161045b91906107f7565b6000604051808303816000865af19150503d8060008114610498576040519150601f19603f3d011682016040523d82523d6000602084013e61049d565b606091505b50909150505b806104c1576040516379cacff160e01b815260040160405180910390fd5b856001600160a01b03167fe1fffcc4923d04b559f4d29a8bfc6cda04eb5b0d3c460751c2402c5c5cc9109c866040516104fc91815260200190565b60405180910390a2505050505050565b604051636eb1769f60e11b81523060048201526001600160a01b0383811660248301526000919085169063dd62ed3e90604401602060405180830381865afa15801561055c573d6000803e3d6000fd5b505050506040513d601f19601f820116820180604052508101906105809190610826565b905081811061058f5750505050565b60405163095ea7b360e01b81526001600160a01b0384811660048301526000602483015285169063095ea7b3906044016020604051808303816000875af11580156105de573d6000803e3d6000fd5b505050506040513d601f19601f8201168201806040525081019061060291906107b1565b5060405163095ea7b360e01b81526001600160a01b0384811660048301526024820184905285169063095ea7b3906044016020604051808303816000875af1158015610652573d6000803e3d6000fd5b505050506040513d601f19601f8201168201806040525081019061067691906107b1565b5050505050565b6001600160a01b038116811461069257600080fd5b50565b600080604083850312156106a857600080fd5b82356106b38161067d565b915060208301356106c38161067d565b809150509250929050565b634e487b7160e01b600052604160045260246000fd5b6000806000606084860312156106f957600080fd5b83356107048161067d565b925060208401359150604084013567ffffffffffffffff8082111561072857600080fd5b818601915086601f83011261073c57600080fd5b81358181111561074e5761074e6106ce565b604051601f8201601f19908116603f01168101908382118183101715610776576107766106ce565b8160405282815289602084870101111561078f57600080fd5b8260208601602083013760006020848301015280955050505050509250925092565b6000602082840312156107c357600080fd5b815180151581146107d357600080fd5b9392505050565b6000602082840312156107ec57600080fd5b81516107d38161067d565b6000825160005b8181101561081857602081860181015185830152016107fe565b506000920191825250919050565b60006020828403121561083857600080fd5b505191905056fea2646970667358221220b5aaadf720ff17feb5d0989aa11bfb4667490c475281a9d1ba8c3c4ad881f6ef64736f6c63430008140033",
  "linkReferences": {},
  "deployedLinkReferences": {}
}