{
  "_format": "hh-sol-artifact-1",
  "contractName": "BridgeMiddleware",
  "sourceName": "contracts/bridgeMiddleware/BridgeMiddleware.sol",
  "abi": [
    {
      "inputs": [],
      "stateMutability": "nonpayable",
      "type": "constructor"
    },
    {
      "inputs": [
        {
          "internalType": "address",
          "name": "target",
          "type": "address"
        }
      ],
      "name": "AddressEmptyCode",
      "type": "error"
    },
    {
      "inputs": [
        {
          "internalType": "address",
          "name": "account",
          "type": "address"
        }
      ],
      "name": "AddressInsufficientBalance",
      "type": "error"
    },
    {
      "inputs": [],
      "name": "BridgeNotFound",
      "type": "error"
    },
    {
      "inputs": [],
      "name": "DepositFailed",
      "type": "error"
    },
    {
      "inputs": [],
      "name": "FailedInnerCall",
      "type": "error"
    },
    {
      "inputs": [],
      "name": "Forbidden",
      "type": "error"
    },
    {
      "inputs": [],
      "name": "InvalidInitialization",
      "type": "error"
    },
    {
      "inputs": [],
      "name": "NotInitializing",
      "type": "error"
    },
    {
      "inputs": [
        {
          "internalType": "address",
          "name": "token",
          "type": "address"
        }
      ],
      "name": "SafeERC20FailedOperation",
      "type": "error"
    },
    {
      "anonymous": false,
      "inputs": [
        {
          "indexed": true,
          "internalType": "address",
          "name": "token",
          "type": "address"
        },
        {
          "indexed": false,
          "internalType": "uint256",
          "name": "amount",
          "type": "uint256"
        }
      ],
      "name": "Deposit",
      "type": "event"
    },
    {
      "anonymous": false,
      "inputs": [
        {
          "indexed": false,
          "internalType": "uint64",
          "name": "version",
          "type": "uint64"
        }
      ],
      "name": "Initialized",
      "type": "event"
    },
    {
      "stateMutability": "payable",
      "type": "fallback"
    },
    {
      "inputs": [
        {
          "internalType": "address",
          "name": "token",
          "type": "address"
        },
        {
          "internalType": "uint256",
          "name": "amount",
          "type": "uint256"
        },
        {
          "internalType": "bytes",
          "name": "data",
          "type": "bytes"
        }
      ],
      "name": "depositAcross",
      "outputs": [],
      "stateMutability": "payable",
      "type": "function"
    },
    {
      "inputs": [
        {
          "internalType": "address",
          "name": "token",
          "type": "address"
        },
        {
          "internalType": "uint256",
          "name": "amount",
          "type": "uint256"
        },
        {
          "internalType": "bytes",
          "name": "data",
          "type": "bytes"
        }
      ],
      "name": "depositDefault",
      "outputs": [],
      "stateMutability": "payable",
      "type": "function"
    },
    {
      "inputs": [],
      "name": "info",
      "outputs": [
        {
          "internalType": "address",
          "name": "",
          "type": "address"
        }
      ],
      "stateMutability": "view",
      "type": "function"
    },
    {
      "inputs": [
        {
          "internalType": "address",
          "name": "_info",
          "type": "address"
        },
        {
          "internalType": "address",
          "name": "_owner",
          "type": "address"
        }
      ],
      "name": "initialize",
      "outputs": [],
      "stateMutability": "nonpayable",
      "type": "function"
    },
    {
      "inputs": [],
      "name": "owner",
      "outputs": [
        {
          "internalType": "address",
          "name": "",
          "type": "address"
        }
      ],
      "stateMutability": "view",
      "type": "function"
    },
    {
      "inputs": [
        {
          "internalType": "address",
          "name": "token",
          "type": "address"
        },
        {
          "internalType": "uint256",
          "name": "amount",
          "type": "uint256"
        }
      ],
      "name": "refund",
      "outputs": [],
      "stateMutability": "nonpayable",
      "type": "function"
    },
    {
      "stateMutability": "payable",
      "type": "receive"
    }
  ],
  "bytecode": "0x608060405234801561001057600080fd5b5061001961001e565b6100d0565b7ff0c57e16840df040f15088dc2f81fe391c3923bec73e23a9662efc9c229c6a00805468010000000000000000900460ff161561006e5760405163f92ee8a960e01b815260040160405180910390fd5b80546001600160401b03908116146100cd5780546001600160401b0319166001600160401b0390811782556040519081527fc7f505b2f371ae2175ee4913f4499e1f2633a7b5936321eed1cdaeb6115181d29060200160405180910390a15b50565b610e9d806100df6000396000f3fe6080604052600436106100565760003560e01c8063370158ea1461005f578063410085df1461009b578063485cc955146100bb5780638da5cb5b146100db578063a6339823146100fb578063e78f6cdf1461010e57005b3661005d57005b005b34801561006b57600080fd5b5060005461007f906001600160a01b031681565b6040516001600160a01b03909116815260200160405180910390f35b3480156100a757600080fd5b5061005d6100b6366004610c55565b610121565b3480156100c757600080fd5b5061005d6100d6366004610c81565b6101c0565b3480156100e757600080fd5b5060015461007f906001600160a01b031681565b61005d610109366004610cd0565b6102f8565b61005d61011c366004610cd0565b610622565b6001546001600160a01b0316336001600160a01b03161461015557604051631dd2188d60e31b815260040160405180910390fd5b6001600160a01b0382166101a2576001546040516001600160a01b039091169082156108fc029083906000818181858888f1935050505015801561019d573d6000803e3d6000fd5b505050565b6001546101bc906001600160a01b038481169116836108db565b5050565b7ff0c57e16840df040f15088dc2f81fe391c3923bec73e23a9662efc9c229c6a008054600160401b810460ff16159067ffffffffffffffff166000811580156102065750825b905060008267ffffffffffffffff1660011480156102235750303b155b905081158015610231575080155b1561024f5760405163f92ee8a960e01b815260040160405180910390fd5b845467ffffffffffffffff19166001178555831561027957845460ff60401b1916600160401b1785555b600080546001600160a01b03808a166001600160a01b031992831617909255600180549289169290911691909117905583156102ef57845460ff60401b19168555604051600181527fc7f505b2f371ae2175ee4913f4499e1f2633a7b5936321eed1cdaeb6115181d29060200160405180910390a15b50505050505050565b600080546001600160a01b0316637ae1cfca3360405160200161031b9190610d9d565b604051602081830303815290604052805190602001206040518263ffffffff1660e01b815260040161034f91815260200190565b602060405180830381865afa15801561036c573d6000803e3d6000fd5b505050506040513d601f19601f820116820180604052508101906103909190610de0565b9050806103b057604051631dd2188d60e31b815260040160405180910390fd5b600080546040516321f8a72160e01b81527fd004a9d5ce54174b0fabcf4602fab7fc4934251396849e4f23631ddf0c2cd2e460048201526001600160a01b03909116906321f8a72190602401602060405180830381865afa158015610419573d6000803e3d6000fd5b505050506040513d601f19601f8201168201806040525081019061043d9190610e02565b90506001600160a01b038116610466576040516331f0d02960e11b815260040160405180910390fd5b604051635ed004ff60e11b81526001600160a01b0386811660048301526000919083169063bda009fe90602401602060405180830381865afa1580156104b0573d6000803e3d6000fd5b505050506040513d601f19601f820116820180604052508101906104d49190610e02565b905060006001600160a01b03871661054c57826001600160a01b031686866040516104ff9190610e1f565b60006040518083038185875af1925050503d806000811461053c576040519150601f19603f3d011682016040523d82523d6000602084013e610541565b606091505b5050809150506105b8565b61055787838861092d565b826001600160a01b031634866040516105709190610e1f565b60006040518083038185875af1925050503d80600081146105ad576040519150601f19603f3d011682016040523d82523d6000602084013e6105b2565b606091505b50909150505b806105d6576040516379cacff160e01b815260040160405180910390fd5b866001600160a01b03167fe1fffcc4923d04b559f4d29a8bfc6cda04eb5b0d3c460751c2402c5c5cc9109c8760405161061191815260200190565b60405180910390a250505050505050565b600080546001600160a01b0316637ae1cfca336040516020016106459190610d9d565b604051602081830303815290604052805190602001206040518263ffffffff1660e01b815260040161067991815260200190565b602060405180830381865afa158015610696573d6000803e3d6000fd5b505050506040513d601f19601f820116820180604052508101906106ba9190610de0565b9050806106da57604051631dd2188d60e31b815260040160405180910390fd5b600080546040516321f8a72160e01b81527fb10041b7d5cddada48c8a5123a88cf1cb9d5f578c17614a24e7eeedd305cb42760048201526001600160a01b03909116906321f8a72190602401602060405180830381865afa158015610743573d6000803e3d6000fd5b505050506040513d601f19601f820116820180604052508101906107679190610e02565b90506001600160a01b038116610790576040516331f0d02960e11b815260040160405180910390fd5b60006001600160a01b03861661080657816001600160a01b031685856040516107b99190610e1f565b60006040518083038185875af1925050503d80600081146107f6576040519150601f19603f3d011682016040523d82523d6000602084013e6107fb565b606091505b505080915050610872565b61081186838761092d565b816001600160a01b0316348560405161082a9190610e1f565b60006040518083038185875af1925050503d8060008114610867576040519150601f19603f3d011682016040523d82523d6000602084013e61086c565b606091505b50909150505b80610890576040516379cacff160e01b815260040160405180910390fd5b856001600160a01b03167fe1fffcc4923d04b559f4d29a8bfc6cda04eb5b0d3c460751c2402c5c5cc9109c866040516108cb91815260200190565b60405180910390a2505050505050565b604080516001600160a01b038416602482015260448082018490528251808303909101815260649091019091526020810180516001600160e01b031663a9059cbb60e01b17905261019d908490610a9e565b604051636eb1769f60e11b81523060048201526001600160a01b0383811660248301526000919085169063dd62ed3e90604401602060405180830381865afa15801561097d573d6000803e3d6000fd5b505050506040513d601f19601f820116820180604052508101906109a19190610e4e565b90508181106109b05750505050565b60405163095ea7b360e01b81526001600160a01b0384811660048301526000602483015285169063095ea7b3906044016020604051808303816000875af11580156109ff573d6000803e3d6000fd5b505050506040513d601f19601f82011682018060405250810190610a239190610de0565b5060405163095ea7b360e01b81526001600160a01b0384811660048301526024820184905285169063095ea7b3906044016020604051808303816000875af1158015610a73573d6000803e3d6000fd5b505050506040513d601f19601f82011682018060405250810190610a979190610de0565b5050505050565b6000610ab36001600160a01b03841683610b06565b90508051600014158015610ad8575080806020019051810190610ad69190610de0565b155b1561019d57604051635274afe760e01b81526001600160a01b03841660048201526024015b60405180910390fd5b6060610b1483836000610b1b565b9392505050565b606081471015610b405760405163cd78605960e01b8152306004820152602401610afd565b600080856001600160a01b03168486604051610b5c9190610e1f565b60006040518083038185875af1925050503d8060008114610b99576040519150601f19603f3d011682016040523d82523d6000602084013e610b9e565b606091505b5091509150610bae868383610bb8565b9695505050505050565b606082610bcd57610bc882610c14565b610b14565b8151158015610be457506001600160a01b0384163b155b15610c0d57604051639996b31560e01b81526001600160a01b0385166004820152602401610afd565b5080610b14565b805115610c245780518082602001fd5b604051630a12f52160e11b815260040160405180910390fd5b50565b6001600160a01b0381168114610c3d57600080fd5b60008060408385031215610c6857600080fd5b8235610c7381610c40565b946020939093013593505050565b60008060408385031215610c9457600080fd5b8235610c9f81610c40565b91506020830135610caf81610c40565b809150509250929050565b634e487b7160e01b600052604160045260246000fd5b600080600060608486031215610ce557600080fd5b8335610cf081610c40565b925060208401359150604084013567ffffffffffffffff80821115610d1457600080fd5b818601915086601f830112610d2857600080fd5b813581811115610d3a57610d3a610cba565b604051601f8201601f19908116603f01168101908382118183101715610d6257610d62610cba565b81604052828152896020848701011115610d7b57600080fd5b8260208601602083013760006020848301015280955050505050509250925092565b7f45483a4272696467654d6964646c65776172653a4465706f7369746f723a0000815260609190911b6bffffffffffffffffffffffff1916601e82015260320190565b600060208284031215610df257600080fd5b81518015158114610b1457600080fd5b600060208284031215610e1457600080fd5b8151610b1481610c40565b6000825160005b81811015610e405760208186018101518583015201610e26565b506000920191825250919050565b600060208284031215610e6057600080fd5b505191905056fea26469706673582212203ecc61e9ec86caece18197377ec421a822f3e55d99473da7aa3c42f5c402c43764736f6c63430008140033",
  "linkReferences": {},
  "deployedLinkReferences": {}
}