{
  "_format": "hh-sol-artifact-1",
  "contractName": "BridgeMiddleware",
  "sourceName": "contracts/bridgeMiddleware/BridgeMiddleware.sol",
  "abi": [
    {
      "inputs": [],
      "stateMutability": "nonpayable",
      "type": "constructor"
    },
    {
      "inputs": [],
      "name": "BridgeNotFound",
      "type": "error"
    },
    {
      "inputs": [],
      "name": "DepositFailed",
      "type": "error"
    },
    {
      "inputs": [],
      "name": "Forbidden",
      "type": "error"
    },
    {
      "inputs": [],
      "name": "InvalidInitialization",
      "type": "error"
    },
    {
      "inputs": [],
      "name": "NotInitializing",
      "type": "error"
    },
    {
      "anonymous": false,
      "inputs": [
        {
          "indexed": true,
          "internalType": "address",
          "name": "token",
          "type": "address"
        },
        {
          "indexed": false,
          "internalType": "uint256",
          "name": "amount",
          "type": "uint256"
        }
      ],
      "name": "Deposit",
      "type": "event"
    },
    {
      "anonymous": false,
      "inputs": [
        {
          "indexed": false,
          "internalType": "uint64",
          "name": "version",
          "type": "uint64"
        }
      ],
      "name": "Initialized",
      "type": "event"
    },
    {
      "stateMutability": "payable",
      "type": "fallback"
    },
    {
      "inputs": [
        {
          "internalType": "bytes32",
          "name": "bridgeName",
          "type": "bytes32"
        },
        {
          "internalType": "address",
          "name": "token",
          "type": "address"
        },
        {
          "internalType": "uint256",
          "name": "amount",
          "type": "uint256"
        },
        {
          "internalType": "bytes",
          "name": "data",
          "type": "bytes"
        }
      ],
      "name": "deposit",
      "outputs": [],
      "stateMutability": "payable",
      "type": "function"
    },
    {
      "inputs": [],
      "name": "info",
      "outputs": [
        {
          "internalType": "address",
          "name": "",
          "type": "address"
        }
      ],
      "stateMutability": "view",
      "type": "function"
    },
    {
      "inputs": [
        {
          "internalType": "address",
          "name": "_info",
          "type": "address"
        },
        {
          "internalType": "address",
          "name": "_owner",
          "type": "address"
        }
      ],
      "name": "initialize",
      "outputs": [],
      "stateMutability": "nonpayable",
      "type": "function"
    },
    {
      "inputs": [],
      "name": "owner",
      "outputs": [
        {
          "internalType": "address",
          "name": "",
          "type": "address"
        }
      ],
      "stateMutability": "view",
      "type": "function"
    },
    {
      "stateMutability": "payable",
      "type": "receive"
    }
  ],
  "bytecode": "0x608060405234801561001057600080fd5b5061001961001e565b6100d0565b7ff0c57e16840df040f15088dc2f81fe391c3923bec73e23a9662efc9c229c6a00805468010000000000000000900460ff161561006e5760405163f92ee8a960e01b815260040160405180910390fd5b80546001600160401b03908116146100cd5780546001600160401b0319166001600160401b0390811782556040519081527fc7f505b2f371ae2175ee4913f4499e1f2633a7b5936321eed1cdaeb6115181d29060200160405180910390a15b50565b610855806100df6000396000f3fe6080604052600436106100405760003560e01c8063370158ea1461004957806338dbfa9b14610085578063485cc955146100985780638da5cb5b146100b857005b3661004757005b005b34801561005557600080fd5b50600054610069906001600160a01b031681565b6040516001600160a01b03909116815260200160405180910390f35b610047610093366004610681565b6100d8565b3480156100a457600080fd5b506100476100b3366004610758565b6103aa565b3480156100c457600080fd5b50600154610069906001600160a01b031681565b600080546040517f45483a4272696467654d6964646c65776172653a4465706f7369746f723a000060208201526bffffffffffffffffffffffff193360601b16603e8201526001600160a01b0390911690637ae1cfca90605201604051602081830303815290604052805190602001206040518263ffffffff1660e01b815260040161016691815260200190565b602060405180830381865afa158015610183573d6000803e3d6000fd5b505050506040513d601f19601f820116820180604052508101906101a79190610791565b9050806101c757604051631dd2188d60e31b815260040160405180910390fd5b600080546040516321f8a72160e01b8152600481018890526001600160a01b03909116906321f8a72190602401602060405180830381865afa158015610211573d6000803e3d6000fd5b505050506040513d601f19601f8201168201806040525081019061023591906107ba565b90506001600160a01b03811661025e576040516331f0d02960e11b815260040160405180910390fd5b60006001600160a01b0386166102d457816001600160a01b0316858560405161028791906107d7565b60006040518083038185875af1925050503d80600081146102c4576040519150601f19603f3d011682016040523d82523d6000602084013e6102c9565b606091505b505080915050610340565b6102df8683876104e2565b816001600160a01b031634856040516102f891906107d7565b60006040518083038185875af1925050503d8060008114610335576040519150601f19603f3d011682016040523d82523d6000602084013e61033a565b606091505b50909150505b8061035e576040516379cacff160e01b815260040160405180910390fd5b856001600160a01b03167fe1fffcc4923d04b559f4d29a8bfc6cda04eb5b0d3c460751c2402c5c5cc9109c8660405161039991815260200190565b60405180910390a250505050505050565b7ff0c57e16840df040f15088dc2f81fe391c3923bec73e23a9662efc9c229c6a008054600160401b810460ff16159067ffffffffffffffff166000811580156103f05750825b905060008267ffffffffffffffff16600114801561040d5750303b155b90508115801561041b575080155b156104395760405163f92ee8a960e01b815260040160405180910390fd5b845467ffffffffffffffff19166001178555831561046357845460ff60401b1916600160401b1785555b600080546001600160a01b03808a166001600160a01b031992831617909255600180549289169290911691909117905583156104d957845460ff60401b19168555604051600181527fc7f505b2f371ae2175ee4913f4499e1f2633a7b5936321eed1cdaeb6115181d29060200160405180910390a15b50505050505050565b604051636eb1769f60e11b81523060048201526001600160a01b0383811660248301526000919085169063dd62ed3e90604401602060405180830381865afa158015610532573d6000803e3d6000fd5b505050506040513d601f19601f820116820180604052508101906105569190610806565b90508181106105655750505050565b60405163095ea7b360e01b81526001600160a01b0384811660048301526000602483015285169063095ea7b3906044016020604051808303816000875af11580156105b4573d6000803e3d6000fd5b505050506040513d601f19601f820116820180604052508101906105d89190610791565b5060405163095ea7b360e01b81526001600160a01b0384811660048301526024820184905285169063095ea7b3906044016020604051808303816000875af1158015610628573d6000803e3d6000fd5b505050506040513d601f19601f8201168201806040525081019061064c9190610791565b5050505050565b6001600160a01b038116811461066857600080fd5b50565b634e487b7160e01b600052604160045260246000fd5b6000806000806080858703121561069757600080fd5b8435935060208501356106a981610653565b925060408501359150606085013567ffffffffffffffff808211156106cd57600080fd5b818701915087601f8301126106e157600080fd5b8135818111156106f3576106f361066b565b604051601f8201601f19908116603f0116810190838211818310171561071b5761071b61066b565b816040528281528a602084870101111561073457600080fd5b82602086016020830137600060208483010152809550505050505092959194509250565b6000806040838503121561076b57600080fd5b823561077681610653565b9150602083013561078681610653565b809150509250929050565b6000602082840312156107a357600080fd5b815180151581146107b357600080fd5b9392505050565b6000602082840312156107cc57600080fd5b81516107b381610653565b6000825160005b818110156107f857602081860181015185830152016107de565b506000920191825250919050565b60006020828403121561081857600080fd5b505191905056fea264697066735822122066d936a3728a38ba700b48dc8790ee5019887b99dbb0b24c42c1b6c9853a745c64736f6c63430008140033",
  "linkReferences": {},
  "deployedLinkReferences": {}
}