{
  "_format": "hh-sol-artifact-1",
  "contractName": "BridgeMiddleware",
  "sourceName": "contracts/bridgeMiddleware/BridgeMiddleware.sol",
  "abi": [
    {
      "inputs": [],
      "stateMutability": "nonpayable",
      "type": "constructor"
    },
    {
      "inputs": [
        {
          "internalType": "address",
          "name": "target",
          "type": "address"
        }
      ],
      "name": "AddressEmptyCode",
      "type": "error"
    },
    {
      "inputs": [
        {
          "internalType": "address",
          "name": "account",
          "type": "address"
        }
      ],
      "name": "AddressInsufficientBalance",
      "type": "error"
    },
    {
      "inputs": [],
      "name": "BridgeNotFound",
      "type": "error"
    },
    {
      "inputs": [],
      "name": "DepositFailed",
      "type": "error"
    },
    {
      "inputs": [],
      "name": "EnforcedPause",
      "type": "error"
    },
    {
      "inputs": [],
      "name": "ExpectedPause",
      "type": "error"
    },
    {
      "inputs": [],
      "name": "FailedInnerCall",
      "type": "error"
    },
    {
      "inputs": [],
      "name": "Forbidden",
      "type": "error"
    },
    {
      "inputs": [],
      "name": "InvalidInitialization",
      "type": "error"
    },
    {
      "inputs": [],
      "name": "NotInitializing",
      "type": "error"
    },
    {
      "inputs": [
        {
          "internalType": "address",
          "name": "token",
          "type": "address"
        }
      ],
      "name": "SafeERC20FailedOperation",
      "type": "error"
    },
    {
      "anonymous": false,
      "inputs": [
        {
          "indexed": true,
          "internalType": "address",
          "name": "token",
          "type": "address"
        },
        {
          "indexed": false,
          "internalType": "uint256",
          "name": "amount",
          "type": "uint256"
        }
      ],
      "name": "Deposit",
      "type": "event"
    },
    {
      "anonymous": false,
      "inputs": [
        {
          "indexed": false,
          "internalType": "uint64",
          "name": "version",
          "type": "uint64"
        }
      ],
      "name": "Initialized",
      "type": "event"
    },
    {
      "anonymous": false,
      "inputs": [
        {
          "indexed": false,
          "internalType": "address",
          "name": "account",
          "type": "address"
        }
      ],
      "name": "Paused",
      "type": "event"
    },
    {
      "anonymous": false,
      "inputs": [
        {
          "indexed": true,
          "internalType": "address",
          "name": "token",
          "type": "address"
        },
        {
          "indexed": false,
          "internalType": "uint256",
          "name": "amount",
          "type": "uint256"
        }
      ],
      "name": "Refund",
      "type": "event"
    },
    {
      "anonymous": false,
      "inputs": [
        {
          "indexed": false,
          "internalType": "address",
          "name": "account",
          "type": "address"
        }
      ],
      "name": "Unpaused",
      "type": "event"
    },
    {
      "stateMutability": "payable",
      "type": "fallback"
    },
    {
      "inputs": [
        {
          "internalType": "address",
          "name": "token",
          "type": "address"
        },
        {
          "internalType": "uint256",
          "name": "amount",
          "type": "uint256"
        },
        {
          "internalType": "bytes",
          "name": "data",
          "type": "bytes"
        }
      ],
      "name": "depositAcross",
      "outputs": [],
      "stateMutability": "payable",
      "type": "function"
    },
    {
      "inputs": [
        {
          "internalType": "address",
          "name": "token",
          "type": "address"
        },
        {
          "internalType": "uint256",
          "name": "amount",
          "type": "uint256"
        },
        {
          "internalType": "bytes",
          "name": "data",
          "type": "bytes"
        }
      ],
      "name": "depositDefault",
      "outputs": [],
      "stateMutability": "payable",
      "type": "function"
    },
    {
      "inputs": [
        {
          "internalType": "address",
          "name": "token",
          "type": "address"
        },
        {
          "internalType": "uint256",
          "name": "amount",
          "type": "uint256"
        }
      ],
      "name": "emergencyRefund",
      "outputs": [],
      "stateMutability": "nonpayable",
      "type": "function"
    },
    {
      "inputs": [],
      "name": "info",
      "outputs": [
        {
          "internalType": "address",
          "name": "",
          "type": "address"
        }
      ],
      "stateMutability": "view",
      "type": "function"
    },
    {
      "inputs": [
        {
          "internalType": "address",
          "name": "_info",
          "type": "address"
        },
        {
          "internalType": "address",
          "name": "_owner",
          "type": "address"
        }
      ],
      "name": "initialize",
      "outputs": [],
      "stateMutability": "nonpayable",
      "type": "function"
    },
    {
      "inputs": [],
      "name": "owner",
      "outputs": [
        {
          "internalType": "address",
          "name": "",
          "type": "address"
        }
      ],
      "stateMutability": "view",
      "type": "function"
    },
    {
      "inputs": [],
      "name": "pause",
      "outputs": [],
      "stateMutability": "nonpayable",
      "type": "function"
    },
    {
      "inputs": [],
      "name": "paused",
      "outputs": [
        {
          "internalType": "bool",
          "name": "",
          "type": "bool"
        }
      ],
      "stateMutability": "view",
      "type": "function"
    },
    {
      "inputs": [
        {
          "internalType": "address",
          "name": "token",
          "type": "address"
        },
        {
          "internalType": "uint256",
          "name": "amount",
          "type": "uint256"
        }
      ],
      "name": "refund",
      "outputs": [],
      "stateMutability": "nonpayable",
      "type": "function"
    },
    {
      "inputs": [],
      "name": "unpause",
      "outputs": [],
      "stateMutability": "nonpayable",
      "type": "function"
    },
    {
      "stateMutability": "payable",
      "type": "receive"
    }
  ],
  "bytecode": "0x608060405234801561001057600080fd5b506000805460ff19169055610023610028565b6100da565b7ff0c57e16840df040f15088dc2f81fe391c3923bec73e23a9662efc9c229c6a00805468010000000000000000900460ff16156100785760405163f92ee8a960e01b815260040160405180910390fd5b80546001600160401b03908116146100d75780546001600160401b0319166001600160401b0390811782556040519081527fc7f505b2f371ae2175ee4913f4499e1f2633a7b5936321eed1cdaeb6115181d29060200160405180910390a15b50565b611425806100e96000396000f3fe60806040526004361061008f5760003560e01c806367f8a8b81161005657806367f8a8b8146101525780638456cb59146101725780638da5cb5b14610187578063a6339823146101a7578063e78f6cdf146101ba57005b8063370158ea146100985780633f4ba83a146100da578063410085df146100ef578063485cc9551461010f5780635c975abb1461012f57005b3661009657005b005b3480156100a457600080fd5b506000546100bd9061010090046001600160a01b031681565b6040516001600160a01b0390911681526020015b60405180910390f35b3480156100e657600080fd5b506100966101cd565b3480156100fb57600080fd5b5061009661010a3660046111d8565b6102cc565b34801561011b57600080fd5b5061009661012a366004611204565b610312565b34801561013b57600080fd5b5060005460ff1660405190151581526020016100d1565b34801561015e57600080fd5b5061009661016d3660046111d8565b610459565b34801561017e57600080fd5b50610096610564565b34801561019357600080fd5b506001546100bd906001600160a01b031681565b6100966101b5366004611253565b61065f565b6100966101c8366004611253565b6109d1565b60408051808201909152601c81527f45483a4272696467654d6964646c65776172653a4f6666696365723a0000000060208201526000805461010090046001600160a01b0316637ae1cfca833360405160200161022b929190611344565b604051602081830303815290604052805190602001206040518263ffffffff1660e01b815260040161025f91815260200190565b602060405180830381865afa15801561027c573d6000803e3d6000fd5b505050506040513d601f19601f820116820180604052508101906102a0919061137b565b9050806102c057604051631dd2188d60e31b815260040160405180910390fd5b6102c8610cd2565b5050565b6102d4610d24565b6001546001600160a01b0316336001600160a01b03161461030857604051631dd2188d60e31b815260040160405180910390fd5b6102c88282610d4a565b7ff0c57e16840df040f15088dc2f81fe391c3923bec73e23a9662efc9c229c6a008054600160401b810460ff16159067ffffffffffffffff166000811580156103585750825b905060008267ffffffffffffffff1660011480156103755750303b155b905081158015610383575080155b156103a15760405163f92ee8a960e01b815260040160405180910390fd5b845467ffffffffffffffff1916600117855583156103cb57845460ff60401b1916600160401b1785555b60008054610100600160a81b0319166101006001600160a01b038a81169190910291909117909155600180546001600160a01b031916918816919091179055831561045057845460ff60401b19168555604051600181527fc7f505b2f371ae2175ee4913f4499e1f2633a7b5936321eed1cdaeb6115181d29060200160405180910390a15b50505050505050565b60408051808201909152601c81527f45483a4272696467654d6964646c65776172653a4f6666696365723a0000000060208201526000805461010090046001600160a01b0316637ae1cfca83336040516020016104b7929190611344565b604051602081830303815290604052805190602001206040518263ffffffff1660e01b81526004016104eb91815260200190565b602060405180830381865afa158015610508573d6000803e3d6000fd5b505050506040513d601f19601f8201168201806040525081019061052c919061137b565b90508061054c57604051631dd2188d60e31b815260040160405180910390fd5b610554610df9565b61055e8484610d4a565b50505050565b60408051808201909152601c81527f45483a4272696467654d6964646c65776172653a4f6666696365723a0000000060208201526000805461010090046001600160a01b0316637ae1cfca83336040516020016105c2929190611344565b604051602081830303815290604052805190602001206040518263ffffffff1660e01b81526004016105f691815260200190565b602060405180830381865afa158015610613573d6000803e3d6000fd5b505050506040513d601f19601f82011682018060405250810190610637919061137b565b90508061065757604051631dd2188d60e31b815260040160405180910390fd5b6102c8610e1c565b60408051808201909152601e81527f45483a4272696467654d6964646c65776172653a4465706f7369746f723a000060208201526000805461010090046001600160a01b0316637ae1cfca83336040516020016106bd929190611344565b604051602081830303815290604052805190602001206040518263ffffffff1660e01b81526004016106f191815260200190565b602060405180830381865afa15801561070e573d6000803e3d6000fd5b505050506040513d601f19601f82011682018060405250810190610732919061137b565b90508061075257604051631dd2188d60e31b815260040160405180910390fd5b61075a610d24565b600080546040516321f8a72160e01b81527fd004a9d5ce54174b0fabcf4602fab7fc4934251396849e4f23631ddf0c2cd2e460048201526101009091046001600160a01b0316906321f8a72190602401602060405180830381865afa1580156107c7573d6000803e3d6000fd5b505050506040513d601f19601f820116820180604052508101906107eb919061139d565b90506001600160a01b038116610814576040516331f0d02960e11b815260040160405180910390fd5b604051635ed004ff60e11b81526001600160a01b0387811660048301526000919083169063bda009fe90602401602060405180830381865afa15801561085e573d6000803e3d6000fd5b505050506040513d601f19601f82011682018060405250810190610882919061139d565b905060006001600160a01b0388166108fa57826001600160a01b031687876040516108ad91906113ba565b60006040518083038185875af1925050503d80600081146108ea576040519150601f19603f3d011682016040523d82523d6000602084013e6108ef565b606091505b505080915050610966565b610905888389610e59565b826001600160a01b0316348760405161091e91906113ba565b60006040518083038185875af1925050503d806000811461095b576040519150601f19603f3d011682016040523d82523d6000602084013e610960565b606091505b50909150505b80610984576040516379cacff160e01b815260040160405180910390fd5b876001600160a01b03167fe1fffcc4923d04b559f4d29a8bfc6cda04eb5b0d3c460751c2402c5c5cc9109c886040516109bf91815260200190565b60405180910390a25050505050505050565b60408051808201909152601e81527f45483a4272696467654d6964646c65776172653a4465706f7369746f723a000060208201526000805461010090046001600160a01b0316637ae1cfca8333604051602001610a2f929190611344565b604051602081830303815290604052805190602001206040518263ffffffff1660e01b8152600401610a6391815260200190565b602060405180830381865afa158015610a80573d6000803e3d6000fd5b505050506040513d601f19601f82011682018060405250810190610aa4919061137b565b905080610ac457604051631dd2188d60e31b815260040160405180910390fd5b610acc610d24565b600080546040516321f8a72160e01b81527fb10041b7d5cddada48c8a5123a88cf1cb9d5f578c17614a24e7eeedd305cb42760048201526101009091046001600160a01b0316906321f8a72190602401602060405180830381865afa158015610b39573d6000803e3d6000fd5b505050506040513d601f19601f82011682018060405250810190610b5d919061139d565b90506001600160a01b038116610b86576040516331f0d02960e11b815260040160405180910390fd5b60006001600160a01b038716610bfc57816001600160a01b03168686604051610baf91906113ba565b60006040518083038185875af1925050503d8060008114610bec576040519150601f19603f3d011682016040523d82523d6000602084013e610bf1565b606091505b505080915050610c68565b610c07878388610e59565b816001600160a01b03163486604051610c2091906113ba565b60006040518083038185875af1925050503d8060008114610c5d576040519150601f19603f3d011682016040523d82523d6000602084013e610c62565b606091505b50909150505b80610c86576040516379cacff160e01b815260040160405180910390fd5b866001600160a01b03167fe1fffcc4923d04b559f4d29a8bfc6cda04eb5b0d3c460751c2402c5c5cc9109c87604051610cc191815260200190565b60405180910390a250505050505050565b610cda610df9565b6000805460ff191690557f5db9ee0a495bf2e6ff9c91a7834c1ba4fdd244a5e8aa4e537bd38aeae4b073aa335b6040516001600160a01b03909116815260200160405180910390a1565b60005460ff1615610d485760405163d93c066560e01b815260040160405180910390fd5b565b6001600160a01b038216610d98576001546040516001600160a01b039091169082156108fc029083906000818181858888f19350505050158015610d92573d6000803e3d6000fd5b50610db2565b600154610db2906001600160a01b03848116911683610fca565b816001600160a01b03167fbb28353e4598c3b9199101a66e0989549b659a59a54d2c27fbb183f1932c8e6d82604051610ded91815260200190565b60405180910390a25050565b60005460ff16610d4857604051638dfc202b60e01b815260040160405180910390fd5b610e24610d24565b6000805460ff191660011790557f62e78cea01bee320cd4e420270b5ea74000d11b0c9f74754ebdbfc544b05a258610d073390565b604051636eb1769f60e11b81523060048201526001600160a01b0383811660248301526000919085169063dd62ed3e90604401602060405180830381865afa158015610ea9573d6000803e3d6000fd5b505050506040513d601f19601f82011682018060405250810190610ecd91906113d6565b9050818110610edc5750505050565b60405163095ea7b360e01b81526001600160a01b0384811660048301526000602483015285169063095ea7b3906044016020604051808303816000875af1158015610f2b573d6000803e3d6000fd5b505050506040513d601f19601f82011682018060405250810190610f4f919061137b565b5060405163095ea7b360e01b81526001600160a01b0384811660048301526024820184905285169063095ea7b3906044016020604051808303816000875af1158015610f9f573d6000803e3d6000fd5b505050506040513d601f19601f82011682018060405250810190610fc3919061137b565b5050505050565b604080516001600160a01b038416602482015260448082018490528251808303909101815260649091019091526020810180516001600160e01b031663a9059cbb60e01b17905261101c908490611021565b505050565b60006110366001600160a01b03841683611089565b9050805160001415801561105b575080806020019051810190611059919061137b565b155b1561101c57604051635274afe760e01b81526001600160a01b03841660048201526024015b60405180910390fd5b60606110978383600061109e565b9392505050565b6060814710156110c35760405163cd78605960e01b8152306004820152602401611080565b600080856001600160a01b031684866040516110df91906113ba565b60006040518083038185875af1925050503d806000811461111c576040519150601f19603f3d011682016040523d82523d6000602084013e611121565b606091505b509150915061113186838361113b565b9695505050505050565b6060826111505761114b82611197565b611097565b815115801561116757506001600160a01b0384163b155b1561119057604051639996b31560e01b81526001600160a01b0385166004820152602401611080565b5080611097565b8051156111a75780518082602001fd5b604051630a12f52160e11b815260040160405180910390fd5b50565b6001600160a01b03811681146111c057600080fd5b600080604083850312156111eb57600080fd5b82356111f6816111c3565b946020939093013593505050565b6000806040838503121561121757600080fd5b8235611222816111c3565b91506020830135611232816111c3565b809150509250929050565b634e487b7160e01b600052604160045260246000fd5b60008060006060848603121561126857600080fd5b8335611273816111c3565b925060208401359150604084013567ffffffffffffffff8082111561129757600080fd5b818601915086601f8301126112ab57600080fd5b8135818111156112bd576112bd61123d565b604051601f8201601f19908116603f011681019083821181831017156112e5576112e561123d565b816040528281528960208487010111156112fe57600080fd5b8260208601602083013760006020848301015280955050505050509250925092565b60005b8381101561133b578181015183820152602001611323565b50506000910152565b60008351611356818460208801611320565b60609390931b6bffffffffffffffffffffffff19169190920190815260140192915050565b60006020828403121561138d57600080fd5b8151801515811461109757600080fd5b6000602082840312156113af57600080fd5b8151611097816111c3565b600082516113cc818460208701611320565b9190910192915050565b6000602082840312156113e857600080fd5b505191905056fea26469706673582212204f98f42a1002d1ac25ddd0a6dd3f3dcfff8198751153f65ae0ed0ae0d2945a9a64736f6c63430008140033",
  "linkReferences": {},
  "deployedLinkReferences": {}
}